{
	"contracts/WeirdReddit.sol": {
		"WeirdReddit": {
			"abi": [
				{
					"inputs": [
						{
							"internalType": "string",
							"name": "id",
							"type": "string"
						},
						{
							"internalType": "string",
							"name": "newSubredditName",
							"type": "string"
						}
					],
					"name": "changeSubreddit",
					"outputs": [],
					"stateMutability": "nonpayable",
					"type": "function"
				},
				{
					"inputs": [
						{
							"internalType": "string",
							"name": "id",
							"type": "string"
						},
						{
							"internalType": "string",
							"name": "subredditName",
							"type": "string"
						},
						{
							"internalType": "string",
							"name": "postTitle",
							"type": "string"
						},
						{
							"internalType": "string",
							"name": "postContent",
							"type": "string"
						}
					],
					"name": "createPost",
					"outputs": [],
					"stateMutability": "nonpayable",
					"type": "function"
				},
				{
					"inputs": [
						{
							"internalType": "string",
							"name": "subredditName",
							"type": "string"
						}
					],
					"name": "createSubreddit",
					"outputs": [],
					"stateMutability": "nonpayable",
					"type": "function"
				},
				{
					"inputs": [
						{
							"internalType": "string",
							"name": "id",
							"type": "string"
						}
					],
					"name": "getPost",
					"outputs": [
						{
							"components": [
								{
									"internalType": "string",
									"name": "id",
									"type": "string"
								},
								{
									"internalType": "string",
									"name": "subredditName",
									"type": "string"
								},
								{
									"internalType": "string",
									"name": "title",
									"type": "string"
								},
								{
									"internalType": "string",
									"name": "content",
									"type": "string"
								}
							],
							"internalType": "struct WeirdReddit.Post",
							"name": "",
							"type": "tuple"
						}
					],
					"stateMutability": "view",
					"type": "function"
				},
				{
					"inputs": [],
					"name": "getPosts",
					"outputs": [
						{
							"components": [
								{
									"internalType": "string",
									"name": "id",
									"type": "string"
								},
								{
									"internalType": "string",
									"name": "subredditName",
									"type": "string"
								},
								{
									"internalType": "string",
									"name": "title",
									"type": "string"
								},
								{
									"internalType": "string",
									"name": "content",
									"type": "string"
								}
							],
							"internalType": "struct WeirdReddit.Post[]",
							"name": "",
							"type": "tuple[]"
						}
					],
					"stateMutability": "view",
					"type": "function"
				},
				{
					"inputs": [
						{
							"internalType": "string",
							"name": "subredditName",
							"type": "string"
						}
					],
					"name": "getPostsInSubreddit",
					"outputs": [
						{
							"components": [
								{
									"internalType": "string",
									"name": "id",
									"type": "string"
								},
								{
									"internalType": "string",
									"name": "subredditName",
									"type": "string"
								},
								{
									"internalType": "string",
									"name": "title",
									"type": "string"
								},
								{
									"internalType": "string",
									"name": "content",
									"type": "string"
								}
							],
							"internalType": "struct WeirdReddit.Post[]",
							"name": "",
							"type": "tuple[]"
						}
					],
					"stateMutability": "view",
					"type": "function"
				},
				{
					"inputs": [],
					"name": "getSubreddits",
					"outputs": [
						{
							"components": [
								{
									"internalType": "string",
									"name": "subredditName",
									"type": "string"
								}
							],
							"internalType": "struct WeirdReddit.Subreddit[]",
							"name": "",
							"type": "tuple[]"
						}
					],
					"stateMutability": "view",
					"type": "function"
				},
				{
					"inputs": [
						{
							"internalType": "string",
							"name": "id",
							"type": "string"
						},
						{
							"internalType": "string",
							"name": "newPostTitle",
							"type": "string"
						},
						{
							"internalType": "string",
							"name": "newPostContent",
							"type": "string"
						}
					],
					"name": "modifyPost",
					"outputs": [],
					"stateMutability": "nonpayable",
					"type": "function"
				}
			],
			"devdoc": {
				"custom:dev-run-script": "./scripts/deploy_with_ethers.ts",
				"details": "Write and view posts on WeirdReddit",
				"kind": "dev",
				"methods": {
					"changeSubreddit(string,string)": {
						"details": "Changes the subreddit of post with given ID"
					},
					"createPost(string,string,string,string)": {
						"details": "Create a post",
						"params": {
							"subredditName": "Name of the new subreddit"
						}
					},
					"createSubreddit(string)": {
						"details": "Create a subreddit",
						"params": {
							"subredditName": "Name of the new subreddit"
						}
					},
					"getPost(string)": {
						"details": "Return posts with given ID",
						"returns": {
							"_0": "Values of all posts in a subreddit"
						}
					},
					"getPosts()": {
						"details": "Return all posts",
						"returns": {
							"_0": "Values of all posts"
						}
					},
					"getPostsInSubreddit(string)": {
						"details": "Return all posts in a subreddit",
						"returns": {
							"_0": "Values of all posts in a subreddit"
						}
					},
					"getSubreddits()": {
						"details": "Return the values of all subreddits ",
						"returns": {
							"_0": "Values of all subreddits"
						}
					},
					"modifyPost(string,string,string)": {
						"details": "Modify post with given ID"
					}
				},
				"title": "WeirdReddit",
				"version": 1
			},
			"evm": {
				"assembly": "    /* \"contracts/WeirdReddit.sol\":202:4843  contract WeirdReddit {... */\n  mstore(0x40, 0x80)\n  callvalue\n  dup1\n  iszero\n  tag_1\n  jumpi\n  0x00\n  dup1\n  revert\ntag_1:\n  pop\n  dataSize(sub_0)\n  dup1\n  dataOffset(sub_0)\n  0x00\n  codecopy\n  0x00\n  return\nstop\n\nsub_0: assembly {\n        /* \"contracts/WeirdReddit.sol\":202:4843  contract WeirdReddit {... */\n      mstore(0x40, 0x80)\n      callvalue\n      dup1\n      iszero\n      tag_1\n      jumpi\n      0x00\n      dup1\n      revert\n    tag_1:\n      pop\n      jumpi(tag_2, lt(calldatasize, 0x04))\n      shr(0xe0, calldataload(0x00))\n      dup1\n      0x9cb4bcb4\n      gt\n      tag_11\n      jumpi\n      dup1\n      0x9cb4bcb4\n      eq\n      tag_7\n      jumpi\n      dup1\n      0xdf4a259b\n      eq\n      tag_8\n      jumpi\n      dup1\n      0xef3172af\n      eq\n      tag_9\n      jumpi\n      dup1\n      0xfd0d81b9\n      eq\n      tag_10\n      jumpi\n      jump(tag_2)\n    tag_11:\n      dup1\n      0x0d57f91f\n      eq\n      tag_3\n      jumpi\n      dup1\n      0x36c15e3a\n      eq\n      tag_4\n      jumpi\n      dup1\n      0x41f3004a\n      eq\n      tag_5\n      jumpi\n      dup1\n      0x76da2b9d\n      eq\n      tag_6\n      jumpi\n    tag_2:\n      0x00\n      dup1\n      revert\n        /* \"contracts/WeirdReddit.sol\":1717:2103  function createPost(string memory id, string memory subredditName, string memory postTitle, string memory postContent) public {... */\n    tag_3:\n      tag_12\n      0x04\n      dup1\n      calldatasize\n      sub\n      dup2\n      add\n      swap1\n      tag_13\n      swap2\n      swap1\n      tag_14\n      jump\t// in\n    tag_13:\n      tag_15\n      jump\t// in\n    tag_12:\n      stop\n        /* \"contracts/WeirdReddit.sol\":742:1003  function createSubreddit(string memory subredditName) public {... */\n    tag_4:\n      tag_16\n      0x04\n      dup1\n      calldatasize\n      sub\n      dup2\n      add\n      swap1\n      tag_17\n      swap2\n      swap1\n      tag_18\n      jump\t// in\n    tag_17:\n      tag_19\n      jump\t// in\n    tag_16:\n      stop\n        /* \"contracts/WeirdReddit.sol\":2783:2868  function getPosts() public view returns (Post[] memory) {... */\n    tag_5:\n      tag_20\n      tag_21\n      jump\t// in\n    tag_20:\n      mload(0x40)\n      tag_22\n      swap2\n      swap1\n      tag_23\n      jump\t// in\n    tag_22:\n      mload(0x40)\n      dup1\n      swap2\n      sub\n      swap1\n      return\n        /* \"contracts/WeirdReddit.sol\":4493:4841  function changeSubreddit(string memory id, string memory newSubredditName) public {... */\n    tag_6:\n      tag_24\n      0x04\n      dup1\n      calldatasize\n      sub\n      dup2\n      add\n      swap1\n      tag_25\n      swap2\n      swap1\n      tag_26\n      jump\t// in\n    tag_25:\n      tag_27\n      jump\t// in\n    tag_24:\n      stop\n        /* \"contracts/WeirdReddit.sol\":4089:4415  function modifyPost(string memory id, string memory newPostTitle, string memory newPostContent) public {... */\n    tag_7:\n      tag_28\n      0x04\n      dup1\n      calldatasize\n      sub\n      dup2\n      add\n      swap1\n      tag_29\n      swap2\n      swap1\n      tag_30\n      jump\t// in\n    tag_29:\n      tag_31\n      jump\t// in\n    tag_28:\n      stop\n        /* \"contracts/WeirdReddit.sol\":3808:4029  function getPost(string memory id) public view returns (Post memory) {... */\n    tag_8:\n      tag_32\n      0x04\n      dup1\n      calldatasize\n      sub\n      dup2\n      add\n      swap1\n      tag_33\n      swap2\n      swap1\n      tag_18\n      jump\t// in\n    tag_33:\n      tag_34\n      jump\t// in\n    tag_32:\n      mload(0x40)\n      tag_35\n      swap2\n      swap1\n      tag_36\n      jump\t// in\n    tag_35:\n      mload(0x40)\n      dup1\n      swap2\n      sub\n      swap1\n      return\n        /* \"contracts/WeirdReddit.sol\":2984:3697  function getPostsInSubreddit(string memory subredditName) public view returns (Post[] memory) {... */\n    tag_9:\n      tag_37\n      0x04\n      dup1\n      calldatasize\n      sub\n      dup2\n      add\n      swap1\n      tag_38\n      swap2\n      swap1\n      tag_18\n      jump\t// in\n    tag_38:\n      tag_39\n      jump\t// in\n    tag_37:\n      mload(0x40)\n      tag_40\n      swap2\n      swap1\n      tag_23\n      jump\t// in\n    tag_40:\n      mload(0x40)\n      dup1\n      swap2\n      sub\n      swap1\n      return\n        /* \"contracts/WeirdReddit.sol\":1515:1615  function getSubreddits() public view returns (Subreddit[] memory) {... */\n    tag_10:\n      tag_41\n      tag_42\n      jump\t// in\n    tag_41:\n      mload(0x40)\n      tag_43\n      swap2\n      swap1\n      tag_44\n      jump\t// in\n    tag_43:\n      mload(0x40)\n      dup1\n      swap2\n      sub\n      swap1\n      return\n        /* \"contracts/WeirdReddit.sol\":1717:2103  function createPost(string memory id, string memory subredditName, string memory postTitle, string memory postContent) public {... */\n    tag_15:\n        /* \"contracts/WeirdReddit.sol\":1862:1876  verifyPost(id) */\n      tag_46\n        /* \"contracts/WeirdReddit.sol\":1873:1875  id */\n      dup5\n        /* \"contracts/WeirdReddit.sol\":1862:1872  verifyPost */\n      tag_47\n        /* \"contracts/WeirdReddit.sol\":1862:1876  verifyPost(id) */\n      jump\t// in\n    tag_46:\n        /* \"contracts/WeirdReddit.sol\":1861:1876  !verifyPost(id) */\n      iszero\n        /* \"contracts/WeirdReddit.sol\":1853:1909  require(!verifyPost(id), \"Post with ID already exists.\") */\n      tag_48\n      jumpi\n      mload(0x40)\n      0x08c379a000000000000000000000000000000000000000000000000000000000\n      dup2\n      mstore\n      0x04\n      add\n      tag_49\n      swap1\n      tag_50\n      jump\t// in\n    tag_49:\n      mload(0x40)\n      dup1\n      swap2\n      sub\n      swap1\n      revert\n    tag_48:\n        /* \"contracts/WeirdReddit.sol\":1927:1957  verifySubreddit(subredditName) */\n      tag_51\n        /* \"contracts/WeirdReddit.sol\":1943:1956  subredditName */\n      dup4\n        /* \"contracts/WeirdReddit.sol\":1927:1942  verifySubreddit */\n      tag_52\n        /* \"contracts/WeirdReddit.sol\":1927:1957  verifySubreddit(subredditName) */\n      jump\t// in\n    tag_51:\n        /* \"contracts/WeirdReddit.sol\":1919:1987  require(verifySubreddit(subredditName), \"Subreddit does not exist.\") */\n      tag_53\n      jumpi\n      mload(0x40)\n      0x08c379a000000000000000000000000000000000000000000000000000000000\n      dup2\n      mstore\n      0x04\n      add\n      tag_54\n      swap1\n      tag_55\n      jump\t// in\n    tag_54:\n      mload(0x40)\n      dup1\n      swap2\n      sub\n      swap1\n      revert\n    tag_53:\n        /* \"contracts/WeirdReddit.sol\":1998:2017  Post memory newPost */\n      0x00\n        /* \"contracts/WeirdReddit.sol\":2020:2067  Post(id, subredditName, postTitle, postContent) */\n      mload(0x40)\n      dup1\n      0x80\n      add\n      0x40\n      mstore\n      dup1\n        /* \"contracts/WeirdReddit.sol\":2025:2027  id */\n      dup7\n        /* \"contracts/WeirdReddit.sol\":2020:2067  Post(id, subredditName, postTitle, postContent) */\n      dup2\n      mstore\n      0x20\n      add\n        /* \"contracts/WeirdReddit.sol\":2029:2042  subredditName */\n      dup6\n        /* \"contracts/WeirdReddit.sol\":2020:2067  Post(id, subredditName, postTitle, postContent) */\n      dup2\n      mstore\n      0x20\n      add\n        /* \"contracts/WeirdReddit.sol\":2044:2053  postTitle */\n      dup5\n        /* \"contracts/WeirdReddit.sol\":2020:2067  Post(id, subredditName, postTitle, postContent) */\n      dup2\n      mstore\n      0x20\n      add\n        /* \"contracts/WeirdReddit.sol\":2055:2066  postContent */\n      dup4\n        /* \"contracts/WeirdReddit.sol\":2020:2067  Post(id, subredditName, postTitle, postContent) */\n      dup2\n      mstore\n      pop\n        /* \"contracts/WeirdReddit.sol\":1998:2067  Post memory newPost = Post(id, subredditName, postTitle, postContent) */\n      swap1\n      pop\n        /* \"contracts/WeirdReddit.sol\":2077:2082  posts */\n      0x01\n        /* \"contracts/WeirdReddit.sol\":2088:2095  newPost */\n      dup2\n        /* \"contracts/WeirdReddit.sol\":2077:2096  posts.push(newPost) */\n      swap1\n      dup1\n      0x01\n      dup2\n      sload\n      add\n      dup1\n      dup3\n      sstore\n      dup1\n      swap2\n      pop\n      pop\n      0x01\n      swap1\n      sub\n      swap1\n      0x00\n      mstore\n      keccak256(0x00, 0x20)\n      swap1\n      0x04\n      mul\n      add\n      0x00\n      swap1\n      swap2\n      swap1\n      swap2\n      swap1\n      swap2\n      pop\n      0x00\n      dup3\n      add\n      mload\n      dup2\n      0x00\n      add\n      swap1\n      dup2\n      tag_57\n      swap2\n      swap1\n      tag_58\n      jump\t// in\n    tag_57:\n      pop\n      0x20\n      dup3\n      add\n      mload\n      dup2\n      0x01\n      add\n      swap1\n      dup2\n      tag_59\n      swap2\n      swap1\n      tag_58\n      jump\t// in\n    tag_59:\n      pop\n      0x40\n      dup3\n      add\n      mload\n      dup2\n      0x02\n      add\n      swap1\n      dup2\n      tag_60\n      swap2\n      swap1\n      tag_58\n      jump\t// in\n    tag_60:\n      pop\n      0x60\n      dup3\n      add\n      mload\n      dup2\n      0x03\n      add\n      swap1\n      dup2\n      tag_61\n      swap2\n      swap1\n      tag_58\n      jump\t// in\n    tag_61:\n      pop\n      pop\n      pop\n        /* \"contracts/WeirdReddit.sol\":1843:2103  {... */\n      pop\n        /* \"contracts/WeirdReddit.sol\":1717:2103  function createPost(string memory id, string memory subredditName, string memory postTitle, string memory postContent) public {... */\n      pop\n      pop\n      pop\n      pop\n      jump\t// out\n        /* \"contracts/WeirdReddit.sol\":742:1003  function createSubreddit(string memory subredditName) public {... */\n    tag_19:\n        /* \"contracts/WeirdReddit.sol\":822:852  verifySubreddit(subredditName) */\n      tag_63\n        /* \"contracts/WeirdReddit.sol\":838:851  subredditName */\n      dup2\n        /* \"contracts/WeirdReddit.sol\":822:837  verifySubreddit */\n      tag_52\n        /* \"contracts/WeirdReddit.sol\":822:852  verifySubreddit(subredditName) */\n      jump\t// in\n    tag_63:\n        /* \"contracts/WeirdReddit.sol\":821:852  !verifySubreddit(subredditName) */\n      iszero\n        /* \"contracts/WeirdReddit.sol\":813:882  require(!verifySubreddit(subredditName), \"Subreddit already exists.\") */\n      tag_64\n      jumpi\n      mload(0x40)\n      0x08c379a000000000000000000000000000000000000000000000000000000000\n      dup2\n      mstore\n      0x04\n      add\n      tag_65\n      swap1\n      tag_66\n      jump\t// in\n    tag_65:\n      mload(0x40)\n      dup1\n      swap2\n      sub\n      swap1\n      revert\n    tag_64:\n        /* \"contracts/WeirdReddit.sol\":901:930  Subreddit memory newSubreddit */\n      0x00\n        /* \"contracts/WeirdReddit.sol\":933:957  Subreddit(subredditName) */\n      mload(0x40)\n      dup1\n      0x20\n      add\n      0x40\n      mstore\n      dup1\n        /* \"contracts/WeirdReddit.sol\":943:956  subredditName */\n      dup4\n        /* \"contracts/WeirdReddit.sol\":933:957  Subreddit(subredditName) */\n      dup2\n      mstore\n      pop\n        /* \"contracts/WeirdReddit.sol\":901:957  Subreddit memory newSubreddit = Subreddit(subredditName) */\n      swap1\n      pop\n        /* \"contracts/WeirdReddit.sol\":967:977  subreddits */\n      0x00\n        /* \"contracts/WeirdReddit.sol\":983:995  newSubreddit */\n      dup2\n        /* \"contracts/WeirdReddit.sol\":967:996  subreddits.push(newSubreddit) */\n      swap1\n      dup1\n      0x01\n      dup2\n      sload\n      add\n      dup1\n      dup3\n      sstore\n      dup1\n      swap2\n      pop\n      pop\n      0x01\n      swap1\n      sub\n      swap1\n      0x00\n      mstore\n      keccak256(0x00, 0x20)\n      add\n      0x00\n      swap1\n      swap2\n      swap1\n      swap2\n      swap1\n      swap2\n      pop\n      0x00\n      dup3\n      add\n      mload\n      dup2\n      0x00\n      add\n      swap1\n      dup2\n      tag_68\n      swap2\n      swap1\n      tag_58\n      jump\t// in\n    tag_68:\n      pop\n      pop\n      pop\n        /* \"contracts/WeirdReddit.sol\":803:1003  {... */\n      pop\n        /* \"contracts/WeirdReddit.sol\":742:1003  function createSubreddit(string memory subredditName) public {... */\n      pop\n      jump\t// out\n        /* \"contracts/WeirdReddit.sol\":2783:2868  function getPosts() public view returns (Post[] memory) {... */\n    tag_21:\n        /* \"contracts/WeirdReddit.sol\":2824:2837  Post[] memory */\n      0x60\n        /* \"contracts/WeirdReddit.sol\":2856:2861  posts */\n      0x01\n        /* \"contracts/WeirdReddit.sol\":2849:2861  return posts */\n      dup1\n      sload\n      dup1\n      0x20\n      mul\n      0x20\n      add\n      mload(0x40)\n      swap1\n      dup2\n      add\n      0x40\n      mstore\n      dup1\n      swap3\n      swap2\n      swap1\n      dup2\n      dup2\n      mstore\n      0x20\n      add\n      0x00\n      swap1\n    tag_70:\n      dup3\n      dup3\n      lt\n      iszero\n      tag_71\n      jumpi\n      dup4\n      dup3\n      swap1\n      0x00\n      mstore\n      keccak256(0x00, 0x20)\n      swap1\n      0x04\n      mul\n      add\n      mload(0x40)\n      dup1\n      0x80\n      add\n      0x40\n      mstore\n      swap1\n      dup2\n      0x00\n      dup3\n      add\n      dup1\n      sload\n      tag_73\n      swap1\n      tag_74\n      jump\t// in\n    tag_73:\n      dup1\n      0x1f\n      add\n      0x20\n      dup1\n      swap2\n      div\n      mul\n      0x20\n      add\n      mload(0x40)\n      swap1\n      dup2\n      add\n      0x40\n      mstore\n      dup1\n      swap3\n      swap2\n      swap1\n      dup2\n      dup2\n      mstore\n      0x20\n      add\n      dup3\n      dup1\n      sload\n      tag_75\n      swap1\n      tag_74\n      jump\t// in\n    tag_75:\n      dup1\n      iszero\n      tag_76\n      jumpi\n      dup1\n      0x1f\n      lt\n      tag_77\n      jumpi\n      0x0100\n      dup1\n      dup4\n      sload\n      div\n      mul\n      dup4\n      mstore\n      swap2\n      0x20\n      add\n      swap2\n      jump(tag_76)\n    tag_77:\n      dup3\n      add\n      swap2\n      swap1\n      0x00\n      mstore\n      keccak256(0x00, 0x20)\n      swap1\n    tag_78:\n      dup2\n      sload\n      dup2\n      mstore\n      swap1\n      0x01\n      add\n      swap1\n      0x20\n      add\n      dup1\n      dup4\n      gt\n      tag_78\n      jumpi\n      dup3\n      swap1\n      sub\n      0x1f\n      and\n      dup3\n      add\n      swap2\n    tag_76:\n      pop\n      pop\n      pop\n      pop\n      pop\n      dup2\n      mstore\n      0x20\n      add\n      0x01\n      dup3\n      add\n      dup1\n      sload\n      tag_79\n      swap1\n      tag_74\n      jump\t// in\n    tag_79:\n      dup1\n      0x1f\n      add\n      0x20\n      dup1\n      swap2\n      div\n      mul\n      0x20\n      add\n      mload(0x40)\n      swap1\n      dup2\n      add\n      0x40\n      mstore\n      dup1\n      swap3\n      swap2\n      swap1\n      dup2\n      dup2\n      mstore\n      0x20\n      add\n      dup3\n      dup1\n      sload\n      tag_80\n      swap1\n      tag_74\n      jump\t// in\n    tag_80:\n      dup1\n      iszero\n      tag_81\n      jumpi\n      dup1\n      0x1f\n      lt\n      tag_82\n      jumpi\n      0x0100\n      dup1\n      dup4\n      sload\n      div\n      mul\n      dup4\n      mstore\n      swap2\n      0x20\n      add\n      swap2\n      jump(tag_81)\n    tag_82:\n      dup3\n      add\n      swap2\n      swap1\n      0x00\n      mstore\n      keccak256(0x00, 0x20)\n      swap1\n    tag_83:\n      dup2\n      sload\n      dup2\n      mstore\n      swap1\n      0x01\n      add\n      swap1\n      0x20\n      add\n      dup1\n      dup4\n      gt\n      tag_83\n      jumpi\n      dup3\n      swap1\n      sub\n      0x1f\n      and\n      dup3\n      add\n      swap2\n    tag_81:\n      pop\n      pop\n      pop\n      pop\n      pop\n      dup2\n      mstore\n      0x20\n      add\n      0x02\n      dup3\n      add\n      dup1\n      sload\n      tag_84\n      swap1\n      tag_74\n      jump\t// in\n    tag_84:\n      dup1\n      0x1f\n      add\n      0x20\n      dup1\n      swap2\n      div\n      mul\n      0x20\n      add\n      mload(0x40)\n      swap1\n      dup2\n      add\n      0x40\n      mstore\n      dup1\n      swap3\n      swap2\n      swap1\n      dup2\n      dup2\n      mstore\n      0x20\n      add\n      dup3\n      dup1\n      sload\n      tag_85\n      swap1\n      tag_74\n      jump\t// in\n    tag_85:\n      dup1\n      iszero\n      tag_86\n      jumpi\n      dup1\n      0x1f\n      lt\n      tag_87\n      jumpi\n      0x0100\n      dup1\n      dup4\n      sload\n      div\n      mul\n      dup4\n      mstore\n      swap2\n      0x20\n      add\n      swap2\n      jump(tag_86)\n    tag_87:\n      dup3\n      add\n      swap2\n      swap1\n      0x00\n      mstore\n      keccak256(0x00, 0x20)\n      swap1\n    tag_88:\n      dup2\n      sload\n      dup2\n      mstore\n      swap1\n      0x01\n      add\n      swap1\n      0x20\n      add\n      dup1\n      dup4\n      gt\n      tag_88\n      jumpi\n      dup3\n      swap1\n      sub\n      0x1f\n      and\n      dup3\n      add\n      swap2\n    tag_86:\n      pop\n      pop\n      pop\n      pop\n      pop\n      dup2\n      mstore\n      0x20\n      add\n      0x03\n      dup3\n      add\n      dup1\n      sload\n      tag_89\n      swap1\n      tag_74\n      jump\t// in\n    tag_89:\n      dup1\n      0x1f\n      add\n      0x20\n      dup1\n      swap2\n      div\n      mul\n      0x20\n      add\n      mload(0x40)\n      swap1\n      dup2\n      add\n      0x40\n      mstore\n      dup1\n      swap3\n      swap2\n      swap1\n      dup2\n      dup2\n      mstore\n      0x20\n      add\n      dup3\n      dup1\n      sload\n      tag_90\n      swap1\n      tag_74\n      jump\t// in\n    tag_90:\n      dup1\n      iszero\n      tag_91\n      jumpi\n      dup1\n      0x1f\n      lt\n      tag_92\n      jumpi\n      0x0100\n      dup1\n      dup4\n      sload\n      div\n      mul\n      dup4\n      mstore\n      swap2\n      0x20\n      add\n      swap2\n      jump(tag_91)\n    tag_92:\n      dup3\n      add\n      swap2\n      swap1\n      0x00\n      mstore\n      keccak256(0x00, 0x20)\n      swap1\n    tag_93:\n      dup2\n      sload\n      dup2\n      mstore\n      swap1\n      0x01\n      add\n      swap1\n      0x20\n      add\n      dup1\n      dup4\n      gt\n      tag_93\n      jumpi\n      dup3\n      swap1\n      sub\n      0x1f\n      and\n      dup3\n      add\n      swap2\n    tag_91:\n      pop\n      pop\n      pop\n      pop\n      pop\n      dup2\n      mstore\n      pop\n      pop\n      dup2\n      mstore\n      0x20\n      add\n      swap1\n      0x01\n      add\n      swap1\n      jump(tag_70)\n    tag_71:\n      pop\n      pop\n      pop\n      pop\n      swap1\n      pop\n        /* \"contracts/WeirdReddit.sol\":2783:2868  function getPosts() public view returns (Post[] memory) {... */\n      swap1\n      jump\t// out\n        /* \"contracts/WeirdReddit.sol\":4493:4841  function changeSubreddit(string memory id, string memory newSubredditName) public {... */\n    tag_27:\n        /* \"contracts/WeirdReddit.sol\":4593:4626  verifySubreddit(newSubredditName) */\n      tag_95\n        /* \"contracts/WeirdReddit.sol\":4609:4625  newSubredditName */\n      dup2\n        /* \"contracts/WeirdReddit.sol\":4593:4608  verifySubreddit */\n      tag_52\n        /* \"contracts/WeirdReddit.sol\":4593:4626  verifySubreddit(newSubredditName) */\n      jump\t// in\n    tag_95:\n        /* \"contracts/WeirdReddit.sol\":4585:4656  require(verifySubreddit(newSubredditName), \"Subreddit does not exist.\") */\n      tag_96\n      jumpi\n      mload(0x40)\n      0x08c379a000000000000000000000000000000000000000000000000000000000\n      dup2\n      mstore\n      0x04\n      add\n      tag_97\n      swap1\n      tag_55\n      jump\t// in\n    tag_97:\n      mload(0x40)\n      dup1\n      swap2\n      sub\n      swap1\n      revert\n    tag_96:\n        /* \"contracts/WeirdReddit.sol\":4672:4678  uint i */\n      0x00\n        /* \"contracts/WeirdReddit.sol\":4667:4835  for (uint i = 0; i < posts.length; ++i) {... */\n    tag_98:\n        /* \"contracts/WeirdReddit.sol\":4688:4693  posts */\n      0x01\n        /* \"contracts/WeirdReddit.sol\":4688:4700  posts.length */\n      dup1\n      sload\n      swap1\n      pop\n        /* \"contracts/WeirdReddit.sol\":4684:4685  i */\n      dup2\n        /* \"contracts/WeirdReddit.sol\":4684:4700  i < posts.length */\n      lt\n        /* \"contracts/WeirdReddit.sol\":4667:4835  for (uint i = 0; i < posts.length; ++i) {... */\n      iszero\n      tag_99\n      jumpi\n        /* \"contracts/WeirdReddit.sol\":4725:4749  compare(posts[i].id, id) */\n      tag_101\n        /* \"contracts/WeirdReddit.sol\":4733:4738  posts */\n      0x01\n        /* \"contracts/WeirdReddit.sol\":4739:4740  i */\n      dup3\n        /* \"contracts/WeirdReddit.sol\":4733:4741  posts[i] */\n      dup2\n      sload\n      dup2\n      lt\n      tag_102\n      jumpi\n      tag_103\n      tag_104\n      jump\t// in\n    tag_103:\n    tag_102:\n      swap1\n      0x00\n      mstore\n      keccak256(0x00, 0x20)\n      swap1\n      0x04\n      mul\n      add\n        /* \"contracts/WeirdReddit.sol\":4733:4744  posts[i].id */\n      0x00\n      add\n        /* \"contracts/WeirdReddit.sol\":4725:4749  compare(posts[i].id, id) */\n      dup1\n      sload\n      tag_106\n      swap1\n      tag_74\n      jump\t// in\n    tag_106:\n      dup1\n      0x1f\n      add\n      0x20\n      dup1\n      swap2\n      div\n      mul\n      0x20\n      add\n      mload(0x40)\n      swap1\n      dup2\n      add\n      0x40\n      mstore\n      dup1\n      swap3\n      swap2\n      swap1\n      dup2\n      dup2\n      mstore\n      0x20\n      add\n      dup3\n      dup1\n      sload\n      tag_107\n      swap1\n      tag_74\n      jump\t// in\n    tag_107:\n      dup1\n      iszero\n      tag_108\n      jumpi\n      dup1\n      0x1f\n      lt\n      tag_109\n      jumpi\n      0x0100\n      dup1\n      dup4\n      sload\n      div\n      mul\n      dup4\n      mstore\n      swap2\n      0x20\n      add\n      swap2\n      jump(tag_108)\n    tag_109:\n      dup3\n      add\n      swap2\n      swap1\n      0x00\n      mstore\n      keccak256(0x00, 0x20)\n      swap1\n    tag_110:\n      dup2\n      sload\n      dup2\n      mstore\n      swap1\n      0x01\n      add\n      swap1\n      0x20\n      add\n      dup1\n      dup4\n      gt\n      tag_110\n      jumpi\n      dup3\n      swap1\n      sub\n      0x1f\n      and\n      dup3\n      add\n      swap2\n    tag_108:\n      pop\n      pop\n      pop\n      pop\n      pop\n        /* \"contracts/WeirdReddit.sol\":4746:4748  id */\n      dup5\n        /* \"contracts/WeirdReddit.sol\":4725:4732  compare */\n      tag_111\n        /* \"contracts/WeirdReddit.sol\":4725:4749  compare(posts[i].id, id) */\n      jump\t// in\n    tag_101:\n        /* \"contracts/WeirdReddit.sol\":4721:4825  if (compare(posts[i].id, id)) {... */\n      iszero\n      tag_112\n      jumpi\n        /* \"contracts/WeirdReddit.sol\":4794:4810  newSubredditName */\n      dup2\n        /* \"contracts/WeirdReddit.sol\":4769:4774  posts */\n      0x01\n        /* \"contracts/WeirdReddit.sol\":4775:4776  i */\n      dup3\n        /* \"contracts/WeirdReddit.sol\":4769:4777  posts[i] */\n      dup2\n      sload\n      dup2\n      lt\n      tag_113\n      jumpi\n      tag_114\n      tag_104\n      jump\t// in\n    tag_114:\n    tag_113:\n      swap1\n      0x00\n      mstore\n      keccak256(0x00, 0x20)\n      swap1\n      0x04\n      mul\n      add\n        /* \"contracts/WeirdReddit.sol\":4769:4791  posts[i].subredditName */\n      0x01\n      add\n        /* \"contracts/WeirdReddit.sol\":4769:4810  posts[i].subredditName = newSubredditName */\n      swap1\n      dup2\n      tag_116\n      swap2\n      swap1\n      tag_58\n      jump\t// in\n    tag_116:\n      pop\n        /* \"contracts/WeirdReddit.sol\":4721:4825  if (compare(posts[i].id, id)) {... */\n    tag_112:\n        /* \"contracts/WeirdReddit.sol\":4702:4705  ++i */\n      dup1\n      0x01\n      add\n      swap1\n      pop\n        /* \"contracts/WeirdReddit.sol\":4667:4835  for (uint i = 0; i < posts.length; ++i) {... */\n      jump(tag_98)\n    tag_99:\n      pop\n        /* \"contracts/WeirdReddit.sol\":4493:4841  function changeSubreddit(string memory id, string memory newSubredditName) public {... */\n      pop\n      pop\n      jump\t// out\n        /* \"contracts/WeirdReddit.sol\":4089:4415  function modifyPost(string memory id, string memory newPostTitle, string memory newPostContent) public {... */\n    tag_31:\n        /* \"contracts/WeirdReddit.sol\":4207:4213  uint i */\n      0x00\n        /* \"contracts/WeirdReddit.sol\":4202:4409  for (uint i = 0; i < posts.length; ++i) {... */\n    tag_118:\n        /* \"contracts/WeirdReddit.sol\":4223:4228  posts */\n      0x01\n        /* \"contracts/WeirdReddit.sol\":4223:4235  posts.length */\n      dup1\n      sload\n      swap1\n      pop\n        /* \"contracts/WeirdReddit.sol\":4219:4220  i */\n      dup2\n        /* \"contracts/WeirdReddit.sol\":4219:4235  i < posts.length */\n      lt\n        /* \"contracts/WeirdReddit.sol\":4202:4409  for (uint i = 0; i < posts.length; ++i) {... */\n      iszero\n      tag_119\n      jumpi\n        /* \"contracts/WeirdReddit.sol\":4260:4284  compare(posts[i].id, id) */\n      tag_121\n        /* \"contracts/WeirdReddit.sol\":4268:4273  posts */\n      0x01\n        /* \"contracts/WeirdReddit.sol\":4274:4275  i */\n      dup3\n        /* \"contracts/WeirdReddit.sol\":4268:4276  posts[i] */\n      dup2\n      sload\n      dup2\n      lt\n      tag_122\n      jumpi\n      tag_123\n      tag_104\n      jump\t// in\n    tag_123:\n    tag_122:\n      swap1\n      0x00\n      mstore\n      keccak256(0x00, 0x20)\n      swap1\n      0x04\n      mul\n      add\n        /* \"contracts/WeirdReddit.sol\":4268:4279  posts[i].id */\n      0x00\n      add\n        /* \"contracts/WeirdReddit.sol\":4260:4284  compare(posts[i].id, id) */\n      dup1\n      sload\n      tag_125\n      swap1\n      tag_74\n      jump\t// in\n    tag_125:\n      dup1\n      0x1f\n      add\n      0x20\n      dup1\n      swap2\n      div\n      mul\n      0x20\n      add\n      mload(0x40)\n      swap1\n      dup2\n      add\n      0x40\n      mstore\n      dup1\n      swap3\n      swap2\n      swap1\n      dup2\n      dup2\n      mstore\n      0x20\n      add\n      dup3\n      dup1\n      sload\n      tag_126\n      swap1\n      tag_74\n      jump\t// in\n    tag_126:\n      dup1\n      iszero\n      tag_127\n      jumpi\n      dup1\n      0x1f\n      lt\n      tag_128\n      jumpi\n      0x0100\n      dup1\n      dup4\n      sload\n      div\n      mul\n      dup4\n      mstore\n      swap2\n      0x20\n      add\n      swap2\n      jump(tag_127)\n    tag_128:\n      dup3\n      add\n      swap2\n      swap1\n      0x00\n      mstore\n      keccak256(0x00, 0x20)\n      swap1\n    tag_129:\n      dup2\n      sload\n      dup2\n      mstore\n      swap1\n      0x01\n      add\n      swap1\n      0x20\n      add\n      dup1\n      dup4\n      gt\n      tag_129\n      jumpi\n      dup3\n      swap1\n      sub\n      0x1f\n      and\n      dup3\n      add\n      swap2\n    tag_127:\n      pop\n      pop\n      pop\n      pop\n      pop\n        /* \"contracts/WeirdReddit.sol\":4281:4283  id */\n      dup6\n        /* \"contracts/WeirdReddit.sol\":4260:4267  compare */\n      tag_111\n        /* \"contracts/WeirdReddit.sol\":4260:4284  compare(posts[i].id, id) */\n      jump\t// in\n    tag_121:\n        /* \"contracts/WeirdReddit.sol\":4256:4399  if (compare(posts[i].id, id)) {... */\n      iszero\n      tag_130\n      jumpi\n        /* \"contracts/WeirdReddit.sol\":4321:4333  newPostTitle */\n      dup3\n        /* \"contracts/WeirdReddit.sol\":4304:4309  posts */\n      0x01\n        /* \"contracts/WeirdReddit.sol\":4310:4311  i */\n      dup3\n        /* \"contracts/WeirdReddit.sol\":4304:4312  posts[i] */\n      dup2\n      sload\n      dup2\n      lt\n      tag_131\n      jumpi\n      tag_132\n      tag_104\n      jump\t// in\n    tag_132:\n    tag_131:\n      swap1\n      0x00\n      mstore\n      keccak256(0x00, 0x20)\n      swap1\n      0x04\n      mul\n      add\n        /* \"contracts/WeirdReddit.sol\":4304:4318  posts[i].title */\n      0x02\n      add\n        /* \"contracts/WeirdReddit.sol\":4304:4333  posts[i].title = newPostTitle */\n      swap1\n      dup2\n      tag_134\n      swap2\n      swap1\n      tag_58\n      jump\t// in\n    tag_134:\n      pop\n        /* \"contracts/WeirdReddit.sol\":4370:4384  newPostContent */\n      dup2\n        /* \"contracts/WeirdReddit.sol\":4351:4356  posts */\n      0x01\n        /* \"contracts/WeirdReddit.sol\":4357:4358  i */\n      dup3\n        /* \"contracts/WeirdReddit.sol\":4351:4359  posts[i] */\n      dup2\n      sload\n      dup2\n      lt\n      tag_135\n      jumpi\n      tag_136\n      tag_104\n      jump\t// in\n    tag_136:\n    tag_135:\n      swap1\n      0x00\n      mstore\n      keccak256(0x00, 0x20)\n      swap1\n      0x04\n      mul\n      add\n        /* \"contracts/WeirdReddit.sol\":4351:4367  posts[i].content */\n      0x03\n      add\n        /* \"contracts/WeirdReddit.sol\":4351:4384  posts[i].content = newPostContent */\n      swap1\n      dup2\n      tag_138\n      swap2\n      swap1\n      tag_58\n      jump\t// in\n    tag_138:\n      pop\n        /* \"contracts/WeirdReddit.sol\":4256:4399  if (compare(posts[i].id, id)) {... */\n    tag_130:\n        /* \"contracts/WeirdReddit.sol\":4237:4240  ++i */\n      dup1\n      0x01\n      add\n      swap1\n      pop\n        /* \"contracts/WeirdReddit.sol\":4202:4409  for (uint i = 0; i < posts.length; ++i) {... */\n      jump(tag_118)\n    tag_119:\n      pop\n        /* \"contracts/WeirdReddit.sol\":4089:4415  function modifyPost(string memory id, string memory newPostTitle, string memory newPostContent) public {... */\n      pop\n      pop\n      pop\n      jump\t// out\n        /* \"contracts/WeirdReddit.sol\":3808:4029  function getPost(string memory id) public view returns (Post memory) {... */\n    tag_34:\n        /* \"contracts/WeirdReddit.sol\":3864:3875  Post memory */\n      tag_139\n      tag_140\n      jump\t// in\n    tag_139:\n        /* \"contracts/WeirdReddit.sol\":3887:3901  uint postIndex */\n      0x00\n        /* \"contracts/WeirdReddit.sol\":3904:3920  getPostIndex(id) */\n      tag_142\n        /* \"contracts/WeirdReddit.sol\":3917:3919  id */\n      dup4\n        /* \"contracts/WeirdReddit.sol\":3904:3916  getPostIndex */\n      tag_143\n        /* \"contracts/WeirdReddit.sol\":3904:3920  getPostIndex(id) */\n      jump\t// in\n    tag_142:\n        /* \"contracts/WeirdReddit.sol\":3887:3920  uint postIndex = getPostIndex(id) */\n      swap1\n      pop\n        /* \"contracts/WeirdReddit.sol\":3951:3956  posts */\n      0x01\n        /* \"contracts/WeirdReddit.sol\":3951:3963  posts.length */\n      dup1\n      sload\n      swap1\n      pop\n        /* \"contracts/WeirdReddit.sol\":3939:3948  postIndex */\n      dup2\n        /* \"contracts/WeirdReddit.sol\":3939:3963  postIndex < posts.length */\n      lt\n        /* \"contracts/WeirdReddit.sol\":3931:3988  require(postIndex < posts.length, \"Post does not exist.\") */\n      tag_144\n      jumpi\n      mload(0x40)\n      0x08c379a000000000000000000000000000000000000000000000000000000000\n      dup2\n      mstore\n      0x04\n      add\n      tag_145\n      swap1\n      tag_146\n      jump\t// in\n    tag_145:\n      mload(0x40)\n      dup1\n      swap2\n      sub\n      swap1\n      revert\n    tag_144:\n        /* \"contracts/WeirdReddit.sol\":4006:4011  posts */\n      0x01\n        /* \"contracts/WeirdReddit.sol\":4012:4021  postIndex */\n      dup2\n        /* \"contracts/WeirdReddit.sol\":4006:4022  posts[postIndex] */\n      dup2\n      sload\n      dup2\n      lt\n      tag_147\n      jumpi\n      tag_148\n      tag_104\n      jump\t// in\n    tag_148:\n    tag_147:\n      swap1\n      0x00\n      mstore\n      keccak256(0x00, 0x20)\n      swap1\n      0x04\n      mul\n      add\n        /* \"contracts/WeirdReddit.sol\":3999:4022  return posts[postIndex] */\n      mload(0x40)\n      dup1\n      0x80\n      add\n      0x40\n      mstore\n      swap1\n      dup2\n      0x00\n      dup3\n      add\n      dup1\n      sload\n      tag_150\n      swap1\n      tag_74\n      jump\t// in\n    tag_150:\n      dup1\n      0x1f\n      add\n      0x20\n      dup1\n      swap2\n      div\n      mul\n      0x20\n      add\n      mload(0x40)\n      swap1\n      dup2\n      add\n      0x40\n      mstore\n      dup1\n      swap3\n      swap2\n      swap1\n      dup2\n      dup2\n      mstore\n      0x20\n      add\n      dup3\n      dup1\n      sload\n      tag_151\n      swap1\n      tag_74\n      jump\t// in\n    tag_151:\n      dup1\n      iszero\n      tag_152\n      jumpi\n      dup1\n      0x1f\n      lt\n      tag_153\n      jumpi\n      0x0100\n      dup1\n      dup4\n      sload\n      div\n      mul\n      dup4\n      mstore\n      swap2\n      0x20\n      add\n      swap2\n      jump(tag_152)\n    tag_153:\n      dup3\n      add\n      swap2\n      swap1\n      0x00\n      mstore\n      keccak256(0x00, 0x20)\n      swap1\n    tag_154:\n      dup2\n      sload\n      dup2\n      mstore\n      swap1\n      0x01\n      add\n      swap1\n      0x20\n      add\n      dup1\n      dup4\n      gt\n      tag_154\n      jumpi\n      dup3\n      swap1\n      sub\n      0x1f\n      and\n      dup3\n      add\n      swap2\n    tag_152:\n      pop\n      pop\n      pop\n      pop\n      pop\n      dup2\n      mstore\n      0x20\n      add\n      0x01\n      dup3\n      add\n      dup1\n      sload\n      tag_155\n      swap1\n      tag_74\n      jump\t// in\n    tag_155:\n      dup1\n      0x1f\n      add\n      0x20\n      dup1\n      swap2\n      div\n      mul\n      0x20\n      add\n      mload(0x40)\n      swap1\n      dup2\n      add\n      0x40\n      mstore\n      dup1\n      swap3\n      swap2\n      swap1\n      dup2\n      dup2\n      mstore\n      0x20\n      add\n      dup3\n      dup1\n      sload\n      tag_156\n      swap1\n      tag_74\n      jump\t// in\n    tag_156:\n      dup1\n      iszero\n      tag_157\n      jumpi\n      dup1\n      0x1f\n      lt\n      tag_158\n      jumpi\n      0x0100\n      dup1\n      dup4\n      sload\n      div\n      mul\n      dup4\n      mstore\n      swap2\n      0x20\n      add\n      swap2\n      jump(tag_157)\n    tag_158:\n      dup3\n      add\n      swap2\n      swap1\n      0x00\n      mstore\n      keccak256(0x00, 0x20)\n      swap1\n    tag_159:\n      dup2\n      sload\n      dup2\n      mstore\n      swap1\n      0x01\n      add\n      swap1\n      0x20\n      add\n      dup1\n      dup4\n      gt\n      tag_159\n      jumpi\n      dup3\n      swap1\n      sub\n      0x1f\n      and\n      dup3\n      add\n      swap2\n    tag_157:\n      pop\n      pop\n      pop\n      pop\n      pop\n      dup2\n      mstore\n      0x20\n      add\n      0x02\n      dup3\n      add\n      dup1\n      sload\n      tag_160\n      swap1\n      tag_74\n      jump\t// in\n    tag_160:\n      dup1\n      0x1f\n      add\n      0x20\n      dup1\n      swap2\n      div\n      mul\n      0x20\n      add\n      mload(0x40)\n      swap1\n      dup2\n      add\n      0x40\n      mstore\n      dup1\n      swap3\n      swap2\n      swap1\n      dup2\n      dup2\n      mstore\n      0x20\n      add\n      dup3\n      dup1\n      sload\n      tag_161\n      swap1\n      tag_74\n      jump\t// in\n    tag_161:\n      dup1\n      iszero\n      tag_162\n      jumpi\n      dup1\n      0x1f\n      lt\n      tag_163\n      jumpi\n      0x0100\n      dup1\n      dup4\n      sload\n      div\n      mul\n      dup4\n      mstore\n      swap2\n      0x20\n      add\n      swap2\n      jump(tag_162)\n    tag_163:\n      dup3\n      add\n      swap2\n      swap1\n      0x00\n      mstore\n      keccak256(0x00, 0x20)\n      swap1\n    tag_164:\n      dup2\n      sload\n      dup2\n      mstore\n      swap1\n      0x01\n      add\n      swap1\n      0x20\n      add\n      dup1\n      dup4\n      gt\n      tag_164\n      jumpi\n      dup3\n      swap1\n      sub\n      0x1f\n      and\n      dup3\n      add\n      swap2\n    tag_162:\n      pop\n      pop\n      pop\n      pop\n      pop\n      dup2\n      mstore\n      0x20\n      add\n      0x03\n      dup3\n      add\n      dup1\n      sload\n      tag_165\n      swap1\n      tag_74\n      jump\t// in\n    tag_165:\n      dup1\n      0x1f\n      add\n      0x20\n      dup1\n      swap2\n      div\n      mul\n      0x20\n      add\n      mload(0x40)\n      swap1\n      dup2\n      add\n      0x40\n      mstore\n      dup1\n      swap3\n      swap2\n      swap1\n      dup2\n      dup2\n      mstore\n      0x20\n      add\n      dup3\n      dup1\n      sload\n      tag_166\n      swap1\n      tag_74\n      jump\t// in\n    tag_166:\n      dup1\n      iszero\n      tag_167\n      jumpi\n      dup1\n      0x1f\n      lt\n      tag_168\n      jumpi\n      0x0100\n      dup1\n      dup4\n      sload\n      div\n      mul\n      dup4\n      mstore\n      swap2\n      0x20\n      add\n      swap2\n      jump(tag_167)\n    tag_168:\n      dup3\n      add\n      swap2\n      swap1\n      0x00\n      mstore\n      keccak256(0x00, 0x20)\n      swap1\n    tag_169:\n      dup2\n      sload\n      dup2\n      mstore\n      swap1\n      0x01\n      add\n      swap1\n      0x20\n      add\n      dup1\n      dup4\n      gt\n      tag_169\n      jumpi\n      dup3\n      swap1\n      sub\n      0x1f\n      and\n      dup3\n      add\n      swap2\n    tag_167:\n      pop\n      pop\n      pop\n      pop\n      pop\n      dup2\n      mstore\n      pop\n      pop\n      swap2\n      pop\n      pop\n        /* \"contracts/WeirdReddit.sol\":3808:4029  function getPost(string memory id) public view returns (Post memory) {... */\n      swap2\n      swap1\n      pop\n      jump\t// out\n        /* \"contracts/WeirdReddit.sol\":2984:3697  function getPostsInSubreddit(string memory subredditName) public view returns (Post[] memory) {... */\n    tag_39:\n        /* \"contracts/WeirdReddit.sol\":3063:3076  Post[] memory */\n      0x60\n        /* \"contracts/WeirdReddit.sol\":3096:3126  verifySubreddit(subredditName) */\n      tag_171\n        /* \"contracts/WeirdReddit.sol\":3112:3125  subredditName */\n      dup3\n        /* \"contracts/WeirdReddit.sol\":3096:3111  verifySubreddit */\n      tag_52\n        /* \"contracts/WeirdReddit.sol\":3096:3126  verifySubreddit(subredditName) */\n      jump\t// in\n    tag_171:\n        /* \"contracts/WeirdReddit.sol\":3088:3156  require(verifySubreddit(subredditName), \"Subreddit does not exist.\") */\n      tag_172\n      jumpi\n      mload(0x40)\n      0x08c379a000000000000000000000000000000000000000000000000000000000\n      dup2\n      mstore\n      0x04\n      add\n      tag_173\n      swap1\n      tag_55\n      jump\t// in\n    tag_173:\n      mload(0x40)\n      dup1\n      swap2\n      sub\n      swap1\n      revert\n    tag_172:\n        /* \"contracts/WeirdReddit.sol\":3167:3182  uint filterSize */\n      0x00\n        /* \"contracts/WeirdReddit.sol\":3196:3206  uint index */\n      dup1\n        /* \"contracts/WeirdReddit.sol\":3226:3232  uint i */\n      0x00\n        /* \"contracts/WeirdReddit.sol\":3221:3382  for (uint i = 0; i < posts.length; ++i) {... */\n    tag_174:\n        /* \"contracts/WeirdReddit.sol\":3242:3247  posts */\n      0x01\n        /* \"contracts/WeirdReddit.sol\":3242:3254  posts.length */\n      dup1\n      sload\n      swap1\n      pop\n        /* \"contracts/WeirdReddit.sol\":3238:3239  i */\n      dup2\n        /* \"contracts/WeirdReddit.sol\":3238:3254  i < posts.length */\n      lt\n        /* \"contracts/WeirdReddit.sol\":3221:3382  for (uint i = 0; i < posts.length; ++i) {... */\n      iszero\n      tag_175\n      jumpi\n        /* \"contracts/WeirdReddit.sol\":3279:3325  compare(posts[i].subredditName, subredditName) */\n      tag_177\n        /* \"contracts/WeirdReddit.sol\":3287:3292  posts */\n      0x01\n        /* \"contracts/WeirdReddit.sol\":3293:3294  i */\n      dup3\n        /* \"contracts/WeirdReddit.sol\":3287:3295  posts[i] */\n      dup2\n      sload\n      dup2\n      lt\n      tag_178\n      jumpi\n      tag_179\n      tag_104\n      jump\t// in\n    tag_179:\n    tag_178:\n      swap1\n      0x00\n      mstore\n      keccak256(0x00, 0x20)\n      swap1\n      0x04\n      mul\n      add\n        /* \"contracts/WeirdReddit.sol\":3287:3309  posts[i].subredditName */\n      0x01\n      add\n        /* \"contracts/WeirdReddit.sol\":3279:3325  compare(posts[i].subredditName, subredditName) */\n      dup1\n      sload\n      tag_181\n      swap1\n      tag_74\n      jump\t// in\n    tag_181:\n      dup1\n      0x1f\n      add\n      0x20\n      dup1\n      swap2\n      div\n      mul\n      0x20\n      add\n      mload(0x40)\n      swap1\n      dup2\n      add\n      0x40\n      mstore\n      dup1\n      swap3\n      swap2\n      swap1\n      dup2\n      dup2\n      mstore\n      0x20\n      add\n      dup3\n      dup1\n      sload\n      tag_182\n      swap1\n      tag_74\n      jump\t// in\n    tag_182:\n      dup1\n      iszero\n      tag_183\n      jumpi\n      dup1\n      0x1f\n      lt\n      tag_184\n      jumpi\n      0x0100\n      dup1\n      dup4\n      sload\n      div\n      mul\n      dup4\n      mstore\n      swap2\n      0x20\n      add\n      swap2\n      jump(tag_183)\n    tag_184:\n      dup3\n      add\n      swap2\n      swap1\n      0x00\n      mstore\n      keccak256(0x00, 0x20)\n      swap1\n    tag_185:\n      dup2\n      sload\n      dup2\n      mstore\n      swap1\n      0x01\n      add\n      swap1\n      0x20\n      add\n      dup1\n      dup4\n      gt\n      tag_185\n      jumpi\n      dup3\n      swap1\n      sub\n      0x1f\n      and\n      dup3\n      add\n      swap2\n    tag_183:\n      pop\n      pop\n      pop\n      pop\n      pop\n        /* \"contracts/WeirdReddit.sol\":3311:3324  subredditName */\n      dup7\n        /* \"contracts/WeirdReddit.sol\":3279:3286  compare */\n      tag_111\n        /* \"contracts/WeirdReddit.sol\":3279:3325  compare(posts[i].subredditName, subredditName) */\n      jump\t// in\n    tag_177:\n        /* \"contracts/WeirdReddit.sol\":3275:3372  if (compare(posts[i].subredditName, subredditName)) {... */\n      iszero\n      tag_186\n      jumpi\n        /* \"contracts/WeirdReddit.sol\":3345:3357  ++filterSize */\n      dup3\n      tag_187\n      swap1\n      tag_188\n      jump\t// in\n    tag_187:\n      swap3\n      pop\n        /* \"contracts/WeirdReddit.sol\":3275:3372  if (compare(posts[i].subredditName, subredditName)) {... */\n    tag_186:\n        /* \"contracts/WeirdReddit.sol\":3256:3259  ++i */\n      dup1\n      0x01\n      add\n      swap1\n      pop\n        /* \"contracts/WeirdReddit.sol\":3221:3382  for (uint i = 0; i < posts.length; ++i) {... */\n      jump(tag_174)\n    tag_175:\n      pop\n        /* \"contracts/WeirdReddit.sol\":3392:3419  Post[] memory filteredPosts */\n      0x00\n        /* \"contracts/WeirdReddit.sol\":3433:3443  filterSize */\n      dup3\n        /* \"contracts/WeirdReddit.sol\":3422:3444  new Post[](filterSize) */\n      0xffffffffffffffff\n      dup2\n      gt\n      iszero\n      tag_189\n      jumpi\n      tag_190\n      tag_191\n      jump\t// in\n    tag_190:\n    tag_189:\n      mload(0x40)\n      swap1\n      dup1\n      dup3\n      mstore\n      dup1\n      0x20\n      mul\n      0x20\n      add\n      dup3\n      add\n      0x40\n      mstore\n      dup1\n      iszero\n      tag_192\n      jumpi\n      dup2\n      0x20\n      add\n    tag_193:\n      tag_194\n      tag_140\n      jump\t// in\n    tag_194:\n      dup2\n      mstore\n      0x20\n      add\n      swap1\n      0x01\n      swap1\n      sub\n      swap1\n      dup2\n      tag_193\n      jumpi\n      swap1\n      pop\n    tag_192:\n      pop\n        /* \"contracts/WeirdReddit.sol\":3392:3444  Post[] memory filteredPosts = new Post[](filterSize) */\n      swap1\n      pop\n        /* \"contracts/WeirdReddit.sol\":3460:3466  uint i */\n      0x00\n        /* \"contracts/WeirdReddit.sol\":3455:3660  for (uint i = 0; i < posts.length; ++i) {... */\n    tag_195:\n        /* \"contracts/WeirdReddit.sol\":3476:3481  posts */\n      0x01\n        /* \"contracts/WeirdReddit.sol\":3476:3488  posts.length */\n      dup1\n      sload\n      swap1\n      pop\n        /* \"contracts/WeirdReddit.sol\":3472:3473  i */\n      dup2\n        /* \"contracts/WeirdReddit.sol\":3472:3488  i < posts.length */\n      lt\n        /* \"contracts/WeirdReddit.sol\":3455:3660  for (uint i = 0; i < posts.length; ++i) {... */\n      iszero\n      tag_196\n      jumpi\n        /* \"contracts/WeirdReddit.sol\":3513:3559  compare(posts[i].subredditName, subredditName) */\n      tag_198\n        /* \"contracts/WeirdReddit.sol\":3521:3526  posts */\n      0x01\n        /* \"contracts/WeirdReddit.sol\":3527:3528  i */\n      dup3\n        /* \"contracts/WeirdReddit.sol\":3521:3529  posts[i] */\n      dup2\n      sload\n      dup2\n      lt\n      tag_199\n      jumpi\n      tag_200\n      tag_104\n      jump\t// in\n    tag_200:\n    tag_199:\n      swap1\n      0x00\n      mstore\n      keccak256(0x00, 0x20)\n      swap1\n      0x04\n      mul\n      add\n        /* \"contracts/WeirdReddit.sol\":3521:3543  posts[i].subredditName */\n      0x01\n      add\n        /* \"contracts/WeirdReddit.sol\":3513:3559  compare(posts[i].subredditName, subredditName) */\n      dup1\n      sload\n      tag_202\n      swap1\n      tag_74\n      jump\t// in\n    tag_202:\n      dup1\n      0x1f\n      add\n      0x20\n      dup1\n      swap2\n      div\n      mul\n      0x20\n      add\n      mload(0x40)\n      swap1\n      dup2\n      add\n      0x40\n      mstore\n      dup1\n      swap3\n      swap2\n      swap1\n      dup2\n      dup2\n      mstore\n      0x20\n      add\n      dup3\n      dup1\n      sload\n      tag_203\n      swap1\n      tag_74\n      jump\t// in\n    tag_203:\n      dup1\n      iszero\n      tag_204\n      jumpi\n      dup1\n      0x1f\n      lt\n      tag_205\n      jumpi\n      0x0100\n      dup1\n      dup4\n      sload\n      div\n      mul\n      dup4\n      mstore\n      swap2\n      0x20\n      add\n      swap2\n      jump(tag_204)\n    tag_205:\n      dup3\n      add\n      swap2\n      swap1\n      0x00\n      mstore\n      keccak256(0x00, 0x20)\n      swap1\n    tag_206:\n      dup2\n      sload\n      dup2\n      mstore\n      swap1\n      0x01\n      add\n      swap1\n      0x20\n      add\n      dup1\n      dup4\n      gt\n      tag_206\n      jumpi\n      dup3\n      swap1\n      sub\n      0x1f\n      and\n      dup3\n      add\n      swap2\n    tag_204:\n      pop\n      pop\n      pop\n      pop\n      pop\n        /* \"contracts/WeirdReddit.sol\":3545:3558  subredditName */\n      dup8\n        /* \"contracts/WeirdReddit.sol\":3513:3520  compare */\n      tag_111\n        /* \"contracts/WeirdReddit.sol\":3513:3559  compare(posts[i].subredditName, subredditName) */\n      jump\t// in\n    tag_198:\n        /* \"contracts/WeirdReddit.sol\":3509:3650  if (compare(posts[i].subredditName, subredditName)) {... */\n      iszero\n      tag_207\n      jumpi\n        /* \"contracts/WeirdReddit.sol\":3602:3607  posts */\n      0x01\n        /* \"contracts/WeirdReddit.sol\":3608:3609  i */\n      dup2\n        /* \"contracts/WeirdReddit.sol\":3602:3610  posts[i] */\n      dup2\n      sload\n      dup2\n      lt\n      tag_208\n      jumpi\n      tag_209\n      tag_104\n      jump\t// in\n    tag_209:\n    tag_208:\n      swap1\n      0x00\n      mstore\n      keccak256(0x00, 0x20)\n      swap1\n      0x04\n      mul\n      add\n        /* \"contracts/WeirdReddit.sol\":3579:3610  filteredPosts[index] = posts[i] */\n      mload(0x40)\n      dup1\n      0x80\n      add\n      0x40\n      mstore\n      swap1\n      dup2\n      0x00\n      dup3\n      add\n      dup1\n      sload\n      tag_211\n      swap1\n      tag_74\n      jump\t// in\n    tag_211:\n      dup1\n      0x1f\n      add\n      0x20\n      dup1\n      swap2\n      div\n      mul\n      0x20\n      add\n      mload(0x40)\n      swap1\n      dup2\n      add\n      0x40\n      mstore\n      dup1\n      swap3\n      swap2\n      swap1\n      dup2\n      dup2\n      mstore\n      0x20\n      add\n      dup3\n      dup1\n      sload\n      tag_212\n      swap1\n      tag_74\n      jump\t// in\n    tag_212:\n      dup1\n      iszero\n      tag_213\n      jumpi\n      dup1\n      0x1f\n      lt\n      tag_214\n      jumpi\n      0x0100\n      dup1\n      dup4\n      sload\n      div\n      mul\n      dup4\n      mstore\n      swap2\n      0x20\n      add\n      swap2\n      jump(tag_213)\n    tag_214:\n      dup3\n      add\n      swap2\n      swap1\n      0x00\n      mstore\n      keccak256(0x00, 0x20)\n      swap1\n    tag_215:\n      dup2\n      sload\n      dup2\n      mstore\n      swap1\n      0x01\n      add\n      swap1\n      0x20\n      add\n      dup1\n      dup4\n      gt\n      tag_215\n      jumpi\n      dup3\n      swap1\n      sub\n      0x1f\n      and\n      dup3\n      add\n      swap2\n    tag_213:\n      pop\n      pop\n      pop\n      pop\n      pop\n      dup2\n      mstore\n      0x20\n      add\n      0x01\n      dup3\n      add\n      dup1\n      sload\n      tag_216\n      swap1\n      tag_74\n      jump\t// in\n    tag_216:\n      dup1\n      0x1f\n      add\n      0x20\n      dup1\n      swap2\n      div\n      mul\n      0x20\n      add\n      mload(0x40)\n      swap1\n      dup2\n      add\n      0x40\n      mstore\n      dup1\n      swap3\n      swap2\n      swap1\n      dup2\n      dup2\n      mstore\n      0x20\n      add\n      dup3\n      dup1\n      sload\n      tag_217\n      swap1\n      tag_74\n      jump\t// in\n    tag_217:\n      dup1\n      iszero\n      tag_218\n      jumpi\n      dup1\n      0x1f\n      lt\n      tag_219\n      jumpi\n      0x0100\n      dup1\n      dup4\n      sload\n      div\n      mul\n      dup4\n      mstore\n      swap2\n      0x20\n      add\n      swap2\n      jump(tag_218)\n    tag_219:\n      dup3\n      add\n      swap2\n      swap1\n      0x00\n      mstore\n      keccak256(0x00, 0x20)\n      swap1\n    tag_220:\n      dup2\n      sload\n      dup2\n      mstore\n      swap1\n      0x01\n      add\n      swap1\n      0x20\n      add\n      dup1\n      dup4\n      gt\n      tag_220\n      jumpi\n      dup3\n      swap1\n      sub\n      0x1f\n      and\n      dup3\n      add\n      swap2\n    tag_218:\n      pop\n      pop\n      pop\n      pop\n      pop\n      dup2\n      mstore\n      0x20\n      add\n      0x02\n      dup3\n      add\n      dup1\n      sload\n      tag_221\n      swap1\n      tag_74\n      jump\t// in\n    tag_221:\n      dup1\n      0x1f\n      add\n      0x20\n      dup1\n      swap2\n      div\n      mul\n      0x20\n      add\n      mload(0x40)\n      swap1\n      dup2\n      add\n      0x40\n      mstore\n      dup1\n      swap3\n      swap2\n      swap1\n      dup2\n      dup2\n      mstore\n      0x20\n      add\n      dup3\n      dup1\n      sload\n      tag_222\n      swap1\n      tag_74\n      jump\t// in\n    tag_222:\n      dup1\n      iszero\n      tag_223\n      jumpi\n      dup1\n      0x1f\n      lt\n      tag_224\n      jumpi\n      0x0100\n      dup1\n      dup4\n      sload\n      div\n      mul\n      dup4\n      mstore\n      swap2\n      0x20\n      add\n      swap2\n      jump(tag_223)\n    tag_224:\n      dup3\n      add\n      swap2\n      swap1\n      0x00\n      mstore\n      keccak256(0x00, 0x20)\n      swap1\n    tag_225:\n      dup2\n      sload\n      dup2\n      mstore\n      swap1\n      0x01\n      add\n      swap1\n      0x20\n      add\n      dup1\n      dup4\n      gt\n      tag_225\n      jumpi\n      dup3\n      swap1\n      sub\n      0x1f\n      and\n      dup3\n      add\n      swap2\n    tag_223:\n      pop\n      pop\n      pop\n      pop\n      pop\n      dup2\n      mstore\n      0x20\n      add\n      0x03\n      dup3\n      add\n      dup1\n      sload\n      tag_226\n      swap1\n      tag_74\n      jump\t// in\n    tag_226:\n      dup1\n      0x1f\n      add\n      0x20\n      dup1\n      swap2\n      div\n      mul\n      0x20\n      add\n      mload(0x40)\n      swap1\n      dup2\n      add\n      0x40\n      mstore\n      dup1\n      swap3\n      swap2\n      swap1\n      dup2\n      dup2\n      mstore\n      0x20\n      add\n      dup3\n      dup1\n      sload\n      tag_227\n      swap1\n      tag_74\n      jump\t// in\n    tag_227:\n      dup1\n      iszero\n      tag_228\n      jumpi\n      dup1\n      0x1f\n      lt\n      tag_229\n      jumpi\n      0x0100\n      dup1\n      dup4\n      sload\n      div\n      mul\n      dup4\n      mstore\n      swap2\n      0x20\n      add\n      swap2\n      jump(tag_228)\n    tag_229:\n      dup3\n      add\n      swap2\n      swap1\n      0x00\n      mstore\n      keccak256(0x00, 0x20)\n      swap1\n    tag_230:\n      dup2\n      sload\n      dup2\n      mstore\n      swap1\n      0x01\n      add\n      swap1\n      0x20\n      add\n      dup1\n      dup4\n      gt\n      tag_230\n      jumpi\n      dup3\n      swap1\n      sub\n      0x1f\n      and\n      dup3\n      add\n      swap2\n    tag_228:\n      pop\n      pop\n      pop\n      pop\n      pop\n      dup2\n      mstore\n      pop\n      pop\n        /* \"contracts/WeirdReddit.sol\":3579:3592  filteredPosts */\n      dup3\n        /* \"contracts/WeirdReddit.sol\":3593:3598  index */\n      dup5\n        /* \"contracts/WeirdReddit.sol\":3579:3599  filteredPosts[index] */\n      dup2\n      mload\n      dup2\n      lt\n      tag_231\n      jumpi\n      tag_232\n      tag_104\n      jump\t// in\n    tag_232:\n    tag_231:\n      0x20\n      mul\n      0x20\n      add\n      add\n        /* \"contracts/WeirdReddit.sol\":3579:3610  filteredPosts[index] = posts[i] */\n      dup2\n      swap1\n      mstore\n      pop\n        /* \"contracts/WeirdReddit.sol\":3628:3635  ++index */\n      dup3\n      tag_233\n      swap1\n      tag_188\n      jump\t// in\n    tag_233:\n      swap3\n      pop\n        /* \"contracts/WeirdReddit.sol\":3509:3650  if (compare(posts[i].subredditName, subredditName)) {... */\n    tag_207:\n        /* \"contracts/WeirdReddit.sol\":3490:3493  ++i */\n      dup1\n      0x01\n      add\n      swap1\n      pop\n        /* \"contracts/WeirdReddit.sol\":3455:3660  for (uint i = 0; i < posts.length; ++i) {... */\n      jump(tag_195)\n    tag_196:\n      pop\n        /* \"contracts/WeirdReddit.sol\":3677:3690  filteredPosts */\n      dup1\n        /* \"contracts/WeirdReddit.sol\":3670:3690  return filteredPosts */\n      swap4\n      pop\n      pop\n      pop\n      pop\n        /* \"contracts/WeirdReddit.sol\":2984:3697  function getPostsInSubreddit(string memory subredditName) public view returns (Post[] memory) {... */\n      swap2\n      swap1\n      pop\n      jump\t// out\n        /* \"contracts/WeirdReddit.sol\":1515:1615  function getSubreddits() public view returns (Subreddit[] memory) {... */\n    tag_42:\n        /* \"contracts/WeirdReddit.sol\":1561:1579  Subreddit[] memory */\n      0x60\n        /* \"contracts/WeirdReddit.sol\":1598:1608  subreddits */\n      0x00\n        /* \"contracts/WeirdReddit.sol\":1591:1608  return subreddits */\n      dup1\n      sload\n      dup1\n      0x20\n      mul\n      0x20\n      add\n      mload(0x40)\n      swap1\n      dup2\n      add\n      0x40\n      mstore\n      dup1\n      swap3\n      swap2\n      swap1\n      dup2\n      dup2\n      mstore\n      0x20\n      add\n      0x00\n      swap1\n    tag_235:\n      dup3\n      dup3\n      lt\n      iszero\n      tag_236\n      jumpi\n      dup4\n      dup3\n      swap1\n      0x00\n      mstore\n      keccak256(0x00, 0x20)\n      add\n      mload(0x40)\n      dup1\n      0x20\n      add\n      0x40\n      mstore\n      swap1\n      dup2\n      0x00\n      dup3\n      add\n      dup1\n      sload\n      tag_238\n      swap1\n      tag_74\n      jump\t// in\n    tag_238:\n      dup1\n      0x1f\n      add\n      0x20\n      dup1\n      swap2\n      div\n      mul\n      0x20\n      add\n      mload(0x40)\n      swap1\n      dup2\n      add\n      0x40\n      mstore\n      dup1\n      swap3\n      swap2\n      swap1\n      dup2\n      dup2\n      mstore\n      0x20\n      add\n      dup3\n      dup1\n      sload\n      tag_239\n      swap1\n      tag_74\n      jump\t// in\n    tag_239:\n      dup1\n      iszero\n      tag_240\n      jumpi\n      dup1\n      0x1f\n      lt\n      tag_241\n      jumpi\n      0x0100\n      dup1\n      dup4\n      sload\n      div\n      mul\n      dup4\n      mstore\n      swap2\n      0x20\n      add\n      swap2\n      jump(tag_240)\n    tag_241:\n      dup3\n      add\n      swap2\n      swap1\n      0x00\n      mstore\n      keccak256(0x00, 0x20)\n      swap1\n    tag_242:\n      dup2\n      sload\n      dup2\n      mstore\n      swap1\n      0x01\n      add\n      swap1\n      0x20\n      add\n      dup1\n      dup4\n      gt\n      tag_242\n      jumpi\n      dup3\n      swap1\n      sub\n      0x1f\n      and\n      dup3\n      add\n      swap2\n    tag_240:\n      pop\n      pop\n      pop\n      pop\n      pop\n      dup2\n      mstore\n      pop\n      pop\n      dup2\n      mstore\n      0x20\n      add\n      swap1\n      0x01\n      add\n      swap1\n      jump(tag_235)\n    tag_236:\n      pop\n      pop\n      pop\n      pop\n      swap1\n      pop\n        /* \"contracts/WeirdReddit.sol\":1515:1615  function getSubreddits() public view returns (Subreddit[] memory) {... */\n      swap1\n      jump\t// out\n        /* \"contracts/WeirdReddit.sol\":2576:2697  function verifyPost(string memory id) private view returns (bool) {... */\n    tag_47:\n        /* \"contracts/WeirdReddit.sol\":2636:2640  bool */\n      0x00\n        /* \"contracts/WeirdReddit.sol\":2678:2683  posts */\n      0x01\n        /* \"contracts/WeirdReddit.sol\":2678:2690  posts.length */\n      dup1\n      sload\n      swap1\n      pop\n        /* \"contracts/WeirdReddit.sol\":2659:2675  getPostIndex(id) */\n      tag_244\n        /* \"contracts/WeirdReddit.sol\":2672:2674  id */\n      dup4\n        /* \"contracts/WeirdReddit.sol\":2659:2671  getPostIndex */\n      tag_143\n        /* \"contracts/WeirdReddit.sol\":2659:2675  getPostIndex(id) */\n      jump\t// in\n    tag_244:\n        /* \"contracts/WeirdReddit.sol\":2659:2690  getPostIndex(id) < posts.length */\n      lt\n        /* \"contracts/WeirdReddit.sol\":2652:2690  return getPostIndex(id) < posts.length */\n      swap1\n      pop\n        /* \"contracts/WeirdReddit.sol\":2576:2697  function verifyPost(string memory id) private view returns (bool) {... */\n      swap2\n      swap1\n      pop\n      jump\t// out\n        /* \"contracts/WeirdReddit.sol\":1113:1404  function verifySubreddit(string memory subredditName) private view returns (bool) {... */\n    tag_52:\n        /* \"contracts/WeirdReddit.sol\":1189:1193  bool */\n      0x00\n        /* \"contracts/WeirdReddit.sol\":1210:1216  uint i */\n      dup1\n        /* \"contracts/WeirdReddit.sol\":1219:1220  0 */\n      0x00\n        /* \"contracts/WeirdReddit.sol\":1210:1220  uint i = 0 */\n      swap1\n      pop\n        /* \"contracts/WeirdReddit.sol\":1205:1375  for (uint i = 0; i < subreddits.length; ++i) {... */\n    tag_246:\n        /* \"contracts/WeirdReddit.sol\":1226:1236  subreddits */\n      0x00\n        /* \"contracts/WeirdReddit.sol\":1226:1243  subreddits.length */\n      dup1\n      sload\n      swap1\n      pop\n        /* \"contracts/WeirdReddit.sol\":1222:1223  i */\n      dup2\n        /* \"contracts/WeirdReddit.sol\":1222:1243  i < subreddits.length */\n      lt\n        /* \"contracts/WeirdReddit.sol\":1205:1375  for (uint i = 0; i < subreddits.length; ++i) {... */\n      iszero\n      tag_247\n      jumpi\n        /* \"contracts/WeirdReddit.sol\":1268:1319  compare(subreddits[i].subredditName, subredditName) */\n      tag_249\n        /* \"contracts/WeirdReddit.sol\":1276:1286  subreddits */\n      0x00\n        /* \"contracts/WeirdReddit.sol\":1287:1288  i */\n      dup3\n        /* \"contracts/WeirdReddit.sol\":1276:1289  subreddits[i] */\n      dup2\n      sload\n      dup2\n      lt\n      tag_250\n      jumpi\n      tag_251\n      tag_104\n      jump\t// in\n    tag_251:\n    tag_250:\n      swap1\n      0x00\n      mstore\n      keccak256(0x00, 0x20)\n      add\n        /* \"contracts/WeirdReddit.sol\":1276:1303  subreddits[i].subredditName */\n      0x00\n      add\n        /* \"contracts/WeirdReddit.sol\":1268:1319  compare(subreddits[i].subredditName, subredditName) */\n      dup1\n      sload\n      tag_253\n      swap1\n      tag_74\n      jump\t// in\n    tag_253:\n      dup1\n      0x1f\n      add\n      0x20\n      dup1\n      swap2\n      div\n      mul\n      0x20\n      add\n      mload(0x40)\n      swap1\n      dup2\n      add\n      0x40\n      mstore\n      dup1\n      swap3\n      swap2\n      swap1\n      dup2\n      dup2\n      mstore\n      0x20\n      add\n      dup3\n      dup1\n      sload\n      tag_254\n      swap1\n      tag_74\n      jump\t// in\n    tag_254:\n      dup1\n      iszero\n      tag_255\n      jumpi\n      dup1\n      0x1f\n      lt\n      tag_256\n      jumpi\n      0x0100\n      dup1\n      dup4\n      sload\n      div\n      mul\n      dup4\n      mstore\n      swap2\n      0x20\n      add\n      swap2\n      jump(tag_255)\n    tag_256:\n      dup3\n      add\n      swap2\n      swap1\n      0x00\n      mstore\n      keccak256(0x00, 0x20)\n      swap1\n    tag_257:\n      dup2\n      sload\n      dup2\n      mstore\n      swap1\n      0x01\n      add\n      swap1\n      0x20\n      add\n      dup1\n      dup4\n      gt\n      tag_257\n      jumpi\n      dup3\n      swap1\n      sub\n      0x1f\n      and\n      dup3\n      add\n      swap2\n    tag_255:\n      pop\n      pop\n      pop\n      pop\n      pop\n        /* \"contracts/WeirdReddit.sol\":1305:1318  subredditName */\n      dup5\n        /* \"contracts/WeirdReddit.sol\":1268:1275  compare */\n      tag_111\n        /* \"contracts/WeirdReddit.sol\":1268:1319  compare(subreddits[i].subredditName, subredditName) */\n      jump\t// in\n    tag_249:\n        /* \"contracts/WeirdReddit.sol\":1264:1365  if (compare(subreddits[i].subredditName, subredditName)) {... */\n      iszero\n      tag_258\n      jumpi\n        /* \"contracts/WeirdReddit.sol\":1346:1350  true */\n      0x01\n        /* \"contracts/WeirdReddit.sol\":1339:1350  return true */\n      swap2\n      pop\n      pop\n      jump(tag_245)\n        /* \"contracts/WeirdReddit.sol\":1264:1365  if (compare(subreddits[i].subredditName, subredditName)) {... */\n    tag_258:\n        /* \"contracts/WeirdReddit.sol\":1245:1248  ++i */\n      dup1\n      0x01\n      add\n      swap1\n      pop\n        /* \"contracts/WeirdReddit.sol\":1205:1375  for (uint i = 0; i < subreddits.length; ++i) {... */\n      jump(tag_246)\n    tag_247:\n      pop\n        /* \"contracts/WeirdReddit.sol\":1392:1397  false */\n      0x00\n        /* \"contracts/WeirdReddit.sol\":1385:1397  return false */\n      swap1\n      pop\n        /* \"contracts/WeirdReddit.sol\":1113:1404  function verifySubreddit(string memory subredditName) private view returns (bool) {... */\n    tag_245:\n      swap2\n      swap1\n      pop\n      jump\t// out\n        /* \"contracts/WeirdReddit.sol\":229:408  function compare(string memory str1, string memory str2) private pure returns (bool) {... */\n    tag_111:\n        /* \"contracts/WeirdReddit.sol\":308:312  bool */\n      0x00\n        /* \"contracts/WeirdReddit.sol\":395:399  str2 */\n      dup2\n        /* \"contracts/WeirdReddit.sol\":378:400  abi.encodePacked(str2) */\n      add(0x20, mload(0x40))\n      tag_260\n      swap2\n      swap1\n      tag_261\n      jump\t// in\n    tag_260:\n      mload(0x40)\n      0x20\n      dup2\n      dup4\n      sub\n      sub\n      dup2\n      mstore\n      swap1\n      0x40\n      mstore\n        /* \"contracts/WeirdReddit.sol\":368:401  keccak256(abi.encodePacked(str2)) */\n      dup1\n      mload\n      swap1\n      0x20\n      add\n      keccak256\n        /* \"contracts/WeirdReddit.sol\":358:362  str1 */\n      dup4\n        /* \"contracts/WeirdReddit.sol\":341:363  abi.encodePacked(str1) */\n      add(0x20, mload(0x40))\n      tag_262\n      swap2\n      swap1\n      tag_261\n      jump\t// in\n    tag_262:\n      mload(0x40)\n      0x20\n      dup2\n      dup4\n      sub\n      sub\n      dup2\n      mstore\n      swap1\n      0x40\n      mstore\n        /* \"contracts/WeirdReddit.sol\":331:364  keccak256(abi.encodePacked(str1)) */\n      dup1\n      mload\n      swap1\n      0x20\n      add\n      keccak256\n        /* \"contracts/WeirdReddit.sol\":331:401  keccak256(abi.encodePacked(str1)) == keccak256(abi.encodePacked(str2)) */\n      eq\n        /* \"contracts/WeirdReddit.sol\":324:401  return keccak256(abi.encodePacked(str1)) == keccak256(abi.encodePacked(str2)) */\n      swap1\n      pop\n        /* \"contracts/WeirdReddit.sol\":229:408  function compare(string memory str1, string memory str2) private pure returns (bool) {... */\n      swap3\n      swap2\n      pop\n      pop\n      jump\t// out\n        /* \"contracts/WeirdReddit.sol\":2227:2476  function getPostIndex(string memory id) private view returns (uint) {... */\n    tag_143:\n        /* \"contracts/WeirdReddit.sol\":2289:2293  uint */\n      0x00\n        /* \"contracts/WeirdReddit.sol\":2310:2316  uint i */\n      dup1\n        /* \"contracts/WeirdReddit.sol\":2319:2320  0 */\n      0x00\n        /* \"contracts/WeirdReddit.sol\":2310:2320  uint i = 0 */\n      swap1\n      pop\n        /* \"contracts/WeirdReddit.sol\":2305:2440  for (uint i = 0; i < posts.length; ++i) {... */\n    tag_264:\n        /* \"contracts/WeirdReddit.sol\":2326:2331  posts */\n      0x01\n        /* \"contracts/WeirdReddit.sol\":2326:2338  posts.length */\n      dup1\n      sload\n      swap1\n      pop\n        /* \"contracts/WeirdReddit.sol\":2322:2323  i */\n      dup2\n        /* \"contracts/WeirdReddit.sol\":2322:2338  i < posts.length */\n      lt\n        /* \"contracts/WeirdReddit.sol\":2305:2440  for (uint i = 0; i < posts.length; ++i) {... */\n      iszero\n      tag_265\n      jumpi\n        /* \"contracts/WeirdReddit.sol\":2363:2387  compare(posts[i].id, id) */\n      tag_267\n        /* \"contracts/WeirdReddit.sol\":2371:2376  posts */\n      0x01\n        /* \"contracts/WeirdReddit.sol\":2377:2378  i */\n      dup3\n        /* \"contracts/WeirdReddit.sol\":2371:2379  posts[i] */\n      dup2\n      sload\n      dup2\n      lt\n      tag_268\n      jumpi\n      tag_269\n      tag_104\n      jump\t// in\n    tag_269:\n    tag_268:\n      swap1\n      0x00\n      mstore\n      keccak256(0x00, 0x20)\n      swap1\n      0x04\n      mul\n      add\n        /* \"contracts/WeirdReddit.sol\":2371:2382  posts[i].id */\n      0x00\n      add\n        /* \"contracts/WeirdReddit.sol\":2363:2387  compare(posts[i].id, id) */\n      dup1\n      sload\n      tag_271\n      swap1\n      tag_74\n      jump\t// in\n    tag_271:\n      dup1\n      0x1f\n      add\n      0x20\n      dup1\n      swap2\n      div\n      mul\n      0x20\n      add\n      mload(0x40)\n      swap1\n      dup2\n      add\n      0x40\n      mstore\n      dup1\n      swap3\n      swap2\n      swap1\n      dup2\n      dup2\n      mstore\n      0x20\n      add\n      dup3\n      dup1\n      sload\n      tag_272\n      swap1\n      tag_74\n      jump\t// in\n    tag_272:\n      dup1\n      iszero\n      tag_273\n      jumpi\n      dup1\n      0x1f\n      lt\n      tag_274\n      jumpi\n      0x0100\n      dup1\n      dup4\n      sload\n      div\n      mul\n      dup4\n      mstore\n      swap2\n      0x20\n      add\n      swap2\n      jump(tag_273)\n    tag_274:\n      dup3\n      add\n      swap2\n      swap1\n      0x00\n      mstore\n      keccak256(0x00, 0x20)\n      swap1\n    tag_275:\n      dup2\n      sload\n      dup2\n      mstore\n      swap1\n      0x01\n      add\n      swap1\n      0x20\n      add\n      dup1\n      dup4\n      gt\n      tag_275\n      jumpi\n      dup3\n      swap1\n      sub\n      0x1f\n      and\n      dup3\n      add\n      swap2\n    tag_273:\n      pop\n      pop\n      pop\n      pop\n      pop\n        /* \"contracts/WeirdReddit.sol\":2384:2386  id */\n      dup5\n        /* \"contracts/WeirdReddit.sol\":2363:2370  compare */\n      tag_111\n        /* \"contracts/WeirdReddit.sol\":2363:2387  compare(posts[i].id, id) */\n      jump\t// in\n    tag_267:\n        /* \"contracts/WeirdReddit.sol\":2359:2430  if (compare(posts[i].id, id)) {... */\n      iszero\n      tag_276\n      jumpi\n        /* \"contracts/WeirdReddit.sol\":2414:2415  i */\n      dup1\n        /* \"contracts/WeirdReddit.sol\":2407:2415  return i */\n      swap2\n      pop\n      pop\n      jump(tag_263)\n        /* \"contracts/WeirdReddit.sol\":2359:2430  if (compare(posts[i].id, id)) {... */\n    tag_276:\n        /* \"contracts/WeirdReddit.sol\":2340:2343  ++i */\n      dup1\n      0x01\n      add\n      swap1\n      pop\n        /* \"contracts/WeirdReddit.sol\":2305:2440  for (uint i = 0; i < posts.length; ++i) {... */\n      jump(tag_264)\n    tag_265:\n      pop\n        /* \"contracts/WeirdReddit.sol\":2457:2462  posts */\n      0x01\n        /* \"contracts/WeirdReddit.sol\":2457:2469  posts.length */\n      dup1\n      sload\n      swap1\n      pop\n        /* \"contracts/WeirdReddit.sol\":2450:2469  return posts.length */\n      swap1\n      pop\n        /* \"contracts/WeirdReddit.sol\":2227:2476  function getPostIndex(string memory id) private view returns (uint) {... */\n    tag_263:\n      swap2\n      swap1\n      pop\n      jump\t// out\n    tag_140:\n      mload(0x40)\n      dup1\n      0x80\n      add\n      0x40\n      mstore\n      dup1\n      0x60\n      dup2\n      mstore\n      0x20\n      add\n      0x60\n      dup2\n      mstore\n      0x20\n      add\n      0x60\n      dup2\n      mstore\n      0x20\n      add\n      0x60\n      dup2\n      mstore\n      pop\n      swap1\n      jump\t// out\n        /* \"#utility.yul\":7:82   */\n    tag_277:\n        /* \"#utility.yul\":40:46   */\n      0x00\n        /* \"#utility.yul\":73:75   */\n      0x40\n        /* \"#utility.yul\":67:76   */\n      mload\n        /* \"#utility.yul\":57:76   */\n      swap1\n      pop\n        /* \"#utility.yul\":7:82   */\n      swap1\n      jump\t// out\n        /* \"#utility.yul\":88:205   */\n    tag_278:\n        /* \"#utility.yul\":197:198   */\n      0x00\n        /* \"#utility.yul\":194:195   */\n      dup1\n        /* \"#utility.yul\":187:199   */\n      revert\n        /* \"#utility.yul\":211:328   */\n    tag_279:\n        /* \"#utility.yul\":320:321   */\n      0x00\n        /* \"#utility.yul\":317:318   */\n      dup1\n        /* \"#utility.yul\":310:322   */\n      revert\n        /* \"#utility.yul\":334:451   */\n    tag_280:\n        /* \"#utility.yul\":443:444   */\n      0x00\n        /* \"#utility.yul\":440:441   */\n      dup1\n        /* \"#utility.yul\":433:445   */\n      revert\n        /* \"#utility.yul\":457:574   */\n    tag_281:\n        /* \"#utility.yul\":566:567   */\n      0x00\n        /* \"#utility.yul\":563:564   */\n      dup1\n        /* \"#utility.yul\":556:568   */\n      revert\n        /* \"#utility.yul\":580:682   */\n    tag_282:\n        /* \"#utility.yul\":621:627   */\n      0x00\n        /* \"#utility.yul\":672:674   */\n      0x1f\n        /* \"#utility.yul\":668:675   */\n      not\n        /* \"#utility.yul\":663:665   */\n      0x1f\n        /* \"#utility.yul\":656:661   */\n      dup4\n        /* \"#utility.yul\":652:666   */\n      add\n        /* \"#utility.yul\":648:676   */\n      and\n        /* \"#utility.yul\":638:676   */\n      swap1\n      pop\n        /* \"#utility.yul\":580:682   */\n      swap2\n      swap1\n      pop\n      jump\t// out\n        /* \"#utility.yul\":688:868   */\n    tag_191:\n        /* \"#utility.yul\":736:813   */\n      0x4e487b7100000000000000000000000000000000000000000000000000000000\n        /* \"#utility.yul\":733:734   */\n      0x00\n        /* \"#utility.yul\":726:814   */\n      mstore\n        /* \"#utility.yul\":833:837   */\n      0x41\n        /* \"#utility.yul\":830:831   */\n      0x04\n        /* \"#utility.yul\":823:838   */\n      mstore\n        /* \"#utility.yul\":857:861   */\n      0x24\n        /* \"#utility.yul\":854:855   */\n      0x00\n        /* \"#utility.yul\":847:862   */\n      revert\n        /* \"#utility.yul\":874:1155   */\n    tag_283:\n        /* \"#utility.yul\":957:984   */\n      tag_346\n        /* \"#utility.yul\":979:983   */\n      dup3\n        /* \"#utility.yul\":957:984   */\n      tag_282\n      jump\t// in\n    tag_346:\n        /* \"#utility.yul\":949:955   */\n      dup2\n        /* \"#utility.yul\":945:985   */\n      add\n        /* \"#utility.yul\":1087:1093   */\n      dup2\n        /* \"#utility.yul\":1075:1085   */\n      dup2\n        /* \"#utility.yul\":1072:1094   */\n      lt\n        /* \"#utility.yul\":1051:1069   */\n      0xffffffffffffffff\n        /* \"#utility.yul\":1039:1049   */\n      dup3\n        /* \"#utility.yul\":1036:1070   */\n      gt\n        /* \"#utility.yul\":1033:1095   */\n      or\n        /* \"#utility.yul\":1030:1118   */\n      iszero\n      tag_347\n      jumpi\n        /* \"#utility.yul\":1098:1116   */\n      tag_348\n      tag_191\n      jump\t// in\n    tag_348:\n        /* \"#utility.yul\":1030:1118   */\n    tag_347:\n        /* \"#utility.yul\":1138:1148   */\n      dup1\n        /* \"#utility.yul\":1134:1136   */\n      0x40\n        /* \"#utility.yul\":1127:1149   */\n      mstore\n        /* \"#utility.yul\":917:1155   */\n      pop\n        /* \"#utility.yul\":874:1155   */\n      pop\n      pop\n      jump\t// out\n        /* \"#utility.yul\":1161:1290   */\n    tag_284:\n        /* \"#utility.yul\":1195:1201   */\n      0x00\n        /* \"#utility.yul\":1222:1242   */\n      tag_350\n      tag_277\n      jump\t// in\n    tag_350:\n        /* \"#utility.yul\":1212:1242   */\n      swap1\n      pop\n        /* \"#utility.yul\":1251:1284   */\n      tag_351\n        /* \"#utility.yul\":1279:1283   */\n      dup3\n        /* \"#utility.yul\":1271:1277   */\n      dup3\n        /* \"#utility.yul\":1251:1284   */\n      tag_283\n      jump\t// in\n    tag_351:\n        /* \"#utility.yul\":1161:1290   */\n      swap2\n      swap1\n      pop\n      jump\t// out\n        /* \"#utility.yul\":1296:1604   */\n    tag_285:\n        /* \"#utility.yul\":1358:1362   */\n      0x00\n        /* \"#utility.yul\":1448:1466   */\n      0xffffffffffffffff\n        /* \"#utility.yul\":1440:1446   */\n      dup3\n        /* \"#utility.yul\":1437:1467   */\n      gt\n        /* \"#utility.yul\":1434:1490   */\n      iszero\n      tag_353\n      jumpi\n        /* \"#utility.yul\":1470:1488   */\n      tag_354\n      tag_191\n      jump\t// in\n    tag_354:\n        /* \"#utility.yul\":1434:1490   */\n    tag_353:\n        /* \"#utility.yul\":1508:1537   */\n      tag_355\n        /* \"#utility.yul\":1530:1536   */\n      dup3\n        /* \"#utility.yul\":1508:1537   */\n      tag_282\n      jump\t// in\n    tag_355:\n        /* \"#utility.yul\":1500:1537   */\n      swap1\n      pop\n        /* \"#utility.yul\":1592:1596   */\n      0x20\n        /* \"#utility.yul\":1586:1590   */\n      dup2\n        /* \"#utility.yul\":1582:1597   */\n      add\n        /* \"#utility.yul\":1574:1597   */\n      swap1\n      pop\n        /* \"#utility.yul\":1296:1604   */\n      swap2\n      swap1\n      pop\n      jump\t// out\n        /* \"#utility.yul\":1610:1756   */\n    tag_286:\n        /* \"#utility.yul\":1707:1713   */\n      dup3\n        /* \"#utility.yul\":1702:1705   */\n      dup2\n        /* \"#utility.yul\":1697:1700   */\n      dup4\n        /* \"#utility.yul\":1684:1714   */\n      calldatacopy\n        /* \"#utility.yul\":1748:1749   */\n      0x00\n        /* \"#utility.yul\":1739:1745   */\n      dup4\n        /* \"#utility.yul\":1734:1737   */\n      dup4\n        /* \"#utility.yul\":1730:1746   */\n      add\n        /* \"#utility.yul\":1723:1750   */\n      mstore\n        /* \"#utility.yul\":1610:1756   */\n      pop\n      pop\n      pop\n      jump\t// out\n        /* \"#utility.yul\":1762:2187   */\n    tag_287:\n        /* \"#utility.yul\":1840:1845   */\n      0x00\n        /* \"#utility.yul\":1865:1931   */\n      tag_358\n        /* \"#utility.yul\":1881:1930   */\n      tag_359\n        /* \"#utility.yul\":1923:1929   */\n      dup5\n        /* \"#utility.yul\":1881:1930   */\n      tag_285\n      jump\t// in\n    tag_359:\n        /* \"#utility.yul\":1865:1931   */\n      tag_284\n      jump\t// in\n    tag_358:\n        /* \"#utility.yul\":1856:1931   */\n      swap1\n      pop\n        /* \"#utility.yul\":1954:1960   */\n      dup3\n        /* \"#utility.yul\":1947:1952   */\n      dup2\n        /* \"#utility.yul\":1940:1961   */\n      mstore\n        /* \"#utility.yul\":1992:1996   */\n      0x20\n        /* \"#utility.yul\":1985:1990   */\n      dup2\n        /* \"#utility.yul\":1981:1997   */\n      add\n        /* \"#utility.yul\":2030:2033   */\n      dup5\n        /* \"#utility.yul\":2021:2027   */\n      dup5\n        /* \"#utility.yul\":2016:2019   */\n      dup5\n        /* \"#utility.yul\":2012:2028   */\n      add\n        /* \"#utility.yul\":2009:2034   */\n      gt\n        /* \"#utility.yul\":2006:2118   */\n      iszero\n      tag_360\n      jumpi\n        /* \"#utility.yul\":2037:2116   */\n      tag_361\n      tag_281\n      jump\t// in\n    tag_361:\n        /* \"#utility.yul\":2006:2118   */\n    tag_360:\n        /* \"#utility.yul\":2127:2181   */\n      tag_362\n        /* \"#utility.yul\":2174:2180   */\n      dup5\n        /* \"#utility.yul\":2169:2172   */\n      dup3\n        /* \"#utility.yul\":2164:2167   */\n      dup6\n        /* \"#utility.yul\":2127:2181   */\n      tag_286\n      jump\t// in\n    tag_362:\n        /* \"#utility.yul\":1846:2187   */\n      pop\n        /* \"#utility.yul\":1762:2187   */\n      swap4\n      swap3\n      pop\n      pop\n      pop\n      jump\t// out\n        /* \"#utility.yul\":2207:2547   */\n    tag_288:\n        /* \"#utility.yul\":2263:2268   */\n      0x00\n        /* \"#utility.yul\":2312:2315   */\n      dup3\n        /* \"#utility.yul\":2305:2309   */\n      0x1f\n        /* \"#utility.yul\":2297:2303   */\n      dup4\n        /* \"#utility.yul\":2293:2310   */\n      add\n        /* \"#utility.yul\":2289:2316   */\n      slt\n        /* \"#utility.yul\":2279:2401   */\n      tag_364\n      jumpi\n        /* \"#utility.yul\":2320:2399   */\n      tag_365\n      tag_280\n      jump\t// in\n    tag_365:\n        /* \"#utility.yul\":2279:2401   */\n    tag_364:\n        /* \"#utility.yul\":2437:2443   */\n      dup2\n        /* \"#utility.yul\":2424:2444   */\n      calldataload\n        /* \"#utility.yul\":2462:2541   */\n      tag_366\n        /* \"#utility.yul\":2537:2540   */\n      dup5\n        /* \"#utility.yul\":2529:2535   */\n      dup3\n        /* \"#utility.yul\":2522:2526   */\n      0x20\n        /* \"#utility.yul\":2514:2520   */\n      dup7\n        /* \"#utility.yul\":2510:2527   */\n      add\n        /* \"#utility.yul\":2462:2541   */\n      tag_287\n      jump\t// in\n    tag_366:\n        /* \"#utility.yul\":2453:2541   */\n      swap2\n      pop\n        /* \"#utility.yul\":2269:2547   */\n      pop\n        /* \"#utility.yul\":2207:2547   */\n      swap3\n      swap2\n      pop\n      pop\n      jump\t// out\n        /* \"#utility.yul\":2553:4038   */\n    tag_14:\n        /* \"#utility.yul\":2679:2685   */\n      0x00\n        /* \"#utility.yul\":2687:2693   */\n      dup1\n        /* \"#utility.yul\":2695:2701   */\n      0x00\n        /* \"#utility.yul\":2703:2709   */\n      dup1\n        /* \"#utility.yul\":2752:2755   */\n      0x80\n        /* \"#utility.yul\":2740:2749   */\n      dup6\n        /* \"#utility.yul\":2731:2738   */\n      dup8\n        /* \"#utility.yul\":2727:2750   */\n      sub\n        /* \"#utility.yul\":2723:2756   */\n      slt\n        /* \"#utility.yul\":2720:2840   */\n      iszero\n      tag_368\n      jumpi\n        /* \"#utility.yul\":2759:2838   */\n      tag_369\n      tag_278\n      jump\t// in\n    tag_369:\n        /* \"#utility.yul\":2720:2840   */\n    tag_368:\n        /* \"#utility.yul\":2907:2908   */\n      0x00\n        /* \"#utility.yul\":2896:2905   */\n      dup6\n        /* \"#utility.yul\":2892:2909   */\n      add\n        /* \"#utility.yul\":2879:2910   */\n      calldataload\n        /* \"#utility.yul\":2937:2955   */\n      0xffffffffffffffff\n        /* \"#utility.yul\":2929:2935   */\n      dup2\n        /* \"#utility.yul\":2926:2956   */\n      gt\n        /* \"#utility.yul\":2923:3040   */\n      iszero\n      tag_370\n      jumpi\n        /* \"#utility.yul\":2959:3038   */\n      tag_371\n      tag_279\n      jump\t// in\n    tag_371:\n        /* \"#utility.yul\":2923:3040   */\n    tag_370:\n        /* \"#utility.yul\":3064:3127   */\n      tag_372\n        /* \"#utility.yul\":3119:3126   */\n      dup8\n        /* \"#utility.yul\":3110:3116   */\n      dup3\n        /* \"#utility.yul\":3099:3108   */\n      dup9\n        /* \"#utility.yul\":3095:3117   */\n      add\n        /* \"#utility.yul\":3064:3127   */\n      tag_288\n      jump\t// in\n    tag_372:\n        /* \"#utility.yul\":3054:3127   */\n      swap5\n      pop\n        /* \"#utility.yul\":2850:3137   */\n      pop\n        /* \"#utility.yul\":3204:3206   */\n      0x20\n        /* \"#utility.yul\":3193:3202   */\n      dup6\n        /* \"#utility.yul\":3189:3207   */\n      add\n        /* \"#utility.yul\":3176:3208   */\n      calldataload\n        /* \"#utility.yul\":3235:3253   */\n      0xffffffffffffffff\n        /* \"#utility.yul\":3227:3233   */\n      dup2\n        /* \"#utility.yul\":3224:3254   */\n      gt\n        /* \"#utility.yul\":3221:3338   */\n      iszero\n      tag_373\n      jumpi\n        /* \"#utility.yul\":3257:3336   */\n      tag_374\n      tag_279\n      jump\t// in\n    tag_374:\n        /* \"#utility.yul\":3221:3338   */\n    tag_373:\n        /* \"#utility.yul\":3362:3425   */\n      tag_375\n        /* \"#utility.yul\":3417:3424   */\n      dup8\n        /* \"#utility.yul\":3408:3414   */\n      dup3\n        /* \"#utility.yul\":3397:3406   */\n      dup9\n        /* \"#utility.yul\":3393:3415   */\n      add\n        /* \"#utility.yul\":3362:3425   */\n      tag_288\n      jump\t// in\n    tag_375:\n        /* \"#utility.yul\":3352:3425   */\n      swap4\n      pop\n        /* \"#utility.yul\":3147:3435   */\n      pop\n        /* \"#utility.yul\":3502:3504   */\n      0x40\n        /* \"#utility.yul\":3491:3500   */\n      dup6\n        /* \"#utility.yul\":3487:3505   */\n      add\n        /* \"#utility.yul\":3474:3506   */\n      calldataload\n        /* \"#utility.yul\":3533:3551   */\n      0xffffffffffffffff\n        /* \"#utility.yul\":3525:3531   */\n      dup2\n        /* \"#utility.yul\":3522:3552   */\n      gt\n        /* \"#utility.yul\":3519:3636   */\n      iszero\n      tag_376\n      jumpi\n        /* \"#utility.yul\":3555:3634   */\n      tag_377\n      tag_279\n      jump\t// in\n    tag_377:\n        /* \"#utility.yul\":3519:3636   */\n    tag_376:\n        /* \"#utility.yul\":3660:3723   */\n      tag_378\n        /* \"#utility.yul\":3715:3722   */\n      dup8\n        /* \"#utility.yul\":3706:3712   */\n      dup3\n        /* \"#utility.yul\":3695:3704   */\n      dup9\n        /* \"#utility.yul\":3691:3713   */\n      add\n        /* \"#utility.yul\":3660:3723   */\n      tag_288\n      jump\t// in\n    tag_378:\n        /* \"#utility.yul\":3650:3723   */\n      swap3\n      pop\n        /* \"#utility.yul\":3445:3733   */\n      pop\n        /* \"#utility.yul\":3800:3802   */\n      0x60\n        /* \"#utility.yul\":3789:3798   */\n      dup6\n        /* \"#utility.yul\":3785:3803   */\n      add\n        /* \"#utility.yul\":3772:3804   */\n      calldataload\n        /* \"#utility.yul\":3831:3849   */\n      0xffffffffffffffff\n        /* \"#utility.yul\":3823:3829   */\n      dup2\n        /* \"#utility.yul\":3820:3850   */\n      gt\n        /* \"#utility.yul\":3817:3934   */\n      iszero\n      tag_379\n      jumpi\n        /* \"#utility.yul\":3853:3932   */\n      tag_380\n      tag_279\n      jump\t// in\n    tag_380:\n        /* \"#utility.yul\":3817:3934   */\n    tag_379:\n        /* \"#utility.yul\":3958:4021   */\n      tag_381\n        /* \"#utility.yul\":4013:4020   */\n      dup8\n        /* \"#utility.yul\":4004:4010   */\n      dup3\n        /* \"#utility.yul\":3993:4002   */\n      dup9\n        /* \"#utility.yul\":3989:4011   */\n      add\n        /* \"#utility.yul\":3958:4021   */\n      tag_288\n      jump\t// in\n    tag_381:\n        /* \"#utility.yul\":3948:4021   */\n      swap2\n      pop\n        /* \"#utility.yul\":3743:4031   */\n      pop\n        /* \"#utility.yul\":2553:4038   */\n      swap3\n      swap6\n      swap2\n      swap5\n      pop\n      swap3\n      pop\n      jump\t// out\n        /* \"#utility.yul\":4044:4553   */\n    tag_18:\n        /* \"#utility.yul\":4113:4119   */\n      0x00\n        /* \"#utility.yul\":4162:4164   */\n      0x20\n        /* \"#utility.yul\":4150:4159   */\n      dup3\n        /* \"#utility.yul\":4141:4148   */\n      dup5\n        /* \"#utility.yul\":4137:4160   */\n      sub\n        /* \"#utility.yul\":4133:4165   */\n      slt\n        /* \"#utility.yul\":4130:4249   */\n      iszero\n      tag_383\n      jumpi\n        /* \"#utility.yul\":4168:4247   */\n      tag_384\n      tag_278\n      jump\t// in\n    tag_384:\n        /* \"#utility.yul\":4130:4249   */\n    tag_383:\n        /* \"#utility.yul\":4316:4317   */\n      0x00\n        /* \"#utility.yul\":4305:4314   */\n      dup3\n        /* \"#utility.yul\":4301:4318   */\n      add\n        /* \"#utility.yul\":4288:4319   */\n      calldataload\n        /* \"#utility.yul\":4346:4364   */\n      0xffffffffffffffff\n        /* \"#utility.yul\":4338:4344   */\n      dup2\n        /* \"#utility.yul\":4335:4365   */\n      gt\n        /* \"#utility.yul\":4332:4449   */\n      iszero\n      tag_385\n      jumpi\n        /* \"#utility.yul\":4368:4447   */\n      tag_386\n      tag_279\n      jump\t// in\n    tag_386:\n        /* \"#utility.yul\":4332:4449   */\n    tag_385:\n        /* \"#utility.yul\":4473:4536   */\n      tag_387\n        /* \"#utility.yul\":4528:4535   */\n      dup5\n        /* \"#utility.yul\":4519:4525   */\n      dup3\n        /* \"#utility.yul\":4508:4517   */\n      dup6\n        /* \"#utility.yul\":4504:4526   */\n      add\n        /* \"#utility.yul\":4473:4536   */\n      tag_288\n      jump\t// in\n    tag_387:\n        /* \"#utility.yul\":4463:4536   */\n      swap2\n      pop\n        /* \"#utility.yul\":4259:4546   */\n      pop\n        /* \"#utility.yul\":4044:4553   */\n      swap3\n      swap2\n      pop\n      pop\n      jump\t// out\n        /* \"#utility.yul\":4559:4693   */\n    tag_289:\n        /* \"#utility.yul\":4646:4652   */\n      0x00\n        /* \"#utility.yul\":4680:4685   */\n      dup2\n        /* \"#utility.yul\":4674:4686   */\n      mload\n        /* \"#utility.yul\":4664:4686   */\n      swap1\n      pop\n        /* \"#utility.yul\":4559:4693   */\n      swap2\n      swap1\n      pop\n      jump\t// out\n        /* \"#utility.yul\":4699:4903   */\n    tag_290:\n        /* \"#utility.yul\":4818:4829   */\n      0x00\n        /* \"#utility.yul\":4852:4858   */\n      dup3\n        /* \"#utility.yul\":4847:4850   */\n      dup3\n        /* \"#utility.yul\":4840:4859   */\n      mstore\n        /* \"#utility.yul\":4892:4896   */\n      0x20\n        /* \"#utility.yul\":4887:4890   */\n      dup3\n        /* \"#utility.yul\":4883:4897   */\n      add\n        /* \"#utility.yul\":4868:4897   */\n      swap1\n      pop\n        /* \"#utility.yul\":4699:4903   */\n      swap3\n      swap2\n      pop\n      pop\n      jump\t// out\n        /* \"#utility.yul\":4909:5061   */\n    tag_291:\n        /* \"#utility.yul\":4996:5000   */\n      0x00\n        /* \"#utility.yul\":5019:5022   */\n      dup2\n        /* \"#utility.yul\":5011:5022   */\n      swap1\n      pop\n        /* \"#utility.yul\":5049:5053   */\n      0x20\n        /* \"#utility.yul\":5044:5047   */\n      dup3\n        /* \"#utility.yul\":5040:5054   */\n      add\n        /* \"#utility.yul\":5032:5054   */\n      swap1\n      pop\n        /* \"#utility.yul\":4909:5061   */\n      swap2\n      swap1\n      pop\n      jump\t// out\n        /* \"#utility.yul\":5067:5166   */\n    tag_292:\n        /* \"#utility.yul\":5119:5125   */\n      0x00\n        /* \"#utility.yul\":5153:5158   */\n      dup2\n        /* \"#utility.yul\":5147:5159   */\n      mload\n        /* \"#utility.yul\":5137:5159   */\n      swap1\n      pop\n        /* \"#utility.yul\":5067:5166   */\n      swap2\n      swap1\n      pop\n      jump\t// out\n        /* \"#utility.yul\":5172:5331   */\n    tag_293:\n        /* \"#utility.yul\":5246:5257   */\n      0x00\n        /* \"#utility.yul\":5280:5286   */\n      dup3\n        /* \"#utility.yul\":5275:5278   */\n      dup3\n        /* \"#utility.yul\":5268:5287   */\n      mstore\n        /* \"#utility.yul\":5320:5324   */\n      0x20\n        /* \"#utility.yul\":5315:5318   */\n      dup3\n        /* \"#utility.yul\":5311:5325   */\n      add\n        /* \"#utility.yul\":5296:5325   */\n      swap1\n      pop\n        /* \"#utility.yul\":5172:5331   */\n      swap3\n      swap2\n      pop\n      pop\n      jump\t// out\n        /* \"#utility.yul\":5337:5583   */\n    tag_294:\n        /* \"#utility.yul\":5418:5419   */\n      0x00\n        /* \"#utility.yul\":5428:5541   */\n    tag_394:\n        /* \"#utility.yul\":5442:5448   */\n      dup4\n        /* \"#utility.yul\":5439:5440   */\n      dup2\n        /* \"#utility.yul\":5436:5449   */\n      lt\n        /* \"#utility.yul\":5428:5541   */\n      iszero\n      tag_396\n      jumpi\n        /* \"#utility.yul\":5527:5528   */\n      dup1\n        /* \"#utility.yul\":5522:5525   */\n      dup3\n        /* \"#utility.yul\":5518:5529   */\n      add\n        /* \"#utility.yul\":5512:5530   */\n      mload\n        /* \"#utility.yul\":5508:5509   */\n      dup2\n        /* \"#utility.yul\":5503:5506   */\n      dup5\n        /* \"#utility.yul\":5499:5510   */\n      add\n        /* \"#utility.yul\":5492:5531   */\n      mstore\n        /* \"#utility.yul\":5464:5466   */\n      0x20\n        /* \"#utility.yul\":5461:5462   */\n      dup2\n        /* \"#utility.yul\":5457:5467   */\n      add\n        /* \"#utility.yul\":5452:5467   */\n      swap1\n      pop\n        /* \"#utility.yul\":5428:5541   */\n      jump(tag_394)\n    tag_396:\n        /* \"#utility.yul\":5575:5576   */\n      0x00\n        /* \"#utility.yul\":5566:5572   */\n      dup5\n        /* \"#utility.yul\":5561:5564   */\n      dup5\n        /* \"#utility.yul\":5557:5573   */\n      add\n        /* \"#utility.yul\":5550:5577   */\n      mstore\n        /* \"#utility.yul\":5399:5583   */\n      pop\n        /* \"#utility.yul\":5337:5583   */\n      pop\n      pop\n      pop\n      jump\t// out\n        /* \"#utility.yul\":5589:5946   */\n    tag_295:\n        /* \"#utility.yul\":5667:5670   */\n      0x00\n        /* \"#utility.yul\":5695:5734   */\n      tag_398\n        /* \"#utility.yul\":5728:5733   */\n      dup3\n        /* \"#utility.yul\":5695:5734   */\n      tag_292\n      jump\t// in\n    tag_398:\n        /* \"#utility.yul\":5750:5811   */\n      tag_399\n        /* \"#utility.yul\":5804:5810   */\n      dup2\n        /* \"#utility.yul\":5799:5802   */\n      dup6\n        /* \"#utility.yul\":5750:5811   */\n      tag_293\n      jump\t// in\n    tag_399:\n        /* \"#utility.yul\":5743:5811   */\n      swap4\n      pop\n        /* \"#utility.yul\":5820:5885   */\n      tag_400\n        /* \"#utility.yul\":5878:5884   */\n      dup2\n        /* \"#utility.yul\":5873:5876   */\n      dup6\n        /* \"#utility.yul\":5866:5870   */\n      0x20\n        /* \"#utility.yul\":5859:5864   */\n      dup7\n        /* \"#utility.yul\":5855:5871   */\n      add\n        /* \"#utility.yul\":5820:5885   */\n      tag_294\n      jump\t// in\n    tag_400:\n        /* \"#utility.yul\":5910:5939   */\n      tag_401\n        /* \"#utility.yul\":5932:5938   */\n      dup2\n        /* \"#utility.yul\":5910:5939   */\n      tag_282\n      jump\t// in\n    tag_401:\n        /* \"#utility.yul\":5905:5908   */\n      dup5\n        /* \"#utility.yul\":5901:5940   */\n      add\n        /* \"#utility.yul\":5894:5940   */\n      swap2\n      pop\n        /* \"#utility.yul\":5671:5946   */\n      pop\n        /* \"#utility.yul\":5589:5946   */\n      swap3\n      swap2\n      pop\n      pop\n      jump\t// out\n        /* \"#utility.yul\":6010:7168   */\n    tag_296:\n        /* \"#utility.yul\":6109:6112   */\n      0x00\n        /* \"#utility.yul\":6145:6149   */\n      0x80\n        /* \"#utility.yul\":6140:6143   */\n      dup4\n        /* \"#utility.yul\":6136:6150   */\n      add\n        /* \"#utility.yul\":6230:6234   */\n      0x00\n        /* \"#utility.yul\":6223:6228   */\n      dup4\n        /* \"#utility.yul\":6219:6235   */\n      add\n        /* \"#utility.yul\":6213:6236   */\n      mload\n        /* \"#utility.yul\":6283:6286   */\n      dup5\n        /* \"#utility.yul\":6277:6281   */\n      dup3\n        /* \"#utility.yul\":6273:6287   */\n      sub\n        /* \"#utility.yul\":6266:6270   */\n      0x00\n        /* \"#utility.yul\":6261:6264   */\n      dup7\n        /* \"#utility.yul\":6257:6271   */\n      add\n        /* \"#utility.yul\":6250:6288   */\n      mstore\n        /* \"#utility.yul\":6309:6382   */\n      tag_403\n        /* \"#utility.yul\":6377:6381   */\n      dup3\n        /* \"#utility.yul\":6363:6375   */\n      dup3\n        /* \"#utility.yul\":6309:6382   */\n      tag_295\n      jump\t// in\n    tag_403:\n        /* \"#utility.yul\":6301:6382   */\n      swap2\n      pop\n        /* \"#utility.yul\":6160:6393   */\n      pop\n        /* \"#utility.yul\":6484:6488   */\n      0x20\n        /* \"#utility.yul\":6477:6482   */\n      dup4\n        /* \"#utility.yul\":6473:6489   */\n      add\n        /* \"#utility.yul\":6467:6490   */\n      mload\n        /* \"#utility.yul\":6537:6540   */\n      dup5\n        /* \"#utility.yul\":6531:6535   */\n      dup3\n        /* \"#utility.yul\":6527:6541   */\n      sub\n        /* \"#utility.yul\":6520:6524   */\n      0x20\n        /* \"#utility.yul\":6515:6518   */\n      dup7\n        /* \"#utility.yul\":6511:6525   */\n      add\n        /* \"#utility.yul\":6504:6542   */\n      mstore\n        /* \"#utility.yul\":6563:6636   */\n      tag_404\n        /* \"#utility.yul\":6631:6635   */\n      dup3\n        /* \"#utility.yul\":6617:6629   */\n      dup3\n        /* \"#utility.yul\":6563:6636   */\n      tag_295\n      jump\t// in\n    tag_404:\n        /* \"#utility.yul\":6555:6636   */\n      swap2\n      pop\n        /* \"#utility.yul\":6403:6647   */\n      pop\n        /* \"#utility.yul\":6730:6734   */\n      0x40\n        /* \"#utility.yul\":6723:6728   */\n      dup4\n        /* \"#utility.yul\":6719:6735   */\n      add\n        /* \"#utility.yul\":6713:6736   */\n      mload\n        /* \"#utility.yul\":6783:6786   */\n      dup5\n        /* \"#utility.yul\":6777:6781   */\n      dup3\n        /* \"#utility.yul\":6773:6787   */\n      sub\n        /* \"#utility.yul\":6766:6770   */\n      0x40\n        /* \"#utility.yul\":6761:6764   */\n      dup7\n        /* \"#utility.yul\":6757:6771   */\n      add\n        /* \"#utility.yul\":6750:6788   */\n      mstore\n        /* \"#utility.yul\":6809:6882   */\n      tag_405\n        /* \"#utility.yul\":6877:6881   */\n      dup3\n        /* \"#utility.yul\":6863:6875   */\n      dup3\n        /* \"#utility.yul\":6809:6882   */\n      tag_295\n      jump\t// in\n    tag_405:\n        /* \"#utility.yul\":6801:6882   */\n      swap2\n      pop\n        /* \"#utility.yul\":6657:6893   */\n      pop\n        /* \"#utility.yul\":6978:6982   */\n      0x60\n        /* \"#utility.yul\":6971:6976   */\n      dup4\n        /* \"#utility.yul\":6967:6983   */\n      add\n        /* \"#utility.yul\":6961:6984   */\n      mload\n        /* \"#utility.yul\":7031:7034   */\n      dup5\n        /* \"#utility.yul\":7025:7029   */\n      dup3\n        /* \"#utility.yul\":7021:7035   */\n      sub\n        /* \"#utility.yul\":7014:7018   */\n      0x60\n        /* \"#utility.yul\":7009:7012   */\n      dup7\n        /* \"#utility.yul\":7005:7019   */\n      add\n        /* \"#utility.yul\":6998:7036   */\n      mstore\n        /* \"#utility.yul\":7057:7130   */\n      tag_406\n        /* \"#utility.yul\":7125:7129   */\n      dup3\n        /* \"#utility.yul\":7111:7123   */\n      dup3\n        /* \"#utility.yul\":7057:7130   */\n      tag_295\n      jump\t// in\n    tag_406:\n        /* \"#utility.yul\":7049:7130   */\n      swap2\n      pop\n        /* \"#utility.yul\":6903:7141   */\n      pop\n        /* \"#utility.yul\":7158:7162   */\n      dup1\n        /* \"#utility.yul\":7151:7162   */\n      swap2\n      pop\n        /* \"#utility.yul\":6114:7168   */\n      pop\n        /* \"#utility.yul\":6010:7168   */\n      swap3\n      swap2\n      pop\n      pop\n      jump\t// out\n        /* \"#utility.yul\":7174:7410   */\n    tag_297:\n        /* \"#utility.yul\":7283:7293   */\n      0x00\n        /* \"#utility.yul\":7318:7404   */\n      tag_408\n        /* \"#utility.yul\":7400:7403   */\n      dup4\n        /* \"#utility.yul\":7392:7398   */\n      dup4\n        /* \"#utility.yul\":7318:7404   */\n      tag_296\n      jump\t// in\n    tag_408:\n        /* \"#utility.yul\":7304:7404   */\n      swap1\n      pop\n        /* \"#utility.yul\":7174:7410   */\n      swap3\n      swap2\n      pop\n      pop\n      jump\t// out\n        /* \"#utility.yul\":7416:7549   */\n    tag_298:\n        /* \"#utility.yul\":7506:7510   */\n      0x00\n        /* \"#utility.yul\":7538:7542   */\n      0x20\n        /* \"#utility.yul\":7533:7536   */\n      dup3\n        /* \"#utility.yul\":7529:7543   */\n      add\n        /* \"#utility.yul\":7521:7543   */\n      swap1\n      pop\n        /* \"#utility.yul\":7416:7549   */\n      swap2\n      swap1\n      pop\n      jump\t// out\n        /* \"#utility.yul\":7617:8688   */\n    tag_299:\n        /* \"#utility.yul\":7776:7779   */\n      0x00\n        /* \"#utility.yul\":7805:7879   */\n      tag_411\n        /* \"#utility.yul\":7873:7878   */\n      dup3\n        /* \"#utility.yul\":7805:7879   */\n      tag_289\n      jump\t// in\n    tag_411:\n        /* \"#utility.yul\":7895:8001   */\n      tag_412\n        /* \"#utility.yul\":7994:8000   */\n      dup2\n        /* \"#utility.yul\":7989:7992   */\n      dup6\n        /* \"#utility.yul\":7895:8001   */\n      tag_290\n      jump\t// in\n    tag_412:\n        /* \"#utility.yul\":7888:8001   */\n      swap4\n      pop\n        /* \"#utility.yul\":8027:8030   */\n      dup4\n        /* \"#utility.yul\":8072:8076   */\n      0x20\n        /* \"#utility.yul\":8064:8070   */\n      dup3\n        /* \"#utility.yul\":8060:8077   */\n      mul\n        /* \"#utility.yul\":8055:8058   */\n      dup6\n        /* \"#utility.yul\":8051:8078   */\n      add\n        /* \"#utility.yul\":8102:8178   */\n      tag_413\n        /* \"#utility.yul\":8172:8177   */\n      dup6\n        /* \"#utility.yul\":8102:8178   */\n      tag_291\n      jump\t// in\n    tag_413:\n        /* \"#utility.yul\":8201:8208   */\n      dup1\n        /* \"#utility.yul\":8232:8233   */\n      0x00\n        /* \"#utility.yul\":8217:8643   */\n    tag_414:\n        /* \"#utility.yul\":8242:8248   */\n      dup6\n        /* \"#utility.yul\":8239:8240   */\n      dup2\n        /* \"#utility.yul\":8236:8249   */\n      lt\n        /* \"#utility.yul\":8217:8643   */\n      iszero\n      tag_416\n      jumpi\n        /* \"#utility.yul\":8313:8322   */\n      dup5\n        /* \"#utility.yul\":8307:8311   */\n      dup5\n        /* \"#utility.yul\":8303:8323   */\n      sub\n        /* \"#utility.yul\":8298:8301   */\n      dup10\n        /* \"#utility.yul\":8291:8324   */\n      mstore\n        /* \"#utility.yul\":8364:8370   */\n      dup2\n        /* \"#utility.yul\":8358:8371   */\n      mload\n        /* \"#utility.yul\":8392:8496   */\n      tag_417\n        /* \"#utility.yul\":8491:8495   */\n      dup6\n        /* \"#utility.yul\":8476:8489   */\n      dup3\n        /* \"#utility.yul\":8392:8496   */\n      tag_297\n      jump\t// in\n    tag_417:\n        /* \"#utility.yul\":8384:8496   */\n      swap5\n      pop\n        /* \"#utility.yul\":8519:8599   */\n      tag_418\n        /* \"#utility.yul\":8592:8598   */\n      dup4\n        /* \"#utility.yul\":8519:8599   */\n      tag_298\n      jump\t// in\n    tag_418:\n        /* \"#utility.yul\":8509:8599   */\n      swap3\n      pop\n        /* \"#utility.yul\":8628:8632   */\n      0x20\n        /* \"#utility.yul\":8623:8626   */\n      dup11\n        /* \"#utility.yul\":8619:8633   */\n      add\n        /* \"#utility.yul\":8612:8633   */\n      swap10\n      pop\n        /* \"#utility.yul\":8277:8643   */\n      pop\n        /* \"#utility.yul\":8264:8265   */\n      0x01\n        /* \"#utility.yul\":8261:8262   */\n      dup2\n        /* \"#utility.yul\":8257:8266   */\n      add\n        /* \"#utility.yul\":8252:8266   */\n      swap1\n      pop\n        /* \"#utility.yul\":8217:8643   */\n      jump(tag_414)\n    tag_416:\n        /* \"#utility.yul\":8221:8235   */\n      pop\n        /* \"#utility.yul\":8659:8663   */\n      dup3\n        /* \"#utility.yul\":8652:8663   */\n      swap8\n      pop\n        /* \"#utility.yul\":8679:8682   */\n      dup8\n        /* \"#utility.yul\":8672:8682   */\n      swap6\n      pop\n        /* \"#utility.yul\":7781:8688   */\n      pop\n      pop\n      pop\n      pop\n      pop\n        /* \"#utility.yul\":7617:8688   */\n      swap3\n      swap2\n      pop\n      pop\n      jump\t// out\n        /* \"#utility.yul\":8694:9147   */\n    tag_23:\n        /* \"#utility.yul\":8877:8881   */\n      0x00\n        /* \"#utility.yul\":8915:8917   */\n      0x20\n        /* \"#utility.yul\":8904:8913   */\n      dup3\n        /* \"#utility.yul\":8900:8918   */\n      add\n        /* \"#utility.yul\":8892:8918   */\n      swap1\n      pop\n        /* \"#utility.yul\":8964:8973   */\n      dup2\n        /* \"#utility.yul\":8958:8962   */\n      dup2\n        /* \"#utility.yul\":8954:8974   */\n      sub\n        /* \"#utility.yul\":8950:8951   */\n      0x00\n        /* \"#utility.yul\":8939:8948   */\n      dup4\n        /* \"#utility.yul\":8935:8952   */\n      add\n        /* \"#utility.yul\":8928:8975   */\n      mstore\n        /* \"#utility.yul\":8992:9140   */\n      tag_420\n        /* \"#utility.yul\":9135:9139   */\n      dup2\n        /* \"#utility.yul\":9126:9132   */\n      dup5\n        /* \"#utility.yul\":8992:9140   */\n      tag_299\n      jump\t// in\n    tag_420:\n        /* \"#utility.yul\":8984:9140   */\n      swap1\n      pop\n        /* \"#utility.yul\":8694:9147   */\n      swap3\n      swap2\n      pop\n      pop\n      jump\t// out\n        /* \"#utility.yul\":9153:9987   */\n    tag_26:\n        /* \"#utility.yul\":9241:9247   */\n      0x00\n        /* \"#utility.yul\":9249:9255   */\n      dup1\n        /* \"#utility.yul\":9298:9300   */\n      0x40\n        /* \"#utility.yul\":9286:9295   */\n      dup4\n        /* \"#utility.yul\":9277:9284   */\n      dup6\n        /* \"#utility.yul\":9273:9296   */\n      sub\n        /* \"#utility.yul\":9269:9301   */\n      slt\n        /* \"#utility.yul\":9266:9385   */\n      iszero\n      tag_422\n      jumpi\n        /* \"#utility.yul\":9304:9383   */\n      tag_423\n      tag_278\n      jump\t// in\n    tag_423:\n        /* \"#utility.yul\":9266:9385   */\n    tag_422:\n        /* \"#utility.yul\":9452:9453   */\n      0x00\n        /* \"#utility.yul\":9441:9450   */\n      dup4\n        /* \"#utility.yul\":9437:9454   */\n      add\n        /* \"#utility.yul\":9424:9455   */\n      calldataload\n        /* \"#utility.yul\":9482:9500   */\n      0xffffffffffffffff\n        /* \"#utility.yul\":9474:9480   */\n      dup2\n        /* \"#utility.yul\":9471:9501   */\n      gt\n        /* \"#utility.yul\":9468:9585   */\n      iszero\n      tag_424\n      jumpi\n        /* \"#utility.yul\":9504:9583   */\n      tag_425\n      tag_279\n      jump\t// in\n    tag_425:\n        /* \"#utility.yul\":9468:9585   */\n    tag_424:\n        /* \"#utility.yul\":9609:9672   */\n      tag_426\n        /* \"#utility.yul\":9664:9671   */\n      dup6\n        /* \"#utility.yul\":9655:9661   */\n      dup3\n        /* \"#utility.yul\":9644:9653   */\n      dup7\n        /* \"#utility.yul\":9640:9662   */\n      add\n        /* \"#utility.yul\":9609:9672   */\n      tag_288\n      jump\t// in\n    tag_426:\n        /* \"#utility.yul\":9599:9672   */\n      swap3\n      pop\n        /* \"#utility.yul\":9395:9682   */\n      pop\n        /* \"#utility.yul\":9749:9751   */\n      0x20\n        /* \"#utility.yul\":9738:9747   */\n      dup4\n        /* \"#utility.yul\":9734:9752   */\n      add\n        /* \"#utility.yul\":9721:9753   */\n      calldataload\n        /* \"#utility.yul\":9780:9798   */\n      0xffffffffffffffff\n        /* \"#utility.yul\":9772:9778   */\n      dup2\n        /* \"#utility.yul\":9769:9799   */\n      gt\n        /* \"#utility.yul\":9766:9883   */\n      iszero\n      tag_427\n      jumpi\n        /* \"#utility.yul\":9802:9881   */\n      tag_428\n      tag_279\n      jump\t// in\n    tag_428:\n        /* \"#utility.yul\":9766:9883   */\n    tag_427:\n        /* \"#utility.yul\":9907:9970   */\n      tag_429\n        /* \"#utility.yul\":9962:9969   */\n      dup6\n        /* \"#utility.yul\":9953:9959   */\n      dup3\n        /* \"#utility.yul\":9942:9951   */\n      dup7\n        /* \"#utility.yul\":9938:9960   */\n      add\n        /* \"#utility.yul\":9907:9970   */\n      tag_288\n      jump\t// in\n    tag_429:\n        /* \"#utility.yul\":9897:9970   */\n      swap2\n      pop\n        /* \"#utility.yul\":9692:9980   */\n      pop\n        /* \"#utility.yul\":9153:9987   */\n      swap3\n      pop\n      swap3\n      swap1\n      pop\n      jump\t// out\n        /* \"#utility.yul\":9993:11152   */\n    tag_30:\n        /* \"#utility.yul\":10100:10106   */\n      0x00\n        /* \"#utility.yul\":10108:10114   */\n      dup1\n        /* \"#utility.yul\":10116:10122   */\n      0x00\n        /* \"#utility.yul\":10165:10167   */\n      0x60\n        /* \"#utility.yul\":10153:10162   */\n      dup5\n        /* \"#utility.yul\":10144:10151   */\n      dup7\n        /* \"#utility.yul\":10140:10163   */\n      sub\n        /* \"#utility.yul\":10136:10168   */\n      slt\n        /* \"#utility.yul\":10133:10252   */\n      iszero\n      tag_431\n      jumpi\n        /* \"#utility.yul\":10171:10250   */\n      tag_432\n      tag_278\n      jump\t// in\n    tag_432:\n        /* \"#utility.yul\":10133:10252   */\n    tag_431:\n        /* \"#utility.yul\":10319:10320   */\n      0x00\n        /* \"#utility.yul\":10308:10317   */\n      dup5\n        /* \"#utility.yul\":10304:10321   */\n      add\n        /* \"#utility.yul\":10291:10322   */\n      calldataload\n        /* \"#utility.yul\":10349:10367   */\n      0xffffffffffffffff\n        /* \"#utility.yul\":10341:10347   */\n      dup2\n        /* \"#utility.yul\":10338:10368   */\n      gt\n        /* \"#utility.yul\":10335:10452   */\n      iszero\n      tag_433\n      jumpi\n        /* \"#utility.yul\":10371:10450   */\n      tag_434\n      tag_279\n      jump\t// in\n    tag_434:\n        /* \"#utility.yul\":10335:10452   */\n    tag_433:\n        /* \"#utility.yul\":10476:10539   */\n      tag_435\n        /* \"#utility.yul\":10531:10538   */\n      dup7\n        /* \"#utility.yul\":10522:10528   */\n      dup3\n        /* \"#utility.yul\":10511:10520   */\n      dup8\n        /* \"#utility.yul\":10507:10529   */\n      add\n        /* \"#utility.yul\":10476:10539   */\n      tag_288\n      jump\t// in\n    tag_435:\n        /* \"#utility.yul\":10466:10539   */\n      swap4\n      pop\n        /* \"#utility.yul\":10262:10549   */\n      pop\n        /* \"#utility.yul\":10616:10618   */\n      0x20\n        /* \"#utility.yul\":10605:10614   */\n      dup5\n        /* \"#utility.yul\":10601:10619   */\n      add\n        /* \"#utility.yul\":10588:10620   */\n      calldataload\n        /* \"#utility.yul\":10647:10665   */\n      0xffffffffffffffff\n        /* \"#utility.yul\":10639:10645   */\n      dup2\n        /* \"#utility.yul\":10636:10666   */\n      gt\n        /* \"#utility.yul\":10633:10750   */\n      iszero\n      tag_436\n      jumpi\n        /* \"#utility.yul\":10669:10748   */\n      tag_437\n      tag_279\n      jump\t// in\n    tag_437:\n        /* \"#utility.yul\":10633:10750   */\n    tag_436:\n        /* \"#utility.yul\":10774:10837   */\n      tag_438\n        /* \"#utility.yul\":10829:10836   */\n      dup7\n        /* \"#utility.yul\":10820:10826   */\n      dup3\n        /* \"#utility.yul\":10809:10818   */\n      dup8\n        /* \"#utility.yul\":10805:10827   */\n      add\n        /* \"#utility.yul\":10774:10837   */\n      tag_288\n      jump\t// in\n    tag_438:\n        /* \"#utility.yul\":10764:10837   */\n      swap3\n      pop\n        /* \"#utility.yul\":10559:10847   */\n      pop\n        /* \"#utility.yul\":10914:10916   */\n      0x40\n        /* \"#utility.yul\":10903:10912   */\n      dup5\n        /* \"#utility.yul\":10899:10917   */\n      add\n        /* \"#utility.yul\":10886:10918   */\n      calldataload\n        /* \"#utility.yul\":10945:10963   */\n      0xffffffffffffffff\n        /* \"#utility.yul\":10937:10943   */\n      dup2\n        /* \"#utility.yul\":10934:10964   */\n      gt\n        /* \"#utility.yul\":10931:11048   */\n      iszero\n      tag_439\n      jumpi\n        /* \"#utility.yul\":10967:11046   */\n      tag_440\n      tag_279\n      jump\t// in\n    tag_440:\n        /* \"#utility.yul\":10931:11048   */\n    tag_439:\n        /* \"#utility.yul\":11072:11135   */\n      tag_441\n        /* \"#utility.yul\":11127:11134   */\n      dup7\n        /* \"#utility.yul\":11118:11124   */\n      dup3\n        /* \"#utility.yul\":11107:11116   */\n      dup8\n        /* \"#utility.yul\":11103:11125   */\n      add\n        /* \"#utility.yul\":11072:11135   */\n      tag_288\n      jump\t// in\n    tag_441:\n        /* \"#utility.yul\":11062:11135   */\n      swap2\n      pop\n        /* \"#utility.yul\":10857:11145   */\n      pop\n        /* \"#utility.yul\":9993:11152   */\n      swap3\n      pop\n      swap3\n      pop\n      swap3\n      jump\t// out\n        /* \"#utility.yul\":11216:12384   */\n    tag_300:\n        /* \"#utility.yul\":11325:11328   */\n      0x00\n        /* \"#utility.yul\":11361:11365   */\n      0x80\n        /* \"#utility.yul\":11356:11359   */\n      dup4\n        /* \"#utility.yul\":11352:11366   */\n      add\n        /* \"#utility.yul\":11446:11450   */\n      0x00\n        /* \"#utility.yul\":11439:11444   */\n      dup4\n        /* \"#utility.yul\":11435:11451   */\n      add\n        /* \"#utility.yul\":11429:11452   */\n      mload\n        /* \"#utility.yul\":11499:11502   */\n      dup5\n        /* \"#utility.yul\":11493:11497   */\n      dup3\n        /* \"#utility.yul\":11489:11503   */\n      sub\n        /* \"#utility.yul\":11482:11486   */\n      0x00\n        /* \"#utility.yul\":11477:11480   */\n      dup7\n        /* \"#utility.yul\":11473:11487   */\n      add\n        /* \"#utility.yul\":11466:11504   */\n      mstore\n        /* \"#utility.yul\":11525:11598   */\n      tag_443\n        /* \"#utility.yul\":11593:11597   */\n      dup3\n        /* \"#utility.yul\":11579:11591   */\n      dup3\n        /* \"#utility.yul\":11525:11598   */\n      tag_295\n      jump\t// in\n    tag_443:\n        /* \"#utility.yul\":11517:11598   */\n      swap2\n      pop\n        /* \"#utility.yul\":11376:11609   */\n      pop\n        /* \"#utility.yul\":11700:11704   */\n      0x20\n        /* \"#utility.yul\":11693:11698   */\n      dup4\n        /* \"#utility.yul\":11689:11705   */\n      add\n        /* \"#utility.yul\":11683:11706   */\n      mload\n        /* \"#utility.yul\":11753:11756   */\n      dup5\n        /* \"#utility.yul\":11747:11751   */\n      dup3\n        /* \"#utility.yul\":11743:11757   */\n      sub\n        /* \"#utility.yul\":11736:11740   */\n      0x20\n        /* \"#utility.yul\":11731:11734   */\n      dup7\n        /* \"#utility.yul\":11727:11741   */\n      add\n        /* \"#utility.yul\":11720:11758   */\n      mstore\n        /* \"#utility.yul\":11779:11852   */\n      tag_444\n        /* \"#utility.yul\":11847:11851   */\n      dup3\n        /* \"#utility.yul\":11833:11845   */\n      dup3\n        /* \"#utility.yul\":11779:11852   */\n      tag_295\n      jump\t// in\n    tag_444:\n        /* \"#utility.yul\":11771:11852   */\n      swap2\n      pop\n        /* \"#utility.yul\":11619:11863   */\n      pop\n        /* \"#utility.yul\":11946:11950   */\n      0x40\n        /* \"#utility.yul\":11939:11944   */\n      dup4\n        /* \"#utility.yul\":11935:11951   */\n      add\n        /* \"#utility.yul\":11929:11952   */\n      mload\n        /* \"#utility.yul\":11999:12002   */\n      dup5\n        /* \"#utility.yul\":11993:11997   */\n      dup3\n        /* \"#utility.yul\":11989:12003   */\n      sub\n        /* \"#utility.yul\":11982:11986   */\n      0x40\n        /* \"#utility.yul\":11977:11980   */\n      dup7\n        /* \"#utility.yul\":11973:11987   */\n      add\n        /* \"#utility.yul\":11966:12004   */\n      mstore\n        /* \"#utility.yul\":12025:12098   */\n      tag_445\n        /* \"#utility.yul\":12093:12097   */\n      dup3\n        /* \"#utility.yul\":12079:12091   */\n      dup3\n        /* \"#utility.yul\":12025:12098   */\n      tag_295\n      jump\t// in\n    tag_445:\n        /* \"#utility.yul\":12017:12098   */\n      swap2\n      pop\n        /* \"#utility.yul\":11873:12109   */\n      pop\n        /* \"#utility.yul\":12194:12198   */\n      0x60\n        /* \"#utility.yul\":12187:12192   */\n      dup4\n        /* \"#utility.yul\":12183:12199   */\n      add\n        /* \"#utility.yul\":12177:12200   */\n      mload\n        /* \"#utility.yul\":12247:12250   */\n      dup5\n        /* \"#utility.yul\":12241:12245   */\n      dup3\n        /* \"#utility.yul\":12237:12251   */\n      sub\n        /* \"#utility.yul\":12230:12234   */\n      0x60\n        /* \"#utility.yul\":12225:12228   */\n      dup7\n        /* \"#utility.yul\":12221:12235   */\n      add\n        /* \"#utility.yul\":12214:12252   */\n      mstore\n        /* \"#utility.yul\":12273:12346   */\n      tag_446\n        /* \"#utility.yul\":12341:12345   */\n      dup3\n        /* \"#utility.yul\":12327:12339   */\n      dup3\n        /* \"#utility.yul\":12273:12346   */\n      tag_295\n      jump\t// in\n    tag_446:\n        /* \"#utility.yul\":12265:12346   */\n      swap2\n      pop\n        /* \"#utility.yul\":12119:12357   */\n      pop\n        /* \"#utility.yul\":12374:12378   */\n      dup1\n        /* \"#utility.yul\":12367:12378   */\n      swap2\n      pop\n        /* \"#utility.yul\":11330:12384   */\n      pop\n        /* \"#utility.yul\":11216:12384   */\n      swap3\n      swap2\n      pop\n      pop\n      jump\t// out\n        /* \"#utility.yul\":12390:12743   */\n    tag_36:\n        /* \"#utility.yul\":12523:12527   */\n      0x00\n        /* \"#utility.yul\":12561:12563   */\n      0x20\n        /* \"#utility.yul\":12550:12559   */\n      dup3\n        /* \"#utility.yul\":12546:12564   */\n      add\n        /* \"#utility.yul\":12538:12564   */\n      swap1\n      pop\n        /* \"#utility.yul\":12610:12619   */\n      dup2\n        /* \"#utility.yul\":12604:12608   */\n      dup2\n        /* \"#utility.yul\":12600:12620   */\n      sub\n        /* \"#utility.yul\":12596:12597   */\n      0x00\n        /* \"#utility.yul\":12585:12594   */\n      dup4\n        /* \"#utility.yul\":12581:12598   */\n      add\n        /* \"#utility.yul\":12574:12621   */\n      mstore\n        /* \"#utility.yul\":12638:12736   */\n      tag_448\n        /* \"#utility.yul\":12731:12735   */\n      dup2\n        /* \"#utility.yul\":12722:12728   */\n      dup5\n        /* \"#utility.yul\":12638:12736   */\n      tag_300\n      jump\t// in\n    tag_448:\n        /* \"#utility.yul\":12630:12736   */\n      swap1\n      pop\n        /* \"#utility.yul\":12390:12743   */\n      swap3\n      swap2\n      pop\n      pop\n      jump\t// out\n        /* \"#utility.yul\":12749:12888   */\n    tag_301:\n        /* \"#utility.yul\":12841:12847   */\n      0x00\n        /* \"#utility.yul\":12875:12880   */\n      dup2\n        /* \"#utility.yul\":12869:12881   */\n      mload\n        /* \"#utility.yul\":12859:12881   */\n      swap1\n      pop\n        /* \"#utility.yul\":12749:12888   */\n      swap2\n      swap1\n      pop\n      jump\t// out\n        /* \"#utility.yul\":12894:13103   */\n    tag_302:\n        /* \"#utility.yul\":13018:13029   */\n      0x00\n        /* \"#utility.yul\":13052:13058   */\n      dup3\n        /* \"#utility.yul\":13047:13050   */\n      dup3\n        /* \"#utility.yul\":13040:13059   */\n      mstore\n        /* \"#utility.yul\":13092:13096   */\n      0x20\n        /* \"#utility.yul\":13087:13090   */\n      dup3\n        /* \"#utility.yul\":13083:13097   */\n      add\n        /* \"#utility.yul\":13068:13097   */\n      swap1\n      pop\n        /* \"#utility.yul\":12894:13103   */\n      swap3\n      swap2\n      pop\n      pop\n      jump\t// out\n        /* \"#utility.yul\":13109:13266   */\n    tag_303:\n        /* \"#utility.yul\":13201:13205   */\n      0x00\n        /* \"#utility.yul\":13224:13227   */\n      dup2\n        /* \"#utility.yul\":13216:13227   */\n      swap1\n      pop\n        /* \"#utility.yul\":13254:13258   */\n      0x20\n        /* \"#utility.yul\":13249:13252   */\n      dup3\n        /* \"#utility.yul\":13245:13259   */\n      add\n        /* \"#utility.yul\":13237:13259   */\n      swap1\n      pop\n        /* \"#utility.yul\":13109:13266   */\n      swap2\n      swap1\n      pop\n      jump\t// out\n        /* \"#utility.yul\":13340:13771   */\n    tag_304:\n        /* \"#utility.yul\":13449:13452   */\n      0x00\n        /* \"#utility.yul\":13485:13489   */\n      0x20\n        /* \"#utility.yul\":13480:13483   */\n      dup4\n        /* \"#utility.yul\":13476:13490   */\n      add\n        /* \"#utility.yul\":13581:13585   */\n      0x00\n        /* \"#utility.yul\":13574:13579   */\n      dup4\n        /* \"#utility.yul\":13570:13586   */\n      add\n        /* \"#utility.yul\":13564:13587   */\n      mload\n        /* \"#utility.yul\":13634:13637   */\n      dup5\n        /* \"#utility.yul\":13628:13632   */\n      dup3\n        /* \"#utility.yul\":13624:13638   */\n      sub\n        /* \"#utility.yul\":13617:13621   */\n      0x00\n        /* \"#utility.yul\":13612:13615   */\n      dup7\n        /* \"#utility.yul\":13608:13622   */\n      add\n        /* \"#utility.yul\":13601:13639   */\n      mstore\n        /* \"#utility.yul\":13660:13733   */\n      tag_453\n        /* \"#utility.yul\":13728:13732   */\n      dup3\n        /* \"#utility.yul\":13714:13726   */\n      dup3\n        /* \"#utility.yul\":13660:13733   */\n      tag_295\n      jump\t// in\n    tag_453:\n        /* \"#utility.yul\":13652:13733   */\n      swap2\n      pop\n        /* \"#utility.yul\":13500:13744   */\n      pop\n        /* \"#utility.yul\":13761:13765   */\n      dup1\n        /* \"#utility.yul\":13754:13765   */\n      swap2\n      pop\n        /* \"#utility.yul\":13454:13771   */\n      pop\n        /* \"#utility.yul\":13340:13771   */\n      swap3\n      swap2\n      pop\n      pop\n      jump\t// out\n        /* \"#utility.yul\":13777:14033   */\n    tag_305:\n        /* \"#utility.yul\":13896:13906   */\n      0x00\n        /* \"#utility.yul\":13931:14027   */\n      tag_455\n        /* \"#utility.yul\":14023:14026   */\n      dup4\n        /* \"#utility.yul\":14015:14021   */\n      dup4\n        /* \"#utility.yul\":13931:14027   */\n      tag_304\n      jump\t// in\n    tag_455:\n        /* \"#utility.yul\":13917:14027   */\n      swap1\n      pop\n        /* \"#utility.yul\":13777:14033   */\n      swap3\n      swap2\n      pop\n      pop\n      jump\t// out\n        /* \"#utility.yul\":14039:14177   */\n    tag_306:\n        /* \"#utility.yul\":14134:14138   */\n      0x00\n        /* \"#utility.yul\":14166:14170   */\n      0x20\n        /* \"#utility.yul\":14161:14164   */\n      dup3\n        /* \"#utility.yul\":14157:14171   */\n      add\n        /* \"#utility.yul\":14149:14171   */\n      swap1\n      pop\n        /* \"#utility.yul\":14039:14177   */\n      swap2\n      swap1\n      pop\n      jump\t// out\n        /* \"#utility.yul\":14255:15366   */\n    tag_307:\n        /* \"#utility.yul\":14424:14427   */\n      0x00\n        /* \"#utility.yul\":14453:14532   */\n      tag_458\n        /* \"#utility.yul\":14526:14531   */\n      dup3\n        /* \"#utility.yul\":14453:14532   */\n      tag_301\n      jump\t// in\n    tag_458:\n        /* \"#utility.yul\":14548:14659   */\n      tag_459\n        /* \"#utility.yul\":14652:14658   */\n      dup2\n        /* \"#utility.yul\":14647:14650   */\n      dup6\n        /* \"#utility.yul\":14548:14659   */\n      tag_302\n      jump\t// in\n    tag_459:\n        /* \"#utility.yul\":14541:14659   */\n      swap4\n      pop\n        /* \"#utility.yul\":14685:14688   */\n      dup4\n        /* \"#utility.yul\":14730:14734   */\n      0x20\n        /* \"#utility.yul\":14722:14728   */\n      dup3\n        /* \"#utility.yul\":14718:14735   */\n      mul\n        /* \"#utility.yul\":14713:14716   */\n      dup6\n        /* \"#utility.yul\":14709:14736   */\n      add\n        /* \"#utility.yul\":14760:14841   */\n      tag_460\n        /* \"#utility.yul\":14835:14840   */\n      dup6\n        /* \"#utility.yul\":14760:14841   */\n      tag_303\n      jump\t// in\n    tag_460:\n        /* \"#utility.yul\":14864:14871   */\n      dup1\n        /* \"#utility.yul\":14895:14896   */\n      0x00\n        /* \"#utility.yul\":14880:15321   */\n    tag_461:\n        /* \"#utility.yul\":14905:14911   */\n      dup6\n        /* \"#utility.yul\":14902:14903   */\n      dup2\n        /* \"#utility.yul\":14899:14912   */\n      lt\n        /* \"#utility.yul\":14880:15321   */\n      iszero\n      tag_463\n      jumpi\n        /* \"#utility.yul\":14976:14985   */\n      dup5\n        /* \"#utility.yul\":14970:14974   */\n      dup5\n        /* \"#utility.yul\":14966:14986   */\n      sub\n        /* \"#utility.yul\":14961:14964   */\n      dup10\n        /* \"#utility.yul\":14954:14987   */\n      mstore\n        /* \"#utility.yul\":15027:15033   */\n      dup2\n        /* \"#utility.yul\":15021:15034   */\n      mload\n        /* \"#utility.yul\":15055:15169   */\n      tag_464\n        /* \"#utility.yul\":15164:15168   */\n      dup6\n        /* \"#utility.yul\":15149:15162   */\n      dup3\n        /* \"#utility.yul\":15055:15169   */\n      tag_305\n      jump\t// in\n    tag_464:\n        /* \"#utility.yul\":15047:15169   */\n      swap5\n      pop\n        /* \"#utility.yul\":15192:15277   */\n      tag_465\n        /* \"#utility.yul\":15270:15276   */\n      dup4\n        /* \"#utility.yul\":15192:15277   */\n      tag_306\n      jump\t// in\n    tag_465:\n        /* \"#utility.yul\":15182:15277   */\n      swap3\n      pop\n        /* \"#utility.yul\":15306:15310   */\n      0x20\n        /* \"#utility.yul\":15301:15304   */\n      dup11\n        /* \"#utility.yul\":15297:15311   */\n      add\n        /* \"#utility.yul\":15290:15311   */\n      swap10\n      pop\n        /* \"#utility.yul\":14940:15321   */\n      pop\n        /* \"#utility.yul\":14927:14928   */\n      0x01\n        /* \"#utility.yul\":14924:14925   */\n      dup2\n        /* \"#utility.yul\":14920:14929   */\n      add\n        /* \"#utility.yul\":14915:14929   */\n      swap1\n      pop\n        /* \"#utility.yul\":14880:15321   */\n      jump(tag_461)\n    tag_463:\n        /* \"#utility.yul\":14884:14898   */\n      pop\n        /* \"#utility.yul\":15337:15341   */\n      dup3\n        /* \"#utility.yul\":15330:15341   */\n      swap8\n      pop\n        /* \"#utility.yul\":15357:15360   */\n      dup8\n        /* \"#utility.yul\":15350:15360   */\n      swap6\n      pop\n        /* \"#utility.yul\":14429:15366   */\n      pop\n      pop\n      pop\n      pop\n      pop\n        /* \"#utility.yul\":14255:15366   */\n      swap3\n      swap2\n      pop\n      pop\n      jump\t// out\n        /* \"#utility.yul\":15372:15845   */\n    tag_44:\n        /* \"#utility.yul\":15565:15569   */\n      0x00\n        /* \"#utility.yul\":15603:15605   */\n      0x20\n        /* \"#utility.yul\":15592:15601   */\n      dup3\n        /* \"#utility.yul\":15588:15606   */\n      add\n        /* \"#utility.yul\":15580:15606   */\n      swap1\n      pop\n        /* \"#utility.yul\":15652:15661   */\n      dup2\n        /* \"#utility.yul\":15646:15650   */\n      dup2\n        /* \"#utility.yul\":15642:15662   */\n      sub\n        /* \"#utility.yul\":15638:15639   */\n      0x00\n        /* \"#utility.yul\":15627:15636   */\n      dup4\n        /* \"#utility.yul\":15623:15640   */\n      add\n        /* \"#utility.yul\":15616:15663   */\n      mstore\n        /* \"#utility.yul\":15680:15838   */\n      tag_467\n        /* \"#utility.yul\":15833:15837   */\n      dup2\n        /* \"#utility.yul\":15824:15830   */\n      dup5\n        /* \"#utility.yul\":15680:15838   */\n      tag_307\n      jump\t// in\n    tag_467:\n        /* \"#utility.yul\":15672:15838   */\n      swap1\n      pop\n        /* \"#utility.yul\":15372:15845   */\n      swap3\n      swap2\n      pop\n      pop\n      jump\t// out\n        /* \"#utility.yul\":15851:16020   */\n    tag_308:\n        /* \"#utility.yul\":15935:15946   */\n      0x00\n        /* \"#utility.yul\":15969:15975   */\n      dup3\n        /* \"#utility.yul\":15964:15967   */\n      dup3\n        /* \"#utility.yul\":15957:15976   */\n      mstore\n        /* \"#utility.yul\":16009:16013   */\n      0x20\n        /* \"#utility.yul\":16004:16007   */\n      dup3\n        /* \"#utility.yul\":16000:16014   */\n      add\n        /* \"#utility.yul\":15985:16014   */\n      swap1\n      pop\n        /* \"#utility.yul\":15851:16020   */\n      swap3\n      swap2\n      pop\n      pop\n      jump\t// out\n        /* \"#utility.yul\":16026:16204   */\n    tag_309:\n        /* \"#utility.yul\":16166:16196   */\n      0x506f7374207769746820494420616c7265616479206578697374732e00000000\n        /* \"#utility.yul\":16162:16163   */\n      0x00\n        /* \"#utility.yul\":16154:16160   */\n      dup3\n        /* \"#utility.yul\":16150:16164   */\n      add\n        /* \"#utility.yul\":16143:16197   */\n      mstore\n        /* \"#utility.yul\":16026:16204   */\n      pop\n      jump\t// out\n        /* \"#utility.yul\":16210:16576   */\n    tag_310:\n        /* \"#utility.yul\":16352:16355   */\n      0x00\n        /* \"#utility.yul\":16373:16440   */\n      tag_471\n        /* \"#utility.yul\":16437:16439   */\n      0x1c\n        /* \"#utility.yul\":16432:16435   */\n      dup4\n        /* \"#utility.yul\":16373:16440   */\n      tag_308\n      jump\t// in\n    tag_471:\n        /* \"#utility.yul\":16366:16440   */\n      swap2\n      pop\n        /* \"#utility.yul\":16449:16542   */\n      tag_472\n        /* \"#utility.yul\":16538:16541   */\n      dup3\n        /* \"#utility.yul\":16449:16542   */\n      tag_309\n      jump\t// in\n    tag_472:\n        /* \"#utility.yul\":16567:16569   */\n      0x20\n        /* \"#utility.yul\":16562:16565   */\n      dup3\n        /* \"#utility.yul\":16558:16570   */\n      add\n        /* \"#utility.yul\":16551:16570   */\n      swap1\n      pop\n        /* \"#utility.yul\":16210:16576   */\n      swap2\n      swap1\n      pop\n      jump\t// out\n        /* \"#utility.yul\":16582:17001   */\n    tag_50:\n        /* \"#utility.yul\":16748:16752   */\n      0x00\n        /* \"#utility.yul\":16786:16788   */\n      0x20\n        /* \"#utility.yul\":16775:16784   */\n      dup3\n        /* \"#utility.yul\":16771:16789   */\n      add\n        /* \"#utility.yul\":16763:16789   */\n      swap1\n      pop\n        /* \"#utility.yul\":16835:16844   */\n      dup2\n        /* \"#utility.yul\":16829:16833   */\n      dup2\n        /* \"#utility.yul\":16825:16845   */\n      sub\n        /* \"#utility.yul\":16821:16822   */\n      0x00\n        /* \"#utility.yul\":16810:16819   */\n      dup4\n        /* \"#utility.yul\":16806:16823   */\n      add\n        /* \"#utility.yul\":16799:16846   */\n      mstore\n        /* \"#utility.yul\":16863:16994   */\n      tag_474\n        /* \"#utility.yul\":16989:16993   */\n      dup2\n        /* \"#utility.yul\":16863:16994   */\n      tag_310\n      jump\t// in\n    tag_474:\n        /* \"#utility.yul\":16855:16994   */\n      swap1\n      pop\n        /* \"#utility.yul\":16582:17001   */\n      swap2\n      swap1\n      pop\n      jump\t// out\n        /* \"#utility.yul\":17007:17182   */\n    tag_311:\n        /* \"#utility.yul\":17147:17174   */\n      0x53756272656464697420646f6573206e6f742065786973742e00000000000000\n        /* \"#utility.yul\":17143:17144   */\n      0x00\n        /* \"#utility.yul\":17135:17141   */\n      dup3\n        /* \"#utility.yul\":17131:17145   */\n      add\n        /* \"#utility.yul\":17124:17175   */\n      mstore\n        /* \"#utility.yul\":17007:17182   */\n      pop\n      jump\t// out\n        /* \"#utility.yul\":17188:17554   */\n    tag_312:\n        /* \"#utility.yul\":17330:17333   */\n      0x00\n        /* \"#utility.yul\":17351:17418   */\n      tag_477\n        /* \"#utility.yul\":17415:17417   */\n      0x19\n        /* \"#utility.yul\":17410:17413   */\n      dup4\n        /* \"#utility.yul\":17351:17418   */\n      tag_308\n      jump\t// in\n    tag_477:\n        /* \"#utility.yul\":17344:17418   */\n      swap2\n      pop\n        /* \"#utility.yul\":17427:17520   */\n      tag_478\n        /* \"#utility.yul\":17516:17519   */\n      dup3\n        /* \"#utility.yul\":17427:17520   */\n      tag_311\n      jump\t// in\n    tag_478:\n        /* \"#utility.yul\":17545:17547   */\n      0x20\n        /* \"#utility.yul\":17540:17543   */\n      dup3\n        /* \"#utility.yul\":17536:17548   */\n      add\n        /* \"#utility.yul\":17529:17548   */\n      swap1\n      pop\n        /* \"#utility.yul\":17188:17554   */\n      swap2\n      swap1\n      pop\n      jump\t// out\n        /* \"#utility.yul\":17560:17979   */\n    tag_55:\n        /* \"#utility.yul\":17726:17730   */\n      0x00\n        /* \"#utility.yul\":17764:17766   */\n      0x20\n        /* \"#utility.yul\":17753:17762   */\n      dup3\n        /* \"#utility.yul\":17749:17767   */\n      add\n        /* \"#utility.yul\":17741:17767   */\n      swap1\n      pop\n        /* \"#utility.yul\":17813:17822   */\n      dup2\n        /* \"#utility.yul\":17807:17811   */\n      dup2\n        /* \"#utility.yul\":17803:17823   */\n      sub\n        /* \"#utility.yul\":17799:17800   */\n      0x00\n        /* \"#utility.yul\":17788:17797   */\n      dup4\n        /* \"#utility.yul\":17784:17801   */\n      add\n        /* \"#utility.yul\":17777:17824   */\n      mstore\n        /* \"#utility.yul\":17841:17972   */\n      tag_480\n        /* \"#utility.yul\":17967:17971   */\n      dup2\n        /* \"#utility.yul\":17841:17972   */\n      tag_312\n      jump\t// in\n    tag_480:\n        /* \"#utility.yul\":17833:17972   */\n      swap1\n      pop\n        /* \"#utility.yul\":17560:17979   */\n      swap2\n      swap1\n      pop\n      jump\t// out\n        /* \"#utility.yul\":17985:18165   */\n    tag_313:\n        /* \"#utility.yul\":18033:18110   */\n      0x4e487b7100000000000000000000000000000000000000000000000000000000\n        /* \"#utility.yul\":18030:18031   */\n      0x00\n        /* \"#utility.yul\":18023:18111   */\n      mstore\n        /* \"#utility.yul\":18130:18134   */\n      0x22\n        /* \"#utility.yul\":18127:18128   */\n      0x04\n        /* \"#utility.yul\":18120:18135   */\n      mstore\n        /* \"#utility.yul\":18154:18158   */\n      0x24\n        /* \"#utility.yul\":18151:18152   */\n      0x00\n        /* \"#utility.yul\":18144:18159   */\n      revert\n        /* \"#utility.yul\":18171:18491   */\n    tag_74:\n        /* \"#utility.yul\":18215:18221   */\n      0x00\n        /* \"#utility.yul\":18252:18253   */\n      0x02\n        /* \"#utility.yul\":18246:18250   */\n      dup3\n        /* \"#utility.yul\":18242:18254   */\n      div\n        /* \"#utility.yul\":18232:18254   */\n      swap1\n      pop\n        /* \"#utility.yul\":18299:18300   */\n      0x01\n        /* \"#utility.yul\":18293:18297   */\n      dup3\n        /* \"#utility.yul\":18289:18301   */\n      and\n        /* \"#utility.yul\":18320:18338   */\n      dup1\n        /* \"#utility.yul\":18310:18391   */\n      tag_483\n      jumpi\n        /* \"#utility.yul\":18376:18380   */\n      0x7f\n        /* \"#utility.yul\":18368:18374   */\n      dup3\n        /* \"#utility.yul\":18364:18381   */\n      and\n        /* \"#utility.yul\":18354:18381   */\n      swap2\n      pop\n        /* \"#utility.yul\":18310:18391   */\n    tag_483:\n        /* \"#utility.yul\":18438:18440   */\n      0x20\n        /* \"#utility.yul\":18430:18436   */\n      dup3\n        /* \"#utility.yul\":18427:18441   */\n      lt\n        /* \"#utility.yul\":18407:18425   */\n      dup2\n        /* \"#utility.yul\":18404:18442   */\n      sub\n        /* \"#utility.yul\":18401:18485   */\n      tag_484\n      jumpi\n        /* \"#utility.yul\":18457:18475   */\n      tag_485\n      tag_313\n      jump\t// in\n    tag_485:\n        /* \"#utility.yul\":18401:18485   */\n    tag_484:\n        /* \"#utility.yul\":18222:18491   */\n      pop\n        /* \"#utility.yul\":18171:18491   */\n      swap2\n      swap1\n      pop\n      jump\t// out\n        /* \"#utility.yul\":18497:18638   */\n    tag_314:\n        /* \"#utility.yul\":18546:18550   */\n      0x00\n        /* \"#utility.yul\":18569:18572   */\n      dup2\n        /* \"#utility.yul\":18561:18572   */\n      swap1\n      pop\n        /* \"#utility.yul\":18592:18595   */\n      dup2\n        /* \"#utility.yul\":18589:18590   */\n      0x00\n        /* \"#utility.yul\":18582:18596   */\n      mstore\n        /* \"#utility.yul\":18626:18630   */\n      0x20\n        /* \"#utility.yul\":18623:18624   */\n      0x00\n        /* \"#utility.yul\":18613:18631   */\n      keccak256\n        /* \"#utility.yul\":18605:18631   */\n      swap1\n      pop\n        /* \"#utility.yul\":18497:18638   */\n      swap2\n      swap1\n      pop\n      jump\t// out\n        /* \"#utility.yul\":18644:18737   */\n    tag_315:\n        /* \"#utility.yul\":18681:18687   */\n      0x00\n        /* \"#utility.yul\":18728:18730   */\n      0x20\n        /* \"#utility.yul\":18723:18725   */\n      0x1f\n        /* \"#utility.yul\":18716:18721   */\n      dup4\n        /* \"#utility.yul\":18712:18726   */\n      add\n        /* \"#utility.yul\":18708:18731   */\n      div\n        /* \"#utility.yul\":18698:18731   */\n      swap1\n      pop\n        /* \"#utility.yul\":18644:18737   */\n      swap2\n      swap1\n      pop\n      jump\t// out\n        /* \"#utility.yul\":18743:18850   */\n    tag_316:\n        /* \"#utility.yul\":18787:18795   */\n      0x00\n        /* \"#utility.yul\":18837:18842   */\n      dup3\n        /* \"#utility.yul\":18831:18835   */\n      dup3\n        /* \"#utility.yul\":18827:18843   */\n      shl\n        /* \"#utility.yul\":18806:18843   */\n      swap1\n      pop\n        /* \"#utility.yul\":18743:18850   */\n      swap3\n      swap2\n      pop\n      pop\n      jump\t// out\n        /* \"#utility.yul\":18856:19249   */\n    tag_317:\n        /* \"#utility.yul\":18925:18931   */\n      0x00\n        /* \"#utility.yul\":18975:18976   */\n      0x08\n        /* \"#utility.yul\":18963:18973   */\n      dup4\n        /* \"#utility.yul\":18959:18977   */\n      mul\n        /* \"#utility.yul\":18998:19095   */\n      tag_490\n        /* \"#utility.yul\":19028:19094   */\n      0xffffffffffffffffffffffffffffffffffffffffffffffffffffffffffffffff\n        /* \"#utility.yul\":19017:19026   */\n      dup3\n        /* \"#utility.yul\":18998:19095   */\n      tag_316\n      jump\t// in\n    tag_490:\n        /* \"#utility.yul\":19116:19155   */\n      tag_491\n        /* \"#utility.yul\":19146:19154   */\n      dup7\n        /* \"#utility.yul\":19135:19144   */\n      dup4\n        /* \"#utility.yul\":19116:19155   */\n      tag_316\n      jump\t// in\n    tag_491:\n        /* \"#utility.yul\":19104:19155   */\n      swap6\n      pop\n        /* \"#utility.yul\":19188:19192   */\n      dup1\n        /* \"#utility.yul\":19184:19193   */\n      not\n        /* \"#utility.yul\":19177:19182   */\n      dup5\n        /* \"#utility.yul\":19173:19194   */\n      and\n        /* \"#utility.yul\":19164:19194   */\n      swap4\n      pop\n        /* \"#utility.yul\":19237:19241   */\n      dup1\n        /* \"#utility.yul\":19227:19235   */\n      dup7\n        /* \"#utility.yul\":19223:19242   */\n      and\n        /* \"#utility.yul\":19216:19221   */\n      dup5\n        /* \"#utility.yul\":19213:19243   */\n      or\n        /* \"#utility.yul\":19203:19243   */\n      swap3\n      pop\n        /* \"#utility.yul\":18932:19249   */\n      pop\n      pop\n        /* \"#utility.yul\":18856:19249   */\n      swap4\n      swap3\n      pop\n      pop\n      pop\n      jump\t// out\n        /* \"#utility.yul\":19255:19332   */\n    tag_318:\n        /* \"#utility.yul\":19292:19299   */\n      0x00\n        /* \"#utility.yul\":19321:19326   */\n      dup2\n        /* \"#utility.yul\":19310:19326   */\n      swap1\n      pop\n        /* \"#utility.yul\":19255:19332   */\n      swap2\n      swap1\n      pop\n      jump\t// out\n        /* \"#utility.yul\":19338:19398   */\n    tag_319:\n        /* \"#utility.yul\":19366:19369   */\n      0x00\n        /* \"#utility.yul\":19387:19392   */\n      dup2\n        /* \"#utility.yul\":19380:19392   */\n      swap1\n      pop\n        /* \"#utility.yul\":19338:19398   */\n      swap2\n      swap1\n      pop\n      jump\t// out\n        /* \"#utility.yul\":19404:19546   */\n    tag_320:\n        /* \"#utility.yul\":19454:19463   */\n      0x00\n        /* \"#utility.yul\":19487:19540   */\n      tag_495\n        /* \"#utility.yul\":19505:19539   */\n      tag_496\n        /* \"#utility.yul\":19514:19538   */\n      tag_497\n        /* \"#utility.yul\":19532:19537   */\n      dup5\n        /* \"#utility.yul\":19514:19538   */\n      tag_318\n      jump\t// in\n    tag_497:\n        /* \"#utility.yul\":19505:19539   */\n      tag_319\n      jump\t// in\n    tag_496:\n        /* \"#utility.yul\":19487:19540   */\n      tag_318\n      jump\t// in\n    tag_495:\n        /* \"#utility.yul\":19474:19540   */\n      swap1\n      pop\n        /* \"#utility.yul\":19404:19546   */\n      swap2\n      swap1\n      pop\n      jump\t// out\n        /* \"#utility.yul\":19552:19627   */\n    tag_321:\n        /* \"#utility.yul\":19595:19598   */\n      0x00\n        /* \"#utility.yul\":19616:19621   */\n      dup2\n        /* \"#utility.yul\":19609:19621   */\n      swap1\n      pop\n        /* \"#utility.yul\":19552:19627   */\n      swap2\n      swap1\n      pop\n      jump\t// out\n        /* \"#utility.yul\":19633:19902   */\n    tag_322:\n        /* \"#utility.yul\":19743:19782   */\n      tag_500\n        /* \"#utility.yul\":19774:19781   */\n      dup4\n        /* \"#utility.yul\":19743:19782   */\n      tag_320\n      jump\t// in\n    tag_500:\n        /* \"#utility.yul\":19804:19895   */\n      tag_501\n        /* \"#utility.yul\":19853:19894   */\n      tag_502\n        /* \"#utility.yul\":19877:19893   */\n      dup3\n        /* \"#utility.yul\":19853:19894   */\n      tag_321\n      jump\t// in\n    tag_502:\n        /* \"#utility.yul\":19845:19851   */\n      dup5\n        /* \"#utility.yul\":19838:19842   */\n      dup5\n        /* \"#utility.yul\":19832:19843   */\n      sload\n        /* \"#utility.yul\":19804:19895   */\n      tag_317\n      jump\t// in\n    tag_501:\n        /* \"#utility.yul\":19798:19802   */\n      dup3\n        /* \"#utility.yul\":19791:19896   */\n      sstore\n        /* \"#utility.yul\":19709:19902   */\n      pop\n        /* \"#utility.yul\":19633:19902   */\n      pop\n      pop\n      pop\n      jump\t// out\n        /* \"#utility.yul\":19908:19981   */\n    tag_323:\n        /* \"#utility.yul\":19953:19956   */\n      0x00\n        /* \"#utility.yul\":19908:19981   */\n      swap1\n      jump\t// out\n        /* \"#utility.yul\":19987:20176   */\n    tag_324:\n        /* \"#utility.yul\":20064:20096   */\n      tag_505\n      tag_323\n      jump\t// in\n    tag_505:\n        /* \"#utility.yul\":20105:20170   */\n      tag_506\n        /* \"#utility.yul\":20163:20169   */\n      dup2\n        /* \"#utility.yul\":20155:20161   */\n      dup5\n        /* \"#utility.yul\":20149:20153   */\n      dup5\n        /* \"#utility.yul\":20105:20170   */\n      tag_322\n      jump\t// in\n    tag_506:\n        /* \"#utility.yul\":20040:20176   */\n      pop\n        /* \"#utility.yul\":19987:20176   */\n      pop\n      pop\n      jump\t// out\n        /* \"#utility.yul\":20182:20368   */\n    tag_325:\n        /* \"#utility.yul\":20242:20362   */\n    tag_508:\n        /* \"#utility.yul\":20259:20262   */\n      dup2\n        /* \"#utility.yul\":20252:20257   */\n      dup2\n        /* \"#utility.yul\":20249:20263   */\n      lt\n        /* \"#utility.yul\":20242:20362   */\n      iszero\n      tag_510\n      jumpi\n        /* \"#utility.yul\":20313:20352   */\n      tag_511\n        /* \"#utility.yul\":20350:20351   */\n      0x00\n        /* \"#utility.yul\":20343:20348   */\n      dup3\n        /* \"#utility.yul\":20313:20352   */\n      tag_324\n      jump\t// in\n    tag_511:\n        /* \"#utility.yul\":20286:20287   */\n      0x01\n        /* \"#utility.yul\":20279:20284   */\n      dup2\n        /* \"#utility.yul\":20275:20288   */\n      add\n        /* \"#utility.yul\":20266:20288   */\n      swap1\n      pop\n        /* \"#utility.yul\":20242:20362   */\n      jump(tag_508)\n    tag_510:\n        /* \"#utility.yul\":20182:20368   */\n      pop\n      pop\n      jump\t// out\n        /* \"#utility.yul\":20374:20917   */\n    tag_326:\n        /* \"#utility.yul\":20475:20477   */\n      0x1f\n        /* \"#utility.yul\":20470:20473   */\n      dup3\n        /* \"#utility.yul\":20467:20478   */\n      gt\n        /* \"#utility.yul\":20464:20910   */\n      iszero\n      tag_513\n      jumpi\n        /* \"#utility.yul\":20509:20547   */\n      tag_514\n        /* \"#utility.yul\":20541:20546   */\n      dup2\n        /* \"#utility.yul\":20509:20547   */\n      tag_314\n      jump\t// in\n    tag_514:\n        /* \"#utility.yul\":20593:20622   */\n      tag_515\n        /* \"#utility.yul\":20611:20621   */\n      dup5\n        /* \"#utility.yul\":20593:20622   */\n      tag_315\n      jump\t// in\n    tag_515:\n        /* \"#utility.yul\":20583:20591   */\n      dup2\n        /* \"#utility.yul\":20579:20623   */\n      add\n        /* \"#utility.yul\":20776:20778   */\n      0x20\n        /* \"#utility.yul\":20764:20774   */\n      dup6\n        /* \"#utility.yul\":20761:20779   */\n      lt\n        /* \"#utility.yul\":20758:20807   */\n      iszero\n      tag_516\n      jumpi\n        /* \"#utility.yul\":20797:20805   */\n      dup2\n        /* \"#utility.yul\":20782:20805   */\n      swap1\n      pop\n        /* \"#utility.yul\":20758:20807   */\n    tag_516:\n        /* \"#utility.yul\":20820:20900   */\n      tag_517\n        /* \"#utility.yul\":20876:20898   */\n      tag_518\n        /* \"#utility.yul\":20894:20897   */\n      dup6\n        /* \"#utility.yul\":20876:20898   */\n      tag_315\n      jump\t// in\n    tag_518:\n        /* \"#utility.yul\":20866:20874   */\n      dup4\n        /* \"#utility.yul\":20862:20899   */\n      add\n        /* \"#utility.yul\":20849:20860   */\n      dup3\n        /* \"#utility.yul\":20820:20900   */\n      tag_325\n      jump\t// in\n    tag_517:\n        /* \"#utility.yul\":20479:20910   */\n      pop\n      pop\n        /* \"#utility.yul\":20464:20910   */\n    tag_513:\n        /* \"#utility.yul\":20374:20917   */\n      pop\n      pop\n      pop\n      jump\t// out\n        /* \"#utility.yul\":20923:21040   */\n    tag_327:\n        /* \"#utility.yul\":20977:20985   */\n      0x00\n        /* \"#utility.yul\":21027:21032   */\n      dup3\n        /* \"#utility.yul\":21021:21025   */\n      dup3\n        /* \"#utility.yul\":21017:21033   */\n      shr\n        /* \"#utility.yul\":20996:21033   */\n      swap1\n      pop\n        /* \"#utility.yul\":20923:21040   */\n      swap3\n      swap2\n      pop\n      pop\n      jump\t// out\n        /* \"#utility.yul\":21046:21215   */\n    tag_328:\n        /* \"#utility.yul\":21090:21096   */\n      0x00\n        /* \"#utility.yul\":21123:21174   */\n      tag_521\n        /* \"#utility.yul\":21171:21172   */\n      0x00\n        /* \"#utility.yul\":21167:21173   */\n      not\n        /* \"#utility.yul\":21159:21164   */\n      dup5\n        /* \"#utility.yul\":21156:21157   */\n      0x08\n        /* \"#utility.yul\":21152:21165   */\n      mul\n        /* \"#utility.yul\":21123:21174   */\n      tag_327\n      jump\t// in\n    tag_521:\n        /* \"#utility.yul\":21119:21175   */\n      not\n        /* \"#utility.yul\":21204:21208   */\n      dup1\n        /* \"#utility.yul\":21198:21202   */\n      dup4\n        /* \"#utility.yul\":21194:21209   */\n      and\n        /* \"#utility.yul\":21184:21209   */\n      swap2\n      pop\n        /* \"#utility.yul\":21097:21215   */\n      pop\n        /* \"#utility.yul\":21046:21215   */\n      swap3\n      swap2\n      pop\n      pop\n      jump\t// out\n        /* \"#utility.yul\":21220:21515   */\n    tag_329:\n        /* \"#utility.yul\":21296:21300   */\n      0x00\n        /* \"#utility.yul\":21442:21471   */\n      tag_523\n        /* \"#utility.yul\":21467:21470   */\n      dup4\n        /* \"#utility.yul\":21461:21465   */\n      dup4\n        /* \"#utility.yul\":21442:21471   */\n      tag_328\n      jump\t// in\n    tag_523:\n        /* \"#utility.yul\":21434:21471   */\n      swap2\n      pop\n        /* \"#utility.yul\":21504:21507   */\n      dup3\n        /* \"#utility.yul\":21501:21502   */\n      0x02\n        /* \"#utility.yul\":21497:21508   */\n      mul\n        /* \"#utility.yul\":21491:21495   */\n      dup3\n        /* \"#utility.yul\":21488:21509   */\n      or\n        /* \"#utility.yul\":21480:21509   */\n      swap1\n      pop\n        /* \"#utility.yul\":21220:21515   */\n      swap3\n      swap2\n      pop\n      pop\n      jump\t// out\n        /* \"#utility.yul\":21520:22915   */\n    tag_58:\n        /* \"#utility.yul\":21637:21674   */\n      tag_525\n        /* \"#utility.yul\":21670:21673   */\n      dup3\n        /* \"#utility.yul\":21637:21674   */\n      tag_292\n      jump\t// in\n    tag_525:\n        /* \"#utility.yul\":21739:21757   */\n      0xffffffffffffffff\n        /* \"#utility.yul\":21731:21737   */\n      dup2\n        /* \"#utility.yul\":21728:21758   */\n      gt\n        /* \"#utility.yul\":21725:21781   */\n      iszero\n      tag_526\n      jumpi\n        /* \"#utility.yul\":21761:21779   */\n      tag_527\n      tag_191\n      jump\t// in\n    tag_527:\n        /* \"#utility.yul\":21725:21781   */\n    tag_526:\n        /* \"#utility.yul\":21805:21843   */\n      tag_528\n        /* \"#utility.yul\":21837:21841   */\n      dup3\n        /* \"#utility.yul\":21831:21842   */\n      sload\n        /* \"#utility.yul\":21805:21843   */\n      tag_74\n      jump\t// in\n    tag_528:\n        /* \"#utility.yul\":21890:21957   */\n      tag_529\n        /* \"#utility.yul\":21950:21956   */\n      dup3\n        /* \"#utility.yul\":21942:21948   */\n      dup3\n        /* \"#utility.yul\":21936:21940   */\n      dup6\n        /* \"#utility.yul\":21890:21957   */\n      tag_326\n      jump\t// in\n    tag_529:\n        /* \"#utility.yul\":21984:21985   */\n      0x00\n        /* \"#utility.yul\":22008:22012   */\n      0x20\n        /* \"#utility.yul\":21995:22012   */\n      swap1\n      pop\n        /* \"#utility.yul\":22040:22042   */\n      0x1f\n        /* \"#utility.yul\":22032:22038   */\n      dup4\n        /* \"#utility.yul\":22029:22043   */\n      gt\n        /* \"#utility.yul\":22057:22058   */\n      0x01\n        /* \"#utility.yul\":22052:22670   */\n      dup2\n      eq\n      tag_531\n      jumpi\n        /* \"#utility.yul\":22714:22715   */\n      0x00\n        /* \"#utility.yul\":22731:22737   */\n      dup5\n        /* \"#utility.yul\":22728:22805   */\n      iszero\n      tag_532\n      jumpi\n        /* \"#utility.yul\":22780:22789   */\n      dup3\n        /* \"#utility.yul\":22775:22778   */\n      dup8\n        /* \"#utility.yul\":22771:22790   */\n      add\n        /* \"#utility.yul\":22765:22791   */\n      mload\n        /* \"#utility.yul\":22756:22791   */\n      swap1\n      pop\n        /* \"#utility.yul\":22728:22805   */\n    tag_532:\n        /* \"#utility.yul\":22831:22898   */\n      tag_533\n        /* \"#utility.yul\":22891:22897   */\n      dup6\n        /* \"#utility.yul\":22884:22889   */\n      dup3\n        /* \"#utility.yul\":22831:22898   */\n      tag_329\n      jump\t// in\n    tag_533:\n        /* \"#utility.yul\":22825:22829   */\n      dup7\n        /* \"#utility.yul\":22818:22899   */\n      sstore\n        /* \"#utility.yul\":22687:22909   */\n      pop\n        /* \"#utility.yul\":22022:22909   */\n      jump(tag_530)\n        /* \"#utility.yul\":22052:22670   */\n    tag_531:\n        /* \"#utility.yul\":22104:22108   */\n      0x1f\n        /* \"#utility.yul\":22100:22109   */\n      not\n        /* \"#utility.yul\":22092:22098   */\n      dup5\n        /* \"#utility.yul\":22088:22110   */\n      and\n        /* \"#utility.yul\":22138:22175   */\n      tag_534\n        /* \"#utility.yul\":22170:22174   */\n      dup7\n        /* \"#utility.yul\":22138:22175   */\n      tag_314\n      jump\t// in\n    tag_534:\n        /* \"#utility.yul\":22197:22198   */\n      0x00\n        /* \"#utility.yul\":22211:22419   */\n    tag_535:\n        /* \"#utility.yul\":22225:22232   */\n      dup3\n        /* \"#utility.yul\":22222:22223   */\n      dup2\n        /* \"#utility.yul\":22219:22233   */\n      lt\n        /* \"#utility.yul\":22211:22419   */\n      iszero\n      tag_537\n      jumpi\n        /* \"#utility.yul\":22304:22313   */\n      dup5\n        /* \"#utility.yul\":22299:22302   */\n      dup10\n        /* \"#utility.yul\":22295:22314   */\n      add\n        /* \"#utility.yul\":22289:22315   */\n      mload\n        /* \"#utility.yul\":22281:22287   */\n      dup3\n        /* \"#utility.yul\":22274:22316   */\n      sstore\n        /* \"#utility.yul\":22355:22356   */\n      0x01\n        /* \"#utility.yul\":22347:22353   */\n      dup3\n        /* \"#utility.yul\":22343:22357   */\n      add\n        /* \"#utility.yul\":22333:22357   */\n      swap2\n      pop\n        /* \"#utility.yul\":22402:22404   */\n      0x20\n        /* \"#utility.yul\":22391:22400   */\n      dup6\n        /* \"#utility.yul\":22387:22405   */\n      add\n        /* \"#utility.yul\":22374:22405   */\n      swap5\n      pop\n        /* \"#utility.yul\":22248:22252   */\n      0x20\n        /* \"#utility.yul\":22245:22246   */\n      dup2\n        /* \"#utility.yul\":22241:22253   */\n      add\n        /* \"#utility.yul\":22236:22253   */\n      swap1\n      pop\n        /* \"#utility.yul\":22211:22419   */\n      jump(tag_535)\n    tag_537:\n        /* \"#utility.yul\":22447:22453   */\n      dup7\n        /* \"#utility.yul\":22438:22445   */\n      dup4\n        /* \"#utility.yul\":22435:22454   */\n      lt\n        /* \"#utility.yul\":22432:22611   */\n      iszero\n      tag_538\n      jumpi\n        /* \"#utility.yul\":22505:22514   */\n      dup5\n        /* \"#utility.yul\":22500:22503   */\n      dup10\n        /* \"#utility.yul\":22496:22515   */\n      add\n        /* \"#utility.yul\":22490:22516   */\n      mload\n        /* \"#utility.yul\":22548:22596   */\n      tag_539\n        /* \"#utility.yul\":22590:22594   */\n      0x1f\n        /* \"#utility.yul\":22582:22588   */\n      dup10\n        /* \"#utility.yul\":22578:22595   */\n      and\n        /* \"#utility.yul\":22567:22576   */\n      dup3\n        /* \"#utility.yul\":22548:22596   */\n      tag_328\n      jump\t// in\n    tag_539:\n        /* \"#utility.yul\":22540:22546   */\n      dup4\n        /* \"#utility.yul\":22533:22597   */\n      sstore\n        /* \"#utility.yul\":22455:22611   */\n      pop\n        /* \"#utility.yul\":22432:22611   */\n    tag_538:\n        /* \"#utility.yul\":22657:22658   */\n      0x01\n        /* \"#utility.yul\":22653:22654   */\n      0x02\n        /* \"#utility.yul\":22645:22651   */\n      dup9\n        /* \"#utility.yul\":22641:22655   */\n      mul\n        /* \"#utility.yul\":22637:22659   */\n      add\n        /* \"#utility.yul\":22631:22635   */\n      dup9\n        /* \"#utility.yul\":22624:22660   */\n      sstore\n        /* \"#utility.yul\":22059:22670   */\n      pop\n      pop\n      pop\n        /* \"#utility.yul\":22022:22909   */\n    tag_530:\n      pop\n        /* \"#utility.yul\":21612:22915   */\n      pop\n      pop\n      pop\n        /* \"#utility.yul\":21520:22915   */\n      pop\n      pop\n      jump\t// out\n        /* \"#utility.yul\":22921:23096   */\n    tag_330:\n        /* \"#utility.yul\":23061:23088   */\n      0x53756272656464697420616c7265616479206578697374732e00000000000000\n        /* \"#utility.yul\":23057:23058   */\n      0x00\n        /* \"#utility.yul\":23049:23055   */\n      dup3\n        /* \"#utility.yul\":23045:23059   */\n      add\n        /* \"#utility.yul\":23038:23089   */\n      mstore\n        /* \"#utility.yul\":22921:23096   */\n      pop\n      jump\t// out\n        /* \"#utility.yul\":23102:23468   */\n    tag_331:\n        /* \"#utility.yul\":23244:23247   */\n      0x00\n        /* \"#utility.yul\":23265:23332   */\n      tag_542\n        /* \"#utility.yul\":23329:23331   */\n      0x19\n        /* \"#utility.yul\":23324:23327   */\n      dup4\n        /* \"#utility.yul\":23265:23332   */\n      tag_308\n      jump\t// in\n    tag_542:\n        /* \"#utility.yul\":23258:23332   */\n      swap2\n      pop\n        /* \"#utility.yul\":23341:23434   */\n      tag_543\n        /* \"#utility.yul\":23430:23433   */\n      dup3\n        /* \"#utility.yul\":23341:23434   */\n      tag_330\n      jump\t// in\n    tag_543:\n        /* \"#utility.yul\":23459:23461   */\n      0x20\n        /* \"#utility.yul\":23454:23457   */\n      dup3\n        /* \"#utility.yul\":23450:23462   */\n      add\n        /* \"#utility.yul\":23443:23462   */\n      swap1\n      pop\n        /* \"#utility.yul\":23102:23468   */\n      swap2\n      swap1\n      pop\n      jump\t// out\n        /* \"#utility.yul\":23474:23893   */\n    tag_66:\n        /* \"#utility.yul\":23640:23644   */\n      0x00\n        /* \"#utility.yul\":23678:23680   */\n      0x20\n        /* \"#utility.yul\":23667:23676   */\n      dup3\n        /* \"#utility.yul\":23663:23681   */\n      add\n        /* \"#utility.yul\":23655:23681   */\n      swap1\n      pop\n        /* \"#utility.yul\":23727:23736   */\n      dup2\n        /* \"#utility.yul\":23721:23725   */\n      dup2\n        /* \"#utility.yul\":23717:23737   */\n      sub\n        /* \"#utility.yul\":23713:23714   */\n      0x00\n        /* \"#utility.yul\":23702:23711   */\n      dup4\n        /* \"#utility.yul\":23698:23715   */\n      add\n        /* \"#utility.yul\":23691:23738   */\n      mstore\n        /* \"#utility.yul\":23755:23886   */\n      tag_545\n        /* \"#utility.yul\":23881:23885   */\n      dup2\n        /* \"#utility.yul\":23755:23886   */\n      tag_331\n      jump\t// in\n    tag_545:\n        /* \"#utility.yul\":23747:23886   */\n      swap1\n      pop\n        /* \"#utility.yul\":23474:23893   */\n      swap2\n      swap1\n      pop\n      jump\t// out\n        /* \"#utility.yul\":23899:24079   */\n    tag_104:\n        /* \"#utility.yul\":23947:24024   */\n      0x4e487b7100000000000000000000000000000000000000000000000000000000\n        /* \"#utility.yul\":23944:23945   */\n      0x00\n        /* \"#utility.yul\":23937:24025   */\n      mstore\n        /* \"#utility.yul\":24044:24048   */\n      0x32\n        /* \"#utility.yul\":24041:24042   */\n      0x04\n        /* \"#utility.yul\":24034:24049   */\n      mstore\n        /* \"#utility.yul\":24068:24072   */\n      0x24\n        /* \"#utility.yul\":24065:24066   */\n      0x00\n        /* \"#utility.yul\":24058:24073   */\n      revert\n        /* \"#utility.yul\":24085:24255   */\n    tag_332:\n        /* \"#utility.yul\":24225:24247   */\n      0x506f737420646f6573206e6f742065786973742e000000000000000000000000\n        /* \"#utility.yul\":24221:24222   */\n      0x00\n        /* \"#utility.yul\":24213:24219   */\n      dup3\n        /* \"#utility.yul\":24209:24223   */\n      add\n        /* \"#utility.yul\":24202:24248   */\n      mstore\n        /* \"#utility.yul\":24085:24255   */\n      pop\n      jump\t// out\n        /* \"#utility.yul\":24261:24627   */\n    tag_333:\n        /* \"#utility.yul\":24403:24406   */\n      0x00\n        /* \"#utility.yul\":24424:24491   */\n      tag_549\n        /* \"#utility.yul\":24488:24490   */\n      0x14\n        /* \"#utility.yul\":24483:24486   */\n      dup4\n        /* \"#utility.yul\":24424:24491   */\n      tag_308\n      jump\t// in\n    tag_549:\n        /* \"#utility.yul\":24417:24491   */\n      swap2\n      pop\n        /* \"#utility.yul\":24500:24593   */\n      tag_550\n        /* \"#utility.yul\":24589:24592   */\n      dup3\n        /* \"#utility.yul\":24500:24593   */\n      tag_332\n      jump\t// in\n    tag_550:\n        /* \"#utility.yul\":24618:24620   */\n      0x20\n        /* \"#utility.yul\":24613:24616   */\n      dup3\n        /* \"#utility.yul\":24609:24621   */\n      add\n        /* \"#utility.yul\":24602:24621   */\n      swap1\n      pop\n        /* \"#utility.yul\":24261:24627   */\n      swap2\n      swap1\n      pop\n      jump\t// out\n        /* \"#utility.yul\":24633:25052   */\n    tag_146:\n        /* \"#utility.yul\":24799:24803   */\n      0x00\n        /* \"#utility.yul\":24837:24839   */\n      0x20\n        /* \"#utility.yul\":24826:24835   */\n      dup3\n        /* \"#utility.yul\":24822:24840   */\n      add\n        /* \"#utility.yul\":24814:24840   */\n      swap1\n      pop\n        /* \"#utility.yul\":24886:24895   */\n      dup2\n        /* \"#utility.yul\":24880:24884   */\n      dup2\n        /* \"#utility.yul\":24876:24896   */\n      sub\n        /* \"#utility.yul\":24872:24873   */\n      0x00\n        /* \"#utility.yul\":24861:24870   */\n      dup4\n        /* \"#utility.yul\":24857:24874   */\n      add\n        /* \"#utility.yul\":24850:24897   */\n      mstore\n        /* \"#utility.yul\":24914:25045   */\n      tag_552\n        /* \"#utility.yul\":25040:25044   */\n      dup2\n        /* \"#utility.yul\":24914:25045   */\n      tag_333\n      jump\t// in\n    tag_552:\n        /* \"#utility.yul\":24906:25045   */\n      swap1\n      pop\n        /* \"#utility.yul\":24633:25052   */\n      swap2\n      swap1\n      pop\n      jump\t// out\n        /* \"#utility.yul\":25058:25238   */\n    tag_334:\n        /* \"#utility.yul\":25106:25183   */\n      0x4e487b7100000000000000000000000000000000000000000000000000000000\n        /* \"#utility.yul\":25103:25104   */\n      0x00\n        /* \"#utility.yul\":25096:25184   */\n      mstore\n        /* \"#utility.yul\":25203:25207   */\n      0x11\n        /* \"#utility.yul\":25200:25201   */\n      0x04\n        /* \"#utility.yul\":25193:25208   */\n      mstore\n        /* \"#utility.yul\":25227:25231   */\n      0x24\n        /* \"#utility.yul\":25224:25225   */\n      0x00\n        /* \"#utility.yul\":25217:25232   */\n      revert\n        /* \"#utility.yul\":25244:25477   */\n    tag_188:\n        /* \"#utility.yul\":25283:25286   */\n      0x00\n        /* \"#utility.yul\":25306:25330   */\n      tag_555\n        /* \"#utility.yul\":25324:25329   */\n      dup3\n        /* \"#utility.yul\":25306:25330   */\n      tag_318\n      jump\t// in\n    tag_555:\n        /* \"#utility.yul\":25297:25330   */\n      swap2\n      pop\n        /* \"#utility.yul\":25352:25418   */\n      0xffffffffffffffffffffffffffffffffffffffffffffffffffffffffffffffff\n        /* \"#utility.yul\":25345:25350   */\n      dup3\n        /* \"#utility.yul\":25342:25419   */\n      sub\n        /* \"#utility.yul\":25339:25442   */\n      tag_556\n      jumpi\n        /* \"#utility.yul\":25422:25440   */\n      tag_557\n      tag_334\n      jump\t// in\n    tag_557:\n        /* \"#utility.yul\":25339:25442   */\n    tag_556:\n        /* \"#utility.yul\":25469:25470   */\n      0x01\n        /* \"#utility.yul\":25462:25467   */\n      dup3\n        /* \"#utility.yul\":25458:25471   */\n      add\n        /* \"#utility.yul\":25451:25471   */\n      swap1\n      pop\n        /* \"#utility.yul\":25244:25477   */\n      swap2\n      swap1\n      pop\n      jump\t// out\n        /* \"#utility.yul\":25483:25631   */\n    tag_335:\n        /* \"#utility.yul\":25585:25596   */\n      0x00\n        /* \"#utility.yul\":25622:25625   */\n      dup2\n        /* \"#utility.yul\":25607:25625   */\n      swap1\n      pop\n        /* \"#utility.yul\":25483:25631   */\n      swap3\n      swap2\n      pop\n      pop\n      jump\t// out\n        /* \"#utility.yul\":25637:26027   */\n    tag_336:\n        /* \"#utility.yul\":25743:25746   */\n      0x00\n        /* \"#utility.yul\":25771:25810   */\n      tag_560\n        /* \"#utility.yul\":25804:25809   */\n      dup3\n        /* \"#utility.yul\":25771:25810   */\n      tag_292\n      jump\t// in\n    tag_560:\n        /* \"#utility.yul\":25826:25915   */\n      tag_561\n        /* \"#utility.yul\":25908:25914   */\n      dup2\n        /* \"#utility.yul\":25903:25906   */\n      dup6\n        /* \"#utility.yul\":25826:25915   */\n      tag_335\n      jump\t// in\n    tag_561:\n        /* \"#utility.yul\":25819:25915   */\n      swap4\n      pop\n        /* \"#utility.yul\":25924:25989   */\n      tag_562\n        /* \"#utility.yul\":25982:25988   */\n      dup2\n        /* \"#utility.yul\":25977:25980   */\n      dup6\n        /* \"#utility.yul\":25970:25974   */\n      0x20\n        /* \"#utility.yul\":25963:25968   */\n      dup7\n        /* \"#utility.yul\":25959:25975   */\n      add\n        /* \"#utility.yul\":25924:25989   */\n      tag_294\n      jump\t// in\n    tag_562:\n        /* \"#utility.yul\":26014:26020   */\n      dup1\n        /* \"#utility.yul\":26009:26012   */\n      dup5\n        /* \"#utility.yul\":26005:26021   */\n      add\n        /* \"#utility.yul\":25998:26021   */\n      swap2\n      pop\n        /* \"#utility.yul\":25747:26027   */\n      pop\n        /* \"#utility.yul\":25637:26027   */\n      swap3\n      swap2\n      pop\n      pop\n      jump\t// out\n        /* \"#utility.yul\":26033:26308   */\n    tag_261:\n        /* \"#utility.yul\":26165:26168   */\n      0x00\n        /* \"#utility.yul\":26187:26282   */\n      tag_564\n        /* \"#utility.yul\":26278:26281   */\n      dup3\n        /* \"#utility.yul\":26269:26275   */\n      dup5\n        /* \"#utility.yul\":26187:26282   */\n      tag_336\n      jump\t// in\n    tag_564:\n        /* \"#utility.yul\":26180:26282   */\n      swap2\n      pop\n        /* \"#utility.yul\":26299:26302   */\n      dup2\n        /* \"#utility.yul\":26292:26302   */\n      swap1\n      pop\n        /* \"#utility.yul\":26033:26308   */\n      swap3\n      swap2\n      pop\n      pop\n      jump\t// out\n\n    auxdata: 0xa2646970667358221220e9c6d2b3367821140f9accadf10e647563423c90906291048444aa49ae5dea8364736f6c63430008160033\n}\n",
				"bytecode": {
					"linkReferences": {},
					"object": "608060405234801561000f575f80fd5b5061202e8061001d5f395ff3fe608060405234801561000f575f80fd5b5060043610610086575f3560e01c80639cb4bcb4116100595780639cb4bcb4146100fc578063df4a259b14610118578063ef3172af14610148578063fd0d81b91461017857610086565b80630d57f91f1461008a57806336c15e3a146100a657806341f3004a146100c257806376da2b9d146100e0575b5f80fd5b6100a4600480360381019061009f91906114ef565b610196565b005b6100c060048036038101906100bb91906115c3565b6102d3565b005b6100ca61036c565b6040516100d791906117b4565b60405180910390f35b6100fa60048036038101906100f591906117d4565b610607565b005b6101166004803603810190610111919061184a565b610757565b005b610132600480360381019061012d91906115c3565b610891565b60405161013f9190611963565b60405180910390f35b610162600480360381019061015d91906115c3565b610b5e565b60405161016f91906117b4565b60405180910390f35b610180611054565b60405161018d9190611a65565b60405180910390f35b61019f8461113a565b156101df576040517f08c379a00000000000000000000000000000000000000000000000000000000081526004016101d690611adf565b60405180910390fd5b6101e883611152565b610227576040517f08c379a000000000000000000000000000000000000000000000000000000000815260040161021e90611b47565b60405180910390fd5b5f6040518060800160405280868152602001858152602001848152602001838152509050600181908060018154018082558091505060019003905f5260205f2090600402015f909190919091505f820151815f0190816102879190611d68565b50602082015181600101908161029d9190611d68565b5060408201518160020190816102b39190611d68565b5060608201518160030190816102c99190611d68565b5050505050505050565b6102dc81611152565b1561031c576040517f08c379a000000000000000000000000000000000000000000000000000000000815260040161031390611e81565b60405180910390fd5b5f60405180602001604052808381525090505f81908060018154018082558091505060019003905f5260205f20015f909190919091505f820151815f0190816103659190611d68565b5050505050565b60606001805480602002602001604051908101604052809291908181526020015f905b828210156105fe578382905f5260205f2090600402016040518060800160405290815f820180546103bf90611b92565b80601f01602080910402602001604051908101604052809291908181526020018280546103eb90611b92565b80156104365780601f1061040d57610100808354040283529160200191610436565b820191905f5260205f20905b81548152906001019060200180831161041957829003601f168201915b5050505050815260200160018201805461044f90611b92565b80601f016020809104026020016040519081016040528092919081815260200182805461047b90611b92565b80156104c65780601f1061049d576101008083540402835291602001916104c6565b820191905f5260205f20905b8154815290600101906020018083116104a957829003601f168201915b505050505081526020016002820180546104df90611b92565b80601f016020809104026020016040519081016040528092919081815260200182805461050b90611b92565b80156105565780601f1061052d57610100808354040283529160200191610556565b820191905f5260205f20905b81548152906001019060200180831161053957829003601f168201915b5050505050815260200160038201805461056f90611b92565b80601f016020809104026020016040519081016040528092919081815260200182805461059b90611b92565b80156105e65780601f106105bd576101008083540402835291602001916105e6565b820191905f5260205f20905b8154815290600101906020018083116105c957829003601f168201915b5050505050815250508152602001906001019061038f565b50505050905090565b61061081611152565b61064f576040517f08c379a000000000000000000000000000000000000000000000000000000000815260040161064690611b47565b60405180910390fd5b5f5b600180549050811015610752576107106001828154811061067557610674611e9f565b5b905f5260205f2090600402015f01805461068e90611b92565b80601f01602080910402602001604051908101604052809291908181526020018280546106ba90611b92565b80156107055780601f106106dc57610100808354040283529160200191610705565b820191905f5260205f20905b8154815290600101906020018083116106e857829003601f168201915b505050505084611235565b1561074757816001828154811061072a57610729611e9f565b5b905f5260205f20906004020160010190816107459190611d68565b505b806001019050610651565b505050565b5f5b60018054905081101561088b576108186001828154811061077d5761077c611e9f565b5b905f5260205f2090600402015f01805461079690611b92565b80601f01602080910402602001604051908101604052809291908181526020018280546107c290611b92565b801561080d5780601f106107e45761010080835404028352916020019161080d565b820191905f5260205f20905b8154815290600101906020018083116107f057829003601f168201915b505050505085611235565b1561088057826001828154811061083257610831611e9f565b5b905f5260205f209060040201600201908161084d9190611d68565b50816001828154811061086357610862611e9f565b5b905f5260205f209060040201600301908161087e9190611d68565b505b806001019050610759565b50505050565b61089961137a565b5f6108a38361128d565b905060018054905081106108ec576040517f08c379a00000000000000000000000000000000000000000000000000000000081526004016108e390611f16565b60405180910390fd5b60018181548110610900576108ff611e9f565b5b905f5260205f2090600402016040518060800160405290815f8201805461092690611b92565b80601f016020809104026020016040519081016040528092919081815260200182805461095290611b92565b801561099d5780601f106109745761010080835404028352916020019161099d565b820191905f5260205f20905b81548152906001019060200180831161098057829003601f168201915b505050505081526020016001820180546109b690611b92565b80601f01602080910402602001604051908101604052809291908181526020018280546109e290611b92565b8015610a2d5780601f10610a0457610100808354040283529160200191610a2d565b820191905f5260205f20905b815481529060010190602001808311610a1057829003601f168201915b50505050508152602001600282018054610a4690611b92565b80601f0160208091040260200160405190810160405280929190818152602001828054610a7290611b92565b8015610abd5780601f10610a9457610100808354040283529160200191610abd565b820191905f5260205f20905b815481529060010190602001808311610aa057829003601f168201915b50505050508152602001600382018054610ad690611b92565b80601f0160208091040260200160405190810160405280929190818152602001828054610b0290611b92565b8015610b4d5780601f10610b2457610100808354040283529160200191610b4d565b820191905f5260205f20905b815481529060010190602001808311610b3057829003601f168201915b505050505081525050915050919050565b6060610b6982611152565b610ba8576040517f08c379a0000000000000000000000000000000000000000000000000000000008152600401610b9f90611b47565b60405180910390fd5b5f805f5b600180549050811015610c8957610c6c60018281548110610bd057610bcf611e9f565b5b905f5260205f2090600402016001018054610bea90611b92565b80601f0160208091040260200160405190810160405280929190818152602001828054610c1690611b92565b8015610c615780601f10610c3857610100808354040283529160200191610c61565b820191905f5260205f20905b815481529060010190602001808311610c4457829003601f168201915b505050505086611235565b15610c7e5782610c7b90611f61565b92505b806001019050610bac565b505f8267ffffffffffffffff811115610ca557610ca46113cb565b5b604051908082528060200260200182016040528015610cde57816020015b610ccb61137a565b815260200190600190039081610cc35790505b5090505f5b60018054905081101561104857610da360018281548110610d0757610d06611e9f565b5b905f5260205f2090600402016001018054610d2190611b92565b80601f0160208091040260200160405190810160405280929190818152602001828054610d4d90611b92565b8015610d985780601f10610d6f57610100808354040283529160200191610d98565b820191905f5260205f20905b815481529060010190602001808311610d7b57829003601f168201915b505050505087611235565b1561103d5760018181548110610dbc57610dbb611e9f565b5b905f5260205f2090600402016040518060800160405290815f82018054610de290611b92565b80601f0160208091040260200160405190810160405280929190818152602001828054610e0e90611b92565b8015610e595780601f10610e3057610100808354040283529160200191610e59565b820191905f5260205f20905b815481529060010190602001808311610e3c57829003601f168201915b50505050508152602001600182018054610e7290611b92565b80601f0160208091040260200160405190810160405280929190818152602001828054610e9e90611b92565b8015610ee95780601f10610ec057610100808354040283529160200191610ee9565b820191905f5260205f20905b815481529060010190602001808311610ecc57829003601f168201915b50505050508152602001600282018054610f0290611b92565b80601f0160208091040260200160405190810160405280929190818152602001828054610f2e90611b92565b8015610f795780601f10610f5057610100808354040283529160200191610f79565b820191905f5260205f20905b815481529060010190602001808311610f5c57829003601f168201915b50505050508152602001600382018054610f9290611b92565b80601f0160208091040260200160405190810160405280929190818152602001828054610fbe90611b92565b80156110095780601f10610fe057610100808354040283529160200191611009565b820191905f5260205f20905b815481529060010190602001808311610fec57829003601f168201915b50505050508152505082848151811061102557611024611e9f565b5b60200260200101819052508261103a90611f61565b92505b806001019050610ce3565b50809350505050919050565b60605f805480602002602001604051908101604052809291908181526020015f905b82821015611131578382905f5260205f20016040518060200160405290815f820180546110a290611b92565b80601f01602080910402602001604051908101604052809291908181526020018280546110ce90611b92565b80156111195780601f106110f057610100808354040283529160200191611119565b820191905f5260205f20905b8154815290600101906020018083116110fc57829003601f168201915b50505050508152505081526020019060010190611076565b50505050905090565b5f60018054905061114a8361128d565b109050919050565b5f805f90505b5f8054905081101561122b576112115f828154811061117a57611179611e9f565b5b905f5260205f20015f01805461118f90611b92565b80601f01602080910402602001604051908101604052809291908181526020018280546111bb90611b92565b80156112065780601f106111dd57610100808354040283529160200191611206565b820191905f5260205f20905b8154815290600101906020018083116111e957829003601f168201915b505050505084611235565b15611220576001915050611230565b806001019050611158565b505f90505b919050565b5f816040516020016112479190611fe2565b604051602081830303815290604052805190602001208360405160200161126e9190611fe2565b6040516020818303038152906040528051906020012014905092915050565b5f805f90505b60018054905081101561136b57611352600182815481106112b7576112b6611e9f565b5b905f5260205f2090600402015f0180546112d090611b92565b80601f01602080910402602001604051908101604052809291908181526020018280546112fc90611b92565b80156113475780601f1061131e57610100808354040283529160200191611347565b820191905f5260205f20905b81548152906001019060200180831161132a57829003601f168201915b505050505084611235565b156113605780915050611375565b806001019050611293565b5060018054905090505b919050565b6040518060800160405280606081526020016060815260200160608152602001606081525090565b5f604051905090565b5f80fd5b5f80fd5b5f80fd5b5f80fd5b5f601f19601f8301169050919050565b7f4e487b71000000000000000000000000000000000000000000000000000000005f52604160045260245ffd5b611401826113bb565b810181811067ffffffffffffffff821117156114205761141f6113cb565b5b80604052505050565b5f6114326113a2565b905061143e82826113f8565b919050565b5f67ffffffffffffffff82111561145d5761145c6113cb565b5b611466826113bb565b9050602081019050919050565b828183375f83830152505050565b5f61149361148e84611443565b611429565b9050828152602081018484840111156114af576114ae6113b7565b5b6114ba848285611473565b509392505050565b5f82601f8301126114d6576114d56113b3565b5b81356114e6848260208601611481565b91505092915050565b5f805f8060808587031215611507576115066113ab565b5b5f85013567ffffffffffffffff811115611524576115236113af565b5b611530878288016114c2565b945050602085013567ffffffffffffffff811115611551576115506113af565b5b61155d878288016114c2565b935050604085013567ffffffffffffffff81111561157e5761157d6113af565b5b61158a878288016114c2565b925050606085013567ffffffffffffffff8111156115ab576115aa6113af565b5b6115b7878288016114c2565b91505092959194509250565b5f602082840312156115d8576115d76113ab565b5b5f82013567ffffffffffffffff8111156115f5576115f46113af565b5b611601848285016114c2565b91505092915050565b5f81519050919050565b5f82825260208201905092915050565b5f819050602082019050919050565b5f81519050919050565b5f82825260208201905092915050565b5f5b8381101561166a57808201518184015260208101905061164f565b5f8484015250505050565b5f61167f82611633565b611689818561163d565b935061169981856020860161164d565b6116a2816113bb565b840191505092915050565b5f608083015f8301518482035f8601526116c78282611675565b915050602083015184820360208601526116e18282611675565b915050604083015184820360408601526116fb8282611675565b915050606083015184820360608601526117158282611675565b9150508091505092915050565b5f61172d83836116ad565b905092915050565b5f602082019050919050565b5f61174b8261160a565b6117558185611614565b93508360208202850161176785611624565b805f5b858110156117a257848403895281516117838582611722565b945061178e83611735565b925060208a0199505060018101905061176a565b50829750879550505050505092915050565b5f6020820190508181035f8301526117cc8184611741565b905092915050565b5f80604083850312156117ea576117e96113ab565b5b5f83013567ffffffffffffffff811115611807576118066113af565b5b611813858286016114c2565b925050602083013567ffffffffffffffff811115611834576118336113af565b5b611840858286016114c2565b9150509250929050565b5f805f60608486031215611861576118606113ab565b5b5f84013567ffffffffffffffff81111561187e5761187d6113af565b5b61188a868287016114c2565b935050602084013567ffffffffffffffff8111156118ab576118aa6113af565b5b6118b7868287016114c2565b925050604084013567ffffffffffffffff8111156118d8576118d76113af565b5b6118e4868287016114c2565b9150509250925092565b5f608083015f8301518482035f8601526119088282611675565b915050602083015184820360208601526119228282611675565b9150506040830151848203604086015261193c8282611675565b915050606083015184820360608601526119568282611675565b9150508091505092915050565b5f6020820190508181035f83015261197b81846118ee565b905092915050565b5f81519050919050565b5f82825260208201905092915050565b5f819050602082019050919050565b5f602083015f8301518482035f8601526119c68282611675565b9150508091505092915050565b5f6119de83836119ac565b905092915050565b5f602082019050919050565b5f6119fc82611983565b611a06818561198d565b935083602082028501611a188561199d565b805f5b85811015611a535784840389528151611a3485826119d3565b9450611a3f836119e6565b925060208a01995050600181019050611a1b565b50829750879550505050505092915050565b5f6020820190508181035f830152611a7d81846119f2565b905092915050565b5f82825260208201905092915050565b7f506f7374207769746820494420616c7265616479206578697374732e000000005f82015250565b5f611ac9601c83611a85565b9150611ad482611a95565b602082019050919050565b5f6020820190508181035f830152611af681611abd565b9050919050565b7f53756272656464697420646f6573206e6f742065786973742e000000000000005f82015250565b5f611b31601983611a85565b9150611b3c82611afd565b602082019050919050565b5f6020820190508181035f830152611b5e81611b25565b9050919050565b7f4e487b71000000000000000000000000000000000000000000000000000000005f52602260045260245ffd5b5f6002820490506001821680611ba957607f821691505b602082108103611bbc57611bbb611b65565b5b50919050565b5f819050815f5260205f209050919050565b5f6020601f8301049050919050565b5f82821b905092915050565b5f60088302611c1e7fffffffffffffffffffffffffffffffffffffffffffffffffffffffffffffffff82611be3565b611c288683611be3565b95508019841693508086168417925050509392505050565b5f819050919050565b5f819050919050565b5f611c6c611c67611c6284611c40565b611c49565b611c40565b9050919050565b5f819050919050565b611c8583611c52565b611c99611c9182611c73565b848454611bef565b825550505050565b5f90565b611cad611ca1565b611cb8818484611c7c565b505050565b5b81811015611cdb57611cd05f82611ca5565b600181019050611cbe565b5050565b601f821115611d2057611cf181611bc2565b611cfa84611bd4565b81016020851015611d09578190505b611d1d611d1585611bd4565b830182611cbd565b50505b505050565b5f82821c905092915050565b5f611d405f1984600802611d25565b1980831691505092915050565b5f611d588383611d31565b9150826002028217905092915050565b611d7182611633565b67ffffffffffffffff811115611d8a57611d896113cb565b5b611d948254611b92565b611d9f828285611cdf565b5f60209050601f831160018114611dd0575f8415611dbe578287015190505b611dc88582611d4d565b865550611e2f565b601f198416611dde86611bc2565b5f5b82811015611e0557848901518255600182019150602085019450602081019050611de0565b86831015611e225784890151611e1e601f891682611d31565b8355505b6001600288020188555050505b505050505050565b7f53756272656464697420616c7265616479206578697374732e000000000000005f82015250565b5f611e6b601983611a85565b9150611e7682611e37565b602082019050919050565b5f6020820190508181035f830152611e9881611e5f565b9050919050565b7f4e487b71000000000000000000000000000000000000000000000000000000005f52603260045260245ffd5b7f506f737420646f6573206e6f742065786973742e0000000000000000000000005f82015250565b5f611f00601483611a85565b9150611f0b82611ecc565b602082019050919050565b5f6020820190508181035f830152611f2d81611ef4565b9050919050565b7f4e487b71000000000000000000000000000000000000000000000000000000005f52601160045260245ffd5b5f611f6b82611c40565b91507fffffffffffffffffffffffffffffffffffffffffffffffffffffffffffffffff8203611f9d57611f9c611f34565b5b600182019050919050565b5f81905092915050565b5f611fbc82611633565b611fc68185611fa8565b9350611fd681856020860161164d565b80840191505092915050565b5f611fed8284611fb2565b91508190509291505056fea2646970667358221220e9c6d2b3367821140f9accadf10e647563423c90906291048444aa49ae5dea8364736f6c63430008160033",
					"opcodes": "PUSH1 0x80 PUSH1 0x40 MSTORE CALLVALUE DUP1 ISZERO PUSH2 0xF JUMPI PUSH0 DUP1 REVERT JUMPDEST POP PUSH2 0x202E DUP1 PUSH2 0x1D PUSH0 CODECOPY PUSH0 RETURN INVALID PUSH1 0x80 PUSH1 0x40 MSTORE CALLVALUE DUP1 ISZERO PUSH2 0xF JUMPI PUSH0 DUP1 REVERT JUMPDEST POP PUSH1 0x4 CALLDATASIZE LT PUSH2 0x86 JUMPI PUSH0 CALLDATALOAD PUSH1 0xE0 SHR DUP1 PUSH4 0x9CB4BCB4 GT PUSH2 0x59 JUMPI DUP1 PUSH4 0x9CB4BCB4 EQ PUSH2 0xFC JUMPI DUP1 PUSH4 0xDF4A259B EQ PUSH2 0x118 JUMPI DUP1 PUSH4 0xEF3172AF EQ PUSH2 0x148 JUMPI DUP1 PUSH4 0xFD0D81B9 EQ PUSH2 0x178 JUMPI PUSH2 0x86 JUMP JUMPDEST DUP1 PUSH4 0xD57F91F EQ PUSH2 0x8A JUMPI DUP1 PUSH4 0x36C15E3A EQ PUSH2 0xA6 JUMPI DUP1 PUSH4 0x41F3004A EQ PUSH2 0xC2 JUMPI DUP1 PUSH4 0x76DA2B9D EQ PUSH2 0xE0 JUMPI JUMPDEST PUSH0 DUP1 REVERT JUMPDEST PUSH2 0xA4 PUSH1 0x4 DUP1 CALLDATASIZE SUB DUP2 ADD SWAP1 PUSH2 0x9F SWAP2 SWAP1 PUSH2 0x14EF JUMP JUMPDEST PUSH2 0x196 JUMP JUMPDEST STOP JUMPDEST PUSH2 0xC0 PUSH1 0x4 DUP1 CALLDATASIZE SUB DUP2 ADD SWAP1 PUSH2 0xBB SWAP2 SWAP1 PUSH2 0x15C3 JUMP JUMPDEST PUSH2 0x2D3 JUMP JUMPDEST STOP JUMPDEST PUSH2 0xCA PUSH2 0x36C JUMP JUMPDEST PUSH1 0x40 MLOAD PUSH2 0xD7 SWAP2 SWAP1 PUSH2 0x17B4 JUMP JUMPDEST PUSH1 0x40 MLOAD DUP1 SWAP2 SUB SWAP1 RETURN JUMPDEST PUSH2 0xFA PUSH1 0x4 DUP1 CALLDATASIZE SUB DUP2 ADD SWAP1 PUSH2 0xF5 SWAP2 SWAP1 PUSH2 0x17D4 JUMP JUMPDEST PUSH2 0x607 JUMP JUMPDEST STOP JUMPDEST PUSH2 0x116 PUSH1 0x4 DUP1 CALLDATASIZE SUB DUP2 ADD SWAP1 PUSH2 0x111 SWAP2 SWAP1 PUSH2 0x184A JUMP JUMPDEST PUSH2 0x757 JUMP JUMPDEST STOP JUMPDEST PUSH2 0x132 PUSH1 0x4 DUP1 CALLDATASIZE SUB DUP2 ADD SWAP1 PUSH2 0x12D SWAP2 SWAP1 PUSH2 0x15C3 JUMP JUMPDEST PUSH2 0x891 JUMP JUMPDEST PUSH1 0x40 MLOAD PUSH2 0x13F SWAP2 SWAP1 PUSH2 0x1963 JUMP JUMPDEST PUSH1 0x40 MLOAD DUP1 SWAP2 SUB SWAP1 RETURN JUMPDEST PUSH2 0x162 PUSH1 0x4 DUP1 CALLDATASIZE SUB DUP2 ADD SWAP1 PUSH2 0x15D SWAP2 SWAP1 PUSH2 0x15C3 JUMP JUMPDEST PUSH2 0xB5E JUMP JUMPDEST PUSH1 0x40 MLOAD PUSH2 0x16F SWAP2 SWAP1 PUSH2 0x17B4 JUMP JUMPDEST PUSH1 0x40 MLOAD DUP1 SWAP2 SUB SWAP1 RETURN JUMPDEST PUSH2 0x180 PUSH2 0x1054 JUMP JUMPDEST PUSH1 0x40 MLOAD PUSH2 0x18D SWAP2 SWAP1 PUSH2 0x1A65 JUMP JUMPDEST PUSH1 0x40 MLOAD DUP1 SWAP2 SUB SWAP1 RETURN JUMPDEST PUSH2 0x19F DUP5 PUSH2 0x113A JUMP JUMPDEST ISZERO PUSH2 0x1DF JUMPI PUSH1 0x40 MLOAD PUSH32 0x8C379A000000000000000000000000000000000000000000000000000000000 DUP2 MSTORE PUSH1 0x4 ADD PUSH2 0x1D6 SWAP1 PUSH2 0x1ADF JUMP JUMPDEST PUSH1 0x40 MLOAD DUP1 SWAP2 SUB SWAP1 REVERT JUMPDEST PUSH2 0x1E8 DUP4 PUSH2 0x1152 JUMP JUMPDEST PUSH2 0x227 JUMPI PUSH1 0x40 MLOAD PUSH32 0x8C379A000000000000000000000000000000000000000000000000000000000 DUP2 MSTORE PUSH1 0x4 ADD PUSH2 0x21E SWAP1 PUSH2 0x1B47 JUMP JUMPDEST PUSH1 0x40 MLOAD DUP1 SWAP2 SUB SWAP1 REVERT JUMPDEST PUSH0 PUSH1 0x40 MLOAD DUP1 PUSH1 0x80 ADD PUSH1 0x40 MSTORE DUP1 DUP7 DUP2 MSTORE PUSH1 0x20 ADD DUP6 DUP2 MSTORE PUSH1 0x20 ADD DUP5 DUP2 MSTORE PUSH1 0x20 ADD DUP4 DUP2 MSTORE POP SWAP1 POP PUSH1 0x1 DUP2 SWAP1 DUP1 PUSH1 0x1 DUP2 SLOAD ADD DUP1 DUP3 SSTORE DUP1 SWAP2 POP POP PUSH1 0x1 SWAP1 SUB SWAP1 PUSH0 MSTORE PUSH1 0x20 PUSH0 KECCAK256 SWAP1 PUSH1 0x4 MUL ADD PUSH0 SWAP1 SWAP2 SWAP1 SWAP2 SWAP1 SWAP2 POP PUSH0 DUP3 ADD MLOAD DUP2 PUSH0 ADD SWAP1 DUP2 PUSH2 0x287 SWAP2 SWAP1 PUSH2 0x1D68 JUMP JUMPDEST POP PUSH1 0x20 DUP3 ADD MLOAD DUP2 PUSH1 0x1 ADD SWAP1 DUP2 PUSH2 0x29D SWAP2 SWAP1 PUSH2 0x1D68 JUMP JUMPDEST POP PUSH1 0x40 DUP3 ADD MLOAD DUP2 PUSH1 0x2 ADD SWAP1 DUP2 PUSH2 0x2B3 SWAP2 SWAP1 PUSH2 0x1D68 JUMP JUMPDEST POP PUSH1 0x60 DUP3 ADD MLOAD DUP2 PUSH1 0x3 ADD SWAP1 DUP2 PUSH2 0x2C9 SWAP2 SWAP1 PUSH2 0x1D68 JUMP JUMPDEST POP POP POP POP POP POP POP POP JUMP JUMPDEST PUSH2 0x2DC DUP2 PUSH2 0x1152 JUMP JUMPDEST ISZERO PUSH2 0x31C JUMPI PUSH1 0x40 MLOAD PUSH32 0x8C379A000000000000000000000000000000000000000000000000000000000 DUP2 MSTORE PUSH1 0x4 ADD PUSH2 0x313 SWAP1 PUSH2 0x1E81 JUMP JUMPDEST PUSH1 0x40 MLOAD DUP1 SWAP2 SUB SWAP1 REVERT JUMPDEST PUSH0 PUSH1 0x40 MLOAD DUP1 PUSH1 0x20 ADD PUSH1 0x40 MSTORE DUP1 DUP4 DUP2 MSTORE POP SWAP1 POP PUSH0 DUP2 SWAP1 DUP1 PUSH1 0x1 DUP2 SLOAD ADD DUP1 DUP3 SSTORE DUP1 SWAP2 POP POP PUSH1 0x1 SWAP1 SUB SWAP1 PUSH0 MSTORE PUSH1 0x20 PUSH0 KECCAK256 ADD PUSH0 SWAP1 SWAP2 SWAP1 SWAP2 SWAP1 SWAP2 POP PUSH0 DUP3 ADD MLOAD DUP2 PUSH0 ADD SWAP1 DUP2 PUSH2 0x365 SWAP2 SWAP1 PUSH2 0x1D68 JUMP JUMPDEST POP POP POP POP POP JUMP JUMPDEST PUSH1 0x60 PUSH1 0x1 DUP1 SLOAD DUP1 PUSH1 0x20 MUL PUSH1 0x20 ADD PUSH1 0x40 MLOAD SWAP1 DUP2 ADD PUSH1 0x40 MSTORE DUP1 SWAP3 SWAP2 SWAP1 DUP2 DUP2 MSTORE PUSH1 0x20 ADD PUSH0 SWAP1 JUMPDEST DUP3 DUP3 LT ISZERO PUSH2 0x5FE JUMPI DUP4 DUP3 SWAP1 PUSH0 MSTORE PUSH1 0x20 PUSH0 KECCAK256 SWAP1 PUSH1 0x4 MUL ADD PUSH1 0x40 MLOAD DUP1 PUSH1 0x80 ADD PUSH1 0x40 MSTORE SWAP1 DUP2 PUSH0 DUP3 ADD DUP1 SLOAD PUSH2 0x3BF SWAP1 PUSH2 0x1B92 JUMP JUMPDEST DUP1 PUSH1 0x1F ADD PUSH1 0x20 DUP1 SWAP2 DIV MUL PUSH1 0x20 ADD PUSH1 0x40 MLOAD SWAP1 DUP2 ADD PUSH1 0x40 MSTORE DUP1 SWAP3 SWAP2 SWAP1 DUP2 DUP2 MSTORE PUSH1 0x20 ADD DUP3 DUP1 SLOAD PUSH2 0x3EB SWAP1 PUSH2 0x1B92 JUMP JUMPDEST DUP1 ISZERO PUSH2 0x436 JUMPI DUP1 PUSH1 0x1F LT PUSH2 0x40D JUMPI PUSH2 0x100 DUP1 DUP4 SLOAD DIV MUL DUP4 MSTORE SWAP2 PUSH1 0x20 ADD SWAP2 PUSH2 0x436 JUMP JUMPDEST DUP3 ADD SWAP2 SWAP1 PUSH0 MSTORE PUSH1 0x20 PUSH0 KECCAK256 SWAP1 JUMPDEST DUP2 SLOAD DUP2 MSTORE SWAP1 PUSH1 0x1 ADD SWAP1 PUSH1 0x20 ADD DUP1 DUP4 GT PUSH2 0x419 JUMPI DUP3 SWAP1 SUB PUSH1 0x1F AND DUP3 ADD SWAP2 JUMPDEST POP POP POP POP POP DUP2 MSTORE PUSH1 0x20 ADD PUSH1 0x1 DUP3 ADD DUP1 SLOAD PUSH2 0x44F SWAP1 PUSH2 0x1B92 JUMP JUMPDEST DUP1 PUSH1 0x1F ADD PUSH1 0x20 DUP1 SWAP2 DIV MUL PUSH1 0x20 ADD PUSH1 0x40 MLOAD SWAP1 DUP2 ADD PUSH1 0x40 MSTORE DUP1 SWAP3 SWAP2 SWAP1 DUP2 DUP2 MSTORE PUSH1 0x20 ADD DUP3 DUP1 SLOAD PUSH2 0x47B SWAP1 PUSH2 0x1B92 JUMP JUMPDEST DUP1 ISZERO PUSH2 0x4C6 JUMPI DUP1 PUSH1 0x1F LT PUSH2 0x49D JUMPI PUSH2 0x100 DUP1 DUP4 SLOAD DIV MUL DUP4 MSTORE SWAP2 PUSH1 0x20 ADD SWAP2 PUSH2 0x4C6 JUMP JUMPDEST DUP3 ADD SWAP2 SWAP1 PUSH0 MSTORE PUSH1 0x20 PUSH0 KECCAK256 SWAP1 JUMPDEST DUP2 SLOAD DUP2 MSTORE SWAP1 PUSH1 0x1 ADD SWAP1 PUSH1 0x20 ADD DUP1 DUP4 GT PUSH2 0x4A9 JUMPI DUP3 SWAP1 SUB PUSH1 0x1F AND DUP3 ADD SWAP2 JUMPDEST POP POP POP POP POP DUP2 MSTORE PUSH1 0x20 ADD PUSH1 0x2 DUP3 ADD DUP1 SLOAD PUSH2 0x4DF SWAP1 PUSH2 0x1B92 JUMP JUMPDEST DUP1 PUSH1 0x1F ADD PUSH1 0x20 DUP1 SWAP2 DIV MUL PUSH1 0x20 ADD PUSH1 0x40 MLOAD SWAP1 DUP2 ADD PUSH1 0x40 MSTORE DUP1 SWAP3 SWAP2 SWAP1 DUP2 DUP2 MSTORE PUSH1 0x20 ADD DUP3 DUP1 SLOAD PUSH2 0x50B SWAP1 PUSH2 0x1B92 JUMP JUMPDEST DUP1 ISZERO PUSH2 0x556 JUMPI DUP1 PUSH1 0x1F LT PUSH2 0x52D JUMPI PUSH2 0x100 DUP1 DUP4 SLOAD DIV MUL DUP4 MSTORE SWAP2 PUSH1 0x20 ADD SWAP2 PUSH2 0x556 JUMP JUMPDEST DUP3 ADD SWAP2 SWAP1 PUSH0 MSTORE PUSH1 0x20 PUSH0 KECCAK256 SWAP1 JUMPDEST DUP2 SLOAD DUP2 MSTORE SWAP1 PUSH1 0x1 ADD SWAP1 PUSH1 0x20 ADD DUP1 DUP4 GT PUSH2 0x539 JUMPI DUP3 SWAP1 SUB PUSH1 0x1F AND DUP3 ADD SWAP2 JUMPDEST POP POP POP POP POP DUP2 MSTORE PUSH1 0x20 ADD PUSH1 0x3 DUP3 ADD DUP1 SLOAD PUSH2 0x56F SWAP1 PUSH2 0x1B92 JUMP JUMPDEST DUP1 PUSH1 0x1F ADD PUSH1 0x20 DUP1 SWAP2 DIV MUL PUSH1 0x20 ADD PUSH1 0x40 MLOAD SWAP1 DUP2 ADD PUSH1 0x40 MSTORE DUP1 SWAP3 SWAP2 SWAP1 DUP2 DUP2 MSTORE PUSH1 0x20 ADD DUP3 DUP1 SLOAD PUSH2 0x59B SWAP1 PUSH2 0x1B92 JUMP JUMPDEST DUP1 ISZERO PUSH2 0x5E6 JUMPI DUP1 PUSH1 0x1F LT PUSH2 0x5BD JUMPI PUSH2 0x100 DUP1 DUP4 SLOAD DIV MUL DUP4 MSTORE SWAP2 PUSH1 0x20 ADD SWAP2 PUSH2 0x5E6 JUMP JUMPDEST DUP3 ADD SWAP2 SWAP1 PUSH0 MSTORE PUSH1 0x20 PUSH0 KECCAK256 SWAP1 JUMPDEST DUP2 SLOAD DUP2 MSTORE SWAP1 PUSH1 0x1 ADD SWAP1 PUSH1 0x20 ADD DUP1 DUP4 GT PUSH2 0x5C9 JUMPI DUP3 SWAP1 SUB PUSH1 0x1F AND DUP3 ADD SWAP2 JUMPDEST POP POP POP POP POP DUP2 MSTORE POP POP DUP2 MSTORE PUSH1 0x20 ADD SWAP1 PUSH1 0x1 ADD SWAP1 PUSH2 0x38F JUMP JUMPDEST POP POP POP POP SWAP1 POP SWAP1 JUMP JUMPDEST PUSH2 0x610 DUP2 PUSH2 0x1152 JUMP JUMPDEST PUSH2 0x64F JUMPI PUSH1 0x40 MLOAD PUSH32 0x8C379A000000000000000000000000000000000000000000000000000000000 DUP2 MSTORE PUSH1 0x4 ADD PUSH2 0x646 SWAP1 PUSH2 0x1B47 JUMP JUMPDEST PUSH1 0x40 MLOAD DUP1 SWAP2 SUB SWAP1 REVERT JUMPDEST PUSH0 JUMPDEST PUSH1 0x1 DUP1 SLOAD SWAP1 POP DUP2 LT ISZERO PUSH2 0x752 JUMPI PUSH2 0x710 PUSH1 0x1 DUP3 DUP2 SLOAD DUP2 LT PUSH2 0x675 JUMPI PUSH2 0x674 PUSH2 0x1E9F JUMP JUMPDEST JUMPDEST SWAP1 PUSH0 MSTORE PUSH1 0x20 PUSH0 KECCAK256 SWAP1 PUSH1 0x4 MUL ADD PUSH0 ADD DUP1 SLOAD PUSH2 0x68E SWAP1 PUSH2 0x1B92 JUMP JUMPDEST DUP1 PUSH1 0x1F ADD PUSH1 0x20 DUP1 SWAP2 DIV MUL PUSH1 0x20 ADD PUSH1 0x40 MLOAD SWAP1 DUP2 ADD PUSH1 0x40 MSTORE DUP1 SWAP3 SWAP2 SWAP1 DUP2 DUP2 MSTORE PUSH1 0x20 ADD DUP3 DUP1 SLOAD PUSH2 0x6BA SWAP1 PUSH2 0x1B92 JUMP JUMPDEST DUP1 ISZERO PUSH2 0x705 JUMPI DUP1 PUSH1 0x1F LT PUSH2 0x6DC JUMPI PUSH2 0x100 DUP1 DUP4 SLOAD DIV MUL DUP4 MSTORE SWAP2 PUSH1 0x20 ADD SWAP2 PUSH2 0x705 JUMP JUMPDEST DUP3 ADD SWAP2 SWAP1 PUSH0 MSTORE PUSH1 0x20 PUSH0 KECCAK256 SWAP1 JUMPDEST DUP2 SLOAD DUP2 MSTORE SWAP1 PUSH1 0x1 ADD SWAP1 PUSH1 0x20 ADD DUP1 DUP4 GT PUSH2 0x6E8 JUMPI DUP3 SWAP1 SUB PUSH1 0x1F AND DUP3 ADD SWAP2 JUMPDEST POP POP POP POP POP DUP5 PUSH2 0x1235 JUMP JUMPDEST ISZERO PUSH2 0x747 JUMPI DUP2 PUSH1 0x1 DUP3 DUP2 SLOAD DUP2 LT PUSH2 0x72A JUMPI PUSH2 0x729 PUSH2 0x1E9F JUMP JUMPDEST JUMPDEST SWAP1 PUSH0 MSTORE PUSH1 0x20 PUSH0 KECCAK256 SWAP1 PUSH1 0x4 MUL ADD PUSH1 0x1 ADD SWAP1 DUP2 PUSH2 0x745 SWAP2 SWAP1 PUSH2 0x1D68 JUMP JUMPDEST POP JUMPDEST DUP1 PUSH1 0x1 ADD SWAP1 POP PUSH2 0x651 JUMP JUMPDEST POP POP POP JUMP JUMPDEST PUSH0 JUMPDEST PUSH1 0x1 DUP1 SLOAD SWAP1 POP DUP2 LT ISZERO PUSH2 0x88B JUMPI PUSH2 0x818 PUSH1 0x1 DUP3 DUP2 SLOAD DUP2 LT PUSH2 0x77D JUMPI PUSH2 0x77C PUSH2 0x1E9F JUMP JUMPDEST JUMPDEST SWAP1 PUSH0 MSTORE PUSH1 0x20 PUSH0 KECCAK256 SWAP1 PUSH1 0x4 MUL ADD PUSH0 ADD DUP1 SLOAD PUSH2 0x796 SWAP1 PUSH2 0x1B92 JUMP JUMPDEST DUP1 PUSH1 0x1F ADD PUSH1 0x20 DUP1 SWAP2 DIV MUL PUSH1 0x20 ADD PUSH1 0x40 MLOAD SWAP1 DUP2 ADD PUSH1 0x40 MSTORE DUP1 SWAP3 SWAP2 SWAP1 DUP2 DUP2 MSTORE PUSH1 0x20 ADD DUP3 DUP1 SLOAD PUSH2 0x7C2 SWAP1 PUSH2 0x1B92 JUMP JUMPDEST DUP1 ISZERO PUSH2 0x80D JUMPI DUP1 PUSH1 0x1F LT PUSH2 0x7E4 JUMPI PUSH2 0x100 DUP1 DUP4 SLOAD DIV MUL DUP4 MSTORE SWAP2 PUSH1 0x20 ADD SWAP2 PUSH2 0x80D JUMP JUMPDEST DUP3 ADD SWAP2 SWAP1 PUSH0 MSTORE PUSH1 0x20 PUSH0 KECCAK256 SWAP1 JUMPDEST DUP2 SLOAD DUP2 MSTORE SWAP1 PUSH1 0x1 ADD SWAP1 PUSH1 0x20 ADD DUP1 DUP4 GT PUSH2 0x7F0 JUMPI DUP3 SWAP1 SUB PUSH1 0x1F AND DUP3 ADD SWAP2 JUMPDEST POP POP POP POP POP DUP6 PUSH2 0x1235 JUMP JUMPDEST ISZERO PUSH2 0x880 JUMPI DUP3 PUSH1 0x1 DUP3 DUP2 SLOAD DUP2 LT PUSH2 0x832 JUMPI PUSH2 0x831 PUSH2 0x1E9F JUMP JUMPDEST JUMPDEST SWAP1 PUSH0 MSTORE PUSH1 0x20 PUSH0 KECCAK256 SWAP1 PUSH1 0x4 MUL ADD PUSH1 0x2 ADD SWAP1 DUP2 PUSH2 0x84D SWAP2 SWAP1 PUSH2 0x1D68 JUMP JUMPDEST POP DUP2 PUSH1 0x1 DUP3 DUP2 SLOAD DUP2 LT PUSH2 0x863 JUMPI PUSH2 0x862 PUSH2 0x1E9F JUMP JUMPDEST JUMPDEST SWAP1 PUSH0 MSTORE PUSH1 0x20 PUSH0 KECCAK256 SWAP1 PUSH1 0x4 MUL ADD PUSH1 0x3 ADD SWAP1 DUP2 PUSH2 0x87E SWAP2 SWAP1 PUSH2 0x1D68 JUMP JUMPDEST POP JUMPDEST DUP1 PUSH1 0x1 ADD SWAP1 POP PUSH2 0x759 JUMP JUMPDEST POP POP POP POP JUMP JUMPDEST PUSH2 0x899 PUSH2 0x137A JUMP JUMPDEST PUSH0 PUSH2 0x8A3 DUP4 PUSH2 0x128D JUMP JUMPDEST SWAP1 POP PUSH1 0x1 DUP1 SLOAD SWAP1 POP DUP2 LT PUSH2 0x8EC JUMPI PUSH1 0x40 MLOAD PUSH32 0x8C379A000000000000000000000000000000000000000000000000000000000 DUP2 MSTORE PUSH1 0x4 ADD PUSH2 0x8E3 SWAP1 PUSH2 0x1F16 JUMP JUMPDEST PUSH1 0x40 MLOAD DUP1 SWAP2 SUB SWAP1 REVERT JUMPDEST PUSH1 0x1 DUP2 DUP2 SLOAD DUP2 LT PUSH2 0x900 JUMPI PUSH2 0x8FF PUSH2 0x1E9F JUMP JUMPDEST JUMPDEST SWAP1 PUSH0 MSTORE PUSH1 0x20 PUSH0 KECCAK256 SWAP1 PUSH1 0x4 MUL ADD PUSH1 0x40 MLOAD DUP1 PUSH1 0x80 ADD PUSH1 0x40 MSTORE SWAP1 DUP2 PUSH0 DUP3 ADD DUP1 SLOAD PUSH2 0x926 SWAP1 PUSH2 0x1B92 JUMP JUMPDEST DUP1 PUSH1 0x1F ADD PUSH1 0x20 DUP1 SWAP2 DIV MUL PUSH1 0x20 ADD PUSH1 0x40 MLOAD SWAP1 DUP2 ADD PUSH1 0x40 MSTORE DUP1 SWAP3 SWAP2 SWAP1 DUP2 DUP2 MSTORE PUSH1 0x20 ADD DUP3 DUP1 SLOAD PUSH2 0x952 SWAP1 PUSH2 0x1B92 JUMP JUMPDEST DUP1 ISZERO PUSH2 0x99D JUMPI DUP1 PUSH1 0x1F LT PUSH2 0x974 JUMPI PUSH2 0x100 DUP1 DUP4 SLOAD DIV MUL DUP4 MSTORE SWAP2 PUSH1 0x20 ADD SWAP2 PUSH2 0x99D JUMP JUMPDEST DUP3 ADD SWAP2 SWAP1 PUSH0 MSTORE PUSH1 0x20 PUSH0 KECCAK256 SWAP1 JUMPDEST DUP2 SLOAD DUP2 MSTORE SWAP1 PUSH1 0x1 ADD SWAP1 PUSH1 0x20 ADD DUP1 DUP4 GT PUSH2 0x980 JUMPI DUP3 SWAP1 SUB PUSH1 0x1F AND DUP3 ADD SWAP2 JUMPDEST POP POP POP POP POP DUP2 MSTORE PUSH1 0x20 ADD PUSH1 0x1 DUP3 ADD DUP1 SLOAD PUSH2 0x9B6 SWAP1 PUSH2 0x1B92 JUMP JUMPDEST DUP1 PUSH1 0x1F ADD PUSH1 0x20 DUP1 SWAP2 DIV MUL PUSH1 0x20 ADD PUSH1 0x40 MLOAD SWAP1 DUP2 ADD PUSH1 0x40 MSTORE DUP1 SWAP3 SWAP2 SWAP1 DUP2 DUP2 MSTORE PUSH1 0x20 ADD DUP3 DUP1 SLOAD PUSH2 0x9E2 SWAP1 PUSH2 0x1B92 JUMP JUMPDEST DUP1 ISZERO PUSH2 0xA2D JUMPI DUP1 PUSH1 0x1F LT PUSH2 0xA04 JUMPI PUSH2 0x100 DUP1 DUP4 SLOAD DIV MUL DUP4 MSTORE SWAP2 PUSH1 0x20 ADD SWAP2 PUSH2 0xA2D JUMP JUMPDEST DUP3 ADD SWAP2 SWAP1 PUSH0 MSTORE PUSH1 0x20 PUSH0 KECCAK256 SWAP1 JUMPDEST DUP2 SLOAD DUP2 MSTORE SWAP1 PUSH1 0x1 ADD SWAP1 PUSH1 0x20 ADD DUP1 DUP4 GT PUSH2 0xA10 JUMPI DUP3 SWAP1 SUB PUSH1 0x1F AND DUP3 ADD SWAP2 JUMPDEST POP POP POP POP POP DUP2 MSTORE PUSH1 0x20 ADD PUSH1 0x2 DUP3 ADD DUP1 SLOAD PUSH2 0xA46 SWAP1 PUSH2 0x1B92 JUMP JUMPDEST DUP1 PUSH1 0x1F ADD PUSH1 0x20 DUP1 SWAP2 DIV MUL PUSH1 0x20 ADD PUSH1 0x40 MLOAD SWAP1 DUP2 ADD PUSH1 0x40 MSTORE DUP1 SWAP3 SWAP2 SWAP1 DUP2 DUP2 MSTORE PUSH1 0x20 ADD DUP3 DUP1 SLOAD PUSH2 0xA72 SWAP1 PUSH2 0x1B92 JUMP JUMPDEST DUP1 ISZERO PUSH2 0xABD JUMPI DUP1 PUSH1 0x1F LT PUSH2 0xA94 JUMPI PUSH2 0x100 DUP1 DUP4 SLOAD DIV MUL DUP4 MSTORE SWAP2 PUSH1 0x20 ADD SWAP2 PUSH2 0xABD JUMP JUMPDEST DUP3 ADD SWAP2 SWAP1 PUSH0 MSTORE PUSH1 0x20 PUSH0 KECCAK256 SWAP1 JUMPDEST DUP2 SLOAD DUP2 MSTORE SWAP1 PUSH1 0x1 ADD SWAP1 PUSH1 0x20 ADD DUP1 DUP4 GT PUSH2 0xAA0 JUMPI DUP3 SWAP1 SUB PUSH1 0x1F AND DUP3 ADD SWAP2 JUMPDEST POP POP POP POP POP DUP2 MSTORE PUSH1 0x20 ADD PUSH1 0x3 DUP3 ADD DUP1 SLOAD PUSH2 0xAD6 SWAP1 PUSH2 0x1B92 JUMP JUMPDEST DUP1 PUSH1 0x1F ADD PUSH1 0x20 DUP1 SWAP2 DIV MUL PUSH1 0x20 ADD PUSH1 0x40 MLOAD SWAP1 DUP2 ADD PUSH1 0x40 MSTORE DUP1 SWAP3 SWAP2 SWAP1 DUP2 DUP2 MSTORE PUSH1 0x20 ADD DUP3 DUP1 SLOAD PUSH2 0xB02 SWAP1 PUSH2 0x1B92 JUMP JUMPDEST DUP1 ISZERO PUSH2 0xB4D JUMPI DUP1 PUSH1 0x1F LT PUSH2 0xB24 JUMPI PUSH2 0x100 DUP1 DUP4 SLOAD DIV MUL DUP4 MSTORE SWAP2 PUSH1 0x20 ADD SWAP2 PUSH2 0xB4D JUMP JUMPDEST DUP3 ADD SWAP2 SWAP1 PUSH0 MSTORE PUSH1 0x20 PUSH0 KECCAK256 SWAP1 JUMPDEST DUP2 SLOAD DUP2 MSTORE SWAP1 PUSH1 0x1 ADD SWAP1 PUSH1 0x20 ADD DUP1 DUP4 GT PUSH2 0xB30 JUMPI DUP3 SWAP1 SUB PUSH1 0x1F AND DUP3 ADD SWAP2 JUMPDEST POP POP POP POP POP DUP2 MSTORE POP POP SWAP2 POP POP SWAP2 SWAP1 POP JUMP JUMPDEST PUSH1 0x60 PUSH2 0xB69 DUP3 PUSH2 0x1152 JUMP JUMPDEST PUSH2 0xBA8 JUMPI PUSH1 0x40 MLOAD PUSH32 0x8C379A000000000000000000000000000000000000000000000000000000000 DUP2 MSTORE PUSH1 0x4 ADD PUSH2 0xB9F SWAP1 PUSH2 0x1B47 JUMP JUMPDEST PUSH1 0x40 MLOAD DUP1 SWAP2 SUB SWAP1 REVERT JUMPDEST PUSH0 DUP1 PUSH0 JUMPDEST PUSH1 0x1 DUP1 SLOAD SWAP1 POP DUP2 LT ISZERO PUSH2 0xC89 JUMPI PUSH2 0xC6C PUSH1 0x1 DUP3 DUP2 SLOAD DUP2 LT PUSH2 0xBD0 JUMPI PUSH2 0xBCF PUSH2 0x1E9F JUMP JUMPDEST JUMPDEST SWAP1 PUSH0 MSTORE PUSH1 0x20 PUSH0 KECCAK256 SWAP1 PUSH1 0x4 MUL ADD PUSH1 0x1 ADD DUP1 SLOAD PUSH2 0xBEA SWAP1 PUSH2 0x1B92 JUMP JUMPDEST DUP1 PUSH1 0x1F ADD PUSH1 0x20 DUP1 SWAP2 DIV MUL PUSH1 0x20 ADD PUSH1 0x40 MLOAD SWAP1 DUP2 ADD PUSH1 0x40 MSTORE DUP1 SWAP3 SWAP2 SWAP1 DUP2 DUP2 MSTORE PUSH1 0x20 ADD DUP3 DUP1 SLOAD PUSH2 0xC16 SWAP1 PUSH2 0x1B92 JUMP JUMPDEST DUP1 ISZERO PUSH2 0xC61 JUMPI DUP1 PUSH1 0x1F LT PUSH2 0xC38 JUMPI PUSH2 0x100 DUP1 DUP4 SLOAD DIV MUL DUP4 MSTORE SWAP2 PUSH1 0x20 ADD SWAP2 PUSH2 0xC61 JUMP JUMPDEST DUP3 ADD SWAP2 SWAP1 PUSH0 MSTORE PUSH1 0x20 PUSH0 KECCAK256 SWAP1 JUMPDEST DUP2 SLOAD DUP2 MSTORE SWAP1 PUSH1 0x1 ADD SWAP1 PUSH1 0x20 ADD DUP1 DUP4 GT PUSH2 0xC44 JUMPI DUP3 SWAP1 SUB PUSH1 0x1F AND DUP3 ADD SWAP2 JUMPDEST POP POP POP POP POP DUP7 PUSH2 0x1235 JUMP JUMPDEST ISZERO PUSH2 0xC7E JUMPI DUP3 PUSH2 0xC7B SWAP1 PUSH2 0x1F61 JUMP JUMPDEST SWAP3 POP JUMPDEST DUP1 PUSH1 0x1 ADD SWAP1 POP PUSH2 0xBAC JUMP JUMPDEST POP PUSH0 DUP3 PUSH8 0xFFFFFFFFFFFFFFFF DUP2 GT ISZERO PUSH2 0xCA5 JUMPI PUSH2 0xCA4 PUSH2 0x13CB JUMP JUMPDEST JUMPDEST PUSH1 0x40 MLOAD SWAP1 DUP1 DUP3 MSTORE DUP1 PUSH1 0x20 MUL PUSH1 0x20 ADD DUP3 ADD PUSH1 0x40 MSTORE DUP1 ISZERO PUSH2 0xCDE JUMPI DUP2 PUSH1 0x20 ADD JUMPDEST PUSH2 0xCCB PUSH2 0x137A JUMP JUMPDEST DUP2 MSTORE PUSH1 0x20 ADD SWAP1 PUSH1 0x1 SWAP1 SUB SWAP1 DUP2 PUSH2 0xCC3 JUMPI SWAP1 POP JUMPDEST POP SWAP1 POP PUSH0 JUMPDEST PUSH1 0x1 DUP1 SLOAD SWAP1 POP DUP2 LT ISZERO PUSH2 0x1048 JUMPI PUSH2 0xDA3 PUSH1 0x1 DUP3 DUP2 SLOAD DUP2 LT PUSH2 0xD07 JUMPI PUSH2 0xD06 PUSH2 0x1E9F JUMP JUMPDEST JUMPDEST SWAP1 PUSH0 MSTORE PUSH1 0x20 PUSH0 KECCAK256 SWAP1 PUSH1 0x4 MUL ADD PUSH1 0x1 ADD DUP1 SLOAD PUSH2 0xD21 SWAP1 PUSH2 0x1B92 JUMP JUMPDEST DUP1 PUSH1 0x1F ADD PUSH1 0x20 DUP1 SWAP2 DIV MUL PUSH1 0x20 ADD PUSH1 0x40 MLOAD SWAP1 DUP2 ADD PUSH1 0x40 MSTORE DUP1 SWAP3 SWAP2 SWAP1 DUP2 DUP2 MSTORE PUSH1 0x20 ADD DUP3 DUP1 SLOAD PUSH2 0xD4D SWAP1 PUSH2 0x1B92 JUMP JUMPDEST DUP1 ISZERO PUSH2 0xD98 JUMPI DUP1 PUSH1 0x1F LT PUSH2 0xD6F JUMPI PUSH2 0x100 DUP1 DUP4 SLOAD DIV MUL DUP4 MSTORE SWAP2 PUSH1 0x20 ADD SWAP2 PUSH2 0xD98 JUMP JUMPDEST DUP3 ADD SWAP2 SWAP1 PUSH0 MSTORE PUSH1 0x20 PUSH0 KECCAK256 SWAP1 JUMPDEST DUP2 SLOAD DUP2 MSTORE SWAP1 PUSH1 0x1 ADD SWAP1 PUSH1 0x20 ADD DUP1 DUP4 GT PUSH2 0xD7B JUMPI DUP3 SWAP1 SUB PUSH1 0x1F AND DUP3 ADD SWAP2 JUMPDEST POP POP POP POP POP DUP8 PUSH2 0x1235 JUMP JUMPDEST ISZERO PUSH2 0x103D JUMPI PUSH1 0x1 DUP2 DUP2 SLOAD DUP2 LT PUSH2 0xDBC JUMPI PUSH2 0xDBB PUSH2 0x1E9F JUMP JUMPDEST JUMPDEST SWAP1 PUSH0 MSTORE PUSH1 0x20 PUSH0 KECCAK256 SWAP1 PUSH1 0x4 MUL ADD PUSH1 0x40 MLOAD DUP1 PUSH1 0x80 ADD PUSH1 0x40 MSTORE SWAP1 DUP2 PUSH0 DUP3 ADD DUP1 SLOAD PUSH2 0xDE2 SWAP1 PUSH2 0x1B92 JUMP JUMPDEST DUP1 PUSH1 0x1F ADD PUSH1 0x20 DUP1 SWAP2 DIV MUL PUSH1 0x20 ADD PUSH1 0x40 MLOAD SWAP1 DUP2 ADD PUSH1 0x40 MSTORE DUP1 SWAP3 SWAP2 SWAP1 DUP2 DUP2 MSTORE PUSH1 0x20 ADD DUP3 DUP1 SLOAD PUSH2 0xE0E SWAP1 PUSH2 0x1B92 JUMP JUMPDEST DUP1 ISZERO PUSH2 0xE59 JUMPI DUP1 PUSH1 0x1F LT PUSH2 0xE30 JUMPI PUSH2 0x100 DUP1 DUP4 SLOAD DIV MUL DUP4 MSTORE SWAP2 PUSH1 0x20 ADD SWAP2 PUSH2 0xE59 JUMP JUMPDEST DUP3 ADD SWAP2 SWAP1 PUSH0 MSTORE PUSH1 0x20 PUSH0 KECCAK256 SWAP1 JUMPDEST DUP2 SLOAD DUP2 MSTORE SWAP1 PUSH1 0x1 ADD SWAP1 PUSH1 0x20 ADD DUP1 DUP4 GT PUSH2 0xE3C JUMPI DUP3 SWAP1 SUB PUSH1 0x1F AND DUP3 ADD SWAP2 JUMPDEST POP POP POP POP POP DUP2 MSTORE PUSH1 0x20 ADD PUSH1 0x1 DUP3 ADD DUP1 SLOAD PUSH2 0xE72 SWAP1 PUSH2 0x1B92 JUMP JUMPDEST DUP1 PUSH1 0x1F ADD PUSH1 0x20 DUP1 SWAP2 DIV MUL PUSH1 0x20 ADD PUSH1 0x40 MLOAD SWAP1 DUP2 ADD PUSH1 0x40 MSTORE DUP1 SWAP3 SWAP2 SWAP1 DUP2 DUP2 MSTORE PUSH1 0x20 ADD DUP3 DUP1 SLOAD PUSH2 0xE9E SWAP1 PUSH2 0x1B92 JUMP JUMPDEST DUP1 ISZERO PUSH2 0xEE9 JUMPI DUP1 PUSH1 0x1F LT PUSH2 0xEC0 JUMPI PUSH2 0x100 DUP1 DUP4 SLOAD DIV MUL DUP4 MSTORE SWAP2 PUSH1 0x20 ADD SWAP2 PUSH2 0xEE9 JUMP JUMPDEST DUP3 ADD SWAP2 SWAP1 PUSH0 MSTORE PUSH1 0x20 PUSH0 KECCAK256 SWAP1 JUMPDEST DUP2 SLOAD DUP2 MSTORE SWAP1 PUSH1 0x1 ADD SWAP1 PUSH1 0x20 ADD DUP1 DUP4 GT PUSH2 0xECC JUMPI DUP3 SWAP1 SUB PUSH1 0x1F AND DUP3 ADD SWAP2 JUMPDEST POP POP POP POP POP DUP2 MSTORE PUSH1 0x20 ADD PUSH1 0x2 DUP3 ADD DUP1 SLOAD PUSH2 0xF02 SWAP1 PUSH2 0x1B92 JUMP JUMPDEST DUP1 PUSH1 0x1F ADD PUSH1 0x20 DUP1 SWAP2 DIV MUL PUSH1 0x20 ADD PUSH1 0x40 MLOAD SWAP1 DUP2 ADD PUSH1 0x40 MSTORE DUP1 SWAP3 SWAP2 SWAP1 DUP2 DUP2 MSTORE PUSH1 0x20 ADD DUP3 DUP1 SLOAD PUSH2 0xF2E SWAP1 PUSH2 0x1B92 JUMP JUMPDEST DUP1 ISZERO PUSH2 0xF79 JUMPI DUP1 PUSH1 0x1F LT PUSH2 0xF50 JUMPI PUSH2 0x100 DUP1 DUP4 SLOAD DIV MUL DUP4 MSTORE SWAP2 PUSH1 0x20 ADD SWAP2 PUSH2 0xF79 JUMP JUMPDEST DUP3 ADD SWAP2 SWAP1 PUSH0 MSTORE PUSH1 0x20 PUSH0 KECCAK256 SWAP1 JUMPDEST DUP2 SLOAD DUP2 MSTORE SWAP1 PUSH1 0x1 ADD SWAP1 PUSH1 0x20 ADD DUP1 DUP4 GT PUSH2 0xF5C JUMPI DUP3 SWAP1 SUB PUSH1 0x1F AND DUP3 ADD SWAP2 JUMPDEST POP POP POP POP POP DUP2 MSTORE PUSH1 0x20 ADD PUSH1 0x3 DUP3 ADD DUP1 SLOAD PUSH2 0xF92 SWAP1 PUSH2 0x1B92 JUMP JUMPDEST DUP1 PUSH1 0x1F ADD PUSH1 0x20 DUP1 SWAP2 DIV MUL PUSH1 0x20 ADD PUSH1 0x40 MLOAD SWAP1 DUP2 ADD PUSH1 0x40 MSTORE DUP1 SWAP3 SWAP2 SWAP1 DUP2 DUP2 MSTORE PUSH1 0x20 ADD DUP3 DUP1 SLOAD PUSH2 0xFBE SWAP1 PUSH2 0x1B92 JUMP JUMPDEST DUP1 ISZERO PUSH2 0x1009 JUMPI DUP1 PUSH1 0x1F LT PUSH2 0xFE0 JUMPI PUSH2 0x100 DUP1 DUP4 SLOAD DIV MUL DUP4 MSTORE SWAP2 PUSH1 0x20 ADD SWAP2 PUSH2 0x1009 JUMP JUMPDEST DUP3 ADD SWAP2 SWAP1 PUSH0 MSTORE PUSH1 0x20 PUSH0 KECCAK256 SWAP1 JUMPDEST DUP2 SLOAD DUP2 MSTORE SWAP1 PUSH1 0x1 ADD SWAP1 PUSH1 0x20 ADD DUP1 DUP4 GT PUSH2 0xFEC JUMPI DUP3 SWAP1 SUB PUSH1 0x1F AND DUP3 ADD SWAP2 JUMPDEST POP POP POP POP POP DUP2 MSTORE POP POP DUP3 DUP5 DUP2 MLOAD DUP2 LT PUSH2 0x1025 JUMPI PUSH2 0x1024 PUSH2 0x1E9F JUMP JUMPDEST JUMPDEST PUSH1 0x20 MUL PUSH1 0x20 ADD ADD DUP2 SWAP1 MSTORE POP DUP3 PUSH2 0x103A SWAP1 PUSH2 0x1F61 JUMP JUMPDEST SWAP3 POP JUMPDEST DUP1 PUSH1 0x1 ADD SWAP1 POP PUSH2 0xCE3 JUMP JUMPDEST POP DUP1 SWAP4 POP POP POP POP SWAP2 SWAP1 POP JUMP JUMPDEST PUSH1 0x60 PUSH0 DUP1 SLOAD DUP1 PUSH1 0x20 MUL PUSH1 0x20 ADD PUSH1 0x40 MLOAD SWAP1 DUP2 ADD PUSH1 0x40 MSTORE DUP1 SWAP3 SWAP2 SWAP1 DUP2 DUP2 MSTORE PUSH1 0x20 ADD PUSH0 SWAP1 JUMPDEST DUP3 DUP3 LT ISZERO PUSH2 0x1131 JUMPI DUP4 DUP3 SWAP1 PUSH0 MSTORE PUSH1 0x20 PUSH0 KECCAK256 ADD PUSH1 0x40 MLOAD DUP1 PUSH1 0x20 ADD PUSH1 0x40 MSTORE SWAP1 DUP2 PUSH0 DUP3 ADD DUP1 SLOAD PUSH2 0x10A2 SWAP1 PUSH2 0x1B92 JUMP JUMPDEST DUP1 PUSH1 0x1F ADD PUSH1 0x20 DUP1 SWAP2 DIV MUL PUSH1 0x20 ADD PUSH1 0x40 MLOAD SWAP1 DUP2 ADD PUSH1 0x40 MSTORE DUP1 SWAP3 SWAP2 SWAP1 DUP2 DUP2 MSTORE PUSH1 0x20 ADD DUP3 DUP1 SLOAD PUSH2 0x10CE SWAP1 PUSH2 0x1B92 JUMP JUMPDEST DUP1 ISZERO PUSH2 0x1119 JUMPI DUP1 PUSH1 0x1F LT PUSH2 0x10F0 JUMPI PUSH2 0x100 DUP1 DUP4 SLOAD DIV MUL DUP4 MSTORE SWAP2 PUSH1 0x20 ADD SWAP2 PUSH2 0x1119 JUMP JUMPDEST DUP3 ADD SWAP2 SWAP1 PUSH0 MSTORE PUSH1 0x20 PUSH0 KECCAK256 SWAP1 JUMPDEST DUP2 SLOAD DUP2 MSTORE SWAP1 PUSH1 0x1 ADD SWAP1 PUSH1 0x20 ADD DUP1 DUP4 GT PUSH2 0x10FC JUMPI DUP3 SWAP1 SUB PUSH1 0x1F AND DUP3 ADD SWAP2 JUMPDEST POP POP POP POP POP DUP2 MSTORE POP POP DUP2 MSTORE PUSH1 0x20 ADD SWAP1 PUSH1 0x1 ADD SWAP1 PUSH2 0x1076 JUMP JUMPDEST POP POP POP POP SWAP1 POP SWAP1 JUMP JUMPDEST PUSH0 PUSH1 0x1 DUP1 SLOAD SWAP1 POP PUSH2 0x114A DUP4 PUSH2 0x128D JUMP JUMPDEST LT SWAP1 POP SWAP2 SWAP1 POP JUMP JUMPDEST PUSH0 DUP1 PUSH0 SWAP1 POP JUMPDEST PUSH0 DUP1 SLOAD SWAP1 POP DUP2 LT ISZERO PUSH2 0x122B JUMPI PUSH2 0x1211 PUSH0 DUP3 DUP2 SLOAD DUP2 LT PUSH2 0x117A JUMPI PUSH2 0x1179 PUSH2 0x1E9F JUMP JUMPDEST JUMPDEST SWAP1 PUSH0 MSTORE PUSH1 0x20 PUSH0 KECCAK256 ADD PUSH0 ADD DUP1 SLOAD PUSH2 0x118F SWAP1 PUSH2 0x1B92 JUMP JUMPDEST DUP1 PUSH1 0x1F ADD PUSH1 0x20 DUP1 SWAP2 DIV MUL PUSH1 0x20 ADD PUSH1 0x40 MLOAD SWAP1 DUP2 ADD PUSH1 0x40 MSTORE DUP1 SWAP3 SWAP2 SWAP1 DUP2 DUP2 MSTORE PUSH1 0x20 ADD DUP3 DUP1 SLOAD PUSH2 0x11BB SWAP1 PUSH2 0x1B92 JUMP JUMPDEST DUP1 ISZERO PUSH2 0x1206 JUMPI DUP1 PUSH1 0x1F LT PUSH2 0x11DD JUMPI PUSH2 0x100 DUP1 DUP4 SLOAD DIV MUL DUP4 MSTORE SWAP2 PUSH1 0x20 ADD SWAP2 PUSH2 0x1206 JUMP JUMPDEST DUP3 ADD SWAP2 SWAP1 PUSH0 MSTORE PUSH1 0x20 PUSH0 KECCAK256 SWAP1 JUMPDEST DUP2 SLOAD DUP2 MSTORE SWAP1 PUSH1 0x1 ADD SWAP1 PUSH1 0x20 ADD DUP1 DUP4 GT PUSH2 0x11E9 JUMPI DUP3 SWAP1 SUB PUSH1 0x1F AND DUP3 ADD SWAP2 JUMPDEST POP POP POP POP POP DUP5 PUSH2 0x1235 JUMP JUMPDEST ISZERO PUSH2 0x1220 JUMPI PUSH1 0x1 SWAP2 POP POP PUSH2 0x1230 JUMP JUMPDEST DUP1 PUSH1 0x1 ADD SWAP1 POP PUSH2 0x1158 JUMP JUMPDEST POP PUSH0 SWAP1 POP JUMPDEST SWAP2 SWAP1 POP JUMP JUMPDEST PUSH0 DUP2 PUSH1 0x40 MLOAD PUSH1 0x20 ADD PUSH2 0x1247 SWAP2 SWAP1 PUSH2 0x1FE2 JUMP JUMPDEST PUSH1 0x40 MLOAD PUSH1 0x20 DUP2 DUP4 SUB SUB DUP2 MSTORE SWAP1 PUSH1 0x40 MSTORE DUP1 MLOAD SWAP1 PUSH1 0x20 ADD KECCAK256 DUP4 PUSH1 0x40 MLOAD PUSH1 0x20 ADD PUSH2 0x126E SWAP2 SWAP1 PUSH2 0x1FE2 JUMP JUMPDEST PUSH1 0x40 MLOAD PUSH1 0x20 DUP2 DUP4 SUB SUB DUP2 MSTORE SWAP1 PUSH1 0x40 MSTORE DUP1 MLOAD SWAP1 PUSH1 0x20 ADD KECCAK256 EQ SWAP1 POP SWAP3 SWAP2 POP POP JUMP JUMPDEST PUSH0 DUP1 PUSH0 SWAP1 POP JUMPDEST PUSH1 0x1 DUP1 SLOAD SWAP1 POP DUP2 LT ISZERO PUSH2 0x136B JUMPI PUSH2 0x1352 PUSH1 0x1 DUP3 DUP2 SLOAD DUP2 LT PUSH2 0x12B7 JUMPI PUSH2 0x12B6 PUSH2 0x1E9F JUMP JUMPDEST JUMPDEST SWAP1 PUSH0 MSTORE PUSH1 0x20 PUSH0 KECCAK256 SWAP1 PUSH1 0x4 MUL ADD PUSH0 ADD DUP1 SLOAD PUSH2 0x12D0 SWAP1 PUSH2 0x1B92 JUMP JUMPDEST DUP1 PUSH1 0x1F ADD PUSH1 0x20 DUP1 SWAP2 DIV MUL PUSH1 0x20 ADD PUSH1 0x40 MLOAD SWAP1 DUP2 ADD PUSH1 0x40 MSTORE DUP1 SWAP3 SWAP2 SWAP1 DUP2 DUP2 MSTORE PUSH1 0x20 ADD DUP3 DUP1 SLOAD PUSH2 0x12FC SWAP1 PUSH2 0x1B92 JUMP JUMPDEST DUP1 ISZERO PUSH2 0x1347 JUMPI DUP1 PUSH1 0x1F LT PUSH2 0x131E JUMPI PUSH2 0x100 DUP1 DUP4 SLOAD DIV MUL DUP4 MSTORE SWAP2 PUSH1 0x20 ADD SWAP2 PUSH2 0x1347 JUMP JUMPDEST DUP3 ADD SWAP2 SWAP1 PUSH0 MSTORE PUSH1 0x20 PUSH0 KECCAK256 SWAP1 JUMPDEST DUP2 SLOAD DUP2 MSTORE SWAP1 PUSH1 0x1 ADD SWAP1 PUSH1 0x20 ADD DUP1 DUP4 GT PUSH2 0x132A JUMPI DUP3 SWAP1 SUB PUSH1 0x1F AND DUP3 ADD SWAP2 JUMPDEST POP POP POP POP POP DUP5 PUSH2 0x1235 JUMP JUMPDEST ISZERO PUSH2 0x1360 JUMPI DUP1 SWAP2 POP POP PUSH2 0x1375 JUMP JUMPDEST DUP1 PUSH1 0x1 ADD SWAP1 POP PUSH2 0x1293 JUMP JUMPDEST POP PUSH1 0x1 DUP1 SLOAD SWAP1 POP SWAP1 POP JUMPDEST SWAP2 SWAP1 POP JUMP JUMPDEST PUSH1 0x40 MLOAD DUP1 PUSH1 0x80 ADD PUSH1 0x40 MSTORE DUP1 PUSH1 0x60 DUP2 MSTORE PUSH1 0x20 ADD PUSH1 0x60 DUP2 MSTORE PUSH1 0x20 ADD PUSH1 0x60 DUP2 MSTORE PUSH1 0x20 ADD PUSH1 0x60 DUP2 MSTORE POP SWAP1 JUMP JUMPDEST PUSH0 PUSH1 0x40 MLOAD SWAP1 POP SWAP1 JUMP JUMPDEST PUSH0 DUP1 REVERT JUMPDEST PUSH0 DUP1 REVERT JUMPDEST PUSH0 DUP1 REVERT JUMPDEST PUSH0 DUP1 REVERT JUMPDEST PUSH0 PUSH1 0x1F NOT PUSH1 0x1F DUP4 ADD AND SWAP1 POP SWAP2 SWAP1 POP JUMP JUMPDEST PUSH32 0x4E487B7100000000000000000000000000000000000000000000000000000000 PUSH0 MSTORE PUSH1 0x41 PUSH1 0x4 MSTORE PUSH1 0x24 PUSH0 REVERT JUMPDEST PUSH2 0x1401 DUP3 PUSH2 0x13BB JUMP JUMPDEST DUP2 ADD DUP2 DUP2 LT PUSH8 0xFFFFFFFFFFFFFFFF DUP3 GT OR ISZERO PUSH2 0x1420 JUMPI PUSH2 0x141F PUSH2 0x13CB JUMP JUMPDEST JUMPDEST DUP1 PUSH1 0x40 MSTORE POP POP POP JUMP JUMPDEST PUSH0 PUSH2 0x1432 PUSH2 0x13A2 JUMP JUMPDEST SWAP1 POP PUSH2 0x143E DUP3 DUP3 PUSH2 0x13F8 JUMP JUMPDEST SWAP2 SWAP1 POP JUMP JUMPDEST PUSH0 PUSH8 0xFFFFFFFFFFFFFFFF DUP3 GT ISZERO PUSH2 0x145D JUMPI PUSH2 0x145C PUSH2 0x13CB JUMP JUMPDEST JUMPDEST PUSH2 0x1466 DUP3 PUSH2 0x13BB JUMP JUMPDEST SWAP1 POP PUSH1 0x20 DUP2 ADD SWAP1 POP SWAP2 SWAP1 POP JUMP JUMPDEST DUP3 DUP2 DUP4 CALLDATACOPY PUSH0 DUP4 DUP4 ADD MSTORE POP POP POP JUMP JUMPDEST PUSH0 PUSH2 0x1493 PUSH2 0x148E DUP5 PUSH2 0x1443 JUMP JUMPDEST PUSH2 0x1429 JUMP JUMPDEST SWAP1 POP DUP3 DUP2 MSTORE PUSH1 0x20 DUP2 ADD DUP5 DUP5 DUP5 ADD GT ISZERO PUSH2 0x14AF JUMPI PUSH2 0x14AE PUSH2 0x13B7 JUMP JUMPDEST JUMPDEST PUSH2 0x14BA DUP5 DUP3 DUP6 PUSH2 0x1473 JUMP JUMPDEST POP SWAP4 SWAP3 POP POP POP JUMP JUMPDEST PUSH0 DUP3 PUSH1 0x1F DUP4 ADD SLT PUSH2 0x14D6 JUMPI PUSH2 0x14D5 PUSH2 0x13B3 JUMP JUMPDEST JUMPDEST DUP2 CALLDATALOAD PUSH2 0x14E6 DUP5 DUP3 PUSH1 0x20 DUP7 ADD PUSH2 0x1481 JUMP JUMPDEST SWAP2 POP POP SWAP3 SWAP2 POP POP JUMP JUMPDEST PUSH0 DUP1 PUSH0 DUP1 PUSH1 0x80 DUP6 DUP8 SUB SLT ISZERO PUSH2 0x1507 JUMPI PUSH2 0x1506 PUSH2 0x13AB JUMP JUMPDEST JUMPDEST PUSH0 DUP6 ADD CALLDATALOAD PUSH8 0xFFFFFFFFFFFFFFFF DUP2 GT ISZERO PUSH2 0x1524 JUMPI PUSH2 0x1523 PUSH2 0x13AF JUMP JUMPDEST JUMPDEST PUSH2 0x1530 DUP8 DUP3 DUP9 ADD PUSH2 0x14C2 JUMP JUMPDEST SWAP5 POP POP PUSH1 0x20 DUP6 ADD CALLDATALOAD PUSH8 0xFFFFFFFFFFFFFFFF DUP2 GT ISZERO PUSH2 0x1551 JUMPI PUSH2 0x1550 PUSH2 0x13AF JUMP JUMPDEST JUMPDEST PUSH2 0x155D DUP8 DUP3 DUP9 ADD PUSH2 0x14C2 JUMP JUMPDEST SWAP4 POP POP PUSH1 0x40 DUP6 ADD CALLDATALOAD PUSH8 0xFFFFFFFFFFFFFFFF DUP2 GT ISZERO PUSH2 0x157E JUMPI PUSH2 0x157D PUSH2 0x13AF JUMP JUMPDEST JUMPDEST PUSH2 0x158A DUP8 DUP3 DUP9 ADD PUSH2 0x14C2 JUMP JUMPDEST SWAP3 POP POP PUSH1 0x60 DUP6 ADD CALLDATALOAD PUSH8 0xFFFFFFFFFFFFFFFF DUP2 GT ISZERO PUSH2 0x15AB JUMPI PUSH2 0x15AA PUSH2 0x13AF JUMP JUMPDEST JUMPDEST PUSH2 0x15B7 DUP8 DUP3 DUP9 ADD PUSH2 0x14C2 JUMP JUMPDEST SWAP2 POP POP SWAP3 SWAP6 SWAP2 SWAP5 POP SWAP3 POP JUMP JUMPDEST PUSH0 PUSH1 0x20 DUP3 DUP5 SUB SLT ISZERO PUSH2 0x15D8 JUMPI PUSH2 0x15D7 PUSH2 0x13AB JUMP JUMPDEST JUMPDEST PUSH0 DUP3 ADD CALLDATALOAD PUSH8 0xFFFFFFFFFFFFFFFF DUP2 GT ISZERO PUSH2 0x15F5 JUMPI PUSH2 0x15F4 PUSH2 0x13AF JUMP JUMPDEST JUMPDEST PUSH2 0x1601 DUP5 DUP3 DUP6 ADD PUSH2 0x14C2 JUMP JUMPDEST SWAP2 POP POP SWAP3 SWAP2 POP POP JUMP JUMPDEST PUSH0 DUP2 MLOAD SWAP1 POP SWAP2 SWAP1 POP JUMP JUMPDEST PUSH0 DUP3 DUP3 MSTORE PUSH1 0x20 DUP3 ADD SWAP1 POP SWAP3 SWAP2 POP POP JUMP JUMPDEST PUSH0 DUP2 SWAP1 POP PUSH1 0x20 DUP3 ADD SWAP1 POP SWAP2 SWAP1 POP JUMP JUMPDEST PUSH0 DUP2 MLOAD SWAP1 POP SWAP2 SWAP1 POP JUMP JUMPDEST PUSH0 DUP3 DUP3 MSTORE PUSH1 0x20 DUP3 ADD SWAP1 POP SWAP3 SWAP2 POP POP JUMP JUMPDEST PUSH0 JUMPDEST DUP4 DUP2 LT ISZERO PUSH2 0x166A JUMPI DUP1 DUP3 ADD MLOAD DUP2 DUP5 ADD MSTORE PUSH1 0x20 DUP2 ADD SWAP1 POP PUSH2 0x164F JUMP JUMPDEST PUSH0 DUP5 DUP5 ADD MSTORE POP POP POP POP JUMP JUMPDEST PUSH0 PUSH2 0x167F DUP3 PUSH2 0x1633 JUMP JUMPDEST PUSH2 0x1689 DUP2 DUP6 PUSH2 0x163D JUMP JUMPDEST SWAP4 POP PUSH2 0x1699 DUP2 DUP6 PUSH1 0x20 DUP7 ADD PUSH2 0x164D JUMP JUMPDEST PUSH2 0x16A2 DUP2 PUSH2 0x13BB JUMP JUMPDEST DUP5 ADD SWAP2 POP POP SWAP3 SWAP2 POP POP JUMP JUMPDEST PUSH0 PUSH1 0x80 DUP4 ADD PUSH0 DUP4 ADD MLOAD DUP5 DUP3 SUB PUSH0 DUP7 ADD MSTORE PUSH2 0x16C7 DUP3 DUP3 PUSH2 0x1675 JUMP JUMPDEST SWAP2 POP POP PUSH1 0x20 DUP4 ADD MLOAD DUP5 DUP3 SUB PUSH1 0x20 DUP7 ADD MSTORE PUSH2 0x16E1 DUP3 DUP3 PUSH2 0x1675 JUMP JUMPDEST SWAP2 POP POP PUSH1 0x40 DUP4 ADD MLOAD DUP5 DUP3 SUB PUSH1 0x40 DUP7 ADD MSTORE PUSH2 0x16FB DUP3 DUP3 PUSH2 0x1675 JUMP JUMPDEST SWAP2 POP POP PUSH1 0x60 DUP4 ADD MLOAD DUP5 DUP3 SUB PUSH1 0x60 DUP7 ADD MSTORE PUSH2 0x1715 DUP3 DUP3 PUSH2 0x1675 JUMP JUMPDEST SWAP2 POP POP DUP1 SWAP2 POP POP SWAP3 SWAP2 POP POP JUMP JUMPDEST PUSH0 PUSH2 0x172D DUP4 DUP4 PUSH2 0x16AD JUMP JUMPDEST SWAP1 POP SWAP3 SWAP2 POP POP JUMP JUMPDEST PUSH0 PUSH1 0x20 DUP3 ADD SWAP1 POP SWAP2 SWAP1 POP JUMP JUMPDEST PUSH0 PUSH2 0x174B DUP3 PUSH2 0x160A JUMP JUMPDEST PUSH2 0x1755 DUP2 DUP6 PUSH2 0x1614 JUMP JUMPDEST SWAP4 POP DUP4 PUSH1 0x20 DUP3 MUL DUP6 ADD PUSH2 0x1767 DUP6 PUSH2 0x1624 JUMP JUMPDEST DUP1 PUSH0 JUMPDEST DUP6 DUP2 LT ISZERO PUSH2 0x17A2 JUMPI DUP5 DUP5 SUB DUP10 MSTORE DUP2 MLOAD PUSH2 0x1783 DUP6 DUP3 PUSH2 0x1722 JUMP JUMPDEST SWAP5 POP PUSH2 0x178E DUP4 PUSH2 0x1735 JUMP JUMPDEST SWAP3 POP PUSH1 0x20 DUP11 ADD SWAP10 POP POP PUSH1 0x1 DUP2 ADD SWAP1 POP PUSH2 0x176A JUMP JUMPDEST POP DUP3 SWAP8 POP DUP8 SWAP6 POP POP POP POP POP POP SWAP3 SWAP2 POP POP JUMP JUMPDEST PUSH0 PUSH1 0x20 DUP3 ADD SWAP1 POP DUP2 DUP2 SUB PUSH0 DUP4 ADD MSTORE PUSH2 0x17CC DUP2 DUP5 PUSH2 0x1741 JUMP JUMPDEST SWAP1 POP SWAP3 SWAP2 POP POP JUMP JUMPDEST PUSH0 DUP1 PUSH1 0x40 DUP4 DUP6 SUB SLT ISZERO PUSH2 0x17EA JUMPI PUSH2 0x17E9 PUSH2 0x13AB JUMP JUMPDEST JUMPDEST PUSH0 DUP4 ADD CALLDATALOAD PUSH8 0xFFFFFFFFFFFFFFFF DUP2 GT ISZERO PUSH2 0x1807 JUMPI PUSH2 0x1806 PUSH2 0x13AF JUMP JUMPDEST JUMPDEST PUSH2 0x1813 DUP6 DUP3 DUP7 ADD PUSH2 0x14C2 JUMP JUMPDEST SWAP3 POP POP PUSH1 0x20 DUP4 ADD CALLDATALOAD PUSH8 0xFFFFFFFFFFFFFFFF DUP2 GT ISZERO PUSH2 0x1834 JUMPI PUSH2 0x1833 PUSH2 0x13AF JUMP JUMPDEST JUMPDEST PUSH2 0x1840 DUP6 DUP3 DUP7 ADD PUSH2 0x14C2 JUMP JUMPDEST SWAP2 POP POP SWAP3 POP SWAP3 SWAP1 POP JUMP JUMPDEST PUSH0 DUP1 PUSH0 PUSH1 0x60 DUP5 DUP7 SUB SLT ISZERO PUSH2 0x1861 JUMPI PUSH2 0x1860 PUSH2 0x13AB JUMP JUMPDEST JUMPDEST PUSH0 DUP5 ADD CALLDATALOAD PUSH8 0xFFFFFFFFFFFFFFFF DUP2 GT ISZERO PUSH2 0x187E JUMPI PUSH2 0x187D PUSH2 0x13AF JUMP JUMPDEST JUMPDEST PUSH2 0x188A DUP7 DUP3 DUP8 ADD PUSH2 0x14C2 JUMP JUMPDEST SWAP4 POP POP PUSH1 0x20 DUP5 ADD CALLDATALOAD PUSH8 0xFFFFFFFFFFFFFFFF DUP2 GT ISZERO PUSH2 0x18AB JUMPI PUSH2 0x18AA PUSH2 0x13AF JUMP JUMPDEST JUMPDEST PUSH2 0x18B7 DUP7 DUP3 DUP8 ADD PUSH2 0x14C2 JUMP JUMPDEST SWAP3 POP POP PUSH1 0x40 DUP5 ADD CALLDATALOAD PUSH8 0xFFFFFFFFFFFFFFFF DUP2 GT ISZERO PUSH2 0x18D8 JUMPI PUSH2 0x18D7 PUSH2 0x13AF JUMP JUMPDEST JUMPDEST PUSH2 0x18E4 DUP7 DUP3 DUP8 ADD PUSH2 0x14C2 JUMP JUMPDEST SWAP2 POP POP SWAP3 POP SWAP3 POP SWAP3 JUMP JUMPDEST PUSH0 PUSH1 0x80 DUP4 ADD PUSH0 DUP4 ADD MLOAD DUP5 DUP3 SUB PUSH0 DUP7 ADD MSTORE PUSH2 0x1908 DUP3 DUP3 PUSH2 0x1675 JUMP JUMPDEST SWAP2 POP POP PUSH1 0x20 DUP4 ADD MLOAD DUP5 DUP3 SUB PUSH1 0x20 DUP7 ADD MSTORE PUSH2 0x1922 DUP3 DUP3 PUSH2 0x1675 JUMP JUMPDEST SWAP2 POP POP PUSH1 0x40 DUP4 ADD MLOAD DUP5 DUP3 SUB PUSH1 0x40 DUP7 ADD MSTORE PUSH2 0x193C DUP3 DUP3 PUSH2 0x1675 JUMP JUMPDEST SWAP2 POP POP PUSH1 0x60 DUP4 ADD MLOAD DUP5 DUP3 SUB PUSH1 0x60 DUP7 ADD MSTORE PUSH2 0x1956 DUP3 DUP3 PUSH2 0x1675 JUMP JUMPDEST SWAP2 POP POP DUP1 SWAP2 POP POP SWAP3 SWAP2 POP POP JUMP JUMPDEST PUSH0 PUSH1 0x20 DUP3 ADD SWAP1 POP DUP2 DUP2 SUB PUSH0 DUP4 ADD MSTORE PUSH2 0x197B DUP2 DUP5 PUSH2 0x18EE JUMP JUMPDEST SWAP1 POP SWAP3 SWAP2 POP POP JUMP JUMPDEST PUSH0 DUP2 MLOAD SWAP1 POP SWAP2 SWAP1 POP JUMP JUMPDEST PUSH0 DUP3 DUP3 MSTORE PUSH1 0x20 DUP3 ADD SWAP1 POP SWAP3 SWAP2 POP POP JUMP JUMPDEST PUSH0 DUP2 SWAP1 POP PUSH1 0x20 DUP3 ADD SWAP1 POP SWAP2 SWAP1 POP JUMP JUMPDEST PUSH0 PUSH1 0x20 DUP4 ADD PUSH0 DUP4 ADD MLOAD DUP5 DUP3 SUB PUSH0 DUP7 ADD MSTORE PUSH2 0x19C6 DUP3 DUP3 PUSH2 0x1675 JUMP JUMPDEST SWAP2 POP POP DUP1 SWAP2 POP POP SWAP3 SWAP2 POP POP JUMP JUMPDEST PUSH0 PUSH2 0x19DE DUP4 DUP4 PUSH2 0x19AC JUMP JUMPDEST SWAP1 POP SWAP3 SWAP2 POP POP JUMP JUMPDEST PUSH0 PUSH1 0x20 DUP3 ADD SWAP1 POP SWAP2 SWAP1 POP JUMP JUMPDEST PUSH0 PUSH2 0x19FC DUP3 PUSH2 0x1983 JUMP JUMPDEST PUSH2 0x1A06 DUP2 DUP6 PUSH2 0x198D JUMP JUMPDEST SWAP4 POP DUP4 PUSH1 0x20 DUP3 MUL DUP6 ADD PUSH2 0x1A18 DUP6 PUSH2 0x199D JUMP JUMPDEST DUP1 PUSH0 JUMPDEST DUP6 DUP2 LT ISZERO PUSH2 0x1A53 JUMPI DUP5 DUP5 SUB DUP10 MSTORE DUP2 MLOAD PUSH2 0x1A34 DUP6 DUP3 PUSH2 0x19D3 JUMP JUMPDEST SWAP5 POP PUSH2 0x1A3F DUP4 PUSH2 0x19E6 JUMP JUMPDEST SWAP3 POP PUSH1 0x20 DUP11 ADD SWAP10 POP POP PUSH1 0x1 DUP2 ADD SWAP1 POP PUSH2 0x1A1B JUMP JUMPDEST POP DUP3 SWAP8 POP DUP8 SWAP6 POP POP POP POP POP POP SWAP3 SWAP2 POP POP JUMP JUMPDEST PUSH0 PUSH1 0x20 DUP3 ADD SWAP1 POP DUP2 DUP2 SUB PUSH0 DUP4 ADD MSTORE PUSH2 0x1A7D DUP2 DUP5 PUSH2 0x19F2 JUMP JUMPDEST SWAP1 POP SWAP3 SWAP2 POP POP JUMP JUMPDEST PUSH0 DUP3 DUP3 MSTORE PUSH1 0x20 DUP3 ADD SWAP1 POP SWAP3 SWAP2 POP POP JUMP JUMPDEST PUSH32 0x506F7374207769746820494420616C7265616479206578697374732E00000000 PUSH0 DUP3 ADD MSTORE POP JUMP JUMPDEST PUSH0 PUSH2 0x1AC9 PUSH1 0x1C DUP4 PUSH2 0x1A85 JUMP JUMPDEST SWAP2 POP PUSH2 0x1AD4 DUP3 PUSH2 0x1A95 JUMP JUMPDEST PUSH1 0x20 DUP3 ADD SWAP1 POP SWAP2 SWAP1 POP JUMP JUMPDEST PUSH0 PUSH1 0x20 DUP3 ADD SWAP1 POP DUP2 DUP2 SUB PUSH0 DUP4 ADD MSTORE PUSH2 0x1AF6 DUP2 PUSH2 0x1ABD JUMP JUMPDEST SWAP1 POP SWAP2 SWAP1 POP JUMP JUMPDEST PUSH32 0x53756272656464697420646F6573206E6F742065786973742E00000000000000 PUSH0 DUP3 ADD MSTORE POP JUMP JUMPDEST PUSH0 PUSH2 0x1B31 PUSH1 0x19 DUP4 PUSH2 0x1A85 JUMP JUMPDEST SWAP2 POP PUSH2 0x1B3C DUP3 PUSH2 0x1AFD JUMP JUMPDEST PUSH1 0x20 DUP3 ADD SWAP1 POP SWAP2 SWAP1 POP JUMP JUMPDEST PUSH0 PUSH1 0x20 DUP3 ADD SWAP1 POP DUP2 DUP2 SUB PUSH0 DUP4 ADD MSTORE PUSH2 0x1B5E DUP2 PUSH2 0x1B25 JUMP JUMPDEST SWAP1 POP SWAP2 SWAP1 POP JUMP JUMPDEST PUSH32 0x4E487B7100000000000000000000000000000000000000000000000000000000 PUSH0 MSTORE PUSH1 0x22 PUSH1 0x4 MSTORE PUSH1 0x24 PUSH0 REVERT JUMPDEST PUSH0 PUSH1 0x2 DUP3 DIV SWAP1 POP PUSH1 0x1 DUP3 AND DUP1 PUSH2 0x1BA9 JUMPI PUSH1 0x7F DUP3 AND SWAP2 POP JUMPDEST PUSH1 0x20 DUP3 LT DUP2 SUB PUSH2 0x1BBC JUMPI PUSH2 0x1BBB PUSH2 0x1B65 JUMP JUMPDEST JUMPDEST POP SWAP2 SWAP1 POP JUMP JUMPDEST PUSH0 DUP2 SWAP1 POP DUP2 PUSH0 MSTORE PUSH1 0x20 PUSH0 KECCAK256 SWAP1 POP SWAP2 SWAP1 POP JUMP JUMPDEST PUSH0 PUSH1 0x20 PUSH1 0x1F DUP4 ADD DIV SWAP1 POP SWAP2 SWAP1 POP JUMP JUMPDEST PUSH0 DUP3 DUP3 SHL SWAP1 POP SWAP3 SWAP2 POP POP JUMP JUMPDEST PUSH0 PUSH1 0x8 DUP4 MUL PUSH2 0x1C1E PUSH32 0xFFFFFFFFFFFFFFFFFFFFFFFFFFFFFFFFFFFFFFFFFFFFFFFFFFFFFFFFFFFFFFFF DUP3 PUSH2 0x1BE3 JUMP JUMPDEST PUSH2 0x1C28 DUP7 DUP4 PUSH2 0x1BE3 JUMP JUMPDEST SWAP6 POP DUP1 NOT DUP5 AND SWAP4 POP DUP1 DUP7 AND DUP5 OR SWAP3 POP POP POP SWAP4 SWAP3 POP POP POP JUMP JUMPDEST PUSH0 DUP2 SWAP1 POP SWAP2 SWAP1 POP JUMP JUMPDEST PUSH0 DUP2 SWAP1 POP SWAP2 SWAP1 POP JUMP JUMPDEST PUSH0 PUSH2 0x1C6C PUSH2 0x1C67 PUSH2 0x1C62 DUP5 PUSH2 0x1C40 JUMP JUMPDEST PUSH2 0x1C49 JUMP JUMPDEST PUSH2 0x1C40 JUMP JUMPDEST SWAP1 POP SWAP2 SWAP1 POP JUMP JUMPDEST PUSH0 DUP2 SWAP1 POP SWAP2 SWAP1 POP JUMP JUMPDEST PUSH2 0x1C85 DUP4 PUSH2 0x1C52 JUMP JUMPDEST PUSH2 0x1C99 PUSH2 0x1C91 DUP3 PUSH2 0x1C73 JUMP JUMPDEST DUP5 DUP5 SLOAD PUSH2 0x1BEF JUMP JUMPDEST DUP3 SSTORE POP POP POP POP JUMP JUMPDEST PUSH0 SWAP1 JUMP JUMPDEST PUSH2 0x1CAD PUSH2 0x1CA1 JUMP JUMPDEST PUSH2 0x1CB8 DUP2 DUP5 DUP5 PUSH2 0x1C7C JUMP JUMPDEST POP POP POP JUMP JUMPDEST JUMPDEST DUP2 DUP2 LT ISZERO PUSH2 0x1CDB JUMPI PUSH2 0x1CD0 PUSH0 DUP3 PUSH2 0x1CA5 JUMP JUMPDEST PUSH1 0x1 DUP2 ADD SWAP1 POP PUSH2 0x1CBE JUMP JUMPDEST POP POP JUMP JUMPDEST PUSH1 0x1F DUP3 GT ISZERO PUSH2 0x1D20 JUMPI PUSH2 0x1CF1 DUP2 PUSH2 0x1BC2 JUMP JUMPDEST PUSH2 0x1CFA DUP5 PUSH2 0x1BD4 JUMP JUMPDEST DUP2 ADD PUSH1 0x20 DUP6 LT ISZERO PUSH2 0x1D09 JUMPI DUP2 SWAP1 POP JUMPDEST PUSH2 0x1D1D PUSH2 0x1D15 DUP6 PUSH2 0x1BD4 JUMP JUMPDEST DUP4 ADD DUP3 PUSH2 0x1CBD JUMP JUMPDEST POP POP JUMPDEST POP POP POP JUMP JUMPDEST PUSH0 DUP3 DUP3 SHR SWAP1 POP SWAP3 SWAP2 POP POP JUMP JUMPDEST PUSH0 PUSH2 0x1D40 PUSH0 NOT DUP5 PUSH1 0x8 MUL PUSH2 0x1D25 JUMP JUMPDEST NOT DUP1 DUP4 AND SWAP2 POP POP SWAP3 SWAP2 POP POP JUMP JUMPDEST PUSH0 PUSH2 0x1D58 DUP4 DUP4 PUSH2 0x1D31 JUMP JUMPDEST SWAP2 POP DUP3 PUSH1 0x2 MUL DUP3 OR SWAP1 POP SWAP3 SWAP2 POP POP JUMP JUMPDEST PUSH2 0x1D71 DUP3 PUSH2 0x1633 JUMP JUMPDEST PUSH8 0xFFFFFFFFFFFFFFFF DUP2 GT ISZERO PUSH2 0x1D8A JUMPI PUSH2 0x1D89 PUSH2 0x13CB JUMP JUMPDEST JUMPDEST PUSH2 0x1D94 DUP3 SLOAD PUSH2 0x1B92 JUMP JUMPDEST PUSH2 0x1D9F DUP3 DUP3 DUP6 PUSH2 0x1CDF JUMP JUMPDEST PUSH0 PUSH1 0x20 SWAP1 POP PUSH1 0x1F DUP4 GT PUSH1 0x1 DUP2 EQ PUSH2 0x1DD0 JUMPI PUSH0 DUP5 ISZERO PUSH2 0x1DBE JUMPI DUP3 DUP8 ADD MLOAD SWAP1 POP JUMPDEST PUSH2 0x1DC8 DUP6 DUP3 PUSH2 0x1D4D JUMP JUMPDEST DUP7 SSTORE POP PUSH2 0x1E2F JUMP JUMPDEST PUSH1 0x1F NOT DUP5 AND PUSH2 0x1DDE DUP7 PUSH2 0x1BC2 JUMP JUMPDEST PUSH0 JUMPDEST DUP3 DUP2 LT ISZERO PUSH2 0x1E05 JUMPI DUP5 DUP10 ADD MLOAD DUP3 SSTORE PUSH1 0x1 DUP3 ADD SWAP2 POP PUSH1 0x20 DUP6 ADD SWAP5 POP PUSH1 0x20 DUP2 ADD SWAP1 POP PUSH2 0x1DE0 JUMP JUMPDEST DUP7 DUP4 LT ISZERO PUSH2 0x1E22 JUMPI DUP5 DUP10 ADD MLOAD PUSH2 0x1E1E PUSH1 0x1F DUP10 AND DUP3 PUSH2 0x1D31 JUMP JUMPDEST DUP4 SSTORE POP JUMPDEST PUSH1 0x1 PUSH1 0x2 DUP9 MUL ADD DUP9 SSTORE POP POP POP JUMPDEST POP POP POP POP POP POP JUMP JUMPDEST PUSH32 0x53756272656464697420616C7265616479206578697374732E00000000000000 PUSH0 DUP3 ADD MSTORE POP JUMP JUMPDEST PUSH0 PUSH2 0x1E6B PUSH1 0x19 DUP4 PUSH2 0x1A85 JUMP JUMPDEST SWAP2 POP PUSH2 0x1E76 DUP3 PUSH2 0x1E37 JUMP JUMPDEST PUSH1 0x20 DUP3 ADD SWAP1 POP SWAP2 SWAP1 POP JUMP JUMPDEST PUSH0 PUSH1 0x20 DUP3 ADD SWAP1 POP DUP2 DUP2 SUB PUSH0 DUP4 ADD MSTORE PUSH2 0x1E98 DUP2 PUSH2 0x1E5F JUMP JUMPDEST SWAP1 POP SWAP2 SWAP1 POP JUMP JUMPDEST PUSH32 0x4E487B7100000000000000000000000000000000000000000000000000000000 PUSH0 MSTORE PUSH1 0x32 PUSH1 0x4 MSTORE PUSH1 0x24 PUSH0 REVERT JUMPDEST PUSH32 0x506F737420646F6573206E6F742065786973742E000000000000000000000000 PUSH0 DUP3 ADD MSTORE POP JUMP JUMPDEST PUSH0 PUSH2 0x1F00 PUSH1 0x14 DUP4 PUSH2 0x1A85 JUMP JUMPDEST SWAP2 POP PUSH2 0x1F0B DUP3 PUSH2 0x1ECC JUMP JUMPDEST PUSH1 0x20 DUP3 ADD SWAP1 POP SWAP2 SWAP1 POP JUMP JUMPDEST PUSH0 PUSH1 0x20 DUP3 ADD SWAP1 POP DUP2 DUP2 SUB PUSH0 DUP4 ADD MSTORE PUSH2 0x1F2D DUP2 PUSH2 0x1EF4 JUMP JUMPDEST SWAP1 POP SWAP2 SWAP1 POP JUMP JUMPDEST PUSH32 0x4E487B7100000000000000000000000000000000000000000000000000000000 PUSH0 MSTORE PUSH1 0x11 PUSH1 0x4 MSTORE PUSH1 0x24 PUSH0 REVERT JUMPDEST PUSH0 PUSH2 0x1F6B DUP3 PUSH2 0x1C40 JUMP JUMPDEST SWAP2 POP PUSH32 0xFFFFFFFFFFFFFFFFFFFFFFFFFFFFFFFFFFFFFFFFFFFFFFFFFFFFFFFFFFFFFFFF DUP3 SUB PUSH2 0x1F9D JUMPI PUSH2 0x1F9C PUSH2 0x1F34 JUMP JUMPDEST JUMPDEST PUSH1 0x1 DUP3 ADD SWAP1 POP SWAP2 SWAP1 POP JUMP JUMPDEST PUSH0 DUP2 SWAP1 POP SWAP3 SWAP2 POP POP JUMP JUMPDEST PUSH0 PUSH2 0x1FBC DUP3 PUSH2 0x1633 JUMP JUMPDEST PUSH2 0x1FC6 DUP2 DUP6 PUSH2 0x1FA8 JUMP JUMPDEST SWAP4 POP PUSH2 0x1FD6 DUP2 DUP6 PUSH1 0x20 DUP7 ADD PUSH2 0x164D JUMP JUMPDEST DUP1 DUP5 ADD SWAP2 POP POP SWAP3 SWAP2 POP POP JUMP JUMPDEST PUSH0 PUSH2 0x1FED DUP3 DUP5 PUSH2 0x1FB2 JUMP JUMPDEST SWAP2 POP DUP2 SWAP1 POP SWAP3 SWAP2 POP POP JUMP INVALID LOG2 PUSH5 0x6970667358 0x22 SLT KECCAK256 0xE9 0xC6 0xD2 0xB3 CALLDATASIZE PUSH25 0x21140F9ACCADF10E647563423C90906291048444AA49AE5DEA DUP4 PUSH5 0x736F6C6343 STOP ADDMOD AND STOP CALLER "
				},
				"gasEstimates": {
					"creation": {
						"codeDepositCost": "1647600",
						"executionCost": "1727",
						"totalCost": "1649327"
					},
					"external": {
						"changeSubreddit(string,string)": "infinite",
						"createPost(string,string,string,string)": "infinite",
						"createSubreddit(string)": "infinite",
						"getPost(string)": "infinite",
						"getPosts()": "infinite",
						"getPostsInSubreddit(string)": "infinite",
						"getSubreddits()": "infinite",
						"modifyPost(string,string,string)": "infinite"
					},
					"internal": {
						"compare(string memory,string memory)": "infinite",
						"getPostIndex(string memory)": "infinite",
						"verifyPost(string memory)": "infinite",
						"verifySubreddit(string memory)": "infinite"
					}
				},
				"methodIdentifiers": {
					"changeSubreddit(string,string)": "76da2b9d",
					"createPost(string,string,string,string)": "0d57f91f",
					"createSubreddit(string)": "36c15e3a",
					"getPost(string)": "df4a259b",
					"getPosts()": "41f3004a",
					"getPostsInSubreddit(string)": "ef3172af",
					"getSubreddits()": "fd0d81b9",
					"modifyPost(string,string,string)": "9cb4bcb4"
				}
			},
			"storageLayout": {
				"storage": [
					{
						"astId": 42,
						"contract": "contracts/WeirdReddit.sol:WeirdReddit",
						"label": "subreddits",
						"offset": 0,
						"slot": "0",
						"type": "t_array(t_struct(Subreddit)29_storage)dyn_storage"
					},
					{
						"astId": 46,
						"contract": "contracts/WeirdReddit.sol:WeirdReddit",
						"label": "posts",
						"offset": 0,
						"slot": "1",
						"type": "t_array(t_struct(Post)38_storage)dyn_storage"
					}
				],
				"types": {
					"t_array(t_struct(Post)38_storage)dyn_storage": {
						"base": "t_struct(Post)38_storage",
						"encoding": "dynamic_array",
						"label": "struct WeirdReddit.Post[]",
						"numberOfBytes": "32"
					},
					"t_array(t_struct(Subreddit)29_storage)dyn_storage": {
						"base": "t_struct(Subreddit)29_storage",
						"encoding": "dynamic_array",
						"label": "struct WeirdReddit.Subreddit[]",
						"numberOfBytes": "32"
					},
					"t_string_storage": {
						"encoding": "bytes",
						"label": "string",
						"numberOfBytes": "32"
					},
					"t_struct(Post)38_storage": {
						"encoding": "inplace",
						"label": "struct WeirdReddit.Post",
						"members": [
							{
								"astId": 31,
								"contract": "contracts/WeirdReddit.sol:WeirdReddit",
								"label": "id",
								"offset": 0,
								"slot": "0",
								"type": "t_string_storage"
							},
							{
								"astId": 33,
								"contract": "contracts/WeirdReddit.sol:WeirdReddit",
								"label": "subredditName",
								"offset": 0,
								"slot": "1",
								"type": "t_string_storage"
							},
							{
								"astId": 35,
								"contract": "contracts/WeirdReddit.sol:WeirdReddit",
								"label": "title",
								"offset": 0,
								"slot": "2",
								"type": "t_string_storage"
							},
							{
								"astId": 37,
								"contract": "contracts/WeirdReddit.sol:WeirdReddit",
								"label": "content",
								"offset": 0,
								"slot": "3",
								"type": "t_string_storage"
							}
						],
						"numberOfBytes": "128"
					},
					"t_struct(Subreddit)29_storage": {
						"encoding": "inplace",
						"label": "struct WeirdReddit.Subreddit",
						"members": [
							{
								"astId": 28,
								"contract": "contracts/WeirdReddit.sol:WeirdReddit",
								"label": "subredditName",
								"offset": 0,
								"slot": "0",
								"type": "t_string_storage"
							}
						],
						"numberOfBytes": "32"
					}
				}
			},
			"userdoc": {
				"kind": "user",
				"methods": {},
				"version": 1
			}
		}
	}
}