{
	"contracts/WeirdReddit.sol": {
		"WeirdReddit": {
			"abi": [
				{
					"inputs": [
						{
							"internalType": "string",
							"name": "id",
							"type": "string"
						},
						{
							"internalType": "string",
							"name": "newSubredditName",
							"type": "string"
						}
					],
					"name": "changeSubreddit",
					"outputs": [],
					"stateMutability": "nonpayable",
					"type": "function"
				},
				{
					"inputs": [
						{
							"internalType": "string",
							"name": "id",
							"type": "string"
						},
						{
							"internalType": "string",
							"name": "subredditName",
							"type": "string"
						},
						{
							"internalType": "string",
							"name": "postTitle",
							"type": "string"
						},
						{
							"internalType": "string",
							"name": "postContent",
							"type": "string"
						}
					],
					"name": "createPost",
					"outputs": [],
					"stateMutability": "nonpayable",
					"type": "function"
				},
				{
					"inputs": [
						{
							"internalType": "string",
							"name": "subredditName",
							"type": "string"
						}
					],
					"name": "createSubreddit",
					"outputs": [],
					"stateMutability": "nonpayable",
					"type": "function"
				},
				{
					"inputs": [
						{
							"internalType": "string",
							"name": "id",
							"type": "string"
						}
					],
					"name": "getPost",
					"outputs": [
						{
							"components": [
								{
									"internalType": "string",
									"name": "id",
									"type": "string"
								},
								{
									"internalType": "string",
									"name": "subredditName",
									"type": "string"
								},
								{
									"internalType": "string",
									"name": "title",
									"type": "string"
								},
								{
									"internalType": "string",
									"name": "content",
									"type": "string"
								}
							],
							"internalType": "struct WeirdReddit.Post",
							"name": "",
							"type": "tuple"
						}
					],
					"stateMutability": "view",
					"type": "function"
				},
				{
					"inputs": [],
					"name": "getPosts",
					"outputs": [
						{
							"components": [
								{
									"internalType": "string",
									"name": "id",
									"type": "string"
								},
								{
									"internalType": "string",
									"name": "subredditName",
									"type": "string"
								},
								{
									"internalType": "string",
									"name": "title",
									"type": "string"
								},
								{
									"internalType": "string",
									"name": "content",
									"type": "string"
								}
							],
							"internalType": "struct WeirdReddit.Post[]",
							"name": "",
							"type": "tuple[]"
						}
					],
					"stateMutability": "view",
					"type": "function"
				},
				{
					"inputs": [
						{
							"internalType": "string",
							"name": "subredditName",
							"type": "string"
						}
					],
					"name": "getPostsInSubreddit",
					"outputs": [
						{
							"components": [
								{
									"internalType": "string",
									"name": "id",
									"type": "string"
								},
								{
									"internalType": "string",
									"name": "subredditName",
									"type": "string"
								},
								{
									"internalType": "string",
									"name": "title",
									"type": "string"
								},
								{
									"internalType": "string",
									"name": "content",
									"type": "string"
								}
							],
							"internalType": "struct WeirdReddit.Post[]",
							"name": "",
							"type": "tuple[]"
						}
					],
					"stateMutability": "view",
					"type": "function"
				},
				{
					"inputs": [],
					"name": "getSubreddits",
					"outputs": [
						{
							"components": [
								{
									"internalType": "string",
									"name": "subredditName",
									"type": "string"
								}
							],
							"internalType": "struct WeirdReddit.Subreddit[]",
							"name": "",
							"type": "tuple[]"
						}
					],
					"stateMutability": "view",
					"type": "function"
				},
				{
					"inputs": [
						{
							"internalType": "string",
							"name": "id",
							"type": "string"
						},
						{
							"internalType": "string",
							"name": "newPostTitle",
							"type": "string"
						},
						{
							"internalType": "string",
							"name": "newPostContent",
							"type": "string"
						}
					],
					"name": "modifyPost",
					"outputs": [],
					"stateMutability": "nonpayable",
					"type": "function"
				},
				{
					"inputs": [
						{
							"internalType": "string",
							"name": "id",
							"type": "string"
						}
					],
					"name": "verifyPost",
					"outputs": [
						{
							"internalType": "bool",
							"name": "",
							"type": "bool"
						}
					],
					"stateMutability": "view",
					"type": "function"
				},
				{
					"inputs": [
						{
							"internalType": "string",
							"name": "subredditName",
							"type": "string"
						}
					],
					"name": "verifySubreddit",
					"outputs": [
						{
							"internalType": "bool",
							"name": "",
							"type": "bool"
						}
					],
					"stateMutability": "view",
					"type": "function"
				}
			],
			"devdoc": {
				"custom:dev-run-script": "./scripts/deploy_with_ethers.ts",
				"details": "Write and view posts on WeirdReddit",
				"kind": "dev",
				"methods": {
					"changeSubreddit(string,string)": {
						"details": "Changes the subreddit of post with given ID"
					},
					"createPost(string,string,string,string)": {
						"details": "Create a post",
						"params": {
							"subredditName": "Name of the new subreddit"
						}
					},
					"createSubreddit(string)": {
						"details": "Create a subreddit",
						"params": {
							"subredditName": "Name of the new subreddit"
						}
					},
					"getPost(string)": {
						"details": "Return posts with given ID",
						"returns": {
							"_0": "Values of all posts in a subreddit"
						}
					},
					"getPosts()": {
						"details": "Return all posts",
						"returns": {
							"_0": "Values of all posts"
						}
					},
					"getPostsInSubreddit(string)": {
						"details": "Return all posts in a subreddit",
						"returns": {
							"_0": "Values of all posts in a subreddit"
						}
					},
					"getSubreddits()": {
						"details": "Return the values of all subreddits ",
						"returns": {
							"_0": "Values of all subreddits"
						}
					},
					"modifyPost(string,string,string)": {
						"details": "Modify post with given ID"
					},
					"verifyPost(string)": {
						"details": "Check whether a post exists ",
						"returns": {
							"_0": "Whether a post exists"
						}
					},
					"verifySubreddit(string)": {
						"details": "Check whether a subreddit exists ",
						"returns": {
							"_0": "Whether a subreddit exists"
						}
					}
				},
				"title": "WeirdReddit",
				"version": 1
			},
			"evm": {
				"assembly": "    /* \"contracts/WeirdReddit.sol\":202:4470  contract WeirdReddit {... */\n  mstore(0x40, 0x80)\n  callvalue\n  dup1\n  iszero\n  tag_1\n  jumpi\n  0x00\n  dup1\n  revert\ntag_1:\n  pop\n  dataSize(sub_0)\n  dup1\n  dataOffset(sub_0)\n  0x00\n  codecopy\n  0x00\n  return\nstop\n\nsub_0: assembly {\n        /* \"contracts/WeirdReddit.sol\":202:4470  contract WeirdReddit {... */\n      mstore(0x40, 0x80)\n      callvalue\n      dup1\n      iszero\n      tag_1\n      jumpi\n      0x00\n      dup1\n      revert\n    tag_1:\n      pop\n      jumpi(tag_2, lt(calldatasize, 0x04))\n      shr(0xe0, calldataload(0x00))\n      dup1\n      0x9cb4bcb4\n      gt\n      tag_13\n      jumpi\n      dup1\n      0x9cb4bcb4\n      eq\n      tag_8\n      jumpi\n      dup1\n      0xb0ce76a0\n      eq\n      tag_9\n      jumpi\n      dup1\n      0xdf4a259b\n      eq\n      tag_10\n      jumpi\n      dup1\n      0xef3172af\n      eq\n      tag_11\n      jumpi\n      dup1\n      0xfd0d81b9\n      eq\n      tag_12\n      jumpi\n      jump(tag_2)\n    tag_13:\n      dup1\n      0x0d57f91f\n      eq\n      tag_3\n      jumpi\n      dup1\n      0x36c15e3a\n      eq\n      tag_4\n      jumpi\n      dup1\n      0x3d86da47\n      eq\n      tag_5\n      jumpi\n      dup1\n      0x41f3004a\n      eq\n      tag_6\n      jumpi\n      dup1\n      0x76da2b9d\n      eq\n      tag_7\n      jumpi\n    tag_2:\n      0x00\n      dup1\n      revert\n        /* \"contracts/WeirdReddit.sol\":1689:2020  function createPost(string memory id, string memory subredditName, string memory postTitle, string memory postContent) public {... */\n    tag_3:\n      tag_14\n      0x04\n      dup1\n      calldatasize\n      sub\n      dup2\n      add\n      swap1\n      tag_15\n      swap2\n      swap1\n      tag_16\n      jump\t// in\n    tag_15:\n      tag_17\n      jump\t// in\n    tag_14:\n      stop\n        /* \"contracts/WeirdReddit.sol\":742:976  function createSubreddit(string memory subredditName) public {... */\n    tag_4:\n      tag_18\n      0x04\n      dup1\n      calldatasize\n      sub\n      dup2\n      add\n      swap1\n      tag_19\n      swap2\n      swap1\n      tag_20\n      jump\t// in\n    tag_19:\n      tag_21\n      jump\t// in\n    tag_18:\n      stop\n        /* \"contracts/WeirdReddit.sol\":2120:2362  function verifyPost(string memory id) public view returns (bool) {... */\n    tag_5:\n      tag_22\n      0x04\n      dup1\n      calldatasize\n      sub\n      dup2\n      add\n      swap1\n      tag_23\n      swap2\n      swap1\n      tag_20\n      jump\t// in\n    tag_23:\n      tag_24\n      jump\t// in\n    tag_22:\n      mload(0x40)\n      tag_25\n      swap2\n      swap1\n      tag_26\n      jump\t// in\n    tag_25:\n      mload(0x40)\n      dup1\n      swap2\n      sub\n      swap1\n      return\n        /* \"contracts/WeirdReddit.sol\":2448:2533  function getPosts() public view returns (Post[] memory) {... */\n    tag_6:\n      tag_27\n      tag_28\n      jump\t// in\n    tag_27:\n      mload(0x40)\n      tag_29\n      swap2\n      swap1\n      tag_30\n      jump\t// in\n    tag_29:\n      mload(0x40)\n      dup1\n      swap2\n      sub\n      swap1\n      return\n        /* \"contracts/WeirdReddit.sol\":4145:4468  function changeSubreddit(string memory id, string memory newSubredditName) public {... */\n    tag_7:\n      tag_31\n      0x04\n      dup1\n      calldatasize\n      sub\n      dup2\n      add\n      swap1\n      tag_32\n      swap2\n      swap1\n      tag_33\n      jump\t// in\n    tag_32:\n      tag_34\n      jump\t// in\n    tag_31:\n      stop\n        /* \"contracts/WeirdReddit.sol\":3741:4067  function modifyPost(string memory id, string memory newPostTitle, string memory newPostContent) public {... */\n    tag_8:\n      tag_35\n      0x04\n      dup1\n      calldatasize\n      sub\n      dup2\n      add\n      swap1\n      tag_36\n      swap2\n      swap1\n      tag_37\n      jump\t// in\n    tag_36:\n      tag_38\n      jump\t// in\n    tag_35:\n      stop\n        /* \"contracts/WeirdReddit.sol\":1086:1376  function verifySubreddit(string memory subredditName) public view returns (bool) {... */\n    tag_9:\n      tag_39\n      0x04\n      dup1\n      calldatasize\n      sub\n      dup2\n      add\n      swap1\n      tag_40\n      swap2\n      swap1\n      tag_20\n      jump\t// in\n    tag_40:\n      tag_41\n      jump\t// in\n    tag_39:\n      mload(0x40)\n      tag_42\n      swap2\n      swap1\n      tag_26\n      jump\t// in\n    tag_42:\n      mload(0x40)\n      dup1\n      swap2\n      sub\n      swap1\n      return\n        /* \"contracts/WeirdReddit.sol\":3394:3681  function getPost(string memory id) public view returns (Post memory) {... */\n    tag_10:\n      tag_43\n      0x04\n      dup1\n      calldatasize\n      sub\n      dup2\n      add\n      swap1\n      tag_44\n      swap2\n      swap1\n      tag_20\n      jump\t// in\n    tag_44:\n      tag_45\n      jump\t// in\n    tag_43:\n      mload(0x40)\n      tag_46\n      swap2\n      swap1\n      tag_47\n      jump\t// in\n    tag_46:\n      mload(0x40)\n      dup1\n      swap2\n      sub\n      swap1\n      return\n        /* \"contracts/WeirdReddit.sol\":2649:3283  function getPostsInSubreddit(string memory subredditName) public view returns (Post[] memory) {... */\n    tag_11:\n      tag_48\n      0x04\n      dup1\n      calldatasize\n      sub\n      dup2\n      add\n      swap1\n      tag_49\n      swap2\n      swap1\n      tag_20\n      jump\t// in\n    tag_49:\n      tag_50\n      jump\t// in\n    tag_48:\n      mload(0x40)\n      tag_51\n      swap2\n      swap1\n      tag_30\n      jump\t// in\n    tag_51:\n      mload(0x40)\n      dup1\n      swap2\n      sub\n      swap1\n      return\n        /* \"contracts/WeirdReddit.sol\":1487:1587  function getSubreddits() public view returns (Subreddit[] memory) {... */\n    tag_12:\n      tag_52\n      tag_53\n      jump\t// in\n    tag_52:\n      mload(0x40)\n      tag_54\n      swap2\n      swap1\n      tag_55\n      jump\t// in\n    tag_54:\n      mload(0x40)\n      dup1\n      swap2\n      sub\n      swap1\n      return\n        /* \"contracts/WeirdReddit.sol\":1689:2020  function createPost(string memory id, string memory subredditName, string memory postTitle, string memory postContent) public {... */\n    tag_17:\n        /* \"contracts/WeirdReddit.sol\":1829:1843  verifyPost(id) */\n      tag_57\n        /* \"contracts/WeirdReddit.sol\":1840:1842  id */\n      dup5\n        /* \"contracts/WeirdReddit.sol\":1829:1839  verifyPost */\n      tag_24\n        /* \"contracts/WeirdReddit.sol\":1829:1843  verifyPost(id) */\n      jump\t// in\n    tag_57:\n        /* \"contracts/WeirdReddit.sol\":1845:1852  return; */\n      tag_56\n        /* \"contracts/WeirdReddit.sol\":1825:1852  if (verifyPost(id)) return; */\n      jumpi\n        /* \"contracts/WeirdReddit.sol\":1866:1896  verifySubreddit(subredditName) */\n      tag_59\n        /* \"contracts/WeirdReddit.sol\":1882:1895  subredditName */\n      dup4\n        /* \"contracts/WeirdReddit.sol\":1866:1881  verifySubreddit */\n      tag_41\n        /* \"contracts/WeirdReddit.sol\":1866:1896  verifySubreddit(subredditName) */\n      jump\t// in\n    tag_59:\n        /* \"contracts/WeirdReddit.sol\":1861:1905  if (!verifySubreddit(subredditName)) return; */\n      iszero\n        /* \"contracts/WeirdReddit.sol\":1898:1905  return; */\n      tag_56\n        /* \"contracts/WeirdReddit.sol\":1861:1905  if (!verifySubreddit(subredditName)) return; */\n      jumpi\n        /* \"contracts/WeirdReddit.sol\":1915:1934  Post memory newPost */\n      0x00\n        /* \"contracts/WeirdReddit.sol\":1937:1984  Post(id, subredditName, postTitle, postContent) */\n      mload(0x40)\n      dup1\n      0x80\n      add\n      0x40\n      mstore\n      dup1\n        /* \"contracts/WeirdReddit.sol\":1942:1944  id */\n      dup7\n        /* \"contracts/WeirdReddit.sol\":1937:1984  Post(id, subredditName, postTitle, postContent) */\n      dup2\n      mstore\n      0x20\n      add\n        /* \"contracts/WeirdReddit.sol\":1946:1959  subredditName */\n      dup6\n        /* \"contracts/WeirdReddit.sol\":1937:1984  Post(id, subredditName, postTitle, postContent) */\n      dup2\n      mstore\n      0x20\n      add\n        /* \"contracts/WeirdReddit.sol\":1961:1970  postTitle */\n      dup5\n        /* \"contracts/WeirdReddit.sol\":1937:1984  Post(id, subredditName, postTitle, postContent) */\n      dup2\n      mstore\n      0x20\n      add\n        /* \"contracts/WeirdReddit.sol\":1972:1983  postContent */\n      dup4\n        /* \"contracts/WeirdReddit.sol\":1937:1984  Post(id, subredditName, postTitle, postContent) */\n      dup2\n      mstore\n      pop\n        /* \"contracts/WeirdReddit.sol\":1915:1984  Post memory newPost = Post(id, subredditName, postTitle, postContent) */\n      swap1\n      pop\n        /* \"contracts/WeirdReddit.sol\":1994:1999  posts */\n      0x01\n        /* \"contracts/WeirdReddit.sol\":2005:2012  newPost */\n      dup2\n        /* \"contracts/WeirdReddit.sol\":1994:2013  posts.push(newPost) */\n      swap1\n      dup1\n      0x01\n      dup2\n      sload\n      add\n      dup1\n      dup3\n      sstore\n      dup1\n      swap2\n      pop\n      pop\n      0x01\n      swap1\n      sub\n      swap1\n      0x00\n      mstore\n      keccak256(0x00, 0x20)\n      swap1\n      0x04\n      mul\n      add\n      0x00\n      swap1\n      swap2\n      swap1\n      swap2\n      swap1\n      swap2\n      pop\n      0x00\n      dup3\n      add\n      mload\n      dup2\n      0x00\n      add\n      swap1\n      dup2\n      tag_62\n      swap2\n      swap1\n      tag_63\n      jump\t// in\n    tag_62:\n      pop\n      0x20\n      dup3\n      add\n      mload\n      dup2\n      0x01\n      add\n      swap1\n      dup2\n      tag_64\n      swap2\n      swap1\n      tag_63\n      jump\t// in\n    tag_64:\n      pop\n      0x40\n      dup3\n      add\n      mload\n      dup2\n      0x02\n      add\n      swap1\n      dup2\n      tag_65\n      swap2\n      swap1\n      tag_63\n      jump\t// in\n    tag_65:\n      pop\n      0x60\n      dup3\n      add\n      mload\n      dup2\n      0x03\n      add\n      swap1\n      dup2\n      tag_66\n      swap2\n      swap1\n      tag_63\n      jump\t// in\n    tag_66:\n      pop\n      pop\n      pop\n        /* \"contracts/WeirdReddit.sol\":1815:2020  {... */\n      pop\n        /* \"contracts/WeirdReddit.sol\":1689:2020  function createPost(string memory id, string memory subredditName, string memory postTitle, string memory postContent) public {... */\n    tag_56:\n      pop\n      pop\n      pop\n      pop\n      jump\t// out\n        /* \"contracts/WeirdReddit.sol\":742:976  function createSubreddit(string memory subredditName) public {... */\n    tag_21:\n        /* \"contracts/WeirdReddit.sol\":817:847  verifySubreddit(subredditName) */\n      tag_68\n        /* \"contracts/WeirdReddit.sol\":833:846  subredditName */\n      dup2\n        /* \"contracts/WeirdReddit.sol\":817:832  verifySubreddit */\n      tag_41\n        /* \"contracts/WeirdReddit.sol\":817:847  verifySubreddit(subredditName) */\n      jump\t// in\n    tag_68:\n        /* \"contracts/WeirdReddit.sol\":849:856  return; */\n      tag_67\n        /* \"contracts/WeirdReddit.sol\":813:856  if (verifySubreddit(subredditName)) return; */\n      jumpi\n        /* \"contracts/WeirdReddit.sol\":874:903  Subreddit memory newSubreddit */\n      0x00\n        /* \"contracts/WeirdReddit.sol\":906:930  Subreddit(subredditName) */\n      mload(0x40)\n      dup1\n      0x20\n      add\n      0x40\n      mstore\n      dup1\n        /* \"contracts/WeirdReddit.sol\":916:929  subredditName */\n      dup4\n        /* \"contracts/WeirdReddit.sol\":906:930  Subreddit(subredditName) */\n      dup2\n      mstore\n      pop\n        /* \"contracts/WeirdReddit.sol\":874:930  Subreddit memory newSubreddit = Subreddit(subredditName) */\n      swap1\n      pop\n        /* \"contracts/WeirdReddit.sol\":940:950  subreddits */\n      0x00\n        /* \"contracts/WeirdReddit.sol\":956:968  newSubreddit */\n      dup2\n        /* \"contracts/WeirdReddit.sol\":940:969  subreddits.push(newSubreddit) */\n      swap1\n      dup1\n      0x01\n      dup2\n      sload\n      add\n      dup1\n      dup3\n      sstore\n      dup1\n      swap2\n      pop\n      pop\n      0x01\n      swap1\n      sub\n      swap1\n      0x00\n      mstore\n      keccak256(0x00, 0x20)\n      add\n      0x00\n      swap1\n      swap2\n      swap1\n      swap2\n      swap1\n      swap2\n      pop\n      0x00\n      dup3\n      add\n      mload\n      dup2\n      0x00\n      add\n      swap1\n      dup2\n      tag_71\n      swap2\n      swap1\n      tag_63\n      jump\t// in\n    tag_71:\n      pop\n      pop\n      pop\n        /* \"contracts/WeirdReddit.sol\":803:976  {... */\n      pop\n        /* \"contracts/WeirdReddit.sol\":742:976  function createSubreddit(string memory subredditName) public {... */\n    tag_67:\n      pop\n      jump\t// out\n        /* \"contracts/WeirdReddit.sol\":2120:2362  function verifyPost(string memory id) public view returns (bool) {... */\n    tag_24:\n        /* \"contracts/WeirdReddit.sol\":2179:2183  bool */\n      0x00\n        /* \"contracts/WeirdReddit.sol\":2200:2206  uint i */\n      dup1\n        /* \"contracts/WeirdReddit.sol\":2209:2210  0 */\n      0x00\n        /* \"contracts/WeirdReddit.sol\":2200:2210  uint i = 0 */\n      swap1\n      pop\n        /* \"contracts/WeirdReddit.sol\":2195:2333  for (uint i = 0; i < posts.length; ++i) {... */\n    tag_73:\n        /* \"contracts/WeirdReddit.sol\":2216:2221  posts */\n      0x01\n        /* \"contracts/WeirdReddit.sol\":2216:2228  posts.length */\n      dup1\n      sload\n      swap1\n      pop\n        /* \"contracts/WeirdReddit.sol\":2212:2213  i */\n      dup2\n        /* \"contracts/WeirdReddit.sol\":2212:2228  i < posts.length */\n      lt\n        /* \"contracts/WeirdReddit.sol\":2195:2333  for (uint i = 0; i < posts.length; ++i) {... */\n      iszero\n      tag_74\n      jumpi\n        /* \"contracts/WeirdReddit.sol\":2253:2277  compare(posts[i].id, id) */\n      tag_76\n        /* \"contracts/WeirdReddit.sol\":2261:2266  posts */\n      0x01\n        /* \"contracts/WeirdReddit.sol\":2267:2268  i */\n      dup3\n        /* \"contracts/WeirdReddit.sol\":2261:2269  posts[i] */\n      dup2\n      sload\n      dup2\n      lt\n      tag_77\n      jumpi\n      tag_78\n      tag_79\n      jump\t// in\n    tag_78:\n    tag_77:\n      swap1\n      0x00\n      mstore\n      keccak256(0x00, 0x20)\n      swap1\n      0x04\n      mul\n      add\n        /* \"contracts/WeirdReddit.sol\":2261:2272  posts[i].id */\n      0x00\n      add\n        /* \"contracts/WeirdReddit.sol\":2253:2277  compare(posts[i].id, id) */\n      dup1\n      sload\n      tag_81\n      swap1\n      tag_82\n      jump\t// in\n    tag_81:\n      dup1\n      0x1f\n      add\n      0x20\n      dup1\n      swap2\n      div\n      mul\n      0x20\n      add\n      mload(0x40)\n      swap1\n      dup2\n      add\n      0x40\n      mstore\n      dup1\n      swap3\n      swap2\n      swap1\n      dup2\n      dup2\n      mstore\n      0x20\n      add\n      dup3\n      dup1\n      sload\n      tag_83\n      swap1\n      tag_82\n      jump\t// in\n    tag_83:\n      dup1\n      iszero\n      tag_84\n      jumpi\n      dup1\n      0x1f\n      lt\n      tag_85\n      jumpi\n      0x0100\n      dup1\n      dup4\n      sload\n      div\n      mul\n      dup4\n      mstore\n      swap2\n      0x20\n      add\n      swap2\n      jump(tag_84)\n    tag_85:\n      dup3\n      add\n      swap2\n      swap1\n      0x00\n      mstore\n      keccak256(0x00, 0x20)\n      swap1\n    tag_86:\n      dup2\n      sload\n      dup2\n      mstore\n      swap1\n      0x01\n      add\n      swap1\n      0x20\n      add\n      dup1\n      dup4\n      gt\n      tag_86\n      jumpi\n      dup3\n      swap1\n      sub\n      0x1f\n      and\n      dup3\n      add\n      swap2\n    tag_84:\n      pop\n      pop\n      pop\n      pop\n      pop\n        /* \"contracts/WeirdReddit.sol\":2274:2276  id */\n      dup5\n        /* \"contracts/WeirdReddit.sol\":2253:2260  compare */\n      tag_87\n        /* \"contracts/WeirdReddit.sol\":2253:2277  compare(posts[i].id, id) */\n      jump\t// in\n    tag_76:\n        /* \"contracts/WeirdReddit.sol\":2249:2323  if (compare(posts[i].id, id)) {... */\n      iszero\n      tag_88\n      jumpi\n        /* \"contracts/WeirdReddit.sol\":2304:2308  true */\n      0x01\n        /* \"contracts/WeirdReddit.sol\":2297:2308  return true */\n      swap2\n      pop\n      pop\n      jump(tag_72)\n        /* \"contracts/WeirdReddit.sol\":2249:2323  if (compare(posts[i].id, id)) {... */\n    tag_88:\n        /* \"contracts/WeirdReddit.sol\":2230:2233  ++i */\n      dup1\n      0x01\n      add\n      swap1\n      pop\n        /* \"contracts/WeirdReddit.sol\":2195:2333  for (uint i = 0; i < posts.length; ++i) {... */\n      jump(tag_73)\n    tag_74:\n      pop\n        /* \"contracts/WeirdReddit.sol\":2350:2355  false */\n      0x00\n        /* \"contracts/WeirdReddit.sol\":2343:2355  return false */\n      swap1\n      pop\n        /* \"contracts/WeirdReddit.sol\":2120:2362  function verifyPost(string memory id) public view returns (bool) {... */\n    tag_72:\n      swap2\n      swap1\n      pop\n      jump\t// out\n        /* \"contracts/WeirdReddit.sol\":2448:2533  function getPosts() public view returns (Post[] memory) {... */\n    tag_28:\n        /* \"contracts/WeirdReddit.sol\":2489:2502  Post[] memory */\n      0x60\n        /* \"contracts/WeirdReddit.sol\":2521:2526  posts */\n      0x01\n        /* \"contracts/WeirdReddit.sol\":2514:2526  return posts */\n      dup1\n      sload\n      dup1\n      0x20\n      mul\n      0x20\n      add\n      mload(0x40)\n      swap1\n      dup2\n      add\n      0x40\n      mstore\n      dup1\n      swap3\n      swap2\n      swap1\n      dup2\n      dup2\n      mstore\n      0x20\n      add\n      0x00\n      swap1\n    tag_90:\n      dup3\n      dup3\n      lt\n      iszero\n      tag_91\n      jumpi\n      dup4\n      dup3\n      swap1\n      0x00\n      mstore\n      keccak256(0x00, 0x20)\n      swap1\n      0x04\n      mul\n      add\n      mload(0x40)\n      dup1\n      0x80\n      add\n      0x40\n      mstore\n      swap1\n      dup2\n      0x00\n      dup3\n      add\n      dup1\n      sload\n      tag_93\n      swap1\n      tag_82\n      jump\t// in\n    tag_93:\n      dup1\n      0x1f\n      add\n      0x20\n      dup1\n      swap2\n      div\n      mul\n      0x20\n      add\n      mload(0x40)\n      swap1\n      dup2\n      add\n      0x40\n      mstore\n      dup1\n      swap3\n      swap2\n      swap1\n      dup2\n      dup2\n      mstore\n      0x20\n      add\n      dup3\n      dup1\n      sload\n      tag_94\n      swap1\n      tag_82\n      jump\t// in\n    tag_94:\n      dup1\n      iszero\n      tag_95\n      jumpi\n      dup1\n      0x1f\n      lt\n      tag_96\n      jumpi\n      0x0100\n      dup1\n      dup4\n      sload\n      div\n      mul\n      dup4\n      mstore\n      swap2\n      0x20\n      add\n      swap2\n      jump(tag_95)\n    tag_96:\n      dup3\n      add\n      swap2\n      swap1\n      0x00\n      mstore\n      keccak256(0x00, 0x20)\n      swap1\n    tag_97:\n      dup2\n      sload\n      dup2\n      mstore\n      swap1\n      0x01\n      add\n      swap1\n      0x20\n      add\n      dup1\n      dup4\n      gt\n      tag_97\n      jumpi\n      dup3\n      swap1\n      sub\n      0x1f\n      and\n      dup3\n      add\n      swap2\n    tag_95:\n      pop\n      pop\n      pop\n      pop\n      pop\n      dup2\n      mstore\n      0x20\n      add\n      0x01\n      dup3\n      add\n      dup1\n      sload\n      tag_98\n      swap1\n      tag_82\n      jump\t// in\n    tag_98:\n      dup1\n      0x1f\n      add\n      0x20\n      dup1\n      swap2\n      div\n      mul\n      0x20\n      add\n      mload(0x40)\n      swap1\n      dup2\n      add\n      0x40\n      mstore\n      dup1\n      swap3\n      swap2\n      swap1\n      dup2\n      dup2\n      mstore\n      0x20\n      add\n      dup3\n      dup1\n      sload\n      tag_99\n      swap1\n      tag_82\n      jump\t// in\n    tag_99:\n      dup1\n      iszero\n      tag_100\n      jumpi\n      dup1\n      0x1f\n      lt\n      tag_101\n      jumpi\n      0x0100\n      dup1\n      dup4\n      sload\n      div\n      mul\n      dup4\n      mstore\n      swap2\n      0x20\n      add\n      swap2\n      jump(tag_100)\n    tag_101:\n      dup3\n      add\n      swap2\n      swap1\n      0x00\n      mstore\n      keccak256(0x00, 0x20)\n      swap1\n    tag_102:\n      dup2\n      sload\n      dup2\n      mstore\n      swap1\n      0x01\n      add\n      swap1\n      0x20\n      add\n      dup1\n      dup4\n      gt\n      tag_102\n      jumpi\n      dup3\n      swap1\n      sub\n      0x1f\n      and\n      dup3\n      add\n      swap2\n    tag_100:\n      pop\n      pop\n      pop\n      pop\n      pop\n      dup2\n      mstore\n      0x20\n      add\n      0x02\n      dup3\n      add\n      dup1\n      sload\n      tag_103\n      swap1\n      tag_82\n      jump\t// in\n    tag_103:\n      dup1\n      0x1f\n      add\n      0x20\n      dup1\n      swap2\n      div\n      mul\n      0x20\n      add\n      mload(0x40)\n      swap1\n      dup2\n      add\n      0x40\n      mstore\n      dup1\n      swap3\n      swap2\n      swap1\n      dup2\n      dup2\n      mstore\n      0x20\n      add\n      dup3\n      dup1\n      sload\n      tag_104\n      swap1\n      tag_82\n      jump\t// in\n    tag_104:\n      dup1\n      iszero\n      tag_105\n      jumpi\n      dup1\n      0x1f\n      lt\n      tag_106\n      jumpi\n      0x0100\n      dup1\n      dup4\n      sload\n      div\n      mul\n      dup4\n      mstore\n      swap2\n      0x20\n      add\n      swap2\n      jump(tag_105)\n    tag_106:\n      dup3\n      add\n      swap2\n      swap1\n      0x00\n      mstore\n      keccak256(0x00, 0x20)\n      swap1\n    tag_107:\n      dup2\n      sload\n      dup2\n      mstore\n      swap1\n      0x01\n      add\n      swap1\n      0x20\n      add\n      dup1\n      dup4\n      gt\n      tag_107\n      jumpi\n      dup3\n      swap1\n      sub\n      0x1f\n      and\n      dup3\n      add\n      swap2\n    tag_105:\n      pop\n      pop\n      pop\n      pop\n      pop\n      dup2\n      mstore\n      0x20\n      add\n      0x03\n      dup3\n      add\n      dup1\n      sload\n      tag_108\n      swap1\n      tag_82\n      jump\t// in\n    tag_108:\n      dup1\n      0x1f\n      add\n      0x20\n      dup1\n      swap2\n      div\n      mul\n      0x20\n      add\n      mload(0x40)\n      swap1\n      dup2\n      add\n      0x40\n      mstore\n      dup1\n      swap3\n      swap2\n      swap1\n      dup2\n      dup2\n      mstore\n      0x20\n      add\n      dup3\n      dup1\n      sload\n      tag_109\n      swap1\n      tag_82\n      jump\t// in\n    tag_109:\n      dup1\n      iszero\n      tag_110\n      jumpi\n      dup1\n      0x1f\n      lt\n      tag_111\n      jumpi\n      0x0100\n      dup1\n      dup4\n      sload\n      div\n      mul\n      dup4\n      mstore\n      swap2\n      0x20\n      add\n      swap2\n      jump(tag_110)\n    tag_111:\n      dup3\n      add\n      swap2\n      swap1\n      0x00\n      mstore\n      keccak256(0x00, 0x20)\n      swap1\n    tag_112:\n      dup2\n      sload\n      dup2\n      mstore\n      swap1\n      0x01\n      add\n      swap1\n      0x20\n      add\n      dup1\n      dup4\n      gt\n      tag_112\n      jumpi\n      dup3\n      swap1\n      sub\n      0x1f\n      and\n      dup3\n      add\n      swap2\n    tag_110:\n      pop\n      pop\n      pop\n      pop\n      pop\n      dup2\n      mstore\n      pop\n      pop\n      dup2\n      mstore\n      0x20\n      add\n      swap1\n      0x01\n      add\n      swap1\n      jump(tag_90)\n    tag_91:\n      pop\n      pop\n      pop\n      pop\n      swap1\n      pop\n        /* \"contracts/WeirdReddit.sol\":2448:2533  function getPosts() public view returns (Post[] memory) {... */\n      swap1\n      jump\t// out\n        /* \"contracts/WeirdReddit.sol\":4145:4468  function changeSubreddit(string memory id, string memory newSubredditName) public {... */\n    tag_34:\n        /* \"contracts/WeirdReddit.sol\":4242:4275  verifySubreddit(newSubredditName) */\n      tag_114\n        /* \"contracts/WeirdReddit.sol\":4258:4274  newSubredditName */\n      dup2\n        /* \"contracts/WeirdReddit.sol\":4242:4257  verifySubreddit */\n      tag_41\n        /* \"contracts/WeirdReddit.sol\":4242:4275  verifySubreddit(newSubredditName) */\n      jump\t// in\n    tag_114:\n        /* \"contracts/WeirdReddit.sol\":4237:4284  if (!verifySubreddit(newSubredditName)) return; */\n      iszero\n        /* \"contracts/WeirdReddit.sol\":4277:4284  return; */\n      tag_113\n        /* \"contracts/WeirdReddit.sol\":4237:4284  if (!verifySubreddit(newSubredditName)) return; */\n      jumpi\n        /* \"contracts/WeirdReddit.sol\":4299:4305  uint i */\n      0x00\n        /* \"contracts/WeirdReddit.sol\":4294:4462  for (uint i = 0; i < posts.length; ++i) {... */\n    tag_116:\n        /* \"contracts/WeirdReddit.sol\":4315:4320  posts */\n      0x01\n        /* \"contracts/WeirdReddit.sol\":4315:4327  posts.length */\n      dup1\n      sload\n      swap1\n      pop\n        /* \"contracts/WeirdReddit.sol\":4311:4312  i */\n      dup2\n        /* \"contracts/WeirdReddit.sol\":4311:4327  i < posts.length */\n      lt\n        /* \"contracts/WeirdReddit.sol\":4294:4462  for (uint i = 0; i < posts.length; ++i) {... */\n      iszero\n      tag_117\n      jumpi\n        /* \"contracts/WeirdReddit.sol\":4352:4376  compare(posts[i].id, id) */\n      tag_119\n        /* \"contracts/WeirdReddit.sol\":4360:4365  posts */\n      0x01\n        /* \"contracts/WeirdReddit.sol\":4366:4367  i */\n      dup3\n        /* \"contracts/WeirdReddit.sol\":4360:4368  posts[i] */\n      dup2\n      sload\n      dup2\n      lt\n      tag_120\n      jumpi\n      tag_121\n      tag_79\n      jump\t// in\n    tag_121:\n    tag_120:\n      swap1\n      0x00\n      mstore\n      keccak256(0x00, 0x20)\n      swap1\n      0x04\n      mul\n      add\n        /* \"contracts/WeirdReddit.sol\":4360:4371  posts[i].id */\n      0x00\n      add\n        /* \"contracts/WeirdReddit.sol\":4352:4376  compare(posts[i].id, id) */\n      dup1\n      sload\n      tag_123\n      swap1\n      tag_82\n      jump\t// in\n    tag_123:\n      dup1\n      0x1f\n      add\n      0x20\n      dup1\n      swap2\n      div\n      mul\n      0x20\n      add\n      mload(0x40)\n      swap1\n      dup2\n      add\n      0x40\n      mstore\n      dup1\n      swap3\n      swap2\n      swap1\n      dup2\n      dup2\n      mstore\n      0x20\n      add\n      dup3\n      dup1\n      sload\n      tag_124\n      swap1\n      tag_82\n      jump\t// in\n    tag_124:\n      dup1\n      iszero\n      tag_125\n      jumpi\n      dup1\n      0x1f\n      lt\n      tag_126\n      jumpi\n      0x0100\n      dup1\n      dup4\n      sload\n      div\n      mul\n      dup4\n      mstore\n      swap2\n      0x20\n      add\n      swap2\n      jump(tag_125)\n    tag_126:\n      dup3\n      add\n      swap2\n      swap1\n      0x00\n      mstore\n      keccak256(0x00, 0x20)\n      swap1\n    tag_127:\n      dup2\n      sload\n      dup2\n      mstore\n      swap1\n      0x01\n      add\n      swap1\n      0x20\n      add\n      dup1\n      dup4\n      gt\n      tag_127\n      jumpi\n      dup3\n      swap1\n      sub\n      0x1f\n      and\n      dup3\n      add\n      swap2\n    tag_125:\n      pop\n      pop\n      pop\n      pop\n      pop\n        /* \"contracts/WeirdReddit.sol\":4373:4375  id */\n      dup5\n        /* \"contracts/WeirdReddit.sol\":4352:4359  compare */\n      tag_87\n        /* \"contracts/WeirdReddit.sol\":4352:4376  compare(posts[i].id, id) */\n      jump\t// in\n    tag_119:\n        /* \"contracts/WeirdReddit.sol\":4348:4452  if (compare(posts[i].id, id)) {... */\n      iszero\n      tag_128\n      jumpi\n        /* \"contracts/WeirdReddit.sol\":4421:4437  newSubredditName */\n      dup2\n        /* \"contracts/WeirdReddit.sol\":4396:4401  posts */\n      0x01\n        /* \"contracts/WeirdReddit.sol\":4402:4403  i */\n      dup3\n        /* \"contracts/WeirdReddit.sol\":4396:4404  posts[i] */\n      dup2\n      sload\n      dup2\n      lt\n      tag_129\n      jumpi\n      tag_130\n      tag_79\n      jump\t// in\n    tag_130:\n    tag_129:\n      swap1\n      0x00\n      mstore\n      keccak256(0x00, 0x20)\n      swap1\n      0x04\n      mul\n      add\n        /* \"contracts/WeirdReddit.sol\":4396:4418  posts[i].subredditName */\n      0x01\n      add\n        /* \"contracts/WeirdReddit.sol\":4396:4437  posts[i].subredditName = newSubredditName */\n      swap1\n      dup2\n      tag_132\n      swap2\n      swap1\n      tag_63\n      jump\t// in\n    tag_132:\n      pop\n        /* \"contracts/WeirdReddit.sol\":4348:4452  if (compare(posts[i].id, id)) {... */\n    tag_128:\n        /* \"contracts/WeirdReddit.sol\":4329:4332  ++i */\n      dup1\n      0x01\n      add\n      swap1\n      pop\n        /* \"contracts/WeirdReddit.sol\":4294:4462  for (uint i = 0; i < posts.length; ++i) {... */\n      jump(tag_116)\n    tag_117:\n      pop\n        /* \"contracts/WeirdReddit.sol\":4145:4468  function changeSubreddit(string memory id, string memory newSubredditName) public {... */\n    tag_113:\n      pop\n      pop\n      jump\t// out\n        /* \"contracts/WeirdReddit.sol\":3741:4067  function modifyPost(string memory id, string memory newPostTitle, string memory newPostContent) public {... */\n    tag_38:\n        /* \"contracts/WeirdReddit.sol\":3859:3865  uint i */\n      0x00\n        /* \"contracts/WeirdReddit.sol\":3854:4061  for (uint i = 0; i < posts.length; ++i) {... */\n    tag_134:\n        /* \"contracts/WeirdReddit.sol\":3875:3880  posts */\n      0x01\n        /* \"contracts/WeirdReddit.sol\":3875:3887  posts.length */\n      dup1\n      sload\n      swap1\n      pop\n        /* \"contracts/WeirdReddit.sol\":3871:3872  i */\n      dup2\n        /* \"contracts/WeirdReddit.sol\":3871:3887  i < posts.length */\n      lt\n        /* \"contracts/WeirdReddit.sol\":3854:4061  for (uint i = 0; i < posts.length; ++i) {... */\n      iszero\n      tag_135\n      jumpi\n        /* \"contracts/WeirdReddit.sol\":3912:3936  compare(posts[i].id, id) */\n      tag_137\n        /* \"contracts/WeirdReddit.sol\":3920:3925  posts */\n      0x01\n        /* \"contracts/WeirdReddit.sol\":3926:3927  i */\n      dup3\n        /* \"contracts/WeirdReddit.sol\":3920:3928  posts[i] */\n      dup2\n      sload\n      dup2\n      lt\n      tag_138\n      jumpi\n      tag_139\n      tag_79\n      jump\t// in\n    tag_139:\n    tag_138:\n      swap1\n      0x00\n      mstore\n      keccak256(0x00, 0x20)\n      swap1\n      0x04\n      mul\n      add\n        /* \"contracts/WeirdReddit.sol\":3920:3931  posts[i].id */\n      0x00\n      add\n        /* \"contracts/WeirdReddit.sol\":3912:3936  compare(posts[i].id, id) */\n      dup1\n      sload\n      tag_141\n      swap1\n      tag_82\n      jump\t// in\n    tag_141:\n      dup1\n      0x1f\n      add\n      0x20\n      dup1\n      swap2\n      div\n      mul\n      0x20\n      add\n      mload(0x40)\n      swap1\n      dup2\n      add\n      0x40\n      mstore\n      dup1\n      swap3\n      swap2\n      swap1\n      dup2\n      dup2\n      mstore\n      0x20\n      add\n      dup3\n      dup1\n      sload\n      tag_142\n      swap1\n      tag_82\n      jump\t// in\n    tag_142:\n      dup1\n      iszero\n      tag_143\n      jumpi\n      dup1\n      0x1f\n      lt\n      tag_144\n      jumpi\n      0x0100\n      dup1\n      dup4\n      sload\n      div\n      mul\n      dup4\n      mstore\n      swap2\n      0x20\n      add\n      swap2\n      jump(tag_143)\n    tag_144:\n      dup3\n      add\n      swap2\n      swap1\n      0x00\n      mstore\n      keccak256(0x00, 0x20)\n      swap1\n    tag_145:\n      dup2\n      sload\n      dup2\n      mstore\n      swap1\n      0x01\n      add\n      swap1\n      0x20\n      add\n      dup1\n      dup4\n      gt\n      tag_145\n      jumpi\n      dup3\n      swap1\n      sub\n      0x1f\n      and\n      dup3\n      add\n      swap2\n    tag_143:\n      pop\n      pop\n      pop\n      pop\n      pop\n        /* \"contracts/WeirdReddit.sol\":3933:3935  id */\n      dup6\n        /* \"contracts/WeirdReddit.sol\":3912:3919  compare */\n      tag_87\n        /* \"contracts/WeirdReddit.sol\":3912:3936  compare(posts[i].id, id) */\n      jump\t// in\n    tag_137:\n        /* \"contracts/WeirdReddit.sol\":3908:4051  if (compare(posts[i].id, id)) {... */\n      iszero\n      tag_146\n      jumpi\n        /* \"contracts/WeirdReddit.sol\":3973:3985  newPostTitle */\n      dup3\n        /* \"contracts/WeirdReddit.sol\":3956:3961  posts */\n      0x01\n        /* \"contracts/WeirdReddit.sol\":3962:3963  i */\n      dup3\n        /* \"contracts/WeirdReddit.sol\":3956:3964  posts[i] */\n      dup2\n      sload\n      dup2\n      lt\n      tag_147\n      jumpi\n      tag_148\n      tag_79\n      jump\t// in\n    tag_148:\n    tag_147:\n      swap1\n      0x00\n      mstore\n      keccak256(0x00, 0x20)\n      swap1\n      0x04\n      mul\n      add\n        /* \"contracts/WeirdReddit.sol\":3956:3970  posts[i].title */\n      0x02\n      add\n        /* \"contracts/WeirdReddit.sol\":3956:3985  posts[i].title = newPostTitle */\n      swap1\n      dup2\n      tag_150\n      swap2\n      swap1\n      tag_63\n      jump\t// in\n    tag_150:\n      pop\n        /* \"contracts/WeirdReddit.sol\":4022:4036  newPostContent */\n      dup2\n        /* \"contracts/WeirdReddit.sol\":4003:4008  posts */\n      0x01\n        /* \"contracts/WeirdReddit.sol\":4009:4010  i */\n      dup3\n        /* \"contracts/WeirdReddit.sol\":4003:4011  posts[i] */\n      dup2\n      sload\n      dup2\n      lt\n      tag_151\n      jumpi\n      tag_152\n      tag_79\n      jump\t// in\n    tag_152:\n    tag_151:\n      swap1\n      0x00\n      mstore\n      keccak256(0x00, 0x20)\n      swap1\n      0x04\n      mul\n      add\n        /* \"contracts/WeirdReddit.sol\":4003:4019  posts[i].content */\n      0x03\n      add\n        /* \"contracts/WeirdReddit.sol\":4003:4036  posts[i].content = newPostContent */\n      swap1\n      dup2\n      tag_154\n      swap2\n      swap1\n      tag_63\n      jump\t// in\n    tag_154:\n      pop\n        /* \"contracts/WeirdReddit.sol\":3908:4051  if (compare(posts[i].id, id)) {... */\n    tag_146:\n        /* \"contracts/WeirdReddit.sol\":3889:3892  ++i */\n      dup1\n      0x01\n      add\n      swap1\n      pop\n        /* \"contracts/WeirdReddit.sol\":3854:4061  for (uint i = 0; i < posts.length; ++i) {... */\n      jump(tag_134)\n    tag_135:\n      pop\n        /* \"contracts/WeirdReddit.sol\":3741:4067  function modifyPost(string memory id, string memory newPostTitle, string memory newPostContent) public {... */\n      pop\n      pop\n      pop\n      jump\t// out\n        /* \"contracts/WeirdReddit.sol\":1086:1376  function verifySubreddit(string memory subredditName) public view returns (bool) {... */\n    tag_41:\n        /* \"contracts/WeirdReddit.sol\":1161:1165  bool */\n      0x00\n        /* \"contracts/WeirdReddit.sol\":1182:1188  uint i */\n      dup1\n        /* \"contracts/WeirdReddit.sol\":1191:1192  0 */\n      0x00\n        /* \"contracts/WeirdReddit.sol\":1182:1192  uint i = 0 */\n      swap1\n      pop\n        /* \"contracts/WeirdReddit.sol\":1177:1347  for (uint i = 0; i < subreddits.length; ++i) {... */\n    tag_156:\n        /* \"contracts/WeirdReddit.sol\":1198:1208  subreddits */\n      0x00\n        /* \"contracts/WeirdReddit.sol\":1198:1215  subreddits.length */\n      dup1\n      sload\n      swap1\n      pop\n        /* \"contracts/WeirdReddit.sol\":1194:1195  i */\n      dup2\n        /* \"contracts/WeirdReddit.sol\":1194:1215  i < subreddits.length */\n      lt\n        /* \"contracts/WeirdReddit.sol\":1177:1347  for (uint i = 0; i < subreddits.length; ++i) {... */\n      iszero\n      tag_157\n      jumpi\n        /* \"contracts/WeirdReddit.sol\":1240:1291  compare(subreddits[i].subredditName, subredditName) */\n      tag_159\n        /* \"contracts/WeirdReddit.sol\":1248:1258  subreddits */\n      0x00\n        /* \"contracts/WeirdReddit.sol\":1259:1260  i */\n      dup3\n        /* \"contracts/WeirdReddit.sol\":1248:1261  subreddits[i] */\n      dup2\n      sload\n      dup2\n      lt\n      tag_160\n      jumpi\n      tag_161\n      tag_79\n      jump\t// in\n    tag_161:\n    tag_160:\n      swap1\n      0x00\n      mstore\n      keccak256(0x00, 0x20)\n      add\n        /* \"contracts/WeirdReddit.sol\":1248:1275  subreddits[i].subredditName */\n      0x00\n      add\n        /* \"contracts/WeirdReddit.sol\":1240:1291  compare(subreddits[i].subredditName, subredditName) */\n      dup1\n      sload\n      tag_163\n      swap1\n      tag_82\n      jump\t// in\n    tag_163:\n      dup1\n      0x1f\n      add\n      0x20\n      dup1\n      swap2\n      div\n      mul\n      0x20\n      add\n      mload(0x40)\n      swap1\n      dup2\n      add\n      0x40\n      mstore\n      dup1\n      swap3\n      swap2\n      swap1\n      dup2\n      dup2\n      mstore\n      0x20\n      add\n      dup3\n      dup1\n      sload\n      tag_164\n      swap1\n      tag_82\n      jump\t// in\n    tag_164:\n      dup1\n      iszero\n      tag_165\n      jumpi\n      dup1\n      0x1f\n      lt\n      tag_166\n      jumpi\n      0x0100\n      dup1\n      dup4\n      sload\n      div\n      mul\n      dup4\n      mstore\n      swap2\n      0x20\n      add\n      swap2\n      jump(tag_165)\n    tag_166:\n      dup3\n      add\n      swap2\n      swap1\n      0x00\n      mstore\n      keccak256(0x00, 0x20)\n      swap1\n    tag_167:\n      dup2\n      sload\n      dup2\n      mstore\n      swap1\n      0x01\n      add\n      swap1\n      0x20\n      add\n      dup1\n      dup4\n      gt\n      tag_167\n      jumpi\n      dup3\n      swap1\n      sub\n      0x1f\n      and\n      dup3\n      add\n      swap2\n    tag_165:\n      pop\n      pop\n      pop\n      pop\n      pop\n        /* \"contracts/WeirdReddit.sol\":1277:1290  subredditName */\n      dup5\n        /* \"contracts/WeirdReddit.sol\":1240:1247  compare */\n      tag_87\n        /* \"contracts/WeirdReddit.sol\":1240:1291  compare(subreddits[i].subredditName, subredditName) */\n      jump\t// in\n    tag_159:\n        /* \"contracts/WeirdReddit.sol\":1236:1337  if (compare(subreddits[i].subredditName, subredditName)) {... */\n      iszero\n      tag_168\n      jumpi\n        /* \"contracts/WeirdReddit.sol\":1318:1322  true */\n      0x01\n        /* \"contracts/WeirdReddit.sol\":1311:1322  return true */\n      swap2\n      pop\n      pop\n      jump(tag_155)\n        /* \"contracts/WeirdReddit.sol\":1236:1337  if (compare(subreddits[i].subredditName, subredditName)) {... */\n    tag_168:\n        /* \"contracts/WeirdReddit.sol\":1217:1220  ++i */\n      dup1\n      0x01\n      add\n      swap1\n      pop\n        /* \"contracts/WeirdReddit.sol\":1177:1347  for (uint i = 0; i < subreddits.length; ++i) {... */\n      jump(tag_156)\n    tag_157:\n      pop\n        /* \"contracts/WeirdReddit.sol\":1364:1369  false */\n      0x00\n        /* \"contracts/WeirdReddit.sol\":1357:1369  return false */\n      swap1\n      pop\n        /* \"contracts/WeirdReddit.sol\":1086:1376  function verifySubreddit(string memory subredditName) public view returns (bool) {... */\n    tag_155:\n      swap2\n      swap1\n      pop\n      jump\t// out\n        /* \"contracts/WeirdReddit.sol\":3394:3681  function getPost(string memory id) public view returns (Post memory) {... */\n    tag_45:\n        /* \"contracts/WeirdReddit.sol\":3450:3461  Post memory */\n      tag_169\n      tag_170\n      jump\t// in\n    tag_169:\n        /* \"contracts/WeirdReddit.sol\":3478:3484  uint i */\n      0x00\n        /* \"contracts/WeirdReddit.sol\":3473:3615  for (uint i = 0; i < posts.length; ++i) {... */\n    tag_172:\n        /* \"contracts/WeirdReddit.sol\":3494:3499  posts */\n      0x01\n        /* \"contracts/WeirdReddit.sol\":3494:3506  posts.length */\n      dup1\n      sload\n      swap1\n      pop\n        /* \"contracts/WeirdReddit.sol\":3490:3491  i */\n      dup2\n        /* \"contracts/WeirdReddit.sol\":3490:3506  i < posts.length */\n      lt\n        /* \"contracts/WeirdReddit.sol\":3473:3615  for (uint i = 0; i < posts.length; ++i) {... */\n      iszero\n      tag_173\n      jumpi\n        /* \"contracts/WeirdReddit.sol\":3531:3555  compare(posts[i].id, id) */\n      tag_175\n        /* \"contracts/WeirdReddit.sol\":3539:3544  posts */\n      0x01\n        /* \"contracts/WeirdReddit.sol\":3545:3546  i */\n      dup3\n        /* \"contracts/WeirdReddit.sol\":3539:3547  posts[i] */\n      dup2\n      sload\n      dup2\n      lt\n      tag_176\n      jumpi\n      tag_177\n      tag_79\n      jump\t// in\n    tag_177:\n    tag_176:\n      swap1\n      0x00\n      mstore\n      keccak256(0x00, 0x20)\n      swap1\n      0x04\n      mul\n      add\n        /* \"contracts/WeirdReddit.sol\":3539:3550  posts[i].id */\n      0x00\n      add\n        /* \"contracts/WeirdReddit.sol\":3531:3555  compare(posts[i].id, id) */\n      dup1\n      sload\n      tag_179\n      swap1\n      tag_82\n      jump\t// in\n    tag_179:\n      dup1\n      0x1f\n      add\n      0x20\n      dup1\n      swap2\n      div\n      mul\n      0x20\n      add\n      mload(0x40)\n      swap1\n      dup2\n      add\n      0x40\n      mstore\n      dup1\n      swap3\n      swap2\n      swap1\n      dup2\n      dup2\n      mstore\n      0x20\n      add\n      dup3\n      dup1\n      sload\n      tag_180\n      swap1\n      tag_82\n      jump\t// in\n    tag_180:\n      dup1\n      iszero\n      tag_181\n      jumpi\n      dup1\n      0x1f\n      lt\n      tag_182\n      jumpi\n      0x0100\n      dup1\n      dup4\n      sload\n      div\n      mul\n      dup4\n      mstore\n      swap2\n      0x20\n      add\n      swap2\n      jump(tag_181)\n    tag_182:\n      dup3\n      add\n      swap2\n      swap1\n      0x00\n      mstore\n      keccak256(0x00, 0x20)\n      swap1\n    tag_183:\n      dup2\n      sload\n      dup2\n      mstore\n      swap1\n      0x01\n      add\n      swap1\n      0x20\n      add\n      dup1\n      dup4\n      gt\n      tag_183\n      jumpi\n      dup3\n      swap1\n      sub\n      0x1f\n      and\n      dup3\n      add\n      swap2\n    tag_181:\n      pop\n      pop\n      pop\n      pop\n      pop\n        /* \"contracts/WeirdReddit.sol\":3552:3554  id */\n      dup5\n        /* \"contracts/WeirdReddit.sol\":3531:3538  compare */\n      tag_87\n        /* \"contracts/WeirdReddit.sol\":3531:3555  compare(posts[i].id, id) */\n      jump\t// in\n    tag_175:\n        /* \"contracts/WeirdReddit.sol\":3527:3605  if (compare(posts[i].id, id)) {... */\n      iszero\n      tag_184\n      jumpi\n        /* \"contracts/WeirdReddit.sol\":3582:3587  posts */\n      0x01\n        /* \"contracts/WeirdReddit.sol\":3588:3589  i */\n      dup2\n        /* \"contracts/WeirdReddit.sol\":3582:3590  posts[i] */\n      dup2\n      sload\n      dup2\n      lt\n      tag_185\n      jumpi\n      tag_186\n      tag_79\n      jump\t// in\n    tag_186:\n    tag_185:\n      swap1\n      0x00\n      mstore\n      keccak256(0x00, 0x20)\n      swap1\n      0x04\n      mul\n      add\n        /* \"contracts/WeirdReddit.sol\":3575:3590  return posts[i] */\n      mload(0x40)\n      dup1\n      0x80\n      add\n      0x40\n      mstore\n      swap1\n      dup2\n      0x00\n      dup3\n      add\n      dup1\n      sload\n      tag_188\n      swap1\n      tag_82\n      jump\t// in\n    tag_188:\n      dup1\n      0x1f\n      add\n      0x20\n      dup1\n      swap2\n      div\n      mul\n      0x20\n      add\n      mload(0x40)\n      swap1\n      dup2\n      add\n      0x40\n      mstore\n      dup1\n      swap3\n      swap2\n      swap1\n      dup2\n      dup2\n      mstore\n      0x20\n      add\n      dup3\n      dup1\n      sload\n      tag_189\n      swap1\n      tag_82\n      jump\t// in\n    tag_189:\n      dup1\n      iszero\n      tag_190\n      jumpi\n      dup1\n      0x1f\n      lt\n      tag_191\n      jumpi\n      0x0100\n      dup1\n      dup4\n      sload\n      div\n      mul\n      dup4\n      mstore\n      swap2\n      0x20\n      add\n      swap2\n      jump(tag_190)\n    tag_191:\n      dup3\n      add\n      swap2\n      swap1\n      0x00\n      mstore\n      keccak256(0x00, 0x20)\n      swap1\n    tag_192:\n      dup2\n      sload\n      dup2\n      mstore\n      swap1\n      0x01\n      add\n      swap1\n      0x20\n      add\n      dup1\n      dup4\n      gt\n      tag_192\n      jumpi\n      dup3\n      swap1\n      sub\n      0x1f\n      and\n      dup3\n      add\n      swap2\n    tag_190:\n      pop\n      pop\n      pop\n      pop\n      pop\n      dup2\n      mstore\n      0x20\n      add\n      0x01\n      dup3\n      add\n      dup1\n      sload\n      tag_193\n      swap1\n      tag_82\n      jump\t// in\n    tag_193:\n      dup1\n      0x1f\n      add\n      0x20\n      dup1\n      swap2\n      div\n      mul\n      0x20\n      add\n      mload(0x40)\n      swap1\n      dup2\n      add\n      0x40\n      mstore\n      dup1\n      swap3\n      swap2\n      swap1\n      dup2\n      dup2\n      mstore\n      0x20\n      add\n      dup3\n      dup1\n      sload\n      tag_194\n      swap1\n      tag_82\n      jump\t// in\n    tag_194:\n      dup1\n      iszero\n      tag_195\n      jumpi\n      dup1\n      0x1f\n      lt\n      tag_196\n      jumpi\n      0x0100\n      dup1\n      dup4\n      sload\n      div\n      mul\n      dup4\n      mstore\n      swap2\n      0x20\n      add\n      swap2\n      jump(tag_195)\n    tag_196:\n      dup3\n      add\n      swap2\n      swap1\n      0x00\n      mstore\n      keccak256(0x00, 0x20)\n      swap1\n    tag_197:\n      dup2\n      sload\n      dup2\n      mstore\n      swap1\n      0x01\n      add\n      swap1\n      0x20\n      add\n      dup1\n      dup4\n      gt\n      tag_197\n      jumpi\n      dup3\n      swap1\n      sub\n      0x1f\n      and\n      dup3\n      add\n      swap2\n    tag_195:\n      pop\n      pop\n      pop\n      pop\n      pop\n      dup2\n      mstore\n      0x20\n      add\n      0x02\n      dup3\n      add\n      dup1\n      sload\n      tag_198\n      swap1\n      tag_82\n      jump\t// in\n    tag_198:\n      dup1\n      0x1f\n      add\n      0x20\n      dup1\n      swap2\n      div\n      mul\n      0x20\n      add\n      mload(0x40)\n      swap1\n      dup2\n      add\n      0x40\n      mstore\n      dup1\n      swap3\n      swap2\n      swap1\n      dup2\n      dup2\n      mstore\n      0x20\n      add\n      dup3\n      dup1\n      sload\n      tag_199\n      swap1\n      tag_82\n      jump\t// in\n    tag_199:\n      dup1\n      iszero\n      tag_200\n      jumpi\n      dup1\n      0x1f\n      lt\n      tag_201\n      jumpi\n      0x0100\n      dup1\n      dup4\n      sload\n      div\n      mul\n      dup4\n      mstore\n      swap2\n      0x20\n      add\n      swap2\n      jump(tag_200)\n    tag_201:\n      dup3\n      add\n      swap2\n      swap1\n      0x00\n      mstore\n      keccak256(0x00, 0x20)\n      swap1\n    tag_202:\n      dup2\n      sload\n      dup2\n      mstore\n      swap1\n      0x01\n      add\n      swap1\n      0x20\n      add\n      dup1\n      dup4\n      gt\n      tag_202\n      jumpi\n      dup3\n      swap1\n      sub\n      0x1f\n      and\n      dup3\n      add\n      swap2\n    tag_200:\n      pop\n      pop\n      pop\n      pop\n      pop\n      dup2\n      mstore\n      0x20\n      add\n      0x03\n      dup3\n      add\n      dup1\n      sload\n      tag_203\n      swap1\n      tag_82\n      jump\t// in\n    tag_203:\n      dup1\n      0x1f\n      add\n      0x20\n      dup1\n      swap2\n      div\n      mul\n      0x20\n      add\n      mload(0x40)\n      swap1\n      dup2\n      add\n      0x40\n      mstore\n      dup1\n      swap3\n      swap2\n      swap1\n      dup2\n      dup2\n      mstore\n      0x20\n      add\n      dup3\n      dup1\n      sload\n      tag_204\n      swap1\n      tag_82\n      jump\t// in\n    tag_204:\n      dup1\n      iszero\n      tag_205\n      jumpi\n      dup1\n      0x1f\n      lt\n      tag_206\n      jumpi\n      0x0100\n      dup1\n      dup4\n      sload\n      div\n      mul\n      dup4\n      mstore\n      swap2\n      0x20\n      add\n      swap2\n      jump(tag_205)\n    tag_206:\n      dup3\n      add\n      swap2\n      swap1\n      0x00\n      mstore\n      keccak256(0x00, 0x20)\n      swap1\n    tag_207:\n      dup2\n      sload\n      dup2\n      mstore\n      swap1\n      0x01\n      add\n      swap1\n      0x20\n      add\n      dup1\n      dup4\n      gt\n      tag_207\n      jumpi\n      dup3\n      swap1\n      sub\n      0x1f\n      and\n      dup3\n      add\n      swap2\n    tag_205:\n      pop\n      pop\n      pop\n      pop\n      pop\n      dup2\n      mstore\n      pop\n      pop\n      swap2\n      pop\n      pop\n      jump(tag_171)\n        /* \"contracts/WeirdReddit.sol\":3527:3605  if (compare(posts[i].id, id)) {... */\n    tag_184:\n        /* \"contracts/WeirdReddit.sol\":3508:3511  ++i */\n      dup1\n      0x01\n      add\n      swap1\n      pop\n        /* \"contracts/WeirdReddit.sol\":3473:3615  for (uint i = 0; i < posts.length; ++i) {... */\n      jump(tag_172)\n    tag_173:\n      pop\n        /* \"contracts/WeirdReddit.sol\":3632:3652  Post(\"\", \"\", \"\", \"\") */\n      mload(0x40)\n      dup1\n      0x80\n      add\n      0x40\n      mstore\n      dup1\n      mload(0x40)\n      dup1\n      0x20\n      add\n      0x40\n      mstore\n      dup1\n      0x00\n      dup2\n      mstore\n      pop\n      dup2\n      mstore\n      0x20\n      add\n      mload(0x40)\n      dup1\n      0x20\n      add\n      0x40\n      mstore\n      dup1\n      0x00\n      dup2\n      mstore\n      pop\n      dup2\n      mstore\n      0x20\n      add\n      mload(0x40)\n      dup1\n      0x20\n      add\n      0x40\n      mstore\n      dup1\n      0x00\n      dup2\n      mstore\n      pop\n      dup2\n      mstore\n      0x20\n      add\n      mload(0x40)\n      dup1\n      0x20\n      add\n      0x40\n      mstore\n      dup1\n      0x00\n      dup2\n      mstore\n      pop\n      dup2\n      mstore\n      pop\n        /* \"contracts/WeirdReddit.sol\":3625:3652  return Post(\"\", \"\", \"\", \"\") */\n      swap1\n      pop\n        /* \"contracts/WeirdReddit.sol\":3394:3681  function getPost(string memory id) public view returns (Post memory) {... */\n    tag_171:\n      swap2\n      swap1\n      pop\n      jump\t// out\n        /* \"contracts/WeirdReddit.sol\":2649:3283  function getPostsInSubreddit(string memory subredditName) public view returns (Post[] memory) {... */\n    tag_50:\n        /* \"contracts/WeirdReddit.sol\":2728:2741  Post[] memory */\n      0x60\n        /* \"contracts/WeirdReddit.sol\":2753:2768  uint filterSize */\n      0x00\n        /* \"contracts/WeirdReddit.sol\":2782:2792  uint index */\n      dup1\n        /* \"contracts/WeirdReddit.sol\":2812:2818  uint i */\n      0x00\n        /* \"contracts/WeirdReddit.sol\":2807:2968  for (uint i = 0; i < posts.length; ++i) {... */\n    tag_209:\n        /* \"contracts/WeirdReddit.sol\":2828:2833  posts */\n      0x01\n        /* \"contracts/WeirdReddit.sol\":2828:2840  posts.length */\n      dup1\n      sload\n      swap1\n      pop\n        /* \"contracts/WeirdReddit.sol\":2824:2825  i */\n      dup2\n        /* \"contracts/WeirdReddit.sol\":2824:2840  i < posts.length */\n      lt\n        /* \"contracts/WeirdReddit.sol\":2807:2968  for (uint i = 0; i < posts.length; ++i) {... */\n      iszero\n      tag_210\n      jumpi\n        /* \"contracts/WeirdReddit.sol\":2865:2911  compare(posts[i].subredditName, subredditName) */\n      tag_212\n        /* \"contracts/WeirdReddit.sol\":2873:2878  posts */\n      0x01\n        /* \"contracts/WeirdReddit.sol\":2879:2880  i */\n      dup3\n        /* \"contracts/WeirdReddit.sol\":2873:2881  posts[i] */\n      dup2\n      sload\n      dup2\n      lt\n      tag_213\n      jumpi\n      tag_214\n      tag_79\n      jump\t// in\n    tag_214:\n    tag_213:\n      swap1\n      0x00\n      mstore\n      keccak256(0x00, 0x20)\n      swap1\n      0x04\n      mul\n      add\n        /* \"contracts/WeirdReddit.sol\":2873:2895  posts[i].subredditName */\n      0x01\n      add\n        /* \"contracts/WeirdReddit.sol\":2865:2911  compare(posts[i].subredditName, subredditName) */\n      dup1\n      sload\n      tag_216\n      swap1\n      tag_82\n      jump\t// in\n    tag_216:\n      dup1\n      0x1f\n      add\n      0x20\n      dup1\n      swap2\n      div\n      mul\n      0x20\n      add\n      mload(0x40)\n      swap1\n      dup2\n      add\n      0x40\n      mstore\n      dup1\n      swap3\n      swap2\n      swap1\n      dup2\n      dup2\n      mstore\n      0x20\n      add\n      dup3\n      dup1\n      sload\n      tag_217\n      swap1\n      tag_82\n      jump\t// in\n    tag_217:\n      dup1\n      iszero\n      tag_218\n      jumpi\n      dup1\n      0x1f\n      lt\n      tag_219\n      jumpi\n      0x0100\n      dup1\n      dup4\n      sload\n      div\n      mul\n      dup4\n      mstore\n      swap2\n      0x20\n      add\n      swap2\n      jump(tag_218)\n    tag_219:\n      dup3\n      add\n      swap2\n      swap1\n      0x00\n      mstore\n      keccak256(0x00, 0x20)\n      swap1\n    tag_220:\n      dup2\n      sload\n      dup2\n      mstore\n      swap1\n      0x01\n      add\n      swap1\n      0x20\n      add\n      dup1\n      dup4\n      gt\n      tag_220\n      jumpi\n      dup3\n      swap1\n      sub\n      0x1f\n      and\n      dup3\n      add\n      swap2\n    tag_218:\n      pop\n      pop\n      pop\n      pop\n      pop\n        /* \"contracts/WeirdReddit.sol\":2897:2910  subredditName */\n      dup7\n        /* \"contracts/WeirdReddit.sol\":2865:2872  compare */\n      tag_87\n        /* \"contracts/WeirdReddit.sol\":2865:2911  compare(posts[i].subredditName, subredditName) */\n      jump\t// in\n    tag_212:\n        /* \"contracts/WeirdReddit.sol\":2861:2958  if (compare(posts[i].subredditName, subredditName)) {... */\n      iszero\n      tag_221\n      jumpi\n        /* \"contracts/WeirdReddit.sol\":2931:2943  ++filterSize */\n      dup3\n      tag_222\n      swap1\n      tag_223\n      jump\t// in\n    tag_222:\n      swap3\n      pop\n        /* \"contracts/WeirdReddit.sol\":2861:2958  if (compare(posts[i].subredditName, subredditName)) {... */\n    tag_221:\n        /* \"contracts/WeirdReddit.sol\":2842:2845  ++i */\n      dup1\n      0x01\n      add\n      swap1\n      pop\n        /* \"contracts/WeirdReddit.sol\":2807:2968  for (uint i = 0; i < posts.length; ++i) {... */\n      jump(tag_209)\n    tag_210:\n      pop\n        /* \"contracts/WeirdReddit.sol\":2978:3005  Post[] memory filteredPosts */\n      0x00\n        /* \"contracts/WeirdReddit.sol\":3019:3029  filterSize */\n      dup3\n        /* \"contracts/WeirdReddit.sol\":3008:3030  new Post[](filterSize) */\n      0xffffffffffffffff\n      dup2\n      gt\n      iszero\n      tag_224\n      jumpi\n      tag_225\n      tag_226\n      jump\t// in\n    tag_225:\n    tag_224:\n      mload(0x40)\n      swap1\n      dup1\n      dup3\n      mstore\n      dup1\n      0x20\n      mul\n      0x20\n      add\n      dup3\n      add\n      0x40\n      mstore\n      dup1\n      iszero\n      tag_227\n      jumpi\n      dup2\n      0x20\n      add\n    tag_228:\n      tag_229\n      tag_170\n      jump\t// in\n    tag_229:\n      dup2\n      mstore\n      0x20\n      add\n      swap1\n      0x01\n      swap1\n      sub\n      swap1\n      dup2\n      tag_228\n      jumpi\n      swap1\n      pop\n    tag_227:\n      pop\n        /* \"contracts/WeirdReddit.sol\":2978:3030  Post[] memory filteredPosts = new Post[](filterSize) */\n      swap1\n      pop\n        /* \"contracts/WeirdReddit.sol\":3046:3052  uint i */\n      0x00\n        /* \"contracts/WeirdReddit.sol\":3041:3246  for (uint i = 0; i < posts.length; ++i) {... */\n    tag_230:\n        /* \"contracts/WeirdReddit.sol\":3062:3067  posts */\n      0x01\n        /* \"contracts/WeirdReddit.sol\":3062:3074  posts.length */\n      dup1\n      sload\n      swap1\n      pop\n        /* \"contracts/WeirdReddit.sol\":3058:3059  i */\n      dup2\n        /* \"contracts/WeirdReddit.sol\":3058:3074  i < posts.length */\n      lt\n        /* \"contracts/WeirdReddit.sol\":3041:3246  for (uint i = 0; i < posts.length; ++i) {... */\n      iszero\n      tag_231\n      jumpi\n        /* \"contracts/WeirdReddit.sol\":3099:3145  compare(posts[i].subredditName, subredditName) */\n      tag_233\n        /* \"contracts/WeirdReddit.sol\":3107:3112  posts */\n      0x01\n        /* \"contracts/WeirdReddit.sol\":3113:3114  i */\n      dup3\n        /* \"contracts/WeirdReddit.sol\":3107:3115  posts[i] */\n      dup2\n      sload\n      dup2\n      lt\n      tag_234\n      jumpi\n      tag_235\n      tag_79\n      jump\t// in\n    tag_235:\n    tag_234:\n      swap1\n      0x00\n      mstore\n      keccak256(0x00, 0x20)\n      swap1\n      0x04\n      mul\n      add\n        /* \"contracts/WeirdReddit.sol\":3107:3129  posts[i].subredditName */\n      0x01\n      add\n        /* \"contracts/WeirdReddit.sol\":3099:3145  compare(posts[i].subredditName, subredditName) */\n      dup1\n      sload\n      tag_237\n      swap1\n      tag_82\n      jump\t// in\n    tag_237:\n      dup1\n      0x1f\n      add\n      0x20\n      dup1\n      swap2\n      div\n      mul\n      0x20\n      add\n      mload(0x40)\n      swap1\n      dup2\n      add\n      0x40\n      mstore\n      dup1\n      swap3\n      swap2\n      swap1\n      dup2\n      dup2\n      mstore\n      0x20\n      add\n      dup3\n      dup1\n      sload\n      tag_238\n      swap1\n      tag_82\n      jump\t// in\n    tag_238:\n      dup1\n      iszero\n      tag_239\n      jumpi\n      dup1\n      0x1f\n      lt\n      tag_240\n      jumpi\n      0x0100\n      dup1\n      dup4\n      sload\n      div\n      mul\n      dup4\n      mstore\n      swap2\n      0x20\n      add\n      swap2\n      jump(tag_239)\n    tag_240:\n      dup3\n      add\n      swap2\n      swap1\n      0x00\n      mstore\n      keccak256(0x00, 0x20)\n      swap1\n    tag_241:\n      dup2\n      sload\n      dup2\n      mstore\n      swap1\n      0x01\n      add\n      swap1\n      0x20\n      add\n      dup1\n      dup4\n      gt\n      tag_241\n      jumpi\n      dup3\n      swap1\n      sub\n      0x1f\n      and\n      dup3\n      add\n      swap2\n    tag_239:\n      pop\n      pop\n      pop\n      pop\n      pop\n        /* \"contracts/WeirdReddit.sol\":3131:3144  subredditName */\n      dup8\n        /* \"contracts/WeirdReddit.sol\":3099:3106  compare */\n      tag_87\n        /* \"contracts/WeirdReddit.sol\":3099:3145  compare(posts[i].subredditName, subredditName) */\n      jump\t// in\n    tag_233:\n        /* \"contracts/WeirdReddit.sol\":3095:3236  if (compare(posts[i].subredditName, subredditName)) {... */\n      iszero\n      tag_242\n      jumpi\n        /* \"contracts/WeirdReddit.sol\":3188:3193  posts */\n      0x01\n        /* \"contracts/WeirdReddit.sol\":3194:3195  i */\n      dup2\n        /* \"contracts/WeirdReddit.sol\":3188:3196  posts[i] */\n      dup2\n      sload\n      dup2\n      lt\n      tag_243\n      jumpi\n      tag_244\n      tag_79\n      jump\t// in\n    tag_244:\n    tag_243:\n      swap1\n      0x00\n      mstore\n      keccak256(0x00, 0x20)\n      swap1\n      0x04\n      mul\n      add\n        /* \"contracts/WeirdReddit.sol\":3165:3196  filteredPosts[index] = posts[i] */\n      mload(0x40)\n      dup1\n      0x80\n      add\n      0x40\n      mstore\n      swap1\n      dup2\n      0x00\n      dup3\n      add\n      dup1\n      sload\n      tag_246\n      swap1\n      tag_82\n      jump\t// in\n    tag_246:\n      dup1\n      0x1f\n      add\n      0x20\n      dup1\n      swap2\n      div\n      mul\n      0x20\n      add\n      mload(0x40)\n      swap1\n      dup2\n      add\n      0x40\n      mstore\n      dup1\n      swap3\n      swap2\n      swap1\n      dup2\n      dup2\n      mstore\n      0x20\n      add\n      dup3\n      dup1\n      sload\n      tag_247\n      swap1\n      tag_82\n      jump\t// in\n    tag_247:\n      dup1\n      iszero\n      tag_248\n      jumpi\n      dup1\n      0x1f\n      lt\n      tag_249\n      jumpi\n      0x0100\n      dup1\n      dup4\n      sload\n      div\n      mul\n      dup4\n      mstore\n      swap2\n      0x20\n      add\n      swap2\n      jump(tag_248)\n    tag_249:\n      dup3\n      add\n      swap2\n      swap1\n      0x00\n      mstore\n      keccak256(0x00, 0x20)\n      swap1\n    tag_250:\n      dup2\n      sload\n      dup2\n      mstore\n      swap1\n      0x01\n      add\n      swap1\n      0x20\n      add\n      dup1\n      dup4\n      gt\n      tag_250\n      jumpi\n      dup3\n      swap1\n      sub\n      0x1f\n      and\n      dup3\n      add\n      swap2\n    tag_248:\n      pop\n      pop\n      pop\n      pop\n      pop\n      dup2\n      mstore\n      0x20\n      add\n      0x01\n      dup3\n      add\n      dup1\n      sload\n      tag_251\n      swap1\n      tag_82\n      jump\t// in\n    tag_251:\n      dup1\n      0x1f\n      add\n      0x20\n      dup1\n      swap2\n      div\n      mul\n      0x20\n      add\n      mload(0x40)\n      swap1\n      dup2\n      add\n      0x40\n      mstore\n      dup1\n      swap3\n      swap2\n      swap1\n      dup2\n      dup2\n      mstore\n      0x20\n      add\n      dup3\n      dup1\n      sload\n      tag_252\n      swap1\n      tag_82\n      jump\t// in\n    tag_252:\n      dup1\n      iszero\n      tag_253\n      jumpi\n      dup1\n      0x1f\n      lt\n      tag_254\n      jumpi\n      0x0100\n      dup1\n      dup4\n      sload\n      div\n      mul\n      dup4\n      mstore\n      swap2\n      0x20\n      add\n      swap2\n      jump(tag_253)\n    tag_254:\n      dup3\n      add\n      swap2\n      swap1\n      0x00\n      mstore\n      keccak256(0x00, 0x20)\n      swap1\n    tag_255:\n      dup2\n      sload\n      dup2\n      mstore\n      swap1\n      0x01\n      add\n      swap1\n      0x20\n      add\n      dup1\n      dup4\n      gt\n      tag_255\n      jumpi\n      dup3\n      swap1\n      sub\n      0x1f\n      and\n      dup3\n      add\n      swap2\n    tag_253:\n      pop\n      pop\n      pop\n      pop\n      pop\n      dup2\n      mstore\n      0x20\n      add\n      0x02\n      dup3\n      add\n      dup1\n      sload\n      tag_256\n      swap1\n      tag_82\n      jump\t// in\n    tag_256:\n      dup1\n      0x1f\n      add\n      0x20\n      dup1\n      swap2\n      div\n      mul\n      0x20\n      add\n      mload(0x40)\n      swap1\n      dup2\n      add\n      0x40\n      mstore\n      dup1\n      swap3\n      swap2\n      swap1\n      dup2\n      dup2\n      mstore\n      0x20\n      add\n      dup3\n      dup1\n      sload\n      tag_257\n      swap1\n      tag_82\n      jump\t// in\n    tag_257:\n      dup1\n      iszero\n      tag_258\n      jumpi\n      dup1\n      0x1f\n      lt\n      tag_259\n      jumpi\n      0x0100\n      dup1\n      dup4\n      sload\n      div\n      mul\n      dup4\n      mstore\n      swap2\n      0x20\n      add\n      swap2\n      jump(tag_258)\n    tag_259:\n      dup3\n      add\n      swap2\n      swap1\n      0x00\n      mstore\n      keccak256(0x00, 0x20)\n      swap1\n    tag_260:\n      dup2\n      sload\n      dup2\n      mstore\n      swap1\n      0x01\n      add\n      swap1\n      0x20\n      add\n      dup1\n      dup4\n      gt\n      tag_260\n      jumpi\n      dup3\n      swap1\n      sub\n      0x1f\n      and\n      dup3\n      add\n      swap2\n    tag_258:\n      pop\n      pop\n      pop\n      pop\n      pop\n      dup2\n      mstore\n      0x20\n      add\n      0x03\n      dup3\n      add\n      dup1\n      sload\n      tag_261\n      swap1\n      tag_82\n      jump\t// in\n    tag_261:\n      dup1\n      0x1f\n      add\n      0x20\n      dup1\n      swap2\n      div\n      mul\n      0x20\n      add\n      mload(0x40)\n      swap1\n      dup2\n      add\n      0x40\n      mstore\n      dup1\n      swap3\n      swap2\n      swap1\n      dup2\n      dup2\n      mstore\n      0x20\n      add\n      dup3\n      dup1\n      sload\n      tag_262\n      swap1\n      tag_82\n      jump\t// in\n    tag_262:\n      dup1\n      iszero\n      tag_263\n      jumpi\n      dup1\n      0x1f\n      lt\n      tag_264\n      jumpi\n      0x0100\n      dup1\n      dup4\n      sload\n      div\n      mul\n      dup4\n      mstore\n      swap2\n      0x20\n      add\n      swap2\n      jump(tag_263)\n    tag_264:\n      dup3\n      add\n      swap2\n      swap1\n      0x00\n      mstore\n      keccak256(0x00, 0x20)\n      swap1\n    tag_265:\n      dup2\n      sload\n      dup2\n      mstore\n      swap1\n      0x01\n      add\n      swap1\n      0x20\n      add\n      dup1\n      dup4\n      gt\n      tag_265\n      jumpi\n      dup3\n      swap1\n      sub\n      0x1f\n      and\n      dup3\n      add\n      swap2\n    tag_263:\n      pop\n      pop\n      pop\n      pop\n      pop\n      dup2\n      mstore\n      pop\n      pop\n        /* \"contracts/WeirdReddit.sol\":3165:3178  filteredPosts */\n      dup3\n        /* \"contracts/WeirdReddit.sol\":3179:3184  index */\n      dup5\n        /* \"contracts/WeirdReddit.sol\":3165:3185  filteredPosts[index] */\n      dup2\n      mload\n      dup2\n      lt\n      tag_266\n      jumpi\n      tag_267\n      tag_79\n      jump\t// in\n    tag_267:\n    tag_266:\n      0x20\n      mul\n      0x20\n      add\n      add\n        /* \"contracts/WeirdReddit.sol\":3165:3196  filteredPosts[index] = posts[i] */\n      dup2\n      swap1\n      mstore\n      pop\n        /* \"contracts/WeirdReddit.sol\":3214:3221  ++index */\n      dup3\n      tag_268\n      swap1\n      tag_223\n      jump\t// in\n    tag_268:\n      swap3\n      pop\n        /* \"contracts/WeirdReddit.sol\":3095:3236  if (compare(posts[i].subredditName, subredditName)) {... */\n    tag_242:\n        /* \"contracts/WeirdReddit.sol\":3076:3079  ++i */\n      dup1\n      0x01\n      add\n      swap1\n      pop\n        /* \"contracts/WeirdReddit.sol\":3041:3246  for (uint i = 0; i < posts.length; ++i) {... */\n      jump(tag_230)\n    tag_231:\n      pop\n        /* \"contracts/WeirdReddit.sol\":3263:3276  filteredPosts */\n      dup1\n        /* \"contracts/WeirdReddit.sol\":3256:3276  return filteredPosts */\n      swap4\n      pop\n      pop\n      pop\n      pop\n        /* \"contracts/WeirdReddit.sol\":2649:3283  function getPostsInSubreddit(string memory subredditName) public view returns (Post[] memory) {... */\n      swap2\n      swap1\n      pop\n      jump\t// out\n        /* \"contracts/WeirdReddit.sol\":1487:1587  function getSubreddits() public view returns (Subreddit[] memory) {... */\n    tag_53:\n        /* \"contracts/WeirdReddit.sol\":1533:1551  Subreddit[] memory */\n      0x60\n        /* \"contracts/WeirdReddit.sol\":1570:1580  subreddits */\n      0x00\n        /* \"contracts/WeirdReddit.sol\":1563:1580  return subreddits */\n      dup1\n      sload\n      dup1\n      0x20\n      mul\n      0x20\n      add\n      mload(0x40)\n      swap1\n      dup2\n      add\n      0x40\n      mstore\n      dup1\n      swap3\n      swap2\n      swap1\n      dup2\n      dup2\n      mstore\n      0x20\n      add\n      0x00\n      swap1\n    tag_270:\n      dup3\n      dup3\n      lt\n      iszero\n      tag_271\n      jumpi\n      dup4\n      dup3\n      swap1\n      0x00\n      mstore\n      keccak256(0x00, 0x20)\n      add\n      mload(0x40)\n      dup1\n      0x20\n      add\n      0x40\n      mstore\n      swap1\n      dup2\n      0x00\n      dup3\n      add\n      dup1\n      sload\n      tag_273\n      swap1\n      tag_82\n      jump\t// in\n    tag_273:\n      dup1\n      0x1f\n      add\n      0x20\n      dup1\n      swap2\n      div\n      mul\n      0x20\n      add\n      mload(0x40)\n      swap1\n      dup2\n      add\n      0x40\n      mstore\n      dup1\n      swap3\n      swap2\n      swap1\n      dup2\n      dup2\n      mstore\n      0x20\n      add\n      dup3\n      dup1\n      sload\n      tag_274\n      swap1\n      tag_82\n      jump\t// in\n    tag_274:\n      dup1\n      iszero\n      tag_275\n      jumpi\n      dup1\n      0x1f\n      lt\n      tag_276\n      jumpi\n      0x0100\n      dup1\n      dup4\n      sload\n      div\n      mul\n      dup4\n      mstore\n      swap2\n      0x20\n      add\n      swap2\n      jump(tag_275)\n    tag_276:\n      dup3\n      add\n      swap2\n      swap1\n      0x00\n      mstore\n      keccak256(0x00, 0x20)\n      swap1\n    tag_277:\n      dup2\n      sload\n      dup2\n      mstore\n      swap1\n      0x01\n      add\n      swap1\n      0x20\n      add\n      dup1\n      dup4\n      gt\n      tag_277\n      jumpi\n      dup3\n      swap1\n      sub\n      0x1f\n      and\n      dup3\n      add\n      swap2\n    tag_275:\n      pop\n      pop\n      pop\n      pop\n      pop\n      dup2\n      mstore\n      pop\n      pop\n      dup2\n      mstore\n      0x20\n      add\n      swap1\n      0x01\n      add\n      swap1\n      jump(tag_270)\n    tag_271:\n      pop\n      pop\n      pop\n      pop\n      swap1\n      pop\n        /* \"contracts/WeirdReddit.sol\":1487:1587  function getSubreddits() public view returns (Subreddit[] memory) {... */\n      swap1\n      jump\t// out\n        /* \"contracts/WeirdReddit.sol\":229:408  function compare(string memory str1, string memory str2) private pure returns (bool) {... */\n    tag_87:\n        /* \"contracts/WeirdReddit.sol\":308:312  bool */\n      0x00\n        /* \"contracts/WeirdReddit.sol\":395:399  str2 */\n      dup2\n        /* \"contracts/WeirdReddit.sol\":378:400  abi.encodePacked(str2) */\n      add(0x20, mload(0x40))\n      tag_279\n      swap2\n      swap1\n      tag_280\n      jump\t// in\n    tag_279:\n      mload(0x40)\n      0x20\n      dup2\n      dup4\n      sub\n      sub\n      dup2\n      mstore\n      swap1\n      0x40\n      mstore\n        /* \"contracts/WeirdReddit.sol\":368:401  keccak256(abi.encodePacked(str2)) */\n      dup1\n      mload\n      swap1\n      0x20\n      add\n      keccak256\n        /* \"contracts/WeirdReddit.sol\":358:362  str1 */\n      dup4\n        /* \"contracts/WeirdReddit.sol\":341:363  abi.encodePacked(str1) */\n      add(0x20, mload(0x40))\n      tag_281\n      swap2\n      swap1\n      tag_280\n      jump\t// in\n    tag_281:\n      mload(0x40)\n      0x20\n      dup2\n      dup4\n      sub\n      sub\n      dup2\n      mstore\n      swap1\n      0x40\n      mstore\n        /* \"contracts/WeirdReddit.sol\":331:364  keccak256(abi.encodePacked(str1)) */\n      dup1\n      mload\n      swap1\n      0x20\n      add\n      keccak256\n        /* \"contracts/WeirdReddit.sol\":331:401  keccak256(abi.encodePacked(str1)) == keccak256(abi.encodePacked(str2)) */\n      eq\n        /* \"contracts/WeirdReddit.sol\":324:401  return keccak256(abi.encodePacked(str1)) == keccak256(abi.encodePacked(str2)) */\n      swap1\n      pop\n        /* \"contracts/WeirdReddit.sol\":229:408  function compare(string memory str1, string memory str2) private pure returns (bool) {... */\n      swap3\n      swap2\n      pop\n      pop\n      jump\t// out\n    tag_170:\n      mload(0x40)\n      dup1\n      0x80\n      add\n      0x40\n      mstore\n      dup1\n      0x60\n      dup2\n      mstore\n      0x20\n      add\n      0x60\n      dup2\n      mstore\n      0x20\n      add\n      0x60\n      dup2\n      mstore\n      0x20\n      add\n      0x60\n      dup2\n      mstore\n      pop\n      swap1\n      jump\t// out\n        /* \"#utility.yul\":7:82   */\n    tag_282:\n        /* \"#utility.yul\":40:46   */\n      0x00\n        /* \"#utility.yul\":73:75   */\n      0x40\n        /* \"#utility.yul\":67:76   */\n      mload\n        /* \"#utility.yul\":57:76   */\n      swap1\n      pop\n        /* \"#utility.yul\":7:82   */\n      swap1\n      jump\t// out\n        /* \"#utility.yul\":88:205   */\n    tag_283:\n        /* \"#utility.yul\":197:198   */\n      0x00\n        /* \"#utility.yul\":194:195   */\n      dup1\n        /* \"#utility.yul\":187:199   */\n      revert\n        /* \"#utility.yul\":211:328   */\n    tag_284:\n        /* \"#utility.yul\":320:321   */\n      0x00\n        /* \"#utility.yul\":317:318   */\n      dup1\n        /* \"#utility.yul\":310:322   */\n      revert\n        /* \"#utility.yul\":334:451   */\n    tag_285:\n        /* \"#utility.yul\":443:444   */\n      0x00\n        /* \"#utility.yul\":440:441   */\n      dup1\n        /* \"#utility.yul\":433:445   */\n      revert\n        /* \"#utility.yul\":457:574   */\n    tag_286:\n        /* \"#utility.yul\":566:567   */\n      0x00\n        /* \"#utility.yul\":563:564   */\n      dup1\n        /* \"#utility.yul\":556:568   */\n      revert\n        /* \"#utility.yul\":580:682   */\n    tag_287:\n        /* \"#utility.yul\":621:627   */\n      0x00\n        /* \"#utility.yul\":672:674   */\n      0x1f\n        /* \"#utility.yul\":668:675   */\n      not\n        /* \"#utility.yul\":663:665   */\n      0x1f\n        /* \"#utility.yul\":656:661   */\n      dup4\n        /* \"#utility.yul\":652:666   */\n      add\n        /* \"#utility.yul\":648:676   */\n      and\n        /* \"#utility.yul\":638:676   */\n      swap1\n      pop\n        /* \"#utility.yul\":580:682   */\n      swap2\n      swap1\n      pop\n      jump\t// out\n        /* \"#utility.yul\":688:868   */\n    tag_226:\n        /* \"#utility.yul\":736:813   */\n      0x4e487b7100000000000000000000000000000000000000000000000000000000\n        /* \"#utility.yul\":733:734   */\n      0x00\n        /* \"#utility.yul\":726:814   */\n      mstore\n        /* \"#utility.yul\":833:837   */\n      0x41\n        /* \"#utility.yul\":830:831   */\n      0x04\n        /* \"#utility.yul\":823:838   */\n      mstore\n        /* \"#utility.yul\":857:861   */\n      0x24\n        /* \"#utility.yul\":854:855   */\n      0x00\n        /* \"#utility.yul\":847:862   */\n      revert\n        /* \"#utility.yul\":874:1155   */\n    tag_288:\n        /* \"#utility.yul\":957:984   */\n      tag_344\n        /* \"#utility.yul\":979:983   */\n      dup3\n        /* \"#utility.yul\":957:984   */\n      tag_287\n      jump\t// in\n    tag_344:\n        /* \"#utility.yul\":949:955   */\n      dup2\n        /* \"#utility.yul\":945:985   */\n      add\n        /* \"#utility.yul\":1087:1093   */\n      dup2\n        /* \"#utility.yul\":1075:1085   */\n      dup2\n        /* \"#utility.yul\":1072:1094   */\n      lt\n        /* \"#utility.yul\":1051:1069   */\n      0xffffffffffffffff\n        /* \"#utility.yul\":1039:1049   */\n      dup3\n        /* \"#utility.yul\":1036:1070   */\n      gt\n        /* \"#utility.yul\":1033:1095   */\n      or\n        /* \"#utility.yul\":1030:1118   */\n      iszero\n      tag_345\n      jumpi\n        /* \"#utility.yul\":1098:1116   */\n      tag_346\n      tag_226\n      jump\t// in\n    tag_346:\n        /* \"#utility.yul\":1030:1118   */\n    tag_345:\n        /* \"#utility.yul\":1138:1148   */\n      dup1\n        /* \"#utility.yul\":1134:1136   */\n      0x40\n        /* \"#utility.yul\":1127:1149   */\n      mstore\n        /* \"#utility.yul\":917:1155   */\n      pop\n        /* \"#utility.yul\":874:1155   */\n      pop\n      pop\n      jump\t// out\n        /* \"#utility.yul\":1161:1290   */\n    tag_289:\n        /* \"#utility.yul\":1195:1201   */\n      0x00\n        /* \"#utility.yul\":1222:1242   */\n      tag_348\n      tag_282\n      jump\t// in\n    tag_348:\n        /* \"#utility.yul\":1212:1242   */\n      swap1\n      pop\n        /* \"#utility.yul\":1251:1284   */\n      tag_349\n        /* \"#utility.yul\":1279:1283   */\n      dup3\n        /* \"#utility.yul\":1271:1277   */\n      dup3\n        /* \"#utility.yul\":1251:1284   */\n      tag_288\n      jump\t// in\n    tag_349:\n        /* \"#utility.yul\":1161:1290   */\n      swap2\n      swap1\n      pop\n      jump\t// out\n        /* \"#utility.yul\":1296:1604   */\n    tag_290:\n        /* \"#utility.yul\":1358:1362   */\n      0x00\n        /* \"#utility.yul\":1448:1466   */\n      0xffffffffffffffff\n        /* \"#utility.yul\":1440:1446   */\n      dup3\n        /* \"#utility.yul\":1437:1467   */\n      gt\n        /* \"#utility.yul\":1434:1490   */\n      iszero\n      tag_351\n      jumpi\n        /* \"#utility.yul\":1470:1488   */\n      tag_352\n      tag_226\n      jump\t// in\n    tag_352:\n        /* \"#utility.yul\":1434:1490   */\n    tag_351:\n        /* \"#utility.yul\":1508:1537   */\n      tag_353\n        /* \"#utility.yul\":1530:1536   */\n      dup3\n        /* \"#utility.yul\":1508:1537   */\n      tag_287\n      jump\t// in\n    tag_353:\n        /* \"#utility.yul\":1500:1537   */\n      swap1\n      pop\n        /* \"#utility.yul\":1592:1596   */\n      0x20\n        /* \"#utility.yul\":1586:1590   */\n      dup2\n        /* \"#utility.yul\":1582:1597   */\n      add\n        /* \"#utility.yul\":1574:1597   */\n      swap1\n      pop\n        /* \"#utility.yul\":1296:1604   */\n      swap2\n      swap1\n      pop\n      jump\t// out\n        /* \"#utility.yul\":1610:1756   */\n    tag_291:\n        /* \"#utility.yul\":1707:1713   */\n      dup3\n        /* \"#utility.yul\":1702:1705   */\n      dup2\n        /* \"#utility.yul\":1697:1700   */\n      dup4\n        /* \"#utility.yul\":1684:1714   */\n      calldatacopy\n        /* \"#utility.yul\":1748:1749   */\n      0x00\n        /* \"#utility.yul\":1739:1745   */\n      dup4\n        /* \"#utility.yul\":1734:1737   */\n      dup4\n        /* \"#utility.yul\":1730:1746   */\n      add\n        /* \"#utility.yul\":1723:1750   */\n      mstore\n        /* \"#utility.yul\":1610:1756   */\n      pop\n      pop\n      pop\n      jump\t// out\n        /* \"#utility.yul\":1762:2187   */\n    tag_292:\n        /* \"#utility.yul\":1840:1845   */\n      0x00\n        /* \"#utility.yul\":1865:1931   */\n      tag_356\n        /* \"#utility.yul\":1881:1930   */\n      tag_357\n        /* \"#utility.yul\":1923:1929   */\n      dup5\n        /* \"#utility.yul\":1881:1930   */\n      tag_290\n      jump\t// in\n    tag_357:\n        /* \"#utility.yul\":1865:1931   */\n      tag_289\n      jump\t// in\n    tag_356:\n        /* \"#utility.yul\":1856:1931   */\n      swap1\n      pop\n        /* \"#utility.yul\":1954:1960   */\n      dup3\n        /* \"#utility.yul\":1947:1952   */\n      dup2\n        /* \"#utility.yul\":1940:1961   */\n      mstore\n        /* \"#utility.yul\":1992:1996   */\n      0x20\n        /* \"#utility.yul\":1985:1990   */\n      dup2\n        /* \"#utility.yul\":1981:1997   */\n      add\n        /* \"#utility.yul\":2030:2033   */\n      dup5\n        /* \"#utility.yul\":2021:2027   */\n      dup5\n        /* \"#utility.yul\":2016:2019   */\n      dup5\n        /* \"#utility.yul\":2012:2028   */\n      add\n        /* \"#utility.yul\":2009:2034   */\n      gt\n        /* \"#utility.yul\":2006:2118   */\n      iszero\n      tag_358\n      jumpi\n        /* \"#utility.yul\":2037:2116   */\n      tag_359\n      tag_286\n      jump\t// in\n    tag_359:\n        /* \"#utility.yul\":2006:2118   */\n    tag_358:\n        /* \"#utility.yul\":2127:2181   */\n      tag_360\n        /* \"#utility.yul\":2174:2180   */\n      dup5\n        /* \"#utility.yul\":2169:2172   */\n      dup3\n        /* \"#utility.yul\":2164:2167   */\n      dup6\n        /* \"#utility.yul\":2127:2181   */\n      tag_291\n      jump\t// in\n    tag_360:\n        /* \"#utility.yul\":1846:2187   */\n      pop\n        /* \"#utility.yul\":1762:2187   */\n      swap4\n      swap3\n      pop\n      pop\n      pop\n      jump\t// out\n        /* \"#utility.yul\":2207:2547   */\n    tag_293:\n        /* \"#utility.yul\":2263:2268   */\n      0x00\n        /* \"#utility.yul\":2312:2315   */\n      dup3\n        /* \"#utility.yul\":2305:2309   */\n      0x1f\n        /* \"#utility.yul\":2297:2303   */\n      dup4\n        /* \"#utility.yul\":2293:2310   */\n      add\n        /* \"#utility.yul\":2289:2316   */\n      slt\n        /* \"#utility.yul\":2279:2401   */\n      tag_362\n      jumpi\n        /* \"#utility.yul\":2320:2399   */\n      tag_363\n      tag_285\n      jump\t// in\n    tag_363:\n        /* \"#utility.yul\":2279:2401   */\n    tag_362:\n        /* \"#utility.yul\":2437:2443   */\n      dup2\n        /* \"#utility.yul\":2424:2444   */\n      calldataload\n        /* \"#utility.yul\":2462:2541   */\n      tag_364\n        /* \"#utility.yul\":2537:2540   */\n      dup5\n        /* \"#utility.yul\":2529:2535   */\n      dup3\n        /* \"#utility.yul\":2522:2526   */\n      0x20\n        /* \"#utility.yul\":2514:2520   */\n      dup7\n        /* \"#utility.yul\":2510:2527   */\n      add\n        /* \"#utility.yul\":2462:2541   */\n      tag_292\n      jump\t// in\n    tag_364:\n        /* \"#utility.yul\":2453:2541   */\n      swap2\n      pop\n        /* \"#utility.yul\":2269:2547   */\n      pop\n        /* \"#utility.yul\":2207:2547   */\n      swap3\n      swap2\n      pop\n      pop\n      jump\t// out\n        /* \"#utility.yul\":2553:4038   */\n    tag_16:\n        /* \"#utility.yul\":2679:2685   */\n      0x00\n        /* \"#utility.yul\":2687:2693   */\n      dup1\n        /* \"#utility.yul\":2695:2701   */\n      0x00\n        /* \"#utility.yul\":2703:2709   */\n      dup1\n        /* \"#utility.yul\":2752:2755   */\n      0x80\n        /* \"#utility.yul\":2740:2749   */\n      dup6\n        /* \"#utility.yul\":2731:2738   */\n      dup8\n        /* \"#utility.yul\":2727:2750   */\n      sub\n        /* \"#utility.yul\":2723:2756   */\n      slt\n        /* \"#utility.yul\":2720:2840   */\n      iszero\n      tag_366\n      jumpi\n        /* \"#utility.yul\":2759:2838   */\n      tag_367\n      tag_283\n      jump\t// in\n    tag_367:\n        /* \"#utility.yul\":2720:2840   */\n    tag_366:\n        /* \"#utility.yul\":2907:2908   */\n      0x00\n        /* \"#utility.yul\":2896:2905   */\n      dup6\n        /* \"#utility.yul\":2892:2909   */\n      add\n        /* \"#utility.yul\":2879:2910   */\n      calldataload\n        /* \"#utility.yul\":2937:2955   */\n      0xffffffffffffffff\n        /* \"#utility.yul\":2929:2935   */\n      dup2\n        /* \"#utility.yul\":2926:2956   */\n      gt\n        /* \"#utility.yul\":2923:3040   */\n      iszero\n      tag_368\n      jumpi\n        /* \"#utility.yul\":2959:3038   */\n      tag_369\n      tag_284\n      jump\t// in\n    tag_369:\n        /* \"#utility.yul\":2923:3040   */\n    tag_368:\n        /* \"#utility.yul\":3064:3127   */\n      tag_370\n        /* \"#utility.yul\":3119:3126   */\n      dup8\n        /* \"#utility.yul\":3110:3116   */\n      dup3\n        /* \"#utility.yul\":3099:3108   */\n      dup9\n        /* \"#utility.yul\":3095:3117   */\n      add\n        /* \"#utility.yul\":3064:3127   */\n      tag_293\n      jump\t// in\n    tag_370:\n        /* \"#utility.yul\":3054:3127   */\n      swap5\n      pop\n        /* \"#utility.yul\":2850:3137   */\n      pop\n        /* \"#utility.yul\":3204:3206   */\n      0x20\n        /* \"#utility.yul\":3193:3202   */\n      dup6\n        /* \"#utility.yul\":3189:3207   */\n      add\n        /* \"#utility.yul\":3176:3208   */\n      calldataload\n        /* \"#utility.yul\":3235:3253   */\n      0xffffffffffffffff\n        /* \"#utility.yul\":3227:3233   */\n      dup2\n        /* \"#utility.yul\":3224:3254   */\n      gt\n        /* \"#utility.yul\":3221:3338   */\n      iszero\n      tag_371\n      jumpi\n        /* \"#utility.yul\":3257:3336   */\n      tag_372\n      tag_284\n      jump\t// in\n    tag_372:\n        /* \"#utility.yul\":3221:3338   */\n    tag_371:\n        /* \"#utility.yul\":3362:3425   */\n      tag_373\n        /* \"#utility.yul\":3417:3424   */\n      dup8\n        /* \"#utility.yul\":3408:3414   */\n      dup3\n        /* \"#utility.yul\":3397:3406   */\n      dup9\n        /* \"#utility.yul\":3393:3415   */\n      add\n        /* \"#utility.yul\":3362:3425   */\n      tag_293\n      jump\t// in\n    tag_373:\n        /* \"#utility.yul\":3352:3425   */\n      swap4\n      pop\n        /* \"#utility.yul\":3147:3435   */\n      pop\n        /* \"#utility.yul\":3502:3504   */\n      0x40\n        /* \"#utility.yul\":3491:3500   */\n      dup6\n        /* \"#utility.yul\":3487:3505   */\n      add\n        /* \"#utility.yul\":3474:3506   */\n      calldataload\n        /* \"#utility.yul\":3533:3551   */\n      0xffffffffffffffff\n        /* \"#utility.yul\":3525:3531   */\n      dup2\n        /* \"#utility.yul\":3522:3552   */\n      gt\n        /* \"#utility.yul\":3519:3636   */\n      iszero\n      tag_374\n      jumpi\n        /* \"#utility.yul\":3555:3634   */\n      tag_375\n      tag_284\n      jump\t// in\n    tag_375:\n        /* \"#utility.yul\":3519:3636   */\n    tag_374:\n        /* \"#utility.yul\":3660:3723   */\n      tag_376\n        /* \"#utility.yul\":3715:3722   */\n      dup8\n        /* \"#utility.yul\":3706:3712   */\n      dup3\n        /* \"#utility.yul\":3695:3704   */\n      dup9\n        /* \"#utility.yul\":3691:3713   */\n      add\n        /* \"#utility.yul\":3660:3723   */\n      tag_293\n      jump\t// in\n    tag_376:\n        /* \"#utility.yul\":3650:3723   */\n      swap3\n      pop\n        /* \"#utility.yul\":3445:3733   */\n      pop\n        /* \"#utility.yul\":3800:3802   */\n      0x60\n        /* \"#utility.yul\":3789:3798   */\n      dup6\n        /* \"#utility.yul\":3785:3803   */\n      add\n        /* \"#utility.yul\":3772:3804   */\n      calldataload\n        /* \"#utility.yul\":3831:3849   */\n      0xffffffffffffffff\n        /* \"#utility.yul\":3823:3829   */\n      dup2\n        /* \"#utility.yul\":3820:3850   */\n      gt\n        /* \"#utility.yul\":3817:3934   */\n      iszero\n      tag_377\n      jumpi\n        /* \"#utility.yul\":3853:3932   */\n      tag_378\n      tag_284\n      jump\t// in\n    tag_378:\n        /* \"#utility.yul\":3817:3934   */\n    tag_377:\n        /* \"#utility.yul\":3958:4021   */\n      tag_379\n        /* \"#utility.yul\":4013:4020   */\n      dup8\n        /* \"#utility.yul\":4004:4010   */\n      dup3\n        /* \"#utility.yul\":3993:4002   */\n      dup9\n        /* \"#utility.yul\":3989:4011   */\n      add\n        /* \"#utility.yul\":3958:4021   */\n      tag_293\n      jump\t// in\n    tag_379:\n        /* \"#utility.yul\":3948:4021   */\n      swap2\n      pop\n        /* \"#utility.yul\":3743:4031   */\n      pop\n        /* \"#utility.yul\":2553:4038   */\n      swap3\n      swap6\n      swap2\n      swap5\n      pop\n      swap3\n      pop\n      jump\t// out\n        /* \"#utility.yul\":4044:4553   */\n    tag_20:\n        /* \"#utility.yul\":4113:4119   */\n      0x00\n        /* \"#utility.yul\":4162:4164   */\n      0x20\n        /* \"#utility.yul\":4150:4159   */\n      dup3\n        /* \"#utility.yul\":4141:4148   */\n      dup5\n        /* \"#utility.yul\":4137:4160   */\n      sub\n        /* \"#utility.yul\":4133:4165   */\n      slt\n        /* \"#utility.yul\":4130:4249   */\n      iszero\n      tag_381\n      jumpi\n        /* \"#utility.yul\":4168:4247   */\n      tag_382\n      tag_283\n      jump\t// in\n    tag_382:\n        /* \"#utility.yul\":4130:4249   */\n    tag_381:\n        /* \"#utility.yul\":4316:4317   */\n      0x00\n        /* \"#utility.yul\":4305:4314   */\n      dup3\n        /* \"#utility.yul\":4301:4318   */\n      add\n        /* \"#utility.yul\":4288:4319   */\n      calldataload\n        /* \"#utility.yul\":4346:4364   */\n      0xffffffffffffffff\n        /* \"#utility.yul\":4338:4344   */\n      dup2\n        /* \"#utility.yul\":4335:4365   */\n      gt\n        /* \"#utility.yul\":4332:4449   */\n      iszero\n      tag_383\n      jumpi\n        /* \"#utility.yul\":4368:4447   */\n      tag_384\n      tag_284\n      jump\t// in\n    tag_384:\n        /* \"#utility.yul\":4332:4449   */\n    tag_383:\n        /* \"#utility.yul\":4473:4536   */\n      tag_385\n        /* \"#utility.yul\":4528:4535   */\n      dup5\n        /* \"#utility.yul\":4519:4525   */\n      dup3\n        /* \"#utility.yul\":4508:4517   */\n      dup6\n        /* \"#utility.yul\":4504:4526   */\n      add\n        /* \"#utility.yul\":4473:4536   */\n      tag_293\n      jump\t// in\n    tag_385:\n        /* \"#utility.yul\":4463:4536   */\n      swap2\n      pop\n        /* \"#utility.yul\":4259:4546   */\n      pop\n        /* \"#utility.yul\":4044:4553   */\n      swap3\n      swap2\n      pop\n      pop\n      jump\t// out\n        /* \"#utility.yul\":4559:4649   */\n    tag_294:\n        /* \"#utility.yul\":4593:4600   */\n      0x00\n        /* \"#utility.yul\":4636:4641   */\n      dup2\n        /* \"#utility.yul\":4629:4642   */\n      iszero\n        /* \"#utility.yul\":4622:4643   */\n      iszero\n        /* \"#utility.yul\":4611:4643   */\n      swap1\n      pop\n        /* \"#utility.yul\":4559:4649   */\n      swap2\n      swap1\n      pop\n      jump\t// out\n        /* \"#utility.yul\":4655:4764   */\n    tag_295:\n        /* \"#utility.yul\":4736:4757   */\n      tag_388\n        /* \"#utility.yul\":4751:4756   */\n      dup2\n        /* \"#utility.yul\":4736:4757   */\n      tag_294\n      jump\t// in\n    tag_388:\n        /* \"#utility.yul\":4731:4734   */\n      dup3\n        /* \"#utility.yul\":4724:4758   */\n      mstore\n        /* \"#utility.yul\":4655:4764   */\n      pop\n      pop\n      jump\t// out\n        /* \"#utility.yul\":4770:4980   */\n    tag_26:\n        /* \"#utility.yul\":4857:4861   */\n      0x00\n        /* \"#utility.yul\":4895:4897   */\n      0x20\n        /* \"#utility.yul\":4884:4893   */\n      dup3\n        /* \"#utility.yul\":4880:4898   */\n      add\n        /* \"#utility.yul\":4872:4898   */\n      swap1\n      pop\n        /* \"#utility.yul\":4908:4973   */\n      tag_390\n        /* \"#utility.yul\":4970:4971   */\n      0x00\n        /* \"#utility.yul\":4959:4968   */\n      dup4\n        /* \"#utility.yul\":4955:4972   */\n      add\n        /* \"#utility.yul\":4946:4952   */\n      dup5\n        /* \"#utility.yul\":4908:4973   */\n      tag_295\n      jump\t// in\n    tag_390:\n        /* \"#utility.yul\":4770:4980   */\n      swap3\n      swap2\n      pop\n      pop\n      jump\t// out\n        /* \"#utility.yul\":4986:5120   */\n    tag_296:\n        /* \"#utility.yul\":5073:5079   */\n      0x00\n        /* \"#utility.yul\":5107:5112   */\n      dup2\n        /* \"#utility.yul\":5101:5113   */\n      mload\n        /* \"#utility.yul\":5091:5113   */\n      swap1\n      pop\n        /* \"#utility.yul\":4986:5120   */\n      swap2\n      swap1\n      pop\n      jump\t// out\n        /* \"#utility.yul\":5126:5330   */\n    tag_297:\n        /* \"#utility.yul\":5245:5256   */\n      0x00\n        /* \"#utility.yul\":5279:5285   */\n      dup3\n        /* \"#utility.yul\":5274:5277   */\n      dup3\n        /* \"#utility.yul\":5267:5286   */\n      mstore\n        /* \"#utility.yul\":5319:5323   */\n      0x20\n        /* \"#utility.yul\":5314:5317   */\n      dup3\n        /* \"#utility.yul\":5310:5324   */\n      add\n        /* \"#utility.yul\":5295:5324   */\n      swap1\n      pop\n        /* \"#utility.yul\":5126:5330   */\n      swap3\n      swap2\n      pop\n      pop\n      jump\t// out\n        /* \"#utility.yul\":5336:5488   */\n    tag_298:\n        /* \"#utility.yul\":5423:5427   */\n      0x00\n        /* \"#utility.yul\":5446:5449   */\n      dup2\n        /* \"#utility.yul\":5438:5449   */\n      swap1\n      pop\n        /* \"#utility.yul\":5476:5480   */\n      0x20\n        /* \"#utility.yul\":5471:5474   */\n      dup3\n        /* \"#utility.yul\":5467:5481   */\n      add\n        /* \"#utility.yul\":5459:5481   */\n      swap1\n      pop\n        /* \"#utility.yul\":5336:5488   */\n      swap2\n      swap1\n      pop\n      jump\t// out\n        /* \"#utility.yul\":5494:5593   */\n    tag_299:\n        /* \"#utility.yul\":5546:5552   */\n      0x00\n        /* \"#utility.yul\":5580:5585   */\n      dup2\n        /* \"#utility.yul\":5574:5586   */\n      mload\n        /* \"#utility.yul\":5564:5586   */\n      swap1\n      pop\n        /* \"#utility.yul\":5494:5593   */\n      swap2\n      swap1\n      pop\n      jump\t// out\n        /* \"#utility.yul\":5599:5758   */\n    tag_300:\n        /* \"#utility.yul\":5673:5684   */\n      0x00\n        /* \"#utility.yul\":5707:5713   */\n      dup3\n        /* \"#utility.yul\":5702:5705   */\n      dup3\n        /* \"#utility.yul\":5695:5714   */\n      mstore\n        /* \"#utility.yul\":5747:5751   */\n      0x20\n        /* \"#utility.yul\":5742:5745   */\n      dup3\n        /* \"#utility.yul\":5738:5752   */\n      add\n        /* \"#utility.yul\":5723:5752   */\n      swap1\n      pop\n        /* \"#utility.yul\":5599:5758   */\n      swap3\n      swap2\n      pop\n      pop\n      jump\t// out\n        /* \"#utility.yul\":5764:6010   */\n    tag_301:\n        /* \"#utility.yul\":5845:5846   */\n      0x00\n        /* \"#utility.yul\":5855:5968   */\n    tag_397:\n        /* \"#utility.yul\":5869:5875   */\n      dup4\n        /* \"#utility.yul\":5866:5867   */\n      dup2\n        /* \"#utility.yul\":5863:5876   */\n      lt\n        /* \"#utility.yul\":5855:5968   */\n      iszero\n      tag_399\n      jumpi\n        /* \"#utility.yul\":5954:5955   */\n      dup1\n        /* \"#utility.yul\":5949:5952   */\n      dup3\n        /* \"#utility.yul\":5945:5956   */\n      add\n        /* \"#utility.yul\":5939:5957   */\n      mload\n        /* \"#utility.yul\":5935:5936   */\n      dup2\n        /* \"#utility.yul\":5930:5933   */\n      dup5\n        /* \"#utility.yul\":5926:5937   */\n      add\n        /* \"#utility.yul\":5919:5958   */\n      mstore\n        /* \"#utility.yul\":5891:5893   */\n      0x20\n        /* \"#utility.yul\":5888:5889   */\n      dup2\n        /* \"#utility.yul\":5884:5894   */\n      add\n        /* \"#utility.yul\":5879:5894   */\n      swap1\n      pop\n        /* \"#utility.yul\":5855:5968   */\n      jump(tag_397)\n    tag_399:\n        /* \"#utility.yul\":6002:6003   */\n      0x00\n        /* \"#utility.yul\":5993:5999   */\n      dup5\n        /* \"#utility.yul\":5988:5991   */\n      dup5\n        /* \"#utility.yul\":5984:6000   */\n      add\n        /* \"#utility.yul\":5977:6004   */\n      mstore\n        /* \"#utility.yul\":5826:6010   */\n      pop\n        /* \"#utility.yul\":5764:6010   */\n      pop\n      pop\n      pop\n      jump\t// out\n        /* \"#utility.yul\":6016:6373   */\n    tag_302:\n        /* \"#utility.yul\":6094:6097   */\n      0x00\n        /* \"#utility.yul\":6122:6161   */\n      tag_401\n        /* \"#utility.yul\":6155:6160   */\n      dup3\n        /* \"#utility.yul\":6122:6161   */\n      tag_299\n      jump\t// in\n    tag_401:\n        /* \"#utility.yul\":6177:6238   */\n      tag_402\n        /* \"#utility.yul\":6231:6237   */\n      dup2\n        /* \"#utility.yul\":6226:6229   */\n      dup6\n        /* \"#utility.yul\":6177:6238   */\n      tag_300\n      jump\t// in\n    tag_402:\n        /* \"#utility.yul\":6170:6238   */\n      swap4\n      pop\n        /* \"#utility.yul\":6247:6312   */\n      tag_403\n        /* \"#utility.yul\":6305:6311   */\n      dup2\n        /* \"#utility.yul\":6300:6303   */\n      dup6\n        /* \"#utility.yul\":6293:6297   */\n      0x20\n        /* \"#utility.yul\":6286:6291   */\n      dup7\n        /* \"#utility.yul\":6282:6298   */\n      add\n        /* \"#utility.yul\":6247:6312   */\n      tag_301\n      jump\t// in\n    tag_403:\n        /* \"#utility.yul\":6337:6366   */\n      tag_404\n        /* \"#utility.yul\":6359:6365   */\n      dup2\n        /* \"#utility.yul\":6337:6366   */\n      tag_287\n      jump\t// in\n    tag_404:\n        /* \"#utility.yul\":6332:6335   */\n      dup5\n        /* \"#utility.yul\":6328:6367   */\n      add\n        /* \"#utility.yul\":6321:6367   */\n      swap2\n      pop\n        /* \"#utility.yul\":6098:6373   */\n      pop\n        /* \"#utility.yul\":6016:6373   */\n      swap3\n      swap2\n      pop\n      pop\n      jump\t// out\n        /* \"#utility.yul\":6437:7595   */\n    tag_303:\n        /* \"#utility.yul\":6536:6539   */\n      0x00\n        /* \"#utility.yul\":6572:6576   */\n      0x80\n        /* \"#utility.yul\":6567:6570   */\n      dup4\n        /* \"#utility.yul\":6563:6577   */\n      add\n        /* \"#utility.yul\":6657:6661   */\n      0x00\n        /* \"#utility.yul\":6650:6655   */\n      dup4\n        /* \"#utility.yul\":6646:6662   */\n      add\n        /* \"#utility.yul\":6640:6663   */\n      mload\n        /* \"#utility.yul\":6710:6713   */\n      dup5\n        /* \"#utility.yul\":6704:6708   */\n      dup3\n        /* \"#utility.yul\":6700:6714   */\n      sub\n        /* \"#utility.yul\":6693:6697   */\n      0x00\n        /* \"#utility.yul\":6688:6691   */\n      dup7\n        /* \"#utility.yul\":6684:6698   */\n      add\n        /* \"#utility.yul\":6677:6715   */\n      mstore\n        /* \"#utility.yul\":6736:6809   */\n      tag_406\n        /* \"#utility.yul\":6804:6808   */\n      dup3\n        /* \"#utility.yul\":6790:6802   */\n      dup3\n        /* \"#utility.yul\":6736:6809   */\n      tag_302\n      jump\t// in\n    tag_406:\n        /* \"#utility.yul\":6728:6809   */\n      swap2\n      pop\n        /* \"#utility.yul\":6587:6820   */\n      pop\n        /* \"#utility.yul\":6911:6915   */\n      0x20\n        /* \"#utility.yul\":6904:6909   */\n      dup4\n        /* \"#utility.yul\":6900:6916   */\n      add\n        /* \"#utility.yul\":6894:6917   */\n      mload\n        /* \"#utility.yul\":6964:6967   */\n      dup5\n        /* \"#utility.yul\":6958:6962   */\n      dup3\n        /* \"#utility.yul\":6954:6968   */\n      sub\n        /* \"#utility.yul\":6947:6951   */\n      0x20\n        /* \"#utility.yul\":6942:6945   */\n      dup7\n        /* \"#utility.yul\":6938:6952   */\n      add\n        /* \"#utility.yul\":6931:6969   */\n      mstore\n        /* \"#utility.yul\":6990:7063   */\n      tag_407\n        /* \"#utility.yul\":7058:7062   */\n      dup3\n        /* \"#utility.yul\":7044:7056   */\n      dup3\n        /* \"#utility.yul\":6990:7063   */\n      tag_302\n      jump\t// in\n    tag_407:\n        /* \"#utility.yul\":6982:7063   */\n      swap2\n      pop\n        /* \"#utility.yul\":6830:7074   */\n      pop\n        /* \"#utility.yul\":7157:7161   */\n      0x40\n        /* \"#utility.yul\":7150:7155   */\n      dup4\n        /* \"#utility.yul\":7146:7162   */\n      add\n        /* \"#utility.yul\":7140:7163   */\n      mload\n        /* \"#utility.yul\":7210:7213   */\n      dup5\n        /* \"#utility.yul\":7204:7208   */\n      dup3\n        /* \"#utility.yul\":7200:7214   */\n      sub\n        /* \"#utility.yul\":7193:7197   */\n      0x40\n        /* \"#utility.yul\":7188:7191   */\n      dup7\n        /* \"#utility.yul\":7184:7198   */\n      add\n        /* \"#utility.yul\":7177:7215   */\n      mstore\n        /* \"#utility.yul\":7236:7309   */\n      tag_408\n        /* \"#utility.yul\":7304:7308   */\n      dup3\n        /* \"#utility.yul\":7290:7302   */\n      dup3\n        /* \"#utility.yul\":7236:7309   */\n      tag_302\n      jump\t// in\n    tag_408:\n        /* \"#utility.yul\":7228:7309   */\n      swap2\n      pop\n        /* \"#utility.yul\":7084:7320   */\n      pop\n        /* \"#utility.yul\":7405:7409   */\n      0x60\n        /* \"#utility.yul\":7398:7403   */\n      dup4\n        /* \"#utility.yul\":7394:7410   */\n      add\n        /* \"#utility.yul\":7388:7411   */\n      mload\n        /* \"#utility.yul\":7458:7461   */\n      dup5\n        /* \"#utility.yul\":7452:7456   */\n      dup3\n        /* \"#utility.yul\":7448:7462   */\n      sub\n        /* \"#utility.yul\":7441:7445   */\n      0x60\n        /* \"#utility.yul\":7436:7439   */\n      dup7\n        /* \"#utility.yul\":7432:7446   */\n      add\n        /* \"#utility.yul\":7425:7463   */\n      mstore\n        /* \"#utility.yul\":7484:7557   */\n      tag_409\n        /* \"#utility.yul\":7552:7556   */\n      dup3\n        /* \"#utility.yul\":7538:7550   */\n      dup3\n        /* \"#utility.yul\":7484:7557   */\n      tag_302\n      jump\t// in\n    tag_409:\n        /* \"#utility.yul\":7476:7557   */\n      swap2\n      pop\n        /* \"#utility.yul\":7330:7568   */\n      pop\n        /* \"#utility.yul\":7585:7589   */\n      dup1\n        /* \"#utility.yul\":7578:7589   */\n      swap2\n      pop\n        /* \"#utility.yul\":6541:7595   */\n      pop\n        /* \"#utility.yul\":6437:7595   */\n      swap3\n      swap2\n      pop\n      pop\n      jump\t// out\n        /* \"#utility.yul\":7601:7837   */\n    tag_304:\n        /* \"#utility.yul\":7710:7720   */\n      0x00\n        /* \"#utility.yul\":7745:7831   */\n      tag_411\n        /* \"#utility.yul\":7827:7830   */\n      dup4\n        /* \"#utility.yul\":7819:7825   */\n      dup4\n        /* \"#utility.yul\":7745:7831   */\n      tag_303\n      jump\t// in\n    tag_411:\n        /* \"#utility.yul\":7731:7831   */\n      swap1\n      pop\n        /* \"#utility.yul\":7601:7837   */\n      swap3\n      swap2\n      pop\n      pop\n      jump\t// out\n        /* \"#utility.yul\":7843:7976   */\n    tag_305:\n        /* \"#utility.yul\":7933:7937   */\n      0x00\n        /* \"#utility.yul\":7965:7969   */\n      0x20\n        /* \"#utility.yul\":7960:7963   */\n      dup3\n        /* \"#utility.yul\":7956:7970   */\n      add\n        /* \"#utility.yul\":7948:7970   */\n      swap1\n      pop\n        /* \"#utility.yul\":7843:7976   */\n      swap2\n      swap1\n      pop\n      jump\t// out\n        /* \"#utility.yul\":8044:9115   */\n    tag_306:\n        /* \"#utility.yul\":8203:8206   */\n      0x00\n        /* \"#utility.yul\":8232:8306   */\n      tag_414\n        /* \"#utility.yul\":8300:8305   */\n      dup3\n        /* \"#utility.yul\":8232:8306   */\n      tag_296\n      jump\t// in\n    tag_414:\n        /* \"#utility.yul\":8322:8428   */\n      tag_415\n        /* \"#utility.yul\":8421:8427   */\n      dup2\n        /* \"#utility.yul\":8416:8419   */\n      dup6\n        /* \"#utility.yul\":8322:8428   */\n      tag_297\n      jump\t// in\n    tag_415:\n        /* \"#utility.yul\":8315:8428   */\n      swap4\n      pop\n        /* \"#utility.yul\":8454:8457   */\n      dup4\n        /* \"#utility.yul\":8499:8503   */\n      0x20\n        /* \"#utility.yul\":8491:8497   */\n      dup3\n        /* \"#utility.yul\":8487:8504   */\n      mul\n        /* \"#utility.yul\":8482:8485   */\n      dup6\n        /* \"#utility.yul\":8478:8505   */\n      add\n        /* \"#utility.yul\":8529:8605   */\n      tag_416\n        /* \"#utility.yul\":8599:8604   */\n      dup6\n        /* \"#utility.yul\":8529:8605   */\n      tag_298\n      jump\t// in\n    tag_416:\n        /* \"#utility.yul\":8628:8635   */\n      dup1\n        /* \"#utility.yul\":8659:8660   */\n      0x00\n        /* \"#utility.yul\":8644:9070   */\n    tag_417:\n        /* \"#utility.yul\":8669:8675   */\n      dup6\n        /* \"#utility.yul\":8666:8667   */\n      dup2\n        /* \"#utility.yul\":8663:8676   */\n      lt\n        /* \"#utility.yul\":8644:9070   */\n      iszero\n      tag_419\n      jumpi\n        /* \"#utility.yul\":8740:8749   */\n      dup5\n        /* \"#utility.yul\":8734:8738   */\n      dup5\n        /* \"#utility.yul\":8730:8750   */\n      sub\n        /* \"#utility.yul\":8725:8728   */\n      dup10\n        /* \"#utility.yul\":8718:8751   */\n      mstore\n        /* \"#utility.yul\":8791:8797   */\n      dup2\n        /* \"#utility.yul\":8785:8798   */\n      mload\n        /* \"#utility.yul\":8819:8923   */\n      tag_420\n        /* \"#utility.yul\":8918:8922   */\n      dup6\n        /* \"#utility.yul\":8903:8916   */\n      dup3\n        /* \"#utility.yul\":8819:8923   */\n      tag_304\n      jump\t// in\n    tag_420:\n        /* \"#utility.yul\":8811:8923   */\n      swap5\n      pop\n        /* \"#utility.yul\":8946:9026   */\n      tag_421\n        /* \"#utility.yul\":9019:9025   */\n      dup4\n        /* \"#utility.yul\":8946:9026   */\n      tag_305\n      jump\t// in\n    tag_421:\n        /* \"#utility.yul\":8936:9026   */\n      swap3\n      pop\n        /* \"#utility.yul\":9055:9059   */\n      0x20\n        /* \"#utility.yul\":9050:9053   */\n      dup11\n        /* \"#utility.yul\":9046:9060   */\n      add\n        /* \"#utility.yul\":9039:9060   */\n      swap10\n      pop\n        /* \"#utility.yul\":8704:9070   */\n      pop\n        /* \"#utility.yul\":8691:8692   */\n      0x01\n        /* \"#utility.yul\":8688:8689   */\n      dup2\n        /* \"#utility.yul\":8684:8693   */\n      add\n        /* \"#utility.yul\":8679:8693   */\n      swap1\n      pop\n        /* \"#utility.yul\":8644:9070   */\n      jump(tag_417)\n    tag_419:\n        /* \"#utility.yul\":8648:8662   */\n      pop\n        /* \"#utility.yul\":9086:9090   */\n      dup3\n        /* \"#utility.yul\":9079:9090   */\n      swap8\n      pop\n        /* \"#utility.yul\":9106:9109   */\n      dup8\n        /* \"#utility.yul\":9099:9109   */\n      swap6\n      pop\n        /* \"#utility.yul\":8208:9115   */\n      pop\n      pop\n      pop\n      pop\n      pop\n        /* \"#utility.yul\":8044:9115   */\n      swap3\n      swap2\n      pop\n      pop\n      jump\t// out\n        /* \"#utility.yul\":9121:9574   */\n    tag_30:\n        /* \"#utility.yul\":9304:9308   */\n      0x00\n        /* \"#utility.yul\":9342:9344   */\n      0x20\n        /* \"#utility.yul\":9331:9340   */\n      dup3\n        /* \"#utility.yul\":9327:9345   */\n      add\n        /* \"#utility.yul\":9319:9345   */\n      swap1\n      pop\n        /* \"#utility.yul\":9391:9400   */\n      dup2\n        /* \"#utility.yul\":9385:9389   */\n      dup2\n        /* \"#utility.yul\":9381:9401   */\n      sub\n        /* \"#utility.yul\":9377:9378   */\n      0x00\n        /* \"#utility.yul\":9366:9375   */\n      dup4\n        /* \"#utility.yul\":9362:9379   */\n      add\n        /* \"#utility.yul\":9355:9402   */\n      mstore\n        /* \"#utility.yul\":9419:9567   */\n      tag_423\n        /* \"#utility.yul\":9562:9566   */\n      dup2\n        /* \"#utility.yul\":9553:9559   */\n      dup5\n        /* \"#utility.yul\":9419:9567   */\n      tag_306\n      jump\t// in\n    tag_423:\n        /* \"#utility.yul\":9411:9567   */\n      swap1\n      pop\n        /* \"#utility.yul\":9121:9574   */\n      swap3\n      swap2\n      pop\n      pop\n      jump\t// out\n        /* \"#utility.yul\":9580:10414   */\n    tag_33:\n        /* \"#utility.yul\":9668:9674   */\n      0x00\n        /* \"#utility.yul\":9676:9682   */\n      dup1\n        /* \"#utility.yul\":9725:9727   */\n      0x40\n        /* \"#utility.yul\":9713:9722   */\n      dup4\n        /* \"#utility.yul\":9704:9711   */\n      dup6\n        /* \"#utility.yul\":9700:9723   */\n      sub\n        /* \"#utility.yul\":9696:9728   */\n      slt\n        /* \"#utility.yul\":9693:9812   */\n      iszero\n      tag_425\n      jumpi\n        /* \"#utility.yul\":9731:9810   */\n      tag_426\n      tag_283\n      jump\t// in\n    tag_426:\n        /* \"#utility.yul\":9693:9812   */\n    tag_425:\n        /* \"#utility.yul\":9879:9880   */\n      0x00\n        /* \"#utility.yul\":9868:9877   */\n      dup4\n        /* \"#utility.yul\":9864:9881   */\n      add\n        /* \"#utility.yul\":9851:9882   */\n      calldataload\n        /* \"#utility.yul\":9909:9927   */\n      0xffffffffffffffff\n        /* \"#utility.yul\":9901:9907   */\n      dup2\n        /* \"#utility.yul\":9898:9928   */\n      gt\n        /* \"#utility.yul\":9895:10012   */\n      iszero\n      tag_427\n      jumpi\n        /* \"#utility.yul\":9931:10010   */\n      tag_428\n      tag_284\n      jump\t// in\n    tag_428:\n        /* \"#utility.yul\":9895:10012   */\n    tag_427:\n        /* \"#utility.yul\":10036:10099   */\n      tag_429\n        /* \"#utility.yul\":10091:10098   */\n      dup6\n        /* \"#utility.yul\":10082:10088   */\n      dup3\n        /* \"#utility.yul\":10071:10080   */\n      dup7\n        /* \"#utility.yul\":10067:10089   */\n      add\n        /* \"#utility.yul\":10036:10099   */\n      tag_293\n      jump\t// in\n    tag_429:\n        /* \"#utility.yul\":10026:10099   */\n      swap3\n      pop\n        /* \"#utility.yul\":9822:10109   */\n      pop\n        /* \"#utility.yul\":10176:10178   */\n      0x20\n        /* \"#utility.yul\":10165:10174   */\n      dup4\n        /* \"#utility.yul\":10161:10179   */\n      add\n        /* \"#utility.yul\":10148:10180   */\n      calldataload\n        /* \"#utility.yul\":10207:10225   */\n      0xffffffffffffffff\n        /* \"#utility.yul\":10199:10205   */\n      dup2\n        /* \"#utility.yul\":10196:10226   */\n      gt\n        /* \"#utility.yul\":10193:10310   */\n      iszero\n      tag_430\n      jumpi\n        /* \"#utility.yul\":10229:10308   */\n      tag_431\n      tag_284\n      jump\t// in\n    tag_431:\n        /* \"#utility.yul\":10193:10310   */\n    tag_430:\n        /* \"#utility.yul\":10334:10397   */\n      tag_432\n        /* \"#utility.yul\":10389:10396   */\n      dup6\n        /* \"#utility.yul\":10380:10386   */\n      dup3\n        /* \"#utility.yul\":10369:10378   */\n      dup7\n        /* \"#utility.yul\":10365:10387   */\n      add\n        /* \"#utility.yul\":10334:10397   */\n      tag_293\n      jump\t// in\n    tag_432:\n        /* \"#utility.yul\":10324:10397   */\n      swap2\n      pop\n        /* \"#utility.yul\":10119:10407   */\n      pop\n        /* \"#utility.yul\":9580:10414   */\n      swap3\n      pop\n      swap3\n      swap1\n      pop\n      jump\t// out\n        /* \"#utility.yul\":10420:11579   */\n    tag_37:\n        /* \"#utility.yul\":10527:10533   */\n      0x00\n        /* \"#utility.yul\":10535:10541   */\n      dup1\n        /* \"#utility.yul\":10543:10549   */\n      0x00\n        /* \"#utility.yul\":10592:10594   */\n      0x60\n        /* \"#utility.yul\":10580:10589   */\n      dup5\n        /* \"#utility.yul\":10571:10578   */\n      dup7\n        /* \"#utility.yul\":10567:10590   */\n      sub\n        /* \"#utility.yul\":10563:10595   */\n      slt\n        /* \"#utility.yul\":10560:10679   */\n      iszero\n      tag_434\n      jumpi\n        /* \"#utility.yul\":10598:10677   */\n      tag_435\n      tag_283\n      jump\t// in\n    tag_435:\n        /* \"#utility.yul\":10560:10679   */\n    tag_434:\n        /* \"#utility.yul\":10746:10747   */\n      0x00\n        /* \"#utility.yul\":10735:10744   */\n      dup5\n        /* \"#utility.yul\":10731:10748   */\n      add\n        /* \"#utility.yul\":10718:10749   */\n      calldataload\n        /* \"#utility.yul\":10776:10794   */\n      0xffffffffffffffff\n        /* \"#utility.yul\":10768:10774   */\n      dup2\n        /* \"#utility.yul\":10765:10795   */\n      gt\n        /* \"#utility.yul\":10762:10879   */\n      iszero\n      tag_436\n      jumpi\n        /* \"#utility.yul\":10798:10877   */\n      tag_437\n      tag_284\n      jump\t// in\n    tag_437:\n        /* \"#utility.yul\":10762:10879   */\n    tag_436:\n        /* \"#utility.yul\":10903:10966   */\n      tag_438\n        /* \"#utility.yul\":10958:10965   */\n      dup7\n        /* \"#utility.yul\":10949:10955   */\n      dup3\n        /* \"#utility.yul\":10938:10947   */\n      dup8\n        /* \"#utility.yul\":10934:10956   */\n      add\n        /* \"#utility.yul\":10903:10966   */\n      tag_293\n      jump\t// in\n    tag_438:\n        /* \"#utility.yul\":10893:10966   */\n      swap4\n      pop\n        /* \"#utility.yul\":10689:10976   */\n      pop\n        /* \"#utility.yul\":11043:11045   */\n      0x20\n        /* \"#utility.yul\":11032:11041   */\n      dup5\n        /* \"#utility.yul\":11028:11046   */\n      add\n        /* \"#utility.yul\":11015:11047   */\n      calldataload\n        /* \"#utility.yul\":11074:11092   */\n      0xffffffffffffffff\n        /* \"#utility.yul\":11066:11072   */\n      dup2\n        /* \"#utility.yul\":11063:11093   */\n      gt\n        /* \"#utility.yul\":11060:11177   */\n      iszero\n      tag_439\n      jumpi\n        /* \"#utility.yul\":11096:11175   */\n      tag_440\n      tag_284\n      jump\t// in\n    tag_440:\n        /* \"#utility.yul\":11060:11177   */\n    tag_439:\n        /* \"#utility.yul\":11201:11264   */\n      tag_441\n        /* \"#utility.yul\":11256:11263   */\n      dup7\n        /* \"#utility.yul\":11247:11253   */\n      dup3\n        /* \"#utility.yul\":11236:11245   */\n      dup8\n        /* \"#utility.yul\":11232:11254   */\n      add\n        /* \"#utility.yul\":11201:11264   */\n      tag_293\n      jump\t// in\n    tag_441:\n        /* \"#utility.yul\":11191:11264   */\n      swap3\n      pop\n        /* \"#utility.yul\":10986:11274   */\n      pop\n        /* \"#utility.yul\":11341:11343   */\n      0x40\n        /* \"#utility.yul\":11330:11339   */\n      dup5\n        /* \"#utility.yul\":11326:11344   */\n      add\n        /* \"#utility.yul\":11313:11345   */\n      calldataload\n        /* \"#utility.yul\":11372:11390   */\n      0xffffffffffffffff\n        /* \"#utility.yul\":11364:11370   */\n      dup2\n        /* \"#utility.yul\":11361:11391   */\n      gt\n        /* \"#utility.yul\":11358:11475   */\n      iszero\n      tag_442\n      jumpi\n        /* \"#utility.yul\":11394:11473   */\n      tag_443\n      tag_284\n      jump\t// in\n    tag_443:\n        /* \"#utility.yul\":11358:11475   */\n    tag_442:\n        /* \"#utility.yul\":11499:11562   */\n      tag_444\n        /* \"#utility.yul\":11554:11561   */\n      dup7\n        /* \"#utility.yul\":11545:11551   */\n      dup3\n        /* \"#utility.yul\":11534:11543   */\n      dup8\n        /* \"#utility.yul\":11530:11552   */\n      add\n        /* \"#utility.yul\":11499:11562   */\n      tag_293\n      jump\t// in\n    tag_444:\n        /* \"#utility.yul\":11489:11562   */\n      swap2\n      pop\n        /* \"#utility.yul\":11284:11572   */\n      pop\n        /* \"#utility.yul\":10420:11579   */\n      swap3\n      pop\n      swap3\n      pop\n      swap3\n      jump\t// out\n        /* \"#utility.yul\":11643:12811   */\n    tag_307:\n        /* \"#utility.yul\":11752:11755   */\n      0x00\n        /* \"#utility.yul\":11788:11792   */\n      0x80\n        /* \"#utility.yul\":11783:11786   */\n      dup4\n        /* \"#utility.yul\":11779:11793   */\n      add\n        /* \"#utility.yul\":11873:11877   */\n      0x00\n        /* \"#utility.yul\":11866:11871   */\n      dup4\n        /* \"#utility.yul\":11862:11878   */\n      add\n        /* \"#utility.yul\":11856:11879   */\n      mload\n        /* \"#utility.yul\":11926:11929   */\n      dup5\n        /* \"#utility.yul\":11920:11924   */\n      dup3\n        /* \"#utility.yul\":11916:11930   */\n      sub\n        /* \"#utility.yul\":11909:11913   */\n      0x00\n        /* \"#utility.yul\":11904:11907   */\n      dup7\n        /* \"#utility.yul\":11900:11914   */\n      add\n        /* \"#utility.yul\":11893:11931   */\n      mstore\n        /* \"#utility.yul\":11952:12025   */\n      tag_446\n        /* \"#utility.yul\":12020:12024   */\n      dup3\n        /* \"#utility.yul\":12006:12018   */\n      dup3\n        /* \"#utility.yul\":11952:12025   */\n      tag_302\n      jump\t// in\n    tag_446:\n        /* \"#utility.yul\":11944:12025   */\n      swap2\n      pop\n        /* \"#utility.yul\":11803:12036   */\n      pop\n        /* \"#utility.yul\":12127:12131   */\n      0x20\n        /* \"#utility.yul\":12120:12125   */\n      dup4\n        /* \"#utility.yul\":12116:12132   */\n      add\n        /* \"#utility.yul\":12110:12133   */\n      mload\n        /* \"#utility.yul\":12180:12183   */\n      dup5\n        /* \"#utility.yul\":12174:12178   */\n      dup3\n        /* \"#utility.yul\":12170:12184   */\n      sub\n        /* \"#utility.yul\":12163:12167   */\n      0x20\n        /* \"#utility.yul\":12158:12161   */\n      dup7\n        /* \"#utility.yul\":12154:12168   */\n      add\n        /* \"#utility.yul\":12147:12185   */\n      mstore\n        /* \"#utility.yul\":12206:12279   */\n      tag_447\n        /* \"#utility.yul\":12274:12278   */\n      dup3\n        /* \"#utility.yul\":12260:12272   */\n      dup3\n        /* \"#utility.yul\":12206:12279   */\n      tag_302\n      jump\t// in\n    tag_447:\n        /* \"#utility.yul\":12198:12279   */\n      swap2\n      pop\n        /* \"#utility.yul\":12046:12290   */\n      pop\n        /* \"#utility.yul\":12373:12377   */\n      0x40\n        /* \"#utility.yul\":12366:12371   */\n      dup4\n        /* \"#utility.yul\":12362:12378   */\n      add\n        /* \"#utility.yul\":12356:12379   */\n      mload\n        /* \"#utility.yul\":12426:12429   */\n      dup5\n        /* \"#utility.yul\":12420:12424   */\n      dup3\n        /* \"#utility.yul\":12416:12430   */\n      sub\n        /* \"#utility.yul\":12409:12413   */\n      0x40\n        /* \"#utility.yul\":12404:12407   */\n      dup7\n        /* \"#utility.yul\":12400:12414   */\n      add\n        /* \"#utility.yul\":12393:12431   */\n      mstore\n        /* \"#utility.yul\":12452:12525   */\n      tag_448\n        /* \"#utility.yul\":12520:12524   */\n      dup3\n        /* \"#utility.yul\":12506:12518   */\n      dup3\n        /* \"#utility.yul\":12452:12525   */\n      tag_302\n      jump\t// in\n    tag_448:\n        /* \"#utility.yul\":12444:12525   */\n      swap2\n      pop\n        /* \"#utility.yul\":12300:12536   */\n      pop\n        /* \"#utility.yul\":12621:12625   */\n      0x60\n        /* \"#utility.yul\":12614:12619   */\n      dup4\n        /* \"#utility.yul\":12610:12626   */\n      add\n        /* \"#utility.yul\":12604:12627   */\n      mload\n        /* \"#utility.yul\":12674:12677   */\n      dup5\n        /* \"#utility.yul\":12668:12672   */\n      dup3\n        /* \"#utility.yul\":12664:12678   */\n      sub\n        /* \"#utility.yul\":12657:12661   */\n      0x60\n        /* \"#utility.yul\":12652:12655   */\n      dup7\n        /* \"#utility.yul\":12648:12662   */\n      add\n        /* \"#utility.yul\":12641:12679   */\n      mstore\n        /* \"#utility.yul\":12700:12773   */\n      tag_449\n        /* \"#utility.yul\":12768:12772   */\n      dup3\n        /* \"#utility.yul\":12754:12766   */\n      dup3\n        /* \"#utility.yul\":12700:12773   */\n      tag_302\n      jump\t// in\n    tag_449:\n        /* \"#utility.yul\":12692:12773   */\n      swap2\n      pop\n        /* \"#utility.yul\":12546:12784   */\n      pop\n        /* \"#utility.yul\":12801:12805   */\n      dup1\n        /* \"#utility.yul\":12794:12805   */\n      swap2\n      pop\n        /* \"#utility.yul\":11757:12811   */\n      pop\n        /* \"#utility.yul\":11643:12811   */\n      swap3\n      swap2\n      pop\n      pop\n      jump\t// out\n        /* \"#utility.yul\":12817:13170   */\n    tag_47:\n        /* \"#utility.yul\":12950:12954   */\n      0x00\n        /* \"#utility.yul\":12988:12990   */\n      0x20\n        /* \"#utility.yul\":12977:12986   */\n      dup3\n        /* \"#utility.yul\":12973:12991   */\n      add\n        /* \"#utility.yul\":12965:12991   */\n      swap1\n      pop\n        /* \"#utility.yul\":13037:13046   */\n      dup2\n        /* \"#utility.yul\":13031:13035   */\n      dup2\n        /* \"#utility.yul\":13027:13047   */\n      sub\n        /* \"#utility.yul\":13023:13024   */\n      0x00\n        /* \"#utility.yul\":13012:13021   */\n      dup4\n        /* \"#utility.yul\":13008:13025   */\n      add\n        /* \"#utility.yul\":13001:13048   */\n      mstore\n        /* \"#utility.yul\":13065:13163   */\n      tag_451\n        /* \"#utility.yul\":13158:13162   */\n      dup2\n        /* \"#utility.yul\":13149:13155   */\n      dup5\n        /* \"#utility.yul\":13065:13163   */\n      tag_307\n      jump\t// in\n    tag_451:\n        /* \"#utility.yul\":13057:13163   */\n      swap1\n      pop\n        /* \"#utility.yul\":12817:13170   */\n      swap3\n      swap2\n      pop\n      pop\n      jump\t// out\n        /* \"#utility.yul\":13176:13315   */\n    tag_308:\n        /* \"#utility.yul\":13268:13274   */\n      0x00\n        /* \"#utility.yul\":13302:13307   */\n      dup2\n        /* \"#utility.yul\":13296:13308   */\n      mload\n        /* \"#utility.yul\":13286:13308   */\n      swap1\n      pop\n        /* \"#utility.yul\":13176:13315   */\n      swap2\n      swap1\n      pop\n      jump\t// out\n        /* \"#utility.yul\":13321:13530   */\n    tag_309:\n        /* \"#utility.yul\":13445:13456   */\n      0x00\n        /* \"#utility.yul\":13479:13485   */\n      dup3\n        /* \"#utility.yul\":13474:13477   */\n      dup3\n        /* \"#utility.yul\":13467:13486   */\n      mstore\n        /* \"#utility.yul\":13519:13523   */\n      0x20\n        /* \"#utility.yul\":13514:13517   */\n      dup3\n        /* \"#utility.yul\":13510:13524   */\n      add\n        /* \"#utility.yul\":13495:13524   */\n      swap1\n      pop\n        /* \"#utility.yul\":13321:13530   */\n      swap3\n      swap2\n      pop\n      pop\n      jump\t// out\n        /* \"#utility.yul\":13536:13693   */\n    tag_310:\n        /* \"#utility.yul\":13628:13632   */\n      0x00\n        /* \"#utility.yul\":13651:13654   */\n      dup2\n        /* \"#utility.yul\":13643:13654   */\n      swap1\n      pop\n        /* \"#utility.yul\":13681:13685   */\n      0x20\n        /* \"#utility.yul\":13676:13679   */\n      dup3\n        /* \"#utility.yul\":13672:13686   */\n      add\n        /* \"#utility.yul\":13664:13686   */\n      swap1\n      pop\n        /* \"#utility.yul\":13536:13693   */\n      swap2\n      swap1\n      pop\n      jump\t// out\n        /* \"#utility.yul\":13767:14198   */\n    tag_311:\n        /* \"#utility.yul\":13876:13879   */\n      0x00\n        /* \"#utility.yul\":13912:13916   */\n      0x20\n        /* \"#utility.yul\":13907:13910   */\n      dup4\n        /* \"#utility.yul\":13903:13917   */\n      add\n        /* \"#utility.yul\":14008:14012   */\n      0x00\n        /* \"#utility.yul\":14001:14006   */\n      dup4\n        /* \"#utility.yul\":13997:14013   */\n      add\n        /* \"#utility.yul\":13991:14014   */\n      mload\n        /* \"#utility.yul\":14061:14064   */\n      dup5\n        /* \"#utility.yul\":14055:14059   */\n      dup3\n        /* \"#utility.yul\":14051:14065   */\n      sub\n        /* \"#utility.yul\":14044:14048   */\n      0x00\n        /* \"#utility.yul\":14039:14042   */\n      dup7\n        /* \"#utility.yul\":14035:14049   */\n      add\n        /* \"#utility.yul\":14028:14066   */\n      mstore\n        /* \"#utility.yul\":14087:14160   */\n      tag_456\n        /* \"#utility.yul\":14155:14159   */\n      dup3\n        /* \"#utility.yul\":14141:14153   */\n      dup3\n        /* \"#utility.yul\":14087:14160   */\n      tag_302\n      jump\t// in\n    tag_456:\n        /* \"#utility.yul\":14079:14160   */\n      swap2\n      pop\n        /* \"#utility.yul\":13927:14171   */\n      pop\n        /* \"#utility.yul\":14188:14192   */\n      dup1\n        /* \"#utility.yul\":14181:14192   */\n      swap2\n      pop\n        /* \"#utility.yul\":13881:14198   */\n      pop\n        /* \"#utility.yul\":13767:14198   */\n      swap3\n      swap2\n      pop\n      pop\n      jump\t// out\n        /* \"#utility.yul\":14204:14460   */\n    tag_312:\n        /* \"#utility.yul\":14323:14333   */\n      0x00\n        /* \"#utility.yul\":14358:14454   */\n      tag_458\n        /* \"#utility.yul\":14450:14453   */\n      dup4\n        /* \"#utility.yul\":14442:14448   */\n      dup4\n        /* \"#utility.yul\":14358:14454   */\n      tag_311\n      jump\t// in\n    tag_458:\n        /* \"#utility.yul\":14344:14454   */\n      swap1\n      pop\n        /* \"#utility.yul\":14204:14460   */\n      swap3\n      swap2\n      pop\n      pop\n      jump\t// out\n        /* \"#utility.yul\":14466:14604   */\n    tag_313:\n        /* \"#utility.yul\":14561:14565   */\n      0x00\n        /* \"#utility.yul\":14593:14597   */\n      0x20\n        /* \"#utility.yul\":14588:14591   */\n      dup3\n        /* \"#utility.yul\":14584:14598   */\n      add\n        /* \"#utility.yul\":14576:14598   */\n      swap1\n      pop\n        /* \"#utility.yul\":14466:14604   */\n      swap2\n      swap1\n      pop\n      jump\t// out\n        /* \"#utility.yul\":14682:15793   */\n    tag_314:\n        /* \"#utility.yul\":14851:14854   */\n      0x00\n        /* \"#utility.yul\":14880:14959   */\n      tag_461\n        /* \"#utility.yul\":14953:14958   */\n      dup3\n        /* \"#utility.yul\":14880:14959   */\n      tag_308\n      jump\t// in\n    tag_461:\n        /* \"#utility.yul\":14975:15086   */\n      tag_462\n        /* \"#utility.yul\":15079:15085   */\n      dup2\n        /* \"#utility.yul\":15074:15077   */\n      dup6\n        /* \"#utility.yul\":14975:15086   */\n      tag_309\n      jump\t// in\n    tag_462:\n        /* \"#utility.yul\":14968:15086   */\n      swap4\n      pop\n        /* \"#utility.yul\":15112:15115   */\n      dup4\n        /* \"#utility.yul\":15157:15161   */\n      0x20\n        /* \"#utility.yul\":15149:15155   */\n      dup3\n        /* \"#utility.yul\":15145:15162   */\n      mul\n        /* \"#utility.yul\":15140:15143   */\n      dup6\n        /* \"#utility.yul\":15136:15163   */\n      add\n        /* \"#utility.yul\":15187:15268   */\n      tag_463\n        /* \"#utility.yul\":15262:15267   */\n      dup6\n        /* \"#utility.yul\":15187:15268   */\n      tag_310\n      jump\t// in\n    tag_463:\n        /* \"#utility.yul\":15291:15298   */\n      dup1\n        /* \"#utility.yul\":15322:15323   */\n      0x00\n        /* \"#utility.yul\":15307:15748   */\n    tag_464:\n        /* \"#utility.yul\":15332:15338   */\n      dup6\n        /* \"#utility.yul\":15329:15330   */\n      dup2\n        /* \"#utility.yul\":15326:15339   */\n      lt\n        /* \"#utility.yul\":15307:15748   */\n      iszero\n      tag_466\n      jumpi\n        /* \"#utility.yul\":15403:15412   */\n      dup5\n        /* \"#utility.yul\":15397:15401   */\n      dup5\n        /* \"#utility.yul\":15393:15413   */\n      sub\n        /* \"#utility.yul\":15388:15391   */\n      dup10\n        /* \"#utility.yul\":15381:15414   */\n      mstore\n        /* \"#utility.yul\":15454:15460   */\n      dup2\n        /* \"#utility.yul\":15448:15461   */\n      mload\n        /* \"#utility.yul\":15482:15596   */\n      tag_467\n        /* \"#utility.yul\":15591:15595   */\n      dup6\n        /* \"#utility.yul\":15576:15589   */\n      dup3\n        /* \"#utility.yul\":15482:15596   */\n      tag_312\n      jump\t// in\n    tag_467:\n        /* \"#utility.yul\":15474:15596   */\n      swap5\n      pop\n        /* \"#utility.yul\":15619:15704   */\n      tag_468\n        /* \"#utility.yul\":15697:15703   */\n      dup4\n        /* \"#utility.yul\":15619:15704   */\n      tag_313\n      jump\t// in\n    tag_468:\n        /* \"#utility.yul\":15609:15704   */\n      swap3\n      pop\n        /* \"#utility.yul\":15733:15737   */\n      0x20\n        /* \"#utility.yul\":15728:15731   */\n      dup11\n        /* \"#utility.yul\":15724:15738   */\n      add\n        /* \"#utility.yul\":15717:15738   */\n      swap10\n      pop\n        /* \"#utility.yul\":15367:15748   */\n      pop\n        /* \"#utility.yul\":15354:15355   */\n      0x01\n        /* \"#utility.yul\":15351:15352   */\n      dup2\n        /* \"#utility.yul\":15347:15356   */\n      add\n        /* \"#utility.yul\":15342:15356   */\n      swap1\n      pop\n        /* \"#utility.yul\":15307:15748   */\n      jump(tag_464)\n    tag_466:\n        /* \"#utility.yul\":15311:15325   */\n      pop\n        /* \"#utility.yul\":15764:15768   */\n      dup3\n        /* \"#utility.yul\":15757:15768   */\n      swap8\n      pop\n        /* \"#utility.yul\":15784:15787   */\n      dup8\n        /* \"#utility.yul\":15777:15787   */\n      swap6\n      pop\n        /* \"#utility.yul\":14856:15793   */\n      pop\n      pop\n      pop\n      pop\n      pop\n        /* \"#utility.yul\":14682:15793   */\n      swap3\n      swap2\n      pop\n      pop\n      jump\t// out\n        /* \"#utility.yul\":15799:16272   */\n    tag_55:\n        /* \"#utility.yul\":15992:15996   */\n      0x00\n        /* \"#utility.yul\":16030:16032   */\n      0x20\n        /* \"#utility.yul\":16019:16028   */\n      dup3\n        /* \"#utility.yul\":16015:16033   */\n      add\n        /* \"#utility.yul\":16007:16033   */\n      swap1\n      pop\n        /* \"#utility.yul\":16079:16088   */\n      dup2\n        /* \"#utility.yul\":16073:16077   */\n      dup2\n        /* \"#utility.yul\":16069:16089   */\n      sub\n        /* \"#utility.yul\":16065:16066   */\n      0x00\n        /* \"#utility.yul\":16054:16063   */\n      dup4\n        /* \"#utility.yul\":16050:16067   */\n      add\n        /* \"#utility.yul\":16043:16090   */\n      mstore\n        /* \"#utility.yul\":16107:16265   */\n      tag_470\n        /* \"#utility.yul\":16260:16264   */\n      dup2\n        /* \"#utility.yul\":16251:16257   */\n      dup5\n        /* \"#utility.yul\":16107:16265   */\n      tag_314\n      jump\t// in\n    tag_470:\n        /* \"#utility.yul\":16099:16265   */\n      swap1\n      pop\n        /* \"#utility.yul\":15799:16272   */\n      swap3\n      swap2\n      pop\n      pop\n      jump\t// out\n        /* \"#utility.yul\":16278:16458   */\n    tag_315:\n        /* \"#utility.yul\":16326:16403   */\n      0x4e487b7100000000000000000000000000000000000000000000000000000000\n        /* \"#utility.yul\":16323:16324   */\n      0x00\n        /* \"#utility.yul\":16316:16404   */\n      mstore\n        /* \"#utility.yul\":16423:16427   */\n      0x22\n        /* \"#utility.yul\":16420:16421   */\n      0x04\n        /* \"#utility.yul\":16413:16428   */\n      mstore\n        /* \"#utility.yul\":16447:16451   */\n      0x24\n        /* \"#utility.yul\":16444:16445   */\n      0x00\n        /* \"#utility.yul\":16437:16452   */\n      revert\n        /* \"#utility.yul\":16464:16784   */\n    tag_82:\n        /* \"#utility.yul\":16508:16514   */\n      0x00\n        /* \"#utility.yul\":16545:16546   */\n      0x02\n        /* \"#utility.yul\":16539:16543   */\n      dup3\n        /* \"#utility.yul\":16535:16547   */\n      div\n        /* \"#utility.yul\":16525:16547   */\n      swap1\n      pop\n        /* \"#utility.yul\":16592:16593   */\n      0x01\n        /* \"#utility.yul\":16586:16590   */\n      dup3\n        /* \"#utility.yul\":16582:16594   */\n      and\n        /* \"#utility.yul\":16613:16631   */\n      dup1\n        /* \"#utility.yul\":16603:16684   */\n      tag_473\n      jumpi\n        /* \"#utility.yul\":16669:16673   */\n      0x7f\n        /* \"#utility.yul\":16661:16667   */\n      dup3\n        /* \"#utility.yul\":16657:16674   */\n      and\n        /* \"#utility.yul\":16647:16674   */\n      swap2\n      pop\n        /* \"#utility.yul\":16603:16684   */\n    tag_473:\n        /* \"#utility.yul\":16731:16733   */\n      0x20\n        /* \"#utility.yul\":16723:16729   */\n      dup3\n        /* \"#utility.yul\":16720:16734   */\n      lt\n        /* \"#utility.yul\":16700:16718   */\n      dup2\n        /* \"#utility.yul\":16697:16735   */\n      sub\n        /* \"#utility.yul\":16694:16778   */\n      tag_474\n      jumpi\n        /* \"#utility.yul\":16750:16768   */\n      tag_475\n      tag_315\n      jump\t// in\n    tag_475:\n        /* \"#utility.yul\":16694:16778   */\n    tag_474:\n        /* \"#utility.yul\":16515:16784   */\n      pop\n        /* \"#utility.yul\":16464:16784   */\n      swap2\n      swap1\n      pop\n      jump\t// out\n        /* \"#utility.yul\":16790:16931   */\n    tag_316:\n        /* \"#utility.yul\":16839:16843   */\n      0x00\n        /* \"#utility.yul\":16862:16865   */\n      dup2\n        /* \"#utility.yul\":16854:16865   */\n      swap1\n      pop\n        /* \"#utility.yul\":16885:16888   */\n      dup2\n        /* \"#utility.yul\":16882:16883   */\n      0x00\n        /* \"#utility.yul\":16875:16889   */\n      mstore\n        /* \"#utility.yul\":16919:16923   */\n      0x20\n        /* \"#utility.yul\":16916:16917   */\n      0x00\n        /* \"#utility.yul\":16906:16924   */\n      keccak256\n        /* \"#utility.yul\":16898:16924   */\n      swap1\n      pop\n        /* \"#utility.yul\":16790:16931   */\n      swap2\n      swap1\n      pop\n      jump\t// out\n        /* \"#utility.yul\":16937:17030   */\n    tag_317:\n        /* \"#utility.yul\":16974:16980   */\n      0x00\n        /* \"#utility.yul\":17021:17023   */\n      0x20\n        /* \"#utility.yul\":17016:17018   */\n      0x1f\n        /* \"#utility.yul\":17009:17014   */\n      dup4\n        /* \"#utility.yul\":17005:17019   */\n      add\n        /* \"#utility.yul\":17001:17024   */\n      div\n        /* \"#utility.yul\":16991:17024   */\n      swap1\n      pop\n        /* \"#utility.yul\":16937:17030   */\n      swap2\n      swap1\n      pop\n      jump\t// out\n        /* \"#utility.yul\":17036:17143   */\n    tag_318:\n        /* \"#utility.yul\":17080:17088   */\n      0x00\n        /* \"#utility.yul\":17130:17135   */\n      dup3\n        /* \"#utility.yul\":17124:17128   */\n      dup3\n        /* \"#utility.yul\":17120:17136   */\n      shl\n        /* \"#utility.yul\":17099:17136   */\n      swap1\n      pop\n        /* \"#utility.yul\":17036:17143   */\n      swap3\n      swap2\n      pop\n      pop\n      jump\t// out\n        /* \"#utility.yul\":17149:17542   */\n    tag_319:\n        /* \"#utility.yul\":17218:17224   */\n      0x00\n        /* \"#utility.yul\":17268:17269   */\n      0x08\n        /* \"#utility.yul\":17256:17266   */\n      dup4\n        /* \"#utility.yul\":17252:17270   */\n      mul\n        /* \"#utility.yul\":17291:17388   */\n      tag_480\n        /* \"#utility.yul\":17321:17387   */\n      0xffffffffffffffffffffffffffffffffffffffffffffffffffffffffffffffff\n        /* \"#utility.yul\":17310:17319   */\n      dup3\n        /* \"#utility.yul\":17291:17388   */\n      tag_318\n      jump\t// in\n    tag_480:\n        /* \"#utility.yul\":17409:17448   */\n      tag_481\n        /* \"#utility.yul\":17439:17447   */\n      dup7\n        /* \"#utility.yul\":17428:17437   */\n      dup4\n        /* \"#utility.yul\":17409:17448   */\n      tag_318\n      jump\t// in\n    tag_481:\n        /* \"#utility.yul\":17397:17448   */\n      swap6\n      pop\n        /* \"#utility.yul\":17481:17485   */\n      dup1\n        /* \"#utility.yul\":17477:17486   */\n      not\n        /* \"#utility.yul\":17470:17475   */\n      dup5\n        /* \"#utility.yul\":17466:17487   */\n      and\n        /* \"#utility.yul\":17457:17487   */\n      swap4\n      pop\n        /* \"#utility.yul\":17530:17534   */\n      dup1\n        /* \"#utility.yul\":17520:17528   */\n      dup7\n        /* \"#utility.yul\":17516:17535   */\n      and\n        /* \"#utility.yul\":17509:17514   */\n      dup5\n        /* \"#utility.yul\":17506:17536   */\n      or\n        /* \"#utility.yul\":17496:17536   */\n      swap3\n      pop\n        /* \"#utility.yul\":17225:17542   */\n      pop\n      pop\n        /* \"#utility.yul\":17149:17542   */\n      swap4\n      swap3\n      pop\n      pop\n      pop\n      jump\t// out\n        /* \"#utility.yul\":17548:17625   */\n    tag_320:\n        /* \"#utility.yul\":17585:17592   */\n      0x00\n        /* \"#utility.yul\":17614:17619   */\n      dup2\n        /* \"#utility.yul\":17603:17619   */\n      swap1\n      pop\n        /* \"#utility.yul\":17548:17625   */\n      swap2\n      swap1\n      pop\n      jump\t// out\n        /* \"#utility.yul\":17631:17691   */\n    tag_321:\n        /* \"#utility.yul\":17659:17662   */\n      0x00\n        /* \"#utility.yul\":17680:17685   */\n      dup2\n        /* \"#utility.yul\":17673:17685   */\n      swap1\n      pop\n        /* \"#utility.yul\":17631:17691   */\n      swap2\n      swap1\n      pop\n      jump\t// out\n        /* \"#utility.yul\":17697:17839   */\n    tag_322:\n        /* \"#utility.yul\":17747:17756   */\n      0x00\n        /* \"#utility.yul\":17780:17833   */\n      tag_485\n        /* \"#utility.yul\":17798:17832   */\n      tag_486\n        /* \"#utility.yul\":17807:17831   */\n      tag_487\n        /* \"#utility.yul\":17825:17830   */\n      dup5\n        /* \"#utility.yul\":17807:17831   */\n      tag_320\n      jump\t// in\n    tag_487:\n        /* \"#utility.yul\":17798:17832   */\n      tag_321\n      jump\t// in\n    tag_486:\n        /* \"#utility.yul\":17780:17833   */\n      tag_320\n      jump\t// in\n    tag_485:\n        /* \"#utility.yul\":17767:17833   */\n      swap1\n      pop\n        /* \"#utility.yul\":17697:17839   */\n      swap2\n      swap1\n      pop\n      jump\t// out\n        /* \"#utility.yul\":17845:17920   */\n    tag_323:\n        /* \"#utility.yul\":17888:17891   */\n      0x00\n        /* \"#utility.yul\":17909:17914   */\n      dup2\n        /* \"#utility.yul\":17902:17914   */\n      swap1\n      pop\n        /* \"#utility.yul\":17845:17920   */\n      swap2\n      swap1\n      pop\n      jump\t// out\n        /* \"#utility.yul\":17926:18195   */\n    tag_324:\n        /* \"#utility.yul\":18036:18075   */\n      tag_490\n        /* \"#utility.yul\":18067:18074   */\n      dup4\n        /* \"#utility.yul\":18036:18075   */\n      tag_322\n      jump\t// in\n    tag_490:\n        /* \"#utility.yul\":18097:18188   */\n      tag_491\n        /* \"#utility.yul\":18146:18187   */\n      tag_492\n        /* \"#utility.yul\":18170:18186   */\n      dup3\n        /* \"#utility.yul\":18146:18187   */\n      tag_323\n      jump\t// in\n    tag_492:\n        /* \"#utility.yul\":18138:18144   */\n      dup5\n        /* \"#utility.yul\":18131:18135   */\n      dup5\n        /* \"#utility.yul\":18125:18136   */\n      sload\n        /* \"#utility.yul\":18097:18188   */\n      tag_319\n      jump\t// in\n    tag_491:\n        /* \"#utility.yul\":18091:18095   */\n      dup3\n        /* \"#utility.yul\":18084:18189   */\n      sstore\n        /* \"#utility.yul\":18002:18195   */\n      pop\n        /* \"#utility.yul\":17926:18195   */\n      pop\n      pop\n      pop\n      jump\t// out\n        /* \"#utility.yul\":18201:18274   */\n    tag_325:\n        /* \"#utility.yul\":18246:18249   */\n      0x00\n        /* \"#utility.yul\":18201:18274   */\n      swap1\n      jump\t// out\n        /* \"#utility.yul\":18280:18469   */\n    tag_326:\n        /* \"#utility.yul\":18357:18389   */\n      tag_495\n      tag_325\n      jump\t// in\n    tag_495:\n        /* \"#utility.yul\":18398:18463   */\n      tag_496\n        /* \"#utility.yul\":18456:18462   */\n      dup2\n        /* \"#utility.yul\":18448:18454   */\n      dup5\n        /* \"#utility.yul\":18442:18446   */\n      dup5\n        /* \"#utility.yul\":18398:18463   */\n      tag_324\n      jump\t// in\n    tag_496:\n        /* \"#utility.yul\":18333:18469   */\n      pop\n        /* \"#utility.yul\":18280:18469   */\n      pop\n      pop\n      jump\t// out\n        /* \"#utility.yul\":18475:18661   */\n    tag_327:\n        /* \"#utility.yul\":18535:18655   */\n    tag_498:\n        /* \"#utility.yul\":18552:18555   */\n      dup2\n        /* \"#utility.yul\":18545:18550   */\n      dup2\n        /* \"#utility.yul\":18542:18556   */\n      lt\n        /* \"#utility.yul\":18535:18655   */\n      iszero\n      tag_500\n      jumpi\n        /* \"#utility.yul\":18606:18645   */\n      tag_501\n        /* \"#utility.yul\":18643:18644   */\n      0x00\n        /* \"#utility.yul\":18636:18641   */\n      dup3\n        /* \"#utility.yul\":18606:18645   */\n      tag_326\n      jump\t// in\n    tag_501:\n        /* \"#utility.yul\":18579:18580   */\n      0x01\n        /* \"#utility.yul\":18572:18577   */\n      dup2\n        /* \"#utility.yul\":18568:18581   */\n      add\n        /* \"#utility.yul\":18559:18581   */\n      swap1\n      pop\n        /* \"#utility.yul\":18535:18655   */\n      jump(tag_498)\n    tag_500:\n        /* \"#utility.yul\":18475:18661   */\n      pop\n      pop\n      jump\t// out\n        /* \"#utility.yul\":18667:19210   */\n    tag_328:\n        /* \"#utility.yul\":18768:18770   */\n      0x1f\n        /* \"#utility.yul\":18763:18766   */\n      dup3\n        /* \"#utility.yul\":18760:18771   */\n      gt\n        /* \"#utility.yul\":18757:19203   */\n      iszero\n      tag_503\n      jumpi\n        /* \"#utility.yul\":18802:18840   */\n      tag_504\n        /* \"#utility.yul\":18834:18839   */\n      dup2\n        /* \"#utility.yul\":18802:18840   */\n      tag_316\n      jump\t// in\n    tag_504:\n        /* \"#utility.yul\":18886:18915   */\n      tag_505\n        /* \"#utility.yul\":18904:18914   */\n      dup5\n        /* \"#utility.yul\":18886:18915   */\n      tag_317\n      jump\t// in\n    tag_505:\n        /* \"#utility.yul\":18876:18884   */\n      dup2\n        /* \"#utility.yul\":18872:18916   */\n      add\n        /* \"#utility.yul\":19069:19071   */\n      0x20\n        /* \"#utility.yul\":19057:19067   */\n      dup6\n        /* \"#utility.yul\":19054:19072   */\n      lt\n        /* \"#utility.yul\":19051:19100   */\n      iszero\n      tag_506\n      jumpi\n        /* \"#utility.yul\":19090:19098   */\n      dup2\n        /* \"#utility.yul\":19075:19098   */\n      swap1\n      pop\n        /* \"#utility.yul\":19051:19100   */\n    tag_506:\n        /* \"#utility.yul\":19113:19193   */\n      tag_507\n        /* \"#utility.yul\":19169:19191   */\n      tag_508\n        /* \"#utility.yul\":19187:19190   */\n      dup6\n        /* \"#utility.yul\":19169:19191   */\n      tag_317\n      jump\t// in\n    tag_508:\n        /* \"#utility.yul\":19159:19167   */\n      dup4\n        /* \"#utility.yul\":19155:19192   */\n      add\n        /* \"#utility.yul\":19142:19153   */\n      dup3\n        /* \"#utility.yul\":19113:19193   */\n      tag_327\n      jump\t// in\n    tag_507:\n        /* \"#utility.yul\":18772:19203   */\n      pop\n      pop\n        /* \"#utility.yul\":18757:19203   */\n    tag_503:\n        /* \"#utility.yul\":18667:19210   */\n      pop\n      pop\n      pop\n      jump\t// out\n        /* \"#utility.yul\":19216:19333   */\n    tag_329:\n        /* \"#utility.yul\":19270:19278   */\n      0x00\n        /* \"#utility.yul\":19320:19325   */\n      dup3\n        /* \"#utility.yul\":19314:19318   */\n      dup3\n        /* \"#utility.yul\":19310:19326   */\n      shr\n        /* \"#utility.yul\":19289:19326   */\n      swap1\n      pop\n        /* \"#utility.yul\":19216:19333   */\n      swap3\n      swap2\n      pop\n      pop\n      jump\t// out\n        /* \"#utility.yul\":19339:19508   */\n    tag_330:\n        /* \"#utility.yul\":19383:19389   */\n      0x00\n        /* \"#utility.yul\":19416:19467   */\n      tag_511\n        /* \"#utility.yul\":19464:19465   */\n      0x00\n        /* \"#utility.yul\":19460:19466   */\n      not\n        /* \"#utility.yul\":19452:19457   */\n      dup5\n        /* \"#utility.yul\":19449:19450   */\n      0x08\n        /* \"#utility.yul\":19445:19458   */\n      mul\n        /* \"#utility.yul\":19416:19467   */\n      tag_329\n      jump\t// in\n    tag_511:\n        /* \"#utility.yul\":19412:19468   */\n      not\n        /* \"#utility.yul\":19497:19501   */\n      dup1\n        /* \"#utility.yul\":19491:19495   */\n      dup4\n        /* \"#utility.yul\":19487:19502   */\n      and\n        /* \"#utility.yul\":19477:19502   */\n      swap2\n      pop\n        /* \"#utility.yul\":19390:19508   */\n      pop\n        /* \"#utility.yul\":19339:19508   */\n      swap3\n      swap2\n      pop\n      pop\n      jump\t// out\n        /* \"#utility.yul\":19513:19808   */\n    tag_331:\n        /* \"#utility.yul\":19589:19593   */\n      0x00\n        /* \"#utility.yul\":19735:19764   */\n      tag_513\n        /* \"#utility.yul\":19760:19763   */\n      dup4\n        /* \"#utility.yul\":19754:19758   */\n      dup4\n        /* \"#utility.yul\":19735:19764   */\n      tag_330\n      jump\t// in\n    tag_513:\n        /* \"#utility.yul\":19727:19764   */\n      swap2\n      pop\n        /* \"#utility.yul\":19797:19800   */\n      dup3\n        /* \"#utility.yul\":19794:19795   */\n      0x02\n        /* \"#utility.yul\":19790:19801   */\n      mul\n        /* \"#utility.yul\":19784:19788   */\n      dup3\n        /* \"#utility.yul\":19781:19802   */\n      or\n        /* \"#utility.yul\":19773:19802   */\n      swap1\n      pop\n        /* \"#utility.yul\":19513:19808   */\n      swap3\n      swap2\n      pop\n      pop\n      jump\t// out\n        /* \"#utility.yul\":19813:21208   */\n    tag_63:\n        /* \"#utility.yul\":19930:19967   */\n      tag_515\n        /* \"#utility.yul\":19963:19966   */\n      dup3\n        /* \"#utility.yul\":19930:19967   */\n      tag_299\n      jump\t// in\n    tag_515:\n        /* \"#utility.yul\":20032:20050   */\n      0xffffffffffffffff\n        /* \"#utility.yul\":20024:20030   */\n      dup2\n        /* \"#utility.yul\":20021:20051   */\n      gt\n        /* \"#utility.yul\":20018:20074   */\n      iszero\n      tag_516\n      jumpi\n        /* \"#utility.yul\":20054:20072   */\n      tag_517\n      tag_226\n      jump\t// in\n    tag_517:\n        /* \"#utility.yul\":20018:20074   */\n    tag_516:\n        /* \"#utility.yul\":20098:20136   */\n      tag_518\n        /* \"#utility.yul\":20130:20134   */\n      dup3\n        /* \"#utility.yul\":20124:20135   */\n      sload\n        /* \"#utility.yul\":20098:20136   */\n      tag_82\n      jump\t// in\n    tag_518:\n        /* \"#utility.yul\":20183:20250   */\n      tag_519\n        /* \"#utility.yul\":20243:20249   */\n      dup3\n        /* \"#utility.yul\":20235:20241   */\n      dup3\n        /* \"#utility.yul\":20229:20233   */\n      dup6\n        /* \"#utility.yul\":20183:20250   */\n      tag_328\n      jump\t// in\n    tag_519:\n        /* \"#utility.yul\":20277:20278   */\n      0x00\n        /* \"#utility.yul\":20301:20305   */\n      0x20\n        /* \"#utility.yul\":20288:20305   */\n      swap1\n      pop\n        /* \"#utility.yul\":20333:20335   */\n      0x1f\n        /* \"#utility.yul\":20325:20331   */\n      dup4\n        /* \"#utility.yul\":20322:20336   */\n      gt\n        /* \"#utility.yul\":20350:20351   */\n      0x01\n        /* \"#utility.yul\":20345:20963   */\n      dup2\n      eq\n      tag_521\n      jumpi\n        /* \"#utility.yul\":21007:21008   */\n      0x00\n        /* \"#utility.yul\":21024:21030   */\n      dup5\n        /* \"#utility.yul\":21021:21098   */\n      iszero\n      tag_522\n      jumpi\n        /* \"#utility.yul\":21073:21082   */\n      dup3\n        /* \"#utility.yul\":21068:21071   */\n      dup8\n        /* \"#utility.yul\":21064:21083   */\n      add\n        /* \"#utility.yul\":21058:21084   */\n      mload\n        /* \"#utility.yul\":21049:21084   */\n      swap1\n      pop\n        /* \"#utility.yul\":21021:21098   */\n    tag_522:\n        /* \"#utility.yul\":21124:21191   */\n      tag_523\n        /* \"#utility.yul\":21184:21190   */\n      dup6\n        /* \"#utility.yul\":21177:21182   */\n      dup3\n        /* \"#utility.yul\":21124:21191   */\n      tag_331\n      jump\t// in\n    tag_523:\n        /* \"#utility.yul\":21118:21122   */\n      dup7\n        /* \"#utility.yul\":21111:21192   */\n      sstore\n        /* \"#utility.yul\":20980:21202   */\n      pop\n        /* \"#utility.yul\":20315:21202   */\n      jump(tag_520)\n        /* \"#utility.yul\":20345:20963   */\n    tag_521:\n        /* \"#utility.yul\":20397:20401   */\n      0x1f\n        /* \"#utility.yul\":20393:20402   */\n      not\n        /* \"#utility.yul\":20385:20391   */\n      dup5\n        /* \"#utility.yul\":20381:20403   */\n      and\n        /* \"#utility.yul\":20431:20468   */\n      tag_524\n        /* \"#utility.yul\":20463:20467   */\n      dup7\n        /* \"#utility.yul\":20431:20468   */\n      tag_316\n      jump\t// in\n    tag_524:\n        /* \"#utility.yul\":20490:20491   */\n      0x00\n        /* \"#utility.yul\":20504:20712   */\n    tag_525:\n        /* \"#utility.yul\":20518:20525   */\n      dup3\n        /* \"#utility.yul\":20515:20516   */\n      dup2\n        /* \"#utility.yul\":20512:20526   */\n      lt\n        /* \"#utility.yul\":20504:20712   */\n      iszero\n      tag_527\n      jumpi\n        /* \"#utility.yul\":20597:20606   */\n      dup5\n        /* \"#utility.yul\":20592:20595   */\n      dup10\n        /* \"#utility.yul\":20588:20607   */\n      add\n        /* \"#utility.yul\":20582:20608   */\n      mload\n        /* \"#utility.yul\":20574:20580   */\n      dup3\n        /* \"#utility.yul\":20567:20609   */\n      sstore\n        /* \"#utility.yul\":20648:20649   */\n      0x01\n        /* \"#utility.yul\":20640:20646   */\n      dup3\n        /* \"#utility.yul\":20636:20650   */\n      add\n        /* \"#utility.yul\":20626:20650   */\n      swap2\n      pop\n        /* \"#utility.yul\":20695:20697   */\n      0x20\n        /* \"#utility.yul\":20684:20693   */\n      dup6\n        /* \"#utility.yul\":20680:20698   */\n      add\n        /* \"#utility.yul\":20667:20698   */\n      swap5\n      pop\n        /* \"#utility.yul\":20541:20545   */\n      0x20\n        /* \"#utility.yul\":20538:20539   */\n      dup2\n        /* \"#utility.yul\":20534:20546   */\n      add\n        /* \"#utility.yul\":20529:20546   */\n      swap1\n      pop\n        /* \"#utility.yul\":20504:20712   */\n      jump(tag_525)\n    tag_527:\n        /* \"#utility.yul\":20740:20746   */\n      dup7\n        /* \"#utility.yul\":20731:20738   */\n      dup4\n        /* \"#utility.yul\":20728:20747   */\n      lt\n        /* \"#utility.yul\":20725:20904   */\n      iszero\n      tag_528\n      jumpi\n        /* \"#utility.yul\":20798:20807   */\n      dup5\n        /* \"#utility.yul\":20793:20796   */\n      dup10\n        /* \"#utility.yul\":20789:20808   */\n      add\n        /* \"#utility.yul\":20783:20809   */\n      mload\n        /* \"#utility.yul\":20841:20889   */\n      tag_529\n        /* \"#utility.yul\":20883:20887   */\n      0x1f\n        /* \"#utility.yul\":20875:20881   */\n      dup10\n        /* \"#utility.yul\":20871:20888   */\n      and\n        /* \"#utility.yul\":20860:20869   */\n      dup3\n        /* \"#utility.yul\":20841:20889   */\n      tag_330\n      jump\t// in\n    tag_529:\n        /* \"#utility.yul\":20833:20839   */\n      dup4\n        /* \"#utility.yul\":20826:20890   */\n      sstore\n        /* \"#utility.yul\":20748:20904   */\n      pop\n        /* \"#utility.yul\":20725:20904   */\n    tag_528:\n        /* \"#utility.yul\":20950:20951   */\n      0x01\n        /* \"#utility.yul\":20946:20947   */\n      0x02\n        /* \"#utility.yul\":20938:20944   */\n      dup9\n        /* \"#utility.yul\":20934:20948   */\n      mul\n        /* \"#utility.yul\":20930:20952   */\n      add\n        /* \"#utility.yul\":20924:20928   */\n      dup9\n        /* \"#utility.yul\":20917:20953   */\n      sstore\n        /* \"#utility.yul\":20352:20963   */\n      pop\n      pop\n      pop\n        /* \"#utility.yul\":20315:21202   */\n    tag_520:\n      pop\n        /* \"#utility.yul\":19905:21208   */\n      pop\n      pop\n      pop\n        /* \"#utility.yul\":19813:21208   */\n      pop\n      pop\n      jump\t// out\n        /* \"#utility.yul\":21214:21394   */\n    tag_79:\n        /* \"#utility.yul\":21262:21339   */\n      0x4e487b7100000000000000000000000000000000000000000000000000000000\n        /* \"#utility.yul\":21259:21260   */\n      0x00\n        /* \"#utility.yul\":21252:21340   */\n      mstore\n        /* \"#utility.yul\":21359:21363   */\n      0x32\n        /* \"#utility.yul\":21356:21357   */\n      0x04\n        /* \"#utility.yul\":21349:21364   */\n      mstore\n        /* \"#utility.yul\":21383:21387   */\n      0x24\n        /* \"#utility.yul\":21380:21381   */\n      0x00\n        /* \"#utility.yul\":21373:21388   */\n      revert\n        /* \"#utility.yul\":21400:21580   */\n    tag_332:\n        /* \"#utility.yul\":21448:21525   */\n      0x4e487b7100000000000000000000000000000000000000000000000000000000\n        /* \"#utility.yul\":21445:21446   */\n      0x00\n        /* \"#utility.yul\":21438:21526   */\n      mstore\n        /* \"#utility.yul\":21545:21549   */\n      0x11\n        /* \"#utility.yul\":21542:21543   */\n      0x04\n        /* \"#utility.yul\":21535:21550   */\n      mstore\n        /* \"#utility.yul\":21569:21573   */\n      0x24\n        /* \"#utility.yul\":21566:21567   */\n      0x00\n        /* \"#utility.yul\":21559:21574   */\n      revert\n        /* \"#utility.yul\":21586:21819   */\n    tag_223:\n        /* \"#utility.yul\":21625:21628   */\n      0x00\n        /* \"#utility.yul\":21648:21672   */\n      tag_533\n        /* \"#utility.yul\":21666:21671   */\n      dup3\n        /* \"#utility.yul\":21648:21672   */\n      tag_320\n      jump\t// in\n    tag_533:\n        /* \"#utility.yul\":21639:21672   */\n      swap2\n      pop\n        /* \"#utility.yul\":21694:21760   */\n      0xffffffffffffffffffffffffffffffffffffffffffffffffffffffffffffffff\n        /* \"#utility.yul\":21687:21692   */\n      dup3\n        /* \"#utility.yul\":21684:21761   */\n      sub\n        /* \"#utility.yul\":21681:21784   */\n      tag_534\n      jumpi\n        /* \"#utility.yul\":21764:21782   */\n      tag_535\n      tag_332\n      jump\t// in\n    tag_535:\n        /* \"#utility.yul\":21681:21784   */\n    tag_534:\n        /* \"#utility.yul\":21811:21812   */\n      0x01\n        /* \"#utility.yul\":21804:21809   */\n      dup3\n        /* \"#utility.yul\":21800:21813   */\n      add\n        /* \"#utility.yul\":21793:21813   */\n      swap1\n      pop\n        /* \"#utility.yul\":21586:21819   */\n      swap2\n      swap1\n      pop\n      jump\t// out\n        /* \"#utility.yul\":21825:21973   */\n    tag_333:\n        /* \"#utility.yul\":21927:21938   */\n      0x00\n        /* \"#utility.yul\":21964:21967   */\n      dup2\n        /* \"#utility.yul\":21949:21967   */\n      swap1\n      pop\n        /* \"#utility.yul\":21825:21973   */\n      swap3\n      swap2\n      pop\n      pop\n      jump\t// out\n        /* \"#utility.yul\":21979:22369   */\n    tag_334:\n        /* \"#utility.yul\":22085:22088   */\n      0x00\n        /* \"#utility.yul\":22113:22152   */\n      tag_538\n        /* \"#utility.yul\":22146:22151   */\n      dup3\n        /* \"#utility.yul\":22113:22152   */\n      tag_299\n      jump\t// in\n    tag_538:\n        /* \"#utility.yul\":22168:22257   */\n      tag_539\n        /* \"#utility.yul\":22250:22256   */\n      dup2\n        /* \"#utility.yul\":22245:22248   */\n      dup6\n        /* \"#utility.yul\":22168:22257   */\n      tag_333\n      jump\t// in\n    tag_539:\n        /* \"#utility.yul\":22161:22257   */\n      swap4\n      pop\n        /* \"#utility.yul\":22266:22331   */\n      tag_540\n        /* \"#utility.yul\":22324:22330   */\n      dup2\n        /* \"#utility.yul\":22319:22322   */\n      dup6\n        /* \"#utility.yul\":22312:22316   */\n      0x20\n        /* \"#utility.yul\":22305:22310   */\n      dup7\n        /* \"#utility.yul\":22301:22317   */\n      add\n        /* \"#utility.yul\":22266:22331   */\n      tag_301\n      jump\t// in\n    tag_540:\n        /* \"#utility.yul\":22356:22362   */\n      dup1\n        /* \"#utility.yul\":22351:22354   */\n      dup5\n        /* \"#utility.yul\":22347:22363   */\n      add\n        /* \"#utility.yul\":22340:22363   */\n      swap2\n      pop\n        /* \"#utility.yul\":22089:22369   */\n      pop\n        /* \"#utility.yul\":21979:22369   */\n      swap3\n      swap2\n      pop\n      pop\n      jump\t// out\n        /* \"#utility.yul\":22375:22650   */\n    tag_280:\n        /* \"#utility.yul\":22507:22510   */\n      0x00\n        /* \"#utility.yul\":22529:22624   */\n      tag_542\n        /* \"#utility.yul\":22620:22623   */\n      dup3\n        /* \"#utility.yul\":22611:22617   */\n      dup5\n        /* \"#utility.yul\":22529:22624   */\n      tag_334\n      jump\t// in\n    tag_542:\n        /* \"#utility.yul\":22522:22624   */\n      swap2\n      pop\n        /* \"#utility.yul\":22641:22644   */\n      dup2\n        /* \"#utility.yul\":22634:22644   */\n      swap1\n      pop\n        /* \"#utility.yul\":22375:22650   */\n      swap3\n      swap2\n      pop\n      pop\n      jump\t// out\n\n    auxdata: 0xa2646970667358221220e93fa9f2215e21d4430f88decd313a0a56ae71e67f457a1c0e10fbb57dc1956264736f6c63430008160033\n}\n",
				"bytecode": {
					"linkReferences": {},
					"object": "608060405234801561000f575f80fd5b50611eba8061001d5f395ff3fe608060405234801561000f575f80fd5b506004361061009c575f3560e01c80639cb4bcb4116100645780639cb4bcb414610142578063b0ce76a01461015e578063df4a259b1461018e578063ef3172af146101be578063fd0d81b9146101ee5761009c565b80630d57f91f146100a057806336c15e3a146100bc5780633d86da47146100d857806341f3004a1461010857806376da2b9d14610126575b5f80fd5b6100ba60048036038101906100b591906114f8565b61020c565b005b6100d660048036038101906100d191906115cc565b6102d4565b005b6100f260048036038101906100ed91906115cc565b610332565b6040516100ff919061162d565b60405180910390f35b61011061041b565b60405161011d91906117f0565b60405180910390f35b610140600480360381019061013b9190611810565b6106b6565b005b61015c60048036038101906101579190611886565b6107cd565b005b610178600480360381019061017391906115cc565b610907565b604051610185919061162d565b60405180910390f35b6101a860048036038101906101a391906115cc565b6109ea565b6040516101b5919061199f565b60405180910390f35b6101d860048036038101906101d391906115cc565b610d97565b6040516101e591906117f0565b60405180910390f35b6101f6611245565b6040516102039190611aa1565b60405180910390f35b61021584610332565b6102ce5761022283610907565b156102ce575f6040518060800160405280868152602001858152602001848152602001838152509050600181908060018154018082558091505060019003905f5260205f2090600402015f909190919091505f820151815f0190816102879190611cc4565b50602082015181600101908161029d9190611cc4565b5060408201518160020190816102b39190611cc4565b5060608201518160030190816102c99190611cc4565b505050505b50505050565b6102dd81610907565b61032f575f60405180602001604052808381525090505f81908060018154018082558091505060019003905f5260205f20015f909190919091505f820151815f01908161032a9190611cc4565b505050505b50565b5f805f90505b600180549050811015610411576103f76001828154811061035c5761035b611d93565b5b905f5260205f2090600402015f01805461037590611aee565b80601f01602080910402602001604051908101604052809291908181526020018280546103a190611aee565b80156103ec5780601f106103c3576101008083540402835291602001916103ec565b820191905f5260205f20905b8154815290600101906020018083116103cf57829003601f168201915b50505050508461132b565b15610406576001915050610416565b806001019050610338565b505f90505b919050565b60606001805480602002602001604051908101604052809291908181526020015f905b828210156106ad578382905f5260205f2090600402016040518060800160405290815f8201805461046e90611aee565b80601f016020809104026020016040519081016040528092919081815260200182805461049a90611aee565b80156104e55780601f106104bc576101008083540402835291602001916104e5565b820191905f5260205f20905b8154815290600101906020018083116104c857829003601f168201915b505050505081526020016001820180546104fe90611aee565b80601f016020809104026020016040519081016040528092919081815260200182805461052a90611aee565b80156105755780601f1061054c57610100808354040283529160200191610575565b820191905f5260205f20905b81548152906001019060200180831161055857829003601f168201915b5050505050815260200160028201805461058e90611aee565b80601f01602080910402602001604051908101604052809291908181526020018280546105ba90611aee565b80156106055780601f106105dc57610100808354040283529160200191610605565b820191905f5260205f20905b8154815290600101906020018083116105e857829003601f168201915b5050505050815260200160038201805461061e90611aee565b80601f016020809104026020016040519081016040528092919081815260200182805461064a90611aee565b80156106955780601f1061066c57610100808354040283529160200191610695565b820191905f5260205f20905b81548152906001019060200180831161067857829003601f168201915b5050505050815250508152602001906001019061043e565b50505050905090565b6106bf81610907565b156107c9575f5b6001805490508110156107c757610785600182815481106106ea576106e9611d93565b5b905f5260205f2090600402015f01805461070390611aee565b80601f016020809104026020016040519081016040528092919081815260200182805461072f90611aee565b801561077a5780601f106107515761010080835404028352916020019161077a565b820191905f5260205f20905b81548152906001019060200180831161075d57829003601f168201915b50505050508461132b565b156107bc57816001828154811061079f5761079e611d93565b5b905f5260205f20906004020160010190816107ba9190611cc4565b505b8060010190506106c6565b505b5050565b5f5b6001805490508110156109015761088e600182815481106107f3576107f2611d93565b5b905f5260205f2090600402015f01805461080c90611aee565b80601f016020809104026020016040519081016040528092919081815260200182805461083890611aee565b80156108835780601f1061085a57610100808354040283529160200191610883565b820191905f5260205f20905b81548152906001019060200180831161086657829003601f168201915b50505050508561132b565b156108f65782600182815481106108a8576108a7611d93565b5b905f5260205f20906004020160020190816108c39190611cc4565b5081600182815481106108d9576108d8611d93565b5b905f5260205f20906004020160030190816108f49190611cc4565b505b8060010190506107cf565b50505050565b5f805f90505b5f805490508110156109e0576109c65f828154811061092f5761092e611d93565b5b905f5260205f20015f01805461094490611aee565b80601f016020809104026020016040519081016040528092919081815260200182805461097090611aee565b80156109bb5780601f10610992576101008083540402835291602001916109bb565b820191905f5260205f20905b81548152906001019060200180831161099e57829003601f168201915b50505050508461132b565b156109d55760019150506109e5565b80600101905061090d565b505f90505b919050565b6109f2611383565b5f5b600180549050811015610d3557610ab360018281548110610a1857610a17611d93565b5b905f5260205f2090600402015f018054610a3190611aee565b80601f0160208091040260200160405190810160405280929190818152602001828054610a5d90611aee565b8015610aa85780601f10610a7f57610100808354040283529160200191610aa8565b820191905f5260205f20905b815481529060010190602001808311610a8b57829003601f168201915b50505050508461132b565b15610d2a5760018181548110610acc57610acb611d93565b5b905f5260205f2090600402016040518060800160405290815f82018054610af290611aee565b80601f0160208091040260200160405190810160405280929190818152602001828054610b1e90611aee565b8015610b695780601f10610b4057610100808354040283529160200191610b69565b820191905f5260205f20905b815481529060010190602001808311610b4c57829003601f168201915b50505050508152602001600182018054610b8290611aee565b80601f0160208091040260200160405190810160405280929190818152602001828054610bae90611aee565b8015610bf95780601f10610bd057610100808354040283529160200191610bf9565b820191905f5260205f20905b815481529060010190602001808311610bdc57829003601f168201915b50505050508152602001600282018054610c1290611aee565b80601f0160208091040260200160405190810160405280929190818152602001828054610c3e90611aee565b8015610c895780601f10610c6057610100808354040283529160200191610c89565b820191905f5260205f20905b815481529060010190602001808311610c6c57829003601f168201915b50505050508152602001600382018054610ca290611aee565b80601f0160208091040260200160405190810160405280929190818152602001828054610cce90611aee565b8015610d195780601f10610cf057610100808354040283529160200191610d19565b820191905f5260205f20905b815481529060010190602001808311610cfc57829003601f168201915b505050505081525050915050610d92565b8060010190506109f4565b50604051806080016040528060405180602001604052805f815250815260200160405180602001604052805f815250815260200160405180602001604052805f815250815260200160405180602001604052805f81525081525090505b919050565b60605f805f5b600180549050811015610e7a57610e5d60018281548110610dc157610dc0611d93565b5b905f5260205f2090600402016001018054610ddb90611aee565b80601f0160208091040260200160405190810160405280929190818152602001828054610e0790611aee565b8015610e525780601f10610e2957610100808354040283529160200191610e52565b820191905f5260205f20905b815481529060010190602001808311610e3557829003601f168201915b50505050508661132b565b15610e6f5782610e6c90611ded565b92505b806001019050610d9d565b505f8267ffffffffffffffff811115610e9657610e956113d4565b5b604051908082528060200260200182016040528015610ecf57816020015b610ebc611383565b815260200190600190039081610eb45790505b5090505f5b60018054905081101561123957610f9460018281548110610ef857610ef7611d93565b5b905f5260205f2090600402016001018054610f1290611aee565b80601f0160208091040260200160405190810160405280929190818152602001828054610f3e90611aee565b8015610f895780601f10610f6057610100808354040283529160200191610f89565b820191905f5260205f20905b815481529060010190602001808311610f6c57829003601f168201915b50505050508761132b565b1561122e5760018181548110610fad57610fac611d93565b5b905f5260205f2090600402016040518060800160405290815f82018054610fd390611aee565b80601f0160208091040260200160405190810160405280929190818152602001828054610fff90611aee565b801561104a5780601f106110215761010080835404028352916020019161104a565b820191905f5260205f20905b81548152906001019060200180831161102d57829003601f168201915b5050505050815260200160018201805461106390611aee565b80601f016020809104026020016040519081016040528092919081815260200182805461108f90611aee565b80156110da5780601f106110b1576101008083540402835291602001916110da565b820191905f5260205f20905b8154815290600101906020018083116110bd57829003601f168201915b505050505081526020016002820180546110f390611aee565b80601f016020809104026020016040519081016040528092919081815260200182805461111f90611aee565b801561116a5780601f106111415761010080835404028352916020019161116a565b820191905f5260205f20905b81548152906001019060200180831161114d57829003601f168201915b5050505050815260200160038201805461118390611aee565b80601f01602080910402602001604051908101604052809291908181526020018280546111af90611aee565b80156111fa5780601f106111d1576101008083540402835291602001916111fa565b820191905f5260205f20905b8154815290600101906020018083116111dd57829003601f168201915b50505050508152505082848151811061121657611215611d93565b5b60200260200101819052508261122b90611ded565b92505b806001019050610ed4565b50809350505050919050565b60605f805480602002602001604051908101604052809291908181526020015f905b82821015611322578382905f5260205f20016040518060200160405290815f8201805461129390611aee565b80601f01602080910402602001604051908101604052809291908181526020018280546112bf90611aee565b801561130a5780601f106112e15761010080835404028352916020019161130a565b820191905f5260205f20905b8154815290600101906020018083116112ed57829003601f168201915b50505050508152505081526020019060010190611267565b50505050905090565b5f8160405160200161133d9190611e6e565b60405160208183030381529060405280519060200120836040516020016113649190611e6e565b6040516020818303038152906040528051906020012014905092915050565b6040518060800160405280606081526020016060815260200160608152602001606081525090565b5f604051905090565b5f80fd5b5f80fd5b5f80fd5b5f80fd5b5f601f19601f8301169050919050565b7f4e487b71000000000000000000000000000000000000000000000000000000005f52604160045260245ffd5b61140a826113c4565b810181811067ffffffffffffffff82111715611429576114286113d4565b5b80604052505050565b5f61143b6113ab565b90506114478282611401565b919050565b5f67ffffffffffffffff821115611466576114656113d4565b5b61146f826113c4565b9050602081019050919050565b828183375f83830152505050565b5f61149c6114978461144c565b611432565b9050828152602081018484840111156114b8576114b76113c0565b5b6114c384828561147c565b509392505050565b5f82601f8301126114df576114de6113bc565b5b81356114ef84826020860161148a565b91505092915050565b5f805f80608085870312156115105761150f6113b4565b5b5f85013567ffffffffffffffff81111561152d5761152c6113b8565b5b611539878288016114cb565b945050602085013567ffffffffffffffff81111561155a576115596113b8565b5b611566878288016114cb565b935050604085013567ffffffffffffffff811115611587576115866113b8565b5b611593878288016114cb565b925050606085013567ffffffffffffffff8111156115b4576115b36113b8565b5b6115c0878288016114cb565b91505092959194509250565b5f602082840312156115e1576115e06113b4565b5b5f82013567ffffffffffffffff8111156115fe576115fd6113b8565b5b61160a848285016114cb565b91505092915050565b5f8115159050919050565b61162781611613565b82525050565b5f6020820190506116405f83018461161e565b92915050565b5f81519050919050565b5f82825260208201905092915050565b5f819050602082019050919050565b5f81519050919050565b5f82825260208201905092915050565b5f5b838110156116a657808201518184015260208101905061168b565b5f8484015250505050565b5f6116bb8261166f565b6116c58185611679565b93506116d5818560208601611689565b6116de816113c4565b840191505092915050565b5f608083015f8301518482035f86015261170382826116b1565b9150506020830151848203602086015261171d82826116b1565b9150506040830151848203604086015261173782826116b1565b9150506060830151848203606086015261175182826116b1565b9150508091505092915050565b5f61176983836116e9565b905092915050565b5f602082019050919050565b5f61178782611646565b6117918185611650565b9350836020820285016117a385611660565b805f5b858110156117de57848403895281516117bf858261175e565b94506117ca83611771565b925060208a019950506001810190506117a6565b50829750879550505050505092915050565b5f6020820190508181035f830152611808818461177d565b905092915050565b5f8060408385031215611826576118256113b4565b5b5f83013567ffffffffffffffff811115611843576118426113b8565b5b61184f858286016114cb565b925050602083013567ffffffffffffffff8111156118705761186f6113b8565b5b61187c858286016114cb565b9150509250929050565b5f805f6060848603121561189d5761189c6113b4565b5b5f84013567ffffffffffffffff8111156118ba576118b96113b8565b5b6118c6868287016114cb565b935050602084013567ffffffffffffffff8111156118e7576118e66113b8565b5b6118f3868287016114cb565b925050604084013567ffffffffffffffff811115611914576119136113b8565b5b611920868287016114cb565b9150509250925092565b5f608083015f8301518482035f86015261194482826116b1565b9150506020830151848203602086015261195e82826116b1565b9150506040830151848203604086015261197882826116b1565b9150506060830151848203606086015261199282826116b1565b9150508091505092915050565b5f6020820190508181035f8301526119b7818461192a565b905092915050565b5f81519050919050565b5f82825260208201905092915050565b5f819050602082019050919050565b5f602083015f8301518482035f860152611a0282826116b1565b9150508091505092915050565b5f611a1a83836119e8565b905092915050565b5f602082019050919050565b5f611a38826119bf565b611a4281856119c9565b935083602082028501611a54856119d9565b805f5b85811015611a8f5784840389528151611a708582611a0f565b9450611a7b83611a22565b925060208a01995050600181019050611a57565b50829750879550505050505092915050565b5f6020820190508181035f830152611ab98184611a2e565b905092915050565b7f4e487b71000000000000000000000000000000000000000000000000000000005f52602260045260245ffd5b5f6002820490506001821680611b0557607f821691505b602082108103611b1857611b17611ac1565b5b50919050565b5f819050815f5260205f209050919050565b5f6020601f8301049050919050565b5f82821b905092915050565b5f60088302611b7a7fffffffffffffffffffffffffffffffffffffffffffffffffffffffffffffffff82611b3f565b611b848683611b3f565b95508019841693508086168417925050509392505050565b5f819050919050565b5f819050919050565b5f611bc8611bc3611bbe84611b9c565b611ba5565b611b9c565b9050919050565b5f819050919050565b611be183611bae565b611bf5611bed82611bcf565b848454611b4b565b825550505050565b5f90565b611c09611bfd565b611c14818484611bd8565b505050565b5b81811015611c3757611c2c5f82611c01565b600181019050611c1a565b5050565b601f821115611c7c57611c4d81611b1e565b611c5684611b30565b81016020851015611c65578190505b611c79611c7185611b30565b830182611c19565b50505b505050565b5f82821c905092915050565b5f611c9c5f1984600802611c81565b1980831691505092915050565b5f611cb48383611c8d565b9150826002028217905092915050565b611ccd8261166f565b67ffffffffffffffff811115611ce657611ce56113d4565b5b611cf08254611aee565b611cfb828285611c3b565b5f60209050601f831160018114611d2c575f8415611d1a578287015190505b611d248582611ca9565b865550611d8b565b601f198416611d3a86611b1e565b5f5b82811015611d6157848901518255600182019150602085019450602081019050611d3c565b86831015611d7e5784890151611d7a601f891682611c8d565b8355505b6001600288020188555050505b505050505050565b7f4e487b71000000000000000000000000000000000000000000000000000000005f52603260045260245ffd5b7f4e487b71000000000000000000000000000000000000000000000000000000005f52601160045260245ffd5b5f611df782611b9c565b91507fffffffffffffffffffffffffffffffffffffffffffffffffffffffffffffffff8203611e2957611e28611dc0565b5b600182019050919050565b5f81905092915050565b5f611e488261166f565b611e528185611e34565b9350611e62818560208601611689565b80840191505092915050565b5f611e798284611e3e565b91508190509291505056fea2646970667358221220e93fa9f2215e21d4430f88decd313a0a56ae71e67f457a1c0e10fbb57dc1956264736f6c63430008160033",
					"opcodes": "PUSH1 0x80 PUSH1 0x40 MSTORE CALLVALUE DUP1 ISZERO PUSH2 0xF JUMPI PUSH0 DUP1 REVERT JUMPDEST POP PUSH2 0x1EBA DUP1 PUSH2 0x1D PUSH0 CODECOPY PUSH0 RETURN INVALID PUSH1 0x80 PUSH1 0x40 MSTORE CALLVALUE DUP1 ISZERO PUSH2 0xF JUMPI PUSH0 DUP1 REVERT JUMPDEST POP PUSH1 0x4 CALLDATASIZE LT PUSH2 0x9C JUMPI PUSH0 CALLDATALOAD PUSH1 0xE0 SHR DUP1 PUSH4 0x9CB4BCB4 GT PUSH2 0x64 JUMPI DUP1 PUSH4 0x9CB4BCB4 EQ PUSH2 0x142 JUMPI DUP1 PUSH4 0xB0CE76A0 EQ PUSH2 0x15E JUMPI DUP1 PUSH4 0xDF4A259B EQ PUSH2 0x18E JUMPI DUP1 PUSH4 0xEF3172AF EQ PUSH2 0x1BE JUMPI DUP1 PUSH4 0xFD0D81B9 EQ PUSH2 0x1EE JUMPI PUSH2 0x9C JUMP JUMPDEST DUP1 PUSH4 0xD57F91F EQ PUSH2 0xA0 JUMPI DUP1 PUSH4 0x36C15E3A EQ PUSH2 0xBC JUMPI DUP1 PUSH4 0x3D86DA47 EQ PUSH2 0xD8 JUMPI DUP1 PUSH4 0x41F3004A EQ PUSH2 0x108 JUMPI DUP1 PUSH4 0x76DA2B9D EQ PUSH2 0x126 JUMPI JUMPDEST PUSH0 DUP1 REVERT JUMPDEST PUSH2 0xBA PUSH1 0x4 DUP1 CALLDATASIZE SUB DUP2 ADD SWAP1 PUSH2 0xB5 SWAP2 SWAP1 PUSH2 0x14F8 JUMP JUMPDEST PUSH2 0x20C JUMP JUMPDEST STOP JUMPDEST PUSH2 0xD6 PUSH1 0x4 DUP1 CALLDATASIZE SUB DUP2 ADD SWAP1 PUSH2 0xD1 SWAP2 SWAP1 PUSH2 0x15CC JUMP JUMPDEST PUSH2 0x2D4 JUMP JUMPDEST STOP JUMPDEST PUSH2 0xF2 PUSH1 0x4 DUP1 CALLDATASIZE SUB DUP2 ADD SWAP1 PUSH2 0xED SWAP2 SWAP1 PUSH2 0x15CC JUMP JUMPDEST PUSH2 0x332 JUMP JUMPDEST PUSH1 0x40 MLOAD PUSH2 0xFF SWAP2 SWAP1 PUSH2 0x162D JUMP JUMPDEST PUSH1 0x40 MLOAD DUP1 SWAP2 SUB SWAP1 RETURN JUMPDEST PUSH2 0x110 PUSH2 0x41B JUMP JUMPDEST PUSH1 0x40 MLOAD PUSH2 0x11D SWAP2 SWAP1 PUSH2 0x17F0 JUMP JUMPDEST PUSH1 0x40 MLOAD DUP1 SWAP2 SUB SWAP1 RETURN JUMPDEST PUSH2 0x140 PUSH1 0x4 DUP1 CALLDATASIZE SUB DUP2 ADD SWAP1 PUSH2 0x13B SWAP2 SWAP1 PUSH2 0x1810 JUMP JUMPDEST PUSH2 0x6B6 JUMP JUMPDEST STOP JUMPDEST PUSH2 0x15C PUSH1 0x4 DUP1 CALLDATASIZE SUB DUP2 ADD SWAP1 PUSH2 0x157 SWAP2 SWAP1 PUSH2 0x1886 JUMP JUMPDEST PUSH2 0x7CD JUMP JUMPDEST STOP JUMPDEST PUSH2 0x178 PUSH1 0x4 DUP1 CALLDATASIZE SUB DUP2 ADD SWAP1 PUSH2 0x173 SWAP2 SWAP1 PUSH2 0x15CC JUMP JUMPDEST PUSH2 0x907 JUMP JUMPDEST PUSH1 0x40 MLOAD PUSH2 0x185 SWAP2 SWAP1 PUSH2 0x162D JUMP JUMPDEST PUSH1 0x40 MLOAD DUP1 SWAP2 SUB SWAP1 RETURN JUMPDEST PUSH2 0x1A8 PUSH1 0x4 DUP1 CALLDATASIZE SUB DUP2 ADD SWAP1 PUSH2 0x1A3 SWAP2 SWAP1 PUSH2 0x15CC JUMP JUMPDEST PUSH2 0x9EA JUMP JUMPDEST PUSH1 0x40 MLOAD PUSH2 0x1B5 SWAP2 SWAP1 PUSH2 0x199F JUMP JUMPDEST PUSH1 0x40 MLOAD DUP1 SWAP2 SUB SWAP1 RETURN JUMPDEST PUSH2 0x1D8 PUSH1 0x4 DUP1 CALLDATASIZE SUB DUP2 ADD SWAP1 PUSH2 0x1D3 SWAP2 SWAP1 PUSH2 0x15CC JUMP JUMPDEST PUSH2 0xD97 JUMP JUMPDEST PUSH1 0x40 MLOAD PUSH2 0x1E5 SWAP2 SWAP1 PUSH2 0x17F0 JUMP JUMPDEST PUSH1 0x40 MLOAD DUP1 SWAP2 SUB SWAP1 RETURN JUMPDEST PUSH2 0x1F6 PUSH2 0x1245 JUMP JUMPDEST PUSH1 0x40 MLOAD PUSH2 0x203 SWAP2 SWAP1 PUSH2 0x1AA1 JUMP JUMPDEST PUSH1 0x40 MLOAD DUP1 SWAP2 SUB SWAP1 RETURN JUMPDEST PUSH2 0x215 DUP5 PUSH2 0x332 JUMP JUMPDEST PUSH2 0x2CE JUMPI PUSH2 0x222 DUP4 PUSH2 0x907 JUMP JUMPDEST ISZERO PUSH2 0x2CE JUMPI PUSH0 PUSH1 0x40 MLOAD DUP1 PUSH1 0x80 ADD PUSH1 0x40 MSTORE DUP1 DUP7 DUP2 MSTORE PUSH1 0x20 ADD DUP6 DUP2 MSTORE PUSH1 0x20 ADD DUP5 DUP2 MSTORE PUSH1 0x20 ADD DUP4 DUP2 MSTORE POP SWAP1 POP PUSH1 0x1 DUP2 SWAP1 DUP1 PUSH1 0x1 DUP2 SLOAD ADD DUP1 DUP3 SSTORE DUP1 SWAP2 POP POP PUSH1 0x1 SWAP1 SUB SWAP1 PUSH0 MSTORE PUSH1 0x20 PUSH0 KECCAK256 SWAP1 PUSH1 0x4 MUL ADD PUSH0 SWAP1 SWAP2 SWAP1 SWAP2 SWAP1 SWAP2 POP PUSH0 DUP3 ADD MLOAD DUP2 PUSH0 ADD SWAP1 DUP2 PUSH2 0x287 SWAP2 SWAP1 PUSH2 0x1CC4 JUMP JUMPDEST POP PUSH1 0x20 DUP3 ADD MLOAD DUP2 PUSH1 0x1 ADD SWAP1 DUP2 PUSH2 0x29D SWAP2 SWAP1 PUSH2 0x1CC4 JUMP JUMPDEST POP PUSH1 0x40 DUP3 ADD MLOAD DUP2 PUSH1 0x2 ADD SWAP1 DUP2 PUSH2 0x2B3 SWAP2 SWAP1 PUSH2 0x1CC4 JUMP JUMPDEST POP PUSH1 0x60 DUP3 ADD MLOAD DUP2 PUSH1 0x3 ADD SWAP1 DUP2 PUSH2 0x2C9 SWAP2 SWAP1 PUSH2 0x1CC4 JUMP JUMPDEST POP POP POP POP JUMPDEST POP POP POP POP JUMP JUMPDEST PUSH2 0x2DD DUP2 PUSH2 0x907 JUMP JUMPDEST PUSH2 0x32F JUMPI PUSH0 PUSH1 0x40 MLOAD DUP1 PUSH1 0x20 ADD PUSH1 0x40 MSTORE DUP1 DUP4 DUP2 MSTORE POP SWAP1 POP PUSH0 DUP2 SWAP1 DUP1 PUSH1 0x1 DUP2 SLOAD ADD DUP1 DUP3 SSTORE DUP1 SWAP2 POP POP PUSH1 0x1 SWAP1 SUB SWAP1 PUSH0 MSTORE PUSH1 0x20 PUSH0 KECCAK256 ADD PUSH0 SWAP1 SWAP2 SWAP1 SWAP2 SWAP1 SWAP2 POP PUSH0 DUP3 ADD MLOAD DUP2 PUSH0 ADD SWAP1 DUP2 PUSH2 0x32A SWAP2 SWAP1 PUSH2 0x1CC4 JUMP JUMPDEST POP POP POP POP JUMPDEST POP JUMP JUMPDEST PUSH0 DUP1 PUSH0 SWAP1 POP JUMPDEST PUSH1 0x1 DUP1 SLOAD SWAP1 POP DUP2 LT ISZERO PUSH2 0x411 JUMPI PUSH2 0x3F7 PUSH1 0x1 DUP3 DUP2 SLOAD DUP2 LT PUSH2 0x35C JUMPI PUSH2 0x35B PUSH2 0x1D93 JUMP JUMPDEST JUMPDEST SWAP1 PUSH0 MSTORE PUSH1 0x20 PUSH0 KECCAK256 SWAP1 PUSH1 0x4 MUL ADD PUSH0 ADD DUP1 SLOAD PUSH2 0x375 SWAP1 PUSH2 0x1AEE JUMP JUMPDEST DUP1 PUSH1 0x1F ADD PUSH1 0x20 DUP1 SWAP2 DIV MUL PUSH1 0x20 ADD PUSH1 0x40 MLOAD SWAP1 DUP2 ADD PUSH1 0x40 MSTORE DUP1 SWAP3 SWAP2 SWAP1 DUP2 DUP2 MSTORE PUSH1 0x20 ADD DUP3 DUP1 SLOAD PUSH2 0x3A1 SWAP1 PUSH2 0x1AEE JUMP JUMPDEST DUP1 ISZERO PUSH2 0x3EC JUMPI DUP1 PUSH1 0x1F LT PUSH2 0x3C3 JUMPI PUSH2 0x100 DUP1 DUP4 SLOAD DIV MUL DUP4 MSTORE SWAP2 PUSH1 0x20 ADD SWAP2 PUSH2 0x3EC JUMP JUMPDEST DUP3 ADD SWAP2 SWAP1 PUSH0 MSTORE PUSH1 0x20 PUSH0 KECCAK256 SWAP1 JUMPDEST DUP2 SLOAD DUP2 MSTORE SWAP1 PUSH1 0x1 ADD SWAP1 PUSH1 0x20 ADD DUP1 DUP4 GT PUSH2 0x3CF JUMPI DUP3 SWAP1 SUB PUSH1 0x1F AND DUP3 ADD SWAP2 JUMPDEST POP POP POP POP POP DUP5 PUSH2 0x132B JUMP JUMPDEST ISZERO PUSH2 0x406 JUMPI PUSH1 0x1 SWAP2 POP POP PUSH2 0x416 JUMP JUMPDEST DUP1 PUSH1 0x1 ADD SWAP1 POP PUSH2 0x338 JUMP JUMPDEST POP PUSH0 SWAP1 POP JUMPDEST SWAP2 SWAP1 POP JUMP JUMPDEST PUSH1 0x60 PUSH1 0x1 DUP1 SLOAD DUP1 PUSH1 0x20 MUL PUSH1 0x20 ADD PUSH1 0x40 MLOAD SWAP1 DUP2 ADD PUSH1 0x40 MSTORE DUP1 SWAP3 SWAP2 SWAP1 DUP2 DUP2 MSTORE PUSH1 0x20 ADD PUSH0 SWAP1 JUMPDEST DUP3 DUP3 LT ISZERO PUSH2 0x6AD JUMPI DUP4 DUP3 SWAP1 PUSH0 MSTORE PUSH1 0x20 PUSH0 KECCAK256 SWAP1 PUSH1 0x4 MUL ADD PUSH1 0x40 MLOAD DUP1 PUSH1 0x80 ADD PUSH1 0x40 MSTORE SWAP1 DUP2 PUSH0 DUP3 ADD DUP1 SLOAD PUSH2 0x46E SWAP1 PUSH2 0x1AEE JUMP JUMPDEST DUP1 PUSH1 0x1F ADD PUSH1 0x20 DUP1 SWAP2 DIV MUL PUSH1 0x20 ADD PUSH1 0x40 MLOAD SWAP1 DUP2 ADD PUSH1 0x40 MSTORE DUP1 SWAP3 SWAP2 SWAP1 DUP2 DUP2 MSTORE PUSH1 0x20 ADD DUP3 DUP1 SLOAD PUSH2 0x49A SWAP1 PUSH2 0x1AEE JUMP JUMPDEST DUP1 ISZERO PUSH2 0x4E5 JUMPI DUP1 PUSH1 0x1F LT PUSH2 0x4BC JUMPI PUSH2 0x100 DUP1 DUP4 SLOAD DIV MUL DUP4 MSTORE SWAP2 PUSH1 0x20 ADD SWAP2 PUSH2 0x4E5 JUMP JUMPDEST DUP3 ADD SWAP2 SWAP1 PUSH0 MSTORE PUSH1 0x20 PUSH0 KECCAK256 SWAP1 JUMPDEST DUP2 SLOAD DUP2 MSTORE SWAP1 PUSH1 0x1 ADD SWAP1 PUSH1 0x20 ADD DUP1 DUP4 GT PUSH2 0x4C8 JUMPI DUP3 SWAP1 SUB PUSH1 0x1F AND DUP3 ADD SWAP2 JUMPDEST POP POP POP POP POP DUP2 MSTORE PUSH1 0x20 ADD PUSH1 0x1 DUP3 ADD DUP1 SLOAD PUSH2 0x4FE SWAP1 PUSH2 0x1AEE JUMP JUMPDEST DUP1 PUSH1 0x1F ADD PUSH1 0x20 DUP1 SWAP2 DIV MUL PUSH1 0x20 ADD PUSH1 0x40 MLOAD SWAP1 DUP2 ADD PUSH1 0x40 MSTORE DUP1 SWAP3 SWAP2 SWAP1 DUP2 DUP2 MSTORE PUSH1 0x20 ADD DUP3 DUP1 SLOAD PUSH2 0x52A SWAP1 PUSH2 0x1AEE JUMP JUMPDEST DUP1 ISZERO PUSH2 0x575 JUMPI DUP1 PUSH1 0x1F LT PUSH2 0x54C JUMPI PUSH2 0x100 DUP1 DUP4 SLOAD DIV MUL DUP4 MSTORE SWAP2 PUSH1 0x20 ADD SWAP2 PUSH2 0x575 JUMP JUMPDEST DUP3 ADD SWAP2 SWAP1 PUSH0 MSTORE PUSH1 0x20 PUSH0 KECCAK256 SWAP1 JUMPDEST DUP2 SLOAD DUP2 MSTORE SWAP1 PUSH1 0x1 ADD SWAP1 PUSH1 0x20 ADD DUP1 DUP4 GT PUSH2 0x558 JUMPI DUP3 SWAP1 SUB PUSH1 0x1F AND DUP3 ADD SWAP2 JUMPDEST POP POP POP POP POP DUP2 MSTORE PUSH1 0x20 ADD PUSH1 0x2 DUP3 ADD DUP1 SLOAD PUSH2 0x58E SWAP1 PUSH2 0x1AEE JUMP JUMPDEST DUP1 PUSH1 0x1F ADD PUSH1 0x20 DUP1 SWAP2 DIV MUL PUSH1 0x20 ADD PUSH1 0x40 MLOAD SWAP1 DUP2 ADD PUSH1 0x40 MSTORE DUP1 SWAP3 SWAP2 SWAP1 DUP2 DUP2 MSTORE PUSH1 0x20 ADD DUP3 DUP1 SLOAD PUSH2 0x5BA SWAP1 PUSH2 0x1AEE JUMP JUMPDEST DUP1 ISZERO PUSH2 0x605 JUMPI DUP1 PUSH1 0x1F LT PUSH2 0x5DC JUMPI PUSH2 0x100 DUP1 DUP4 SLOAD DIV MUL DUP4 MSTORE SWAP2 PUSH1 0x20 ADD SWAP2 PUSH2 0x605 JUMP JUMPDEST DUP3 ADD SWAP2 SWAP1 PUSH0 MSTORE PUSH1 0x20 PUSH0 KECCAK256 SWAP1 JUMPDEST DUP2 SLOAD DUP2 MSTORE SWAP1 PUSH1 0x1 ADD SWAP1 PUSH1 0x20 ADD DUP1 DUP4 GT PUSH2 0x5E8 JUMPI DUP3 SWAP1 SUB PUSH1 0x1F AND DUP3 ADD SWAP2 JUMPDEST POP POP POP POP POP DUP2 MSTORE PUSH1 0x20 ADD PUSH1 0x3 DUP3 ADD DUP1 SLOAD PUSH2 0x61E SWAP1 PUSH2 0x1AEE JUMP JUMPDEST DUP1 PUSH1 0x1F ADD PUSH1 0x20 DUP1 SWAP2 DIV MUL PUSH1 0x20 ADD PUSH1 0x40 MLOAD SWAP1 DUP2 ADD PUSH1 0x40 MSTORE DUP1 SWAP3 SWAP2 SWAP1 DUP2 DUP2 MSTORE PUSH1 0x20 ADD DUP3 DUP1 SLOAD PUSH2 0x64A SWAP1 PUSH2 0x1AEE JUMP JUMPDEST DUP1 ISZERO PUSH2 0x695 JUMPI DUP1 PUSH1 0x1F LT PUSH2 0x66C JUMPI PUSH2 0x100 DUP1 DUP4 SLOAD DIV MUL DUP4 MSTORE SWAP2 PUSH1 0x20 ADD SWAP2 PUSH2 0x695 JUMP JUMPDEST DUP3 ADD SWAP2 SWAP1 PUSH0 MSTORE PUSH1 0x20 PUSH0 KECCAK256 SWAP1 JUMPDEST DUP2 SLOAD DUP2 MSTORE SWAP1 PUSH1 0x1 ADD SWAP1 PUSH1 0x20 ADD DUP1 DUP4 GT PUSH2 0x678 JUMPI DUP3 SWAP1 SUB PUSH1 0x1F AND DUP3 ADD SWAP2 JUMPDEST POP POP POP POP POP DUP2 MSTORE POP POP DUP2 MSTORE PUSH1 0x20 ADD SWAP1 PUSH1 0x1 ADD SWAP1 PUSH2 0x43E JUMP JUMPDEST POP POP POP POP SWAP1 POP SWAP1 JUMP JUMPDEST PUSH2 0x6BF DUP2 PUSH2 0x907 JUMP JUMPDEST ISZERO PUSH2 0x7C9 JUMPI PUSH0 JUMPDEST PUSH1 0x1 DUP1 SLOAD SWAP1 POP DUP2 LT ISZERO PUSH2 0x7C7 JUMPI PUSH2 0x785 PUSH1 0x1 DUP3 DUP2 SLOAD DUP2 LT PUSH2 0x6EA JUMPI PUSH2 0x6E9 PUSH2 0x1D93 JUMP JUMPDEST JUMPDEST SWAP1 PUSH0 MSTORE PUSH1 0x20 PUSH0 KECCAK256 SWAP1 PUSH1 0x4 MUL ADD PUSH0 ADD DUP1 SLOAD PUSH2 0x703 SWAP1 PUSH2 0x1AEE JUMP JUMPDEST DUP1 PUSH1 0x1F ADD PUSH1 0x20 DUP1 SWAP2 DIV MUL PUSH1 0x20 ADD PUSH1 0x40 MLOAD SWAP1 DUP2 ADD PUSH1 0x40 MSTORE DUP1 SWAP3 SWAP2 SWAP1 DUP2 DUP2 MSTORE PUSH1 0x20 ADD DUP3 DUP1 SLOAD PUSH2 0x72F SWAP1 PUSH2 0x1AEE JUMP JUMPDEST DUP1 ISZERO PUSH2 0x77A JUMPI DUP1 PUSH1 0x1F LT PUSH2 0x751 JUMPI PUSH2 0x100 DUP1 DUP4 SLOAD DIV MUL DUP4 MSTORE SWAP2 PUSH1 0x20 ADD SWAP2 PUSH2 0x77A JUMP JUMPDEST DUP3 ADD SWAP2 SWAP1 PUSH0 MSTORE PUSH1 0x20 PUSH0 KECCAK256 SWAP1 JUMPDEST DUP2 SLOAD DUP2 MSTORE SWAP1 PUSH1 0x1 ADD SWAP1 PUSH1 0x20 ADD DUP1 DUP4 GT PUSH2 0x75D JUMPI DUP3 SWAP1 SUB PUSH1 0x1F AND DUP3 ADD SWAP2 JUMPDEST POP POP POP POP POP DUP5 PUSH2 0x132B JUMP JUMPDEST ISZERO PUSH2 0x7BC JUMPI DUP2 PUSH1 0x1 DUP3 DUP2 SLOAD DUP2 LT PUSH2 0x79F JUMPI PUSH2 0x79E PUSH2 0x1D93 JUMP JUMPDEST JUMPDEST SWAP1 PUSH0 MSTORE PUSH1 0x20 PUSH0 KECCAK256 SWAP1 PUSH1 0x4 MUL ADD PUSH1 0x1 ADD SWAP1 DUP2 PUSH2 0x7BA SWAP2 SWAP1 PUSH2 0x1CC4 JUMP JUMPDEST POP JUMPDEST DUP1 PUSH1 0x1 ADD SWAP1 POP PUSH2 0x6C6 JUMP JUMPDEST POP JUMPDEST POP POP JUMP JUMPDEST PUSH0 JUMPDEST PUSH1 0x1 DUP1 SLOAD SWAP1 POP DUP2 LT ISZERO PUSH2 0x901 JUMPI PUSH2 0x88E PUSH1 0x1 DUP3 DUP2 SLOAD DUP2 LT PUSH2 0x7F3 JUMPI PUSH2 0x7F2 PUSH2 0x1D93 JUMP JUMPDEST JUMPDEST SWAP1 PUSH0 MSTORE PUSH1 0x20 PUSH0 KECCAK256 SWAP1 PUSH1 0x4 MUL ADD PUSH0 ADD DUP1 SLOAD PUSH2 0x80C SWAP1 PUSH2 0x1AEE JUMP JUMPDEST DUP1 PUSH1 0x1F ADD PUSH1 0x20 DUP1 SWAP2 DIV MUL PUSH1 0x20 ADD PUSH1 0x40 MLOAD SWAP1 DUP2 ADD PUSH1 0x40 MSTORE DUP1 SWAP3 SWAP2 SWAP1 DUP2 DUP2 MSTORE PUSH1 0x20 ADD DUP3 DUP1 SLOAD PUSH2 0x838 SWAP1 PUSH2 0x1AEE JUMP JUMPDEST DUP1 ISZERO PUSH2 0x883 JUMPI DUP1 PUSH1 0x1F LT PUSH2 0x85A JUMPI PUSH2 0x100 DUP1 DUP4 SLOAD DIV MUL DUP4 MSTORE SWAP2 PUSH1 0x20 ADD SWAP2 PUSH2 0x883 JUMP JUMPDEST DUP3 ADD SWAP2 SWAP1 PUSH0 MSTORE PUSH1 0x20 PUSH0 KECCAK256 SWAP1 JUMPDEST DUP2 SLOAD DUP2 MSTORE SWAP1 PUSH1 0x1 ADD SWAP1 PUSH1 0x20 ADD DUP1 DUP4 GT PUSH2 0x866 JUMPI DUP3 SWAP1 SUB PUSH1 0x1F AND DUP3 ADD SWAP2 JUMPDEST POP POP POP POP POP DUP6 PUSH2 0x132B JUMP JUMPDEST ISZERO PUSH2 0x8F6 JUMPI DUP3 PUSH1 0x1 DUP3 DUP2 SLOAD DUP2 LT PUSH2 0x8A8 JUMPI PUSH2 0x8A7 PUSH2 0x1D93 JUMP JUMPDEST JUMPDEST SWAP1 PUSH0 MSTORE PUSH1 0x20 PUSH0 KECCAK256 SWAP1 PUSH1 0x4 MUL ADD PUSH1 0x2 ADD SWAP1 DUP2 PUSH2 0x8C3 SWAP2 SWAP1 PUSH2 0x1CC4 JUMP JUMPDEST POP DUP2 PUSH1 0x1 DUP3 DUP2 SLOAD DUP2 LT PUSH2 0x8D9 JUMPI PUSH2 0x8D8 PUSH2 0x1D93 JUMP JUMPDEST JUMPDEST SWAP1 PUSH0 MSTORE PUSH1 0x20 PUSH0 KECCAK256 SWAP1 PUSH1 0x4 MUL ADD PUSH1 0x3 ADD SWAP1 DUP2 PUSH2 0x8F4 SWAP2 SWAP1 PUSH2 0x1CC4 JUMP JUMPDEST POP JUMPDEST DUP1 PUSH1 0x1 ADD SWAP1 POP PUSH2 0x7CF JUMP JUMPDEST POP POP POP POP JUMP JUMPDEST PUSH0 DUP1 PUSH0 SWAP1 POP JUMPDEST PUSH0 DUP1 SLOAD SWAP1 POP DUP2 LT ISZERO PUSH2 0x9E0 JUMPI PUSH2 0x9C6 PUSH0 DUP3 DUP2 SLOAD DUP2 LT PUSH2 0x92F JUMPI PUSH2 0x92E PUSH2 0x1D93 JUMP JUMPDEST JUMPDEST SWAP1 PUSH0 MSTORE PUSH1 0x20 PUSH0 KECCAK256 ADD PUSH0 ADD DUP1 SLOAD PUSH2 0x944 SWAP1 PUSH2 0x1AEE JUMP JUMPDEST DUP1 PUSH1 0x1F ADD PUSH1 0x20 DUP1 SWAP2 DIV MUL PUSH1 0x20 ADD PUSH1 0x40 MLOAD SWAP1 DUP2 ADD PUSH1 0x40 MSTORE DUP1 SWAP3 SWAP2 SWAP1 DUP2 DUP2 MSTORE PUSH1 0x20 ADD DUP3 DUP1 SLOAD PUSH2 0x970 SWAP1 PUSH2 0x1AEE JUMP JUMPDEST DUP1 ISZERO PUSH2 0x9BB JUMPI DUP1 PUSH1 0x1F LT PUSH2 0x992 JUMPI PUSH2 0x100 DUP1 DUP4 SLOAD DIV MUL DUP4 MSTORE SWAP2 PUSH1 0x20 ADD SWAP2 PUSH2 0x9BB JUMP JUMPDEST DUP3 ADD SWAP2 SWAP1 PUSH0 MSTORE PUSH1 0x20 PUSH0 KECCAK256 SWAP1 JUMPDEST DUP2 SLOAD DUP2 MSTORE SWAP1 PUSH1 0x1 ADD SWAP1 PUSH1 0x20 ADD DUP1 DUP4 GT PUSH2 0x99E JUMPI DUP3 SWAP1 SUB PUSH1 0x1F AND DUP3 ADD SWAP2 JUMPDEST POP POP POP POP POP DUP5 PUSH2 0x132B JUMP JUMPDEST ISZERO PUSH2 0x9D5 JUMPI PUSH1 0x1 SWAP2 POP POP PUSH2 0x9E5 JUMP JUMPDEST DUP1 PUSH1 0x1 ADD SWAP1 POP PUSH2 0x90D JUMP JUMPDEST POP PUSH0 SWAP1 POP JUMPDEST SWAP2 SWAP1 POP JUMP JUMPDEST PUSH2 0x9F2 PUSH2 0x1383 JUMP JUMPDEST PUSH0 JUMPDEST PUSH1 0x1 DUP1 SLOAD SWAP1 POP DUP2 LT ISZERO PUSH2 0xD35 JUMPI PUSH2 0xAB3 PUSH1 0x1 DUP3 DUP2 SLOAD DUP2 LT PUSH2 0xA18 JUMPI PUSH2 0xA17 PUSH2 0x1D93 JUMP JUMPDEST JUMPDEST SWAP1 PUSH0 MSTORE PUSH1 0x20 PUSH0 KECCAK256 SWAP1 PUSH1 0x4 MUL ADD PUSH0 ADD DUP1 SLOAD PUSH2 0xA31 SWAP1 PUSH2 0x1AEE JUMP JUMPDEST DUP1 PUSH1 0x1F ADD PUSH1 0x20 DUP1 SWAP2 DIV MUL PUSH1 0x20 ADD PUSH1 0x40 MLOAD SWAP1 DUP2 ADD PUSH1 0x40 MSTORE DUP1 SWAP3 SWAP2 SWAP1 DUP2 DUP2 MSTORE PUSH1 0x20 ADD DUP3 DUP1 SLOAD PUSH2 0xA5D SWAP1 PUSH2 0x1AEE JUMP JUMPDEST DUP1 ISZERO PUSH2 0xAA8 JUMPI DUP1 PUSH1 0x1F LT PUSH2 0xA7F JUMPI PUSH2 0x100 DUP1 DUP4 SLOAD DIV MUL DUP4 MSTORE SWAP2 PUSH1 0x20 ADD SWAP2 PUSH2 0xAA8 JUMP JUMPDEST DUP3 ADD SWAP2 SWAP1 PUSH0 MSTORE PUSH1 0x20 PUSH0 KECCAK256 SWAP1 JUMPDEST DUP2 SLOAD DUP2 MSTORE SWAP1 PUSH1 0x1 ADD SWAP1 PUSH1 0x20 ADD DUP1 DUP4 GT PUSH2 0xA8B JUMPI DUP3 SWAP1 SUB PUSH1 0x1F AND DUP3 ADD SWAP2 JUMPDEST POP POP POP POP POP DUP5 PUSH2 0x132B JUMP JUMPDEST ISZERO PUSH2 0xD2A JUMPI PUSH1 0x1 DUP2 DUP2 SLOAD DUP2 LT PUSH2 0xACC JUMPI PUSH2 0xACB PUSH2 0x1D93 JUMP JUMPDEST JUMPDEST SWAP1 PUSH0 MSTORE PUSH1 0x20 PUSH0 KECCAK256 SWAP1 PUSH1 0x4 MUL ADD PUSH1 0x40 MLOAD DUP1 PUSH1 0x80 ADD PUSH1 0x40 MSTORE SWAP1 DUP2 PUSH0 DUP3 ADD DUP1 SLOAD PUSH2 0xAF2 SWAP1 PUSH2 0x1AEE JUMP JUMPDEST DUP1 PUSH1 0x1F ADD PUSH1 0x20 DUP1 SWAP2 DIV MUL PUSH1 0x20 ADD PUSH1 0x40 MLOAD SWAP1 DUP2 ADD PUSH1 0x40 MSTORE DUP1 SWAP3 SWAP2 SWAP1 DUP2 DUP2 MSTORE PUSH1 0x20 ADD DUP3 DUP1 SLOAD PUSH2 0xB1E SWAP1 PUSH2 0x1AEE JUMP JUMPDEST DUP1 ISZERO PUSH2 0xB69 JUMPI DUP1 PUSH1 0x1F LT PUSH2 0xB40 JUMPI PUSH2 0x100 DUP1 DUP4 SLOAD DIV MUL DUP4 MSTORE SWAP2 PUSH1 0x20 ADD SWAP2 PUSH2 0xB69 JUMP JUMPDEST DUP3 ADD SWAP2 SWAP1 PUSH0 MSTORE PUSH1 0x20 PUSH0 KECCAK256 SWAP1 JUMPDEST DUP2 SLOAD DUP2 MSTORE SWAP1 PUSH1 0x1 ADD SWAP1 PUSH1 0x20 ADD DUP1 DUP4 GT PUSH2 0xB4C JUMPI DUP3 SWAP1 SUB PUSH1 0x1F AND DUP3 ADD SWAP2 JUMPDEST POP POP POP POP POP DUP2 MSTORE PUSH1 0x20 ADD PUSH1 0x1 DUP3 ADD DUP1 SLOAD PUSH2 0xB82 SWAP1 PUSH2 0x1AEE JUMP JUMPDEST DUP1 PUSH1 0x1F ADD PUSH1 0x20 DUP1 SWAP2 DIV MUL PUSH1 0x20 ADD PUSH1 0x40 MLOAD SWAP1 DUP2 ADD PUSH1 0x40 MSTORE DUP1 SWAP3 SWAP2 SWAP1 DUP2 DUP2 MSTORE PUSH1 0x20 ADD DUP3 DUP1 SLOAD PUSH2 0xBAE SWAP1 PUSH2 0x1AEE JUMP JUMPDEST DUP1 ISZERO PUSH2 0xBF9 JUMPI DUP1 PUSH1 0x1F LT PUSH2 0xBD0 JUMPI PUSH2 0x100 DUP1 DUP4 SLOAD DIV MUL DUP4 MSTORE SWAP2 PUSH1 0x20 ADD SWAP2 PUSH2 0xBF9 JUMP JUMPDEST DUP3 ADD SWAP2 SWAP1 PUSH0 MSTORE PUSH1 0x20 PUSH0 KECCAK256 SWAP1 JUMPDEST DUP2 SLOAD DUP2 MSTORE SWAP1 PUSH1 0x1 ADD SWAP1 PUSH1 0x20 ADD DUP1 DUP4 GT PUSH2 0xBDC JUMPI DUP3 SWAP1 SUB PUSH1 0x1F AND DUP3 ADD SWAP2 JUMPDEST POP POP POP POP POP DUP2 MSTORE PUSH1 0x20 ADD PUSH1 0x2 DUP3 ADD DUP1 SLOAD PUSH2 0xC12 SWAP1 PUSH2 0x1AEE JUMP JUMPDEST DUP1 PUSH1 0x1F ADD PUSH1 0x20 DUP1 SWAP2 DIV MUL PUSH1 0x20 ADD PUSH1 0x40 MLOAD SWAP1 DUP2 ADD PUSH1 0x40 MSTORE DUP1 SWAP3 SWAP2 SWAP1 DUP2 DUP2 MSTORE PUSH1 0x20 ADD DUP3 DUP1 SLOAD PUSH2 0xC3E SWAP1 PUSH2 0x1AEE JUMP JUMPDEST DUP1 ISZERO PUSH2 0xC89 JUMPI DUP1 PUSH1 0x1F LT PUSH2 0xC60 JUMPI PUSH2 0x100 DUP1 DUP4 SLOAD DIV MUL DUP4 MSTORE SWAP2 PUSH1 0x20 ADD SWAP2 PUSH2 0xC89 JUMP JUMPDEST DUP3 ADD SWAP2 SWAP1 PUSH0 MSTORE PUSH1 0x20 PUSH0 KECCAK256 SWAP1 JUMPDEST DUP2 SLOAD DUP2 MSTORE SWAP1 PUSH1 0x1 ADD SWAP1 PUSH1 0x20 ADD DUP1 DUP4 GT PUSH2 0xC6C JUMPI DUP3 SWAP1 SUB PUSH1 0x1F AND DUP3 ADD SWAP2 JUMPDEST POP POP POP POP POP DUP2 MSTORE PUSH1 0x20 ADD PUSH1 0x3 DUP3 ADD DUP1 SLOAD PUSH2 0xCA2 SWAP1 PUSH2 0x1AEE JUMP JUMPDEST DUP1 PUSH1 0x1F ADD PUSH1 0x20 DUP1 SWAP2 DIV MUL PUSH1 0x20 ADD PUSH1 0x40 MLOAD SWAP1 DUP2 ADD PUSH1 0x40 MSTORE DUP1 SWAP3 SWAP2 SWAP1 DUP2 DUP2 MSTORE PUSH1 0x20 ADD DUP3 DUP1 SLOAD PUSH2 0xCCE SWAP1 PUSH2 0x1AEE JUMP JUMPDEST DUP1 ISZERO PUSH2 0xD19 JUMPI DUP1 PUSH1 0x1F LT PUSH2 0xCF0 JUMPI PUSH2 0x100 DUP1 DUP4 SLOAD DIV MUL DUP4 MSTORE SWAP2 PUSH1 0x20 ADD SWAP2 PUSH2 0xD19 JUMP JUMPDEST DUP3 ADD SWAP2 SWAP1 PUSH0 MSTORE PUSH1 0x20 PUSH0 KECCAK256 SWAP1 JUMPDEST DUP2 SLOAD DUP2 MSTORE SWAP1 PUSH1 0x1 ADD SWAP1 PUSH1 0x20 ADD DUP1 DUP4 GT PUSH2 0xCFC JUMPI DUP3 SWAP1 SUB PUSH1 0x1F AND DUP3 ADD SWAP2 JUMPDEST POP POP POP POP POP DUP2 MSTORE POP POP SWAP2 POP POP PUSH2 0xD92 JUMP JUMPDEST DUP1 PUSH1 0x1 ADD SWAP1 POP PUSH2 0x9F4 JUMP JUMPDEST POP PUSH1 0x40 MLOAD DUP1 PUSH1 0x80 ADD PUSH1 0x40 MSTORE DUP1 PUSH1 0x40 MLOAD DUP1 PUSH1 0x20 ADD PUSH1 0x40 MSTORE DUP1 PUSH0 DUP2 MSTORE POP DUP2 MSTORE PUSH1 0x20 ADD PUSH1 0x40 MLOAD DUP1 PUSH1 0x20 ADD PUSH1 0x40 MSTORE DUP1 PUSH0 DUP2 MSTORE POP DUP2 MSTORE PUSH1 0x20 ADD PUSH1 0x40 MLOAD DUP1 PUSH1 0x20 ADD PUSH1 0x40 MSTORE DUP1 PUSH0 DUP2 MSTORE POP DUP2 MSTORE PUSH1 0x20 ADD PUSH1 0x40 MLOAD DUP1 PUSH1 0x20 ADD PUSH1 0x40 MSTORE DUP1 PUSH0 DUP2 MSTORE POP DUP2 MSTORE POP SWAP1 POP JUMPDEST SWAP2 SWAP1 POP JUMP JUMPDEST PUSH1 0x60 PUSH0 DUP1 PUSH0 JUMPDEST PUSH1 0x1 DUP1 SLOAD SWAP1 POP DUP2 LT ISZERO PUSH2 0xE7A JUMPI PUSH2 0xE5D PUSH1 0x1 DUP3 DUP2 SLOAD DUP2 LT PUSH2 0xDC1 JUMPI PUSH2 0xDC0 PUSH2 0x1D93 JUMP JUMPDEST JUMPDEST SWAP1 PUSH0 MSTORE PUSH1 0x20 PUSH0 KECCAK256 SWAP1 PUSH1 0x4 MUL ADD PUSH1 0x1 ADD DUP1 SLOAD PUSH2 0xDDB SWAP1 PUSH2 0x1AEE JUMP JUMPDEST DUP1 PUSH1 0x1F ADD PUSH1 0x20 DUP1 SWAP2 DIV MUL PUSH1 0x20 ADD PUSH1 0x40 MLOAD SWAP1 DUP2 ADD PUSH1 0x40 MSTORE DUP1 SWAP3 SWAP2 SWAP1 DUP2 DUP2 MSTORE PUSH1 0x20 ADD DUP3 DUP1 SLOAD PUSH2 0xE07 SWAP1 PUSH2 0x1AEE JUMP JUMPDEST DUP1 ISZERO PUSH2 0xE52 JUMPI DUP1 PUSH1 0x1F LT PUSH2 0xE29 JUMPI PUSH2 0x100 DUP1 DUP4 SLOAD DIV MUL DUP4 MSTORE SWAP2 PUSH1 0x20 ADD SWAP2 PUSH2 0xE52 JUMP JUMPDEST DUP3 ADD SWAP2 SWAP1 PUSH0 MSTORE PUSH1 0x20 PUSH0 KECCAK256 SWAP1 JUMPDEST DUP2 SLOAD DUP2 MSTORE SWAP1 PUSH1 0x1 ADD SWAP1 PUSH1 0x20 ADD DUP1 DUP4 GT PUSH2 0xE35 JUMPI DUP3 SWAP1 SUB PUSH1 0x1F AND DUP3 ADD SWAP2 JUMPDEST POP POP POP POP POP DUP7 PUSH2 0x132B JUMP JUMPDEST ISZERO PUSH2 0xE6F JUMPI DUP3 PUSH2 0xE6C SWAP1 PUSH2 0x1DED JUMP JUMPDEST SWAP3 POP JUMPDEST DUP1 PUSH1 0x1 ADD SWAP1 POP PUSH2 0xD9D JUMP JUMPDEST POP PUSH0 DUP3 PUSH8 0xFFFFFFFFFFFFFFFF DUP2 GT ISZERO PUSH2 0xE96 JUMPI PUSH2 0xE95 PUSH2 0x13D4 JUMP JUMPDEST JUMPDEST PUSH1 0x40 MLOAD SWAP1 DUP1 DUP3 MSTORE DUP1 PUSH1 0x20 MUL PUSH1 0x20 ADD DUP3 ADD PUSH1 0x40 MSTORE DUP1 ISZERO PUSH2 0xECF JUMPI DUP2 PUSH1 0x20 ADD JUMPDEST PUSH2 0xEBC PUSH2 0x1383 JUMP JUMPDEST DUP2 MSTORE PUSH1 0x20 ADD SWAP1 PUSH1 0x1 SWAP1 SUB SWAP1 DUP2 PUSH2 0xEB4 JUMPI SWAP1 POP JUMPDEST POP SWAP1 POP PUSH0 JUMPDEST PUSH1 0x1 DUP1 SLOAD SWAP1 POP DUP2 LT ISZERO PUSH2 0x1239 JUMPI PUSH2 0xF94 PUSH1 0x1 DUP3 DUP2 SLOAD DUP2 LT PUSH2 0xEF8 JUMPI PUSH2 0xEF7 PUSH2 0x1D93 JUMP JUMPDEST JUMPDEST SWAP1 PUSH0 MSTORE PUSH1 0x20 PUSH0 KECCAK256 SWAP1 PUSH1 0x4 MUL ADD PUSH1 0x1 ADD DUP1 SLOAD PUSH2 0xF12 SWAP1 PUSH2 0x1AEE JUMP JUMPDEST DUP1 PUSH1 0x1F ADD PUSH1 0x20 DUP1 SWAP2 DIV MUL PUSH1 0x20 ADD PUSH1 0x40 MLOAD SWAP1 DUP2 ADD PUSH1 0x40 MSTORE DUP1 SWAP3 SWAP2 SWAP1 DUP2 DUP2 MSTORE PUSH1 0x20 ADD DUP3 DUP1 SLOAD PUSH2 0xF3E SWAP1 PUSH2 0x1AEE JUMP JUMPDEST DUP1 ISZERO PUSH2 0xF89 JUMPI DUP1 PUSH1 0x1F LT PUSH2 0xF60 JUMPI PUSH2 0x100 DUP1 DUP4 SLOAD DIV MUL DUP4 MSTORE SWAP2 PUSH1 0x20 ADD SWAP2 PUSH2 0xF89 JUMP JUMPDEST DUP3 ADD SWAP2 SWAP1 PUSH0 MSTORE PUSH1 0x20 PUSH0 KECCAK256 SWAP1 JUMPDEST DUP2 SLOAD DUP2 MSTORE SWAP1 PUSH1 0x1 ADD SWAP1 PUSH1 0x20 ADD DUP1 DUP4 GT PUSH2 0xF6C JUMPI DUP3 SWAP1 SUB PUSH1 0x1F AND DUP3 ADD SWAP2 JUMPDEST POP POP POP POP POP DUP8 PUSH2 0x132B JUMP JUMPDEST ISZERO PUSH2 0x122E JUMPI PUSH1 0x1 DUP2 DUP2 SLOAD DUP2 LT PUSH2 0xFAD JUMPI PUSH2 0xFAC PUSH2 0x1D93 JUMP JUMPDEST JUMPDEST SWAP1 PUSH0 MSTORE PUSH1 0x20 PUSH0 KECCAK256 SWAP1 PUSH1 0x4 MUL ADD PUSH1 0x40 MLOAD DUP1 PUSH1 0x80 ADD PUSH1 0x40 MSTORE SWAP1 DUP2 PUSH0 DUP3 ADD DUP1 SLOAD PUSH2 0xFD3 SWAP1 PUSH2 0x1AEE JUMP JUMPDEST DUP1 PUSH1 0x1F ADD PUSH1 0x20 DUP1 SWAP2 DIV MUL PUSH1 0x20 ADD PUSH1 0x40 MLOAD SWAP1 DUP2 ADD PUSH1 0x40 MSTORE DUP1 SWAP3 SWAP2 SWAP1 DUP2 DUP2 MSTORE PUSH1 0x20 ADD DUP3 DUP1 SLOAD PUSH2 0xFFF SWAP1 PUSH2 0x1AEE JUMP JUMPDEST DUP1 ISZERO PUSH2 0x104A JUMPI DUP1 PUSH1 0x1F LT PUSH2 0x1021 JUMPI PUSH2 0x100 DUP1 DUP4 SLOAD DIV MUL DUP4 MSTORE SWAP2 PUSH1 0x20 ADD SWAP2 PUSH2 0x104A JUMP JUMPDEST DUP3 ADD SWAP2 SWAP1 PUSH0 MSTORE PUSH1 0x20 PUSH0 KECCAK256 SWAP1 JUMPDEST DUP2 SLOAD DUP2 MSTORE SWAP1 PUSH1 0x1 ADD SWAP1 PUSH1 0x20 ADD DUP1 DUP4 GT PUSH2 0x102D JUMPI DUP3 SWAP1 SUB PUSH1 0x1F AND DUP3 ADD SWAP2 JUMPDEST POP POP POP POP POP DUP2 MSTORE PUSH1 0x20 ADD PUSH1 0x1 DUP3 ADD DUP1 SLOAD PUSH2 0x1063 SWAP1 PUSH2 0x1AEE JUMP JUMPDEST DUP1 PUSH1 0x1F ADD PUSH1 0x20 DUP1 SWAP2 DIV MUL PUSH1 0x20 ADD PUSH1 0x40 MLOAD SWAP1 DUP2 ADD PUSH1 0x40 MSTORE DUP1 SWAP3 SWAP2 SWAP1 DUP2 DUP2 MSTORE PUSH1 0x20 ADD DUP3 DUP1 SLOAD PUSH2 0x108F SWAP1 PUSH2 0x1AEE JUMP JUMPDEST DUP1 ISZERO PUSH2 0x10DA JUMPI DUP1 PUSH1 0x1F LT PUSH2 0x10B1 JUMPI PUSH2 0x100 DUP1 DUP4 SLOAD DIV MUL DUP4 MSTORE SWAP2 PUSH1 0x20 ADD SWAP2 PUSH2 0x10DA JUMP JUMPDEST DUP3 ADD SWAP2 SWAP1 PUSH0 MSTORE PUSH1 0x20 PUSH0 KECCAK256 SWAP1 JUMPDEST DUP2 SLOAD DUP2 MSTORE SWAP1 PUSH1 0x1 ADD SWAP1 PUSH1 0x20 ADD DUP1 DUP4 GT PUSH2 0x10BD JUMPI DUP3 SWAP1 SUB PUSH1 0x1F AND DUP3 ADD SWAP2 JUMPDEST POP POP POP POP POP DUP2 MSTORE PUSH1 0x20 ADD PUSH1 0x2 DUP3 ADD DUP1 SLOAD PUSH2 0x10F3 SWAP1 PUSH2 0x1AEE JUMP JUMPDEST DUP1 PUSH1 0x1F ADD PUSH1 0x20 DUP1 SWAP2 DIV MUL PUSH1 0x20 ADD PUSH1 0x40 MLOAD SWAP1 DUP2 ADD PUSH1 0x40 MSTORE DUP1 SWAP3 SWAP2 SWAP1 DUP2 DUP2 MSTORE PUSH1 0x20 ADD DUP3 DUP1 SLOAD PUSH2 0x111F SWAP1 PUSH2 0x1AEE JUMP JUMPDEST DUP1 ISZERO PUSH2 0x116A JUMPI DUP1 PUSH1 0x1F LT PUSH2 0x1141 JUMPI PUSH2 0x100 DUP1 DUP4 SLOAD DIV MUL DUP4 MSTORE SWAP2 PUSH1 0x20 ADD SWAP2 PUSH2 0x116A JUMP JUMPDEST DUP3 ADD SWAP2 SWAP1 PUSH0 MSTORE PUSH1 0x20 PUSH0 KECCAK256 SWAP1 JUMPDEST DUP2 SLOAD DUP2 MSTORE SWAP1 PUSH1 0x1 ADD SWAP1 PUSH1 0x20 ADD DUP1 DUP4 GT PUSH2 0x114D JUMPI DUP3 SWAP1 SUB PUSH1 0x1F AND DUP3 ADD SWAP2 JUMPDEST POP POP POP POP POP DUP2 MSTORE PUSH1 0x20 ADD PUSH1 0x3 DUP3 ADD DUP1 SLOAD PUSH2 0x1183 SWAP1 PUSH2 0x1AEE JUMP JUMPDEST DUP1 PUSH1 0x1F ADD PUSH1 0x20 DUP1 SWAP2 DIV MUL PUSH1 0x20 ADD PUSH1 0x40 MLOAD SWAP1 DUP2 ADD PUSH1 0x40 MSTORE DUP1 SWAP3 SWAP2 SWAP1 DUP2 DUP2 MSTORE PUSH1 0x20 ADD DUP3 DUP1 SLOAD PUSH2 0x11AF SWAP1 PUSH2 0x1AEE JUMP JUMPDEST DUP1 ISZERO PUSH2 0x11FA JUMPI DUP1 PUSH1 0x1F LT PUSH2 0x11D1 JUMPI PUSH2 0x100 DUP1 DUP4 SLOAD DIV MUL DUP4 MSTORE SWAP2 PUSH1 0x20 ADD SWAP2 PUSH2 0x11FA JUMP JUMPDEST DUP3 ADD SWAP2 SWAP1 PUSH0 MSTORE PUSH1 0x20 PUSH0 KECCAK256 SWAP1 JUMPDEST DUP2 SLOAD DUP2 MSTORE SWAP1 PUSH1 0x1 ADD SWAP1 PUSH1 0x20 ADD DUP1 DUP4 GT PUSH2 0x11DD JUMPI DUP3 SWAP1 SUB PUSH1 0x1F AND DUP3 ADD SWAP2 JUMPDEST POP POP POP POP POP DUP2 MSTORE POP POP DUP3 DUP5 DUP2 MLOAD DUP2 LT PUSH2 0x1216 JUMPI PUSH2 0x1215 PUSH2 0x1D93 JUMP JUMPDEST JUMPDEST PUSH1 0x20 MUL PUSH1 0x20 ADD ADD DUP2 SWAP1 MSTORE POP DUP3 PUSH2 0x122B SWAP1 PUSH2 0x1DED JUMP JUMPDEST SWAP3 POP JUMPDEST DUP1 PUSH1 0x1 ADD SWAP1 POP PUSH2 0xED4 JUMP JUMPDEST POP DUP1 SWAP4 POP POP POP POP SWAP2 SWAP1 POP JUMP JUMPDEST PUSH1 0x60 PUSH0 DUP1 SLOAD DUP1 PUSH1 0x20 MUL PUSH1 0x20 ADD PUSH1 0x40 MLOAD SWAP1 DUP2 ADD PUSH1 0x40 MSTORE DUP1 SWAP3 SWAP2 SWAP1 DUP2 DUP2 MSTORE PUSH1 0x20 ADD PUSH0 SWAP1 JUMPDEST DUP3 DUP3 LT ISZERO PUSH2 0x1322 JUMPI DUP4 DUP3 SWAP1 PUSH0 MSTORE PUSH1 0x20 PUSH0 KECCAK256 ADD PUSH1 0x40 MLOAD DUP1 PUSH1 0x20 ADD PUSH1 0x40 MSTORE SWAP1 DUP2 PUSH0 DUP3 ADD DUP1 SLOAD PUSH2 0x1293 SWAP1 PUSH2 0x1AEE JUMP JUMPDEST DUP1 PUSH1 0x1F ADD PUSH1 0x20 DUP1 SWAP2 DIV MUL PUSH1 0x20 ADD PUSH1 0x40 MLOAD SWAP1 DUP2 ADD PUSH1 0x40 MSTORE DUP1 SWAP3 SWAP2 SWAP1 DUP2 DUP2 MSTORE PUSH1 0x20 ADD DUP3 DUP1 SLOAD PUSH2 0x12BF SWAP1 PUSH2 0x1AEE JUMP JUMPDEST DUP1 ISZERO PUSH2 0x130A JUMPI DUP1 PUSH1 0x1F LT PUSH2 0x12E1 JUMPI PUSH2 0x100 DUP1 DUP4 SLOAD DIV MUL DUP4 MSTORE SWAP2 PUSH1 0x20 ADD SWAP2 PUSH2 0x130A JUMP JUMPDEST DUP3 ADD SWAP2 SWAP1 PUSH0 MSTORE PUSH1 0x20 PUSH0 KECCAK256 SWAP1 JUMPDEST DUP2 SLOAD DUP2 MSTORE SWAP1 PUSH1 0x1 ADD SWAP1 PUSH1 0x20 ADD DUP1 DUP4 GT PUSH2 0x12ED JUMPI DUP3 SWAP1 SUB PUSH1 0x1F AND DUP3 ADD SWAP2 JUMPDEST POP POP POP POP POP DUP2 MSTORE POP POP DUP2 MSTORE PUSH1 0x20 ADD SWAP1 PUSH1 0x1 ADD SWAP1 PUSH2 0x1267 JUMP JUMPDEST POP POP POP POP SWAP1 POP SWAP1 JUMP JUMPDEST PUSH0 DUP2 PUSH1 0x40 MLOAD PUSH1 0x20 ADD PUSH2 0x133D SWAP2 SWAP1 PUSH2 0x1E6E JUMP JUMPDEST PUSH1 0x40 MLOAD PUSH1 0x20 DUP2 DUP4 SUB SUB DUP2 MSTORE SWAP1 PUSH1 0x40 MSTORE DUP1 MLOAD SWAP1 PUSH1 0x20 ADD KECCAK256 DUP4 PUSH1 0x40 MLOAD PUSH1 0x20 ADD PUSH2 0x1364 SWAP2 SWAP1 PUSH2 0x1E6E JUMP JUMPDEST PUSH1 0x40 MLOAD PUSH1 0x20 DUP2 DUP4 SUB SUB DUP2 MSTORE SWAP1 PUSH1 0x40 MSTORE DUP1 MLOAD SWAP1 PUSH1 0x20 ADD KECCAK256 EQ SWAP1 POP SWAP3 SWAP2 POP POP JUMP JUMPDEST PUSH1 0x40 MLOAD DUP1 PUSH1 0x80 ADD PUSH1 0x40 MSTORE DUP1 PUSH1 0x60 DUP2 MSTORE PUSH1 0x20 ADD PUSH1 0x60 DUP2 MSTORE PUSH1 0x20 ADD PUSH1 0x60 DUP2 MSTORE PUSH1 0x20 ADD PUSH1 0x60 DUP2 MSTORE POP SWAP1 JUMP JUMPDEST PUSH0 PUSH1 0x40 MLOAD SWAP1 POP SWAP1 JUMP JUMPDEST PUSH0 DUP1 REVERT JUMPDEST PUSH0 DUP1 REVERT JUMPDEST PUSH0 DUP1 REVERT JUMPDEST PUSH0 DUP1 REVERT JUMPDEST PUSH0 PUSH1 0x1F NOT PUSH1 0x1F DUP4 ADD AND SWAP1 POP SWAP2 SWAP1 POP JUMP JUMPDEST PUSH32 0x4E487B7100000000000000000000000000000000000000000000000000000000 PUSH0 MSTORE PUSH1 0x41 PUSH1 0x4 MSTORE PUSH1 0x24 PUSH0 REVERT JUMPDEST PUSH2 0x140A DUP3 PUSH2 0x13C4 JUMP JUMPDEST DUP2 ADD DUP2 DUP2 LT PUSH8 0xFFFFFFFFFFFFFFFF DUP3 GT OR ISZERO PUSH2 0x1429 JUMPI PUSH2 0x1428 PUSH2 0x13D4 JUMP JUMPDEST JUMPDEST DUP1 PUSH1 0x40 MSTORE POP POP POP JUMP JUMPDEST PUSH0 PUSH2 0x143B PUSH2 0x13AB JUMP JUMPDEST SWAP1 POP PUSH2 0x1447 DUP3 DUP3 PUSH2 0x1401 JUMP JUMPDEST SWAP2 SWAP1 POP JUMP JUMPDEST PUSH0 PUSH8 0xFFFFFFFFFFFFFFFF DUP3 GT ISZERO PUSH2 0x1466 JUMPI PUSH2 0x1465 PUSH2 0x13D4 JUMP JUMPDEST JUMPDEST PUSH2 0x146F DUP3 PUSH2 0x13C4 JUMP JUMPDEST SWAP1 POP PUSH1 0x20 DUP2 ADD SWAP1 POP SWAP2 SWAP1 POP JUMP JUMPDEST DUP3 DUP2 DUP4 CALLDATACOPY PUSH0 DUP4 DUP4 ADD MSTORE POP POP POP JUMP JUMPDEST PUSH0 PUSH2 0x149C PUSH2 0x1497 DUP5 PUSH2 0x144C JUMP JUMPDEST PUSH2 0x1432 JUMP JUMPDEST SWAP1 POP DUP3 DUP2 MSTORE PUSH1 0x20 DUP2 ADD DUP5 DUP5 DUP5 ADD GT ISZERO PUSH2 0x14B8 JUMPI PUSH2 0x14B7 PUSH2 0x13C0 JUMP JUMPDEST JUMPDEST PUSH2 0x14C3 DUP5 DUP3 DUP6 PUSH2 0x147C JUMP JUMPDEST POP SWAP4 SWAP3 POP POP POP JUMP JUMPDEST PUSH0 DUP3 PUSH1 0x1F DUP4 ADD SLT PUSH2 0x14DF JUMPI PUSH2 0x14DE PUSH2 0x13BC JUMP JUMPDEST JUMPDEST DUP2 CALLDATALOAD PUSH2 0x14EF DUP5 DUP3 PUSH1 0x20 DUP7 ADD PUSH2 0x148A JUMP JUMPDEST SWAP2 POP POP SWAP3 SWAP2 POP POP JUMP JUMPDEST PUSH0 DUP1 PUSH0 DUP1 PUSH1 0x80 DUP6 DUP8 SUB SLT ISZERO PUSH2 0x1510 JUMPI PUSH2 0x150F PUSH2 0x13B4 JUMP JUMPDEST JUMPDEST PUSH0 DUP6 ADD CALLDATALOAD PUSH8 0xFFFFFFFFFFFFFFFF DUP2 GT ISZERO PUSH2 0x152D JUMPI PUSH2 0x152C PUSH2 0x13B8 JUMP JUMPDEST JUMPDEST PUSH2 0x1539 DUP8 DUP3 DUP9 ADD PUSH2 0x14CB JUMP JUMPDEST SWAP5 POP POP PUSH1 0x20 DUP6 ADD CALLDATALOAD PUSH8 0xFFFFFFFFFFFFFFFF DUP2 GT ISZERO PUSH2 0x155A JUMPI PUSH2 0x1559 PUSH2 0x13B8 JUMP JUMPDEST JUMPDEST PUSH2 0x1566 DUP8 DUP3 DUP9 ADD PUSH2 0x14CB JUMP JUMPDEST SWAP4 POP POP PUSH1 0x40 DUP6 ADD CALLDATALOAD PUSH8 0xFFFFFFFFFFFFFFFF DUP2 GT ISZERO PUSH2 0x1587 JUMPI PUSH2 0x1586 PUSH2 0x13B8 JUMP JUMPDEST JUMPDEST PUSH2 0x1593 DUP8 DUP3 DUP9 ADD PUSH2 0x14CB JUMP JUMPDEST SWAP3 POP POP PUSH1 0x60 DUP6 ADD CALLDATALOAD PUSH8 0xFFFFFFFFFFFFFFFF DUP2 GT ISZERO PUSH2 0x15B4 JUMPI PUSH2 0x15B3 PUSH2 0x13B8 JUMP JUMPDEST JUMPDEST PUSH2 0x15C0 DUP8 DUP3 DUP9 ADD PUSH2 0x14CB JUMP JUMPDEST SWAP2 POP POP SWAP3 SWAP6 SWAP2 SWAP5 POP SWAP3 POP JUMP JUMPDEST PUSH0 PUSH1 0x20 DUP3 DUP5 SUB SLT ISZERO PUSH2 0x15E1 JUMPI PUSH2 0x15E0 PUSH2 0x13B4 JUMP JUMPDEST JUMPDEST PUSH0 DUP3 ADD CALLDATALOAD PUSH8 0xFFFFFFFFFFFFFFFF DUP2 GT ISZERO PUSH2 0x15FE JUMPI PUSH2 0x15FD PUSH2 0x13B8 JUMP JUMPDEST JUMPDEST PUSH2 0x160A DUP5 DUP3 DUP6 ADD PUSH2 0x14CB JUMP JUMPDEST SWAP2 POP POP SWAP3 SWAP2 POP POP JUMP JUMPDEST PUSH0 DUP2 ISZERO ISZERO SWAP1 POP SWAP2 SWAP1 POP JUMP JUMPDEST PUSH2 0x1627 DUP2 PUSH2 0x1613 JUMP JUMPDEST DUP3 MSTORE POP POP JUMP JUMPDEST PUSH0 PUSH1 0x20 DUP3 ADD SWAP1 POP PUSH2 0x1640 PUSH0 DUP4 ADD DUP5 PUSH2 0x161E JUMP JUMPDEST SWAP3 SWAP2 POP POP JUMP JUMPDEST PUSH0 DUP2 MLOAD SWAP1 POP SWAP2 SWAP1 POP JUMP JUMPDEST PUSH0 DUP3 DUP3 MSTORE PUSH1 0x20 DUP3 ADD SWAP1 POP SWAP3 SWAP2 POP POP JUMP JUMPDEST PUSH0 DUP2 SWAP1 POP PUSH1 0x20 DUP3 ADD SWAP1 POP SWAP2 SWAP1 POP JUMP JUMPDEST PUSH0 DUP2 MLOAD SWAP1 POP SWAP2 SWAP1 POP JUMP JUMPDEST PUSH0 DUP3 DUP3 MSTORE PUSH1 0x20 DUP3 ADD SWAP1 POP SWAP3 SWAP2 POP POP JUMP JUMPDEST PUSH0 JUMPDEST DUP4 DUP2 LT ISZERO PUSH2 0x16A6 JUMPI DUP1 DUP3 ADD MLOAD DUP2 DUP5 ADD MSTORE PUSH1 0x20 DUP2 ADD SWAP1 POP PUSH2 0x168B JUMP JUMPDEST PUSH0 DUP5 DUP5 ADD MSTORE POP POP POP POP JUMP JUMPDEST PUSH0 PUSH2 0x16BB DUP3 PUSH2 0x166F JUMP JUMPDEST PUSH2 0x16C5 DUP2 DUP6 PUSH2 0x1679 JUMP JUMPDEST SWAP4 POP PUSH2 0x16D5 DUP2 DUP6 PUSH1 0x20 DUP7 ADD PUSH2 0x1689 JUMP JUMPDEST PUSH2 0x16DE DUP2 PUSH2 0x13C4 JUMP JUMPDEST DUP5 ADD SWAP2 POP POP SWAP3 SWAP2 POP POP JUMP JUMPDEST PUSH0 PUSH1 0x80 DUP4 ADD PUSH0 DUP4 ADD MLOAD DUP5 DUP3 SUB PUSH0 DUP7 ADD MSTORE PUSH2 0x1703 DUP3 DUP3 PUSH2 0x16B1 JUMP JUMPDEST SWAP2 POP POP PUSH1 0x20 DUP4 ADD MLOAD DUP5 DUP3 SUB PUSH1 0x20 DUP7 ADD MSTORE PUSH2 0x171D DUP3 DUP3 PUSH2 0x16B1 JUMP JUMPDEST SWAP2 POP POP PUSH1 0x40 DUP4 ADD MLOAD DUP5 DUP3 SUB PUSH1 0x40 DUP7 ADD MSTORE PUSH2 0x1737 DUP3 DUP3 PUSH2 0x16B1 JUMP JUMPDEST SWAP2 POP POP PUSH1 0x60 DUP4 ADD MLOAD DUP5 DUP3 SUB PUSH1 0x60 DUP7 ADD MSTORE PUSH2 0x1751 DUP3 DUP3 PUSH2 0x16B1 JUMP JUMPDEST SWAP2 POP POP DUP1 SWAP2 POP POP SWAP3 SWAP2 POP POP JUMP JUMPDEST PUSH0 PUSH2 0x1769 DUP4 DUP4 PUSH2 0x16E9 JUMP JUMPDEST SWAP1 POP SWAP3 SWAP2 POP POP JUMP JUMPDEST PUSH0 PUSH1 0x20 DUP3 ADD SWAP1 POP SWAP2 SWAP1 POP JUMP JUMPDEST PUSH0 PUSH2 0x1787 DUP3 PUSH2 0x1646 JUMP JUMPDEST PUSH2 0x1791 DUP2 DUP6 PUSH2 0x1650 JUMP JUMPDEST SWAP4 POP DUP4 PUSH1 0x20 DUP3 MUL DUP6 ADD PUSH2 0x17A3 DUP6 PUSH2 0x1660 JUMP JUMPDEST DUP1 PUSH0 JUMPDEST DUP6 DUP2 LT ISZERO PUSH2 0x17DE JUMPI DUP5 DUP5 SUB DUP10 MSTORE DUP2 MLOAD PUSH2 0x17BF DUP6 DUP3 PUSH2 0x175E JUMP JUMPDEST SWAP5 POP PUSH2 0x17CA DUP4 PUSH2 0x1771 JUMP JUMPDEST SWAP3 POP PUSH1 0x20 DUP11 ADD SWAP10 POP POP PUSH1 0x1 DUP2 ADD SWAP1 POP PUSH2 0x17A6 JUMP JUMPDEST POP DUP3 SWAP8 POP DUP8 SWAP6 POP POP POP POP POP POP SWAP3 SWAP2 POP POP JUMP JUMPDEST PUSH0 PUSH1 0x20 DUP3 ADD SWAP1 POP DUP2 DUP2 SUB PUSH0 DUP4 ADD MSTORE PUSH2 0x1808 DUP2 DUP5 PUSH2 0x177D JUMP JUMPDEST SWAP1 POP SWAP3 SWAP2 POP POP JUMP JUMPDEST PUSH0 DUP1 PUSH1 0x40 DUP4 DUP6 SUB SLT ISZERO PUSH2 0x1826 JUMPI PUSH2 0x1825 PUSH2 0x13B4 JUMP JUMPDEST JUMPDEST PUSH0 DUP4 ADD CALLDATALOAD PUSH8 0xFFFFFFFFFFFFFFFF DUP2 GT ISZERO PUSH2 0x1843 JUMPI PUSH2 0x1842 PUSH2 0x13B8 JUMP JUMPDEST JUMPDEST PUSH2 0x184F DUP6 DUP3 DUP7 ADD PUSH2 0x14CB JUMP JUMPDEST SWAP3 POP POP PUSH1 0x20 DUP4 ADD CALLDATALOAD PUSH8 0xFFFFFFFFFFFFFFFF DUP2 GT ISZERO PUSH2 0x1870 JUMPI PUSH2 0x186F PUSH2 0x13B8 JUMP JUMPDEST JUMPDEST PUSH2 0x187C DUP6 DUP3 DUP7 ADD PUSH2 0x14CB JUMP JUMPDEST SWAP2 POP POP SWAP3 POP SWAP3 SWAP1 POP JUMP JUMPDEST PUSH0 DUP1 PUSH0 PUSH1 0x60 DUP5 DUP7 SUB SLT ISZERO PUSH2 0x189D JUMPI PUSH2 0x189C PUSH2 0x13B4 JUMP JUMPDEST JUMPDEST PUSH0 DUP5 ADD CALLDATALOAD PUSH8 0xFFFFFFFFFFFFFFFF DUP2 GT ISZERO PUSH2 0x18BA JUMPI PUSH2 0x18B9 PUSH2 0x13B8 JUMP JUMPDEST JUMPDEST PUSH2 0x18C6 DUP7 DUP3 DUP8 ADD PUSH2 0x14CB JUMP JUMPDEST SWAP4 POP POP PUSH1 0x20 DUP5 ADD CALLDATALOAD PUSH8 0xFFFFFFFFFFFFFFFF DUP2 GT ISZERO PUSH2 0x18E7 JUMPI PUSH2 0x18E6 PUSH2 0x13B8 JUMP JUMPDEST JUMPDEST PUSH2 0x18F3 DUP7 DUP3 DUP8 ADD PUSH2 0x14CB JUMP JUMPDEST SWAP3 POP POP PUSH1 0x40 DUP5 ADD CALLDATALOAD PUSH8 0xFFFFFFFFFFFFFFFF DUP2 GT ISZERO PUSH2 0x1914 JUMPI PUSH2 0x1913 PUSH2 0x13B8 JUMP JUMPDEST JUMPDEST PUSH2 0x1920 DUP7 DUP3 DUP8 ADD PUSH2 0x14CB JUMP JUMPDEST SWAP2 POP POP SWAP3 POP SWAP3 POP SWAP3 JUMP JUMPDEST PUSH0 PUSH1 0x80 DUP4 ADD PUSH0 DUP4 ADD MLOAD DUP5 DUP3 SUB PUSH0 DUP7 ADD MSTORE PUSH2 0x1944 DUP3 DUP3 PUSH2 0x16B1 JUMP JUMPDEST SWAP2 POP POP PUSH1 0x20 DUP4 ADD MLOAD DUP5 DUP3 SUB PUSH1 0x20 DUP7 ADD MSTORE PUSH2 0x195E DUP3 DUP3 PUSH2 0x16B1 JUMP JUMPDEST SWAP2 POP POP PUSH1 0x40 DUP4 ADD MLOAD DUP5 DUP3 SUB PUSH1 0x40 DUP7 ADD MSTORE PUSH2 0x1978 DUP3 DUP3 PUSH2 0x16B1 JUMP JUMPDEST SWAP2 POP POP PUSH1 0x60 DUP4 ADD MLOAD DUP5 DUP3 SUB PUSH1 0x60 DUP7 ADD MSTORE PUSH2 0x1992 DUP3 DUP3 PUSH2 0x16B1 JUMP JUMPDEST SWAP2 POP POP DUP1 SWAP2 POP POP SWAP3 SWAP2 POP POP JUMP JUMPDEST PUSH0 PUSH1 0x20 DUP3 ADD SWAP1 POP DUP2 DUP2 SUB PUSH0 DUP4 ADD MSTORE PUSH2 0x19B7 DUP2 DUP5 PUSH2 0x192A JUMP JUMPDEST SWAP1 POP SWAP3 SWAP2 POP POP JUMP JUMPDEST PUSH0 DUP2 MLOAD SWAP1 POP SWAP2 SWAP1 POP JUMP JUMPDEST PUSH0 DUP3 DUP3 MSTORE PUSH1 0x20 DUP3 ADD SWAP1 POP SWAP3 SWAP2 POP POP JUMP JUMPDEST PUSH0 DUP2 SWAP1 POP PUSH1 0x20 DUP3 ADD SWAP1 POP SWAP2 SWAP1 POP JUMP JUMPDEST PUSH0 PUSH1 0x20 DUP4 ADD PUSH0 DUP4 ADD MLOAD DUP5 DUP3 SUB PUSH0 DUP7 ADD MSTORE PUSH2 0x1A02 DUP3 DUP3 PUSH2 0x16B1 JUMP JUMPDEST SWAP2 POP POP DUP1 SWAP2 POP POP SWAP3 SWAP2 POP POP JUMP JUMPDEST PUSH0 PUSH2 0x1A1A DUP4 DUP4 PUSH2 0x19E8 JUMP JUMPDEST SWAP1 POP SWAP3 SWAP2 POP POP JUMP JUMPDEST PUSH0 PUSH1 0x20 DUP3 ADD SWAP1 POP SWAP2 SWAP1 POP JUMP JUMPDEST PUSH0 PUSH2 0x1A38 DUP3 PUSH2 0x19BF JUMP JUMPDEST PUSH2 0x1A42 DUP2 DUP6 PUSH2 0x19C9 JUMP JUMPDEST SWAP4 POP DUP4 PUSH1 0x20 DUP3 MUL DUP6 ADD PUSH2 0x1A54 DUP6 PUSH2 0x19D9 JUMP JUMPDEST DUP1 PUSH0 JUMPDEST DUP6 DUP2 LT ISZERO PUSH2 0x1A8F JUMPI DUP5 DUP5 SUB DUP10 MSTORE DUP2 MLOAD PUSH2 0x1A70 DUP6 DUP3 PUSH2 0x1A0F JUMP JUMPDEST SWAP5 POP PUSH2 0x1A7B DUP4 PUSH2 0x1A22 JUMP JUMPDEST SWAP3 POP PUSH1 0x20 DUP11 ADD SWAP10 POP POP PUSH1 0x1 DUP2 ADD SWAP1 POP PUSH2 0x1A57 JUMP JUMPDEST POP DUP3 SWAP8 POP DUP8 SWAP6 POP POP POP POP POP POP SWAP3 SWAP2 POP POP JUMP JUMPDEST PUSH0 PUSH1 0x20 DUP3 ADD SWAP1 POP DUP2 DUP2 SUB PUSH0 DUP4 ADD MSTORE PUSH2 0x1AB9 DUP2 DUP5 PUSH2 0x1A2E JUMP JUMPDEST SWAP1 POP SWAP3 SWAP2 POP POP JUMP JUMPDEST PUSH32 0x4E487B7100000000000000000000000000000000000000000000000000000000 PUSH0 MSTORE PUSH1 0x22 PUSH1 0x4 MSTORE PUSH1 0x24 PUSH0 REVERT JUMPDEST PUSH0 PUSH1 0x2 DUP3 DIV SWAP1 POP PUSH1 0x1 DUP3 AND DUP1 PUSH2 0x1B05 JUMPI PUSH1 0x7F DUP3 AND SWAP2 POP JUMPDEST PUSH1 0x20 DUP3 LT DUP2 SUB PUSH2 0x1B18 JUMPI PUSH2 0x1B17 PUSH2 0x1AC1 JUMP JUMPDEST JUMPDEST POP SWAP2 SWAP1 POP JUMP JUMPDEST PUSH0 DUP2 SWAP1 POP DUP2 PUSH0 MSTORE PUSH1 0x20 PUSH0 KECCAK256 SWAP1 POP SWAP2 SWAP1 POP JUMP JUMPDEST PUSH0 PUSH1 0x20 PUSH1 0x1F DUP4 ADD DIV SWAP1 POP SWAP2 SWAP1 POP JUMP JUMPDEST PUSH0 DUP3 DUP3 SHL SWAP1 POP SWAP3 SWAP2 POP POP JUMP JUMPDEST PUSH0 PUSH1 0x8 DUP4 MUL PUSH2 0x1B7A PUSH32 0xFFFFFFFFFFFFFFFFFFFFFFFFFFFFFFFFFFFFFFFFFFFFFFFFFFFFFFFFFFFFFFFF DUP3 PUSH2 0x1B3F JUMP JUMPDEST PUSH2 0x1B84 DUP7 DUP4 PUSH2 0x1B3F JUMP JUMPDEST SWAP6 POP DUP1 NOT DUP5 AND SWAP4 POP DUP1 DUP7 AND DUP5 OR SWAP3 POP POP POP SWAP4 SWAP3 POP POP POP JUMP JUMPDEST PUSH0 DUP2 SWAP1 POP SWAP2 SWAP1 POP JUMP JUMPDEST PUSH0 DUP2 SWAP1 POP SWAP2 SWAP1 POP JUMP JUMPDEST PUSH0 PUSH2 0x1BC8 PUSH2 0x1BC3 PUSH2 0x1BBE DUP5 PUSH2 0x1B9C JUMP JUMPDEST PUSH2 0x1BA5 JUMP JUMPDEST PUSH2 0x1B9C JUMP JUMPDEST SWAP1 POP SWAP2 SWAP1 POP JUMP JUMPDEST PUSH0 DUP2 SWAP1 POP SWAP2 SWAP1 POP JUMP JUMPDEST PUSH2 0x1BE1 DUP4 PUSH2 0x1BAE JUMP JUMPDEST PUSH2 0x1BF5 PUSH2 0x1BED DUP3 PUSH2 0x1BCF JUMP JUMPDEST DUP5 DUP5 SLOAD PUSH2 0x1B4B JUMP JUMPDEST DUP3 SSTORE POP POP POP POP JUMP JUMPDEST PUSH0 SWAP1 JUMP JUMPDEST PUSH2 0x1C09 PUSH2 0x1BFD JUMP JUMPDEST PUSH2 0x1C14 DUP2 DUP5 DUP5 PUSH2 0x1BD8 JUMP JUMPDEST POP POP POP JUMP JUMPDEST JUMPDEST DUP2 DUP2 LT ISZERO PUSH2 0x1C37 JUMPI PUSH2 0x1C2C PUSH0 DUP3 PUSH2 0x1C01 JUMP JUMPDEST PUSH1 0x1 DUP2 ADD SWAP1 POP PUSH2 0x1C1A JUMP JUMPDEST POP POP JUMP JUMPDEST PUSH1 0x1F DUP3 GT ISZERO PUSH2 0x1C7C JUMPI PUSH2 0x1C4D DUP2 PUSH2 0x1B1E JUMP JUMPDEST PUSH2 0x1C56 DUP5 PUSH2 0x1B30 JUMP JUMPDEST DUP2 ADD PUSH1 0x20 DUP6 LT ISZERO PUSH2 0x1C65 JUMPI DUP2 SWAP1 POP JUMPDEST PUSH2 0x1C79 PUSH2 0x1C71 DUP6 PUSH2 0x1B30 JUMP JUMPDEST DUP4 ADD DUP3 PUSH2 0x1C19 JUMP JUMPDEST POP POP JUMPDEST POP POP POP JUMP JUMPDEST PUSH0 DUP3 DUP3 SHR SWAP1 POP SWAP3 SWAP2 POP POP JUMP JUMPDEST PUSH0 PUSH2 0x1C9C PUSH0 NOT DUP5 PUSH1 0x8 MUL PUSH2 0x1C81 JUMP JUMPDEST NOT DUP1 DUP4 AND SWAP2 POP POP SWAP3 SWAP2 POP POP JUMP JUMPDEST PUSH0 PUSH2 0x1CB4 DUP4 DUP4 PUSH2 0x1C8D JUMP JUMPDEST SWAP2 POP DUP3 PUSH1 0x2 MUL DUP3 OR SWAP1 POP SWAP3 SWAP2 POP POP JUMP JUMPDEST PUSH2 0x1CCD DUP3 PUSH2 0x166F JUMP JUMPDEST PUSH8 0xFFFFFFFFFFFFFFFF DUP2 GT ISZERO PUSH2 0x1CE6 JUMPI PUSH2 0x1CE5 PUSH2 0x13D4 JUMP JUMPDEST JUMPDEST PUSH2 0x1CF0 DUP3 SLOAD PUSH2 0x1AEE JUMP JUMPDEST PUSH2 0x1CFB DUP3 DUP3 DUP6 PUSH2 0x1C3B JUMP JUMPDEST PUSH0 PUSH1 0x20 SWAP1 POP PUSH1 0x1F DUP4 GT PUSH1 0x1 DUP2 EQ PUSH2 0x1D2C JUMPI PUSH0 DUP5 ISZERO PUSH2 0x1D1A JUMPI DUP3 DUP8 ADD MLOAD SWAP1 POP JUMPDEST PUSH2 0x1D24 DUP6 DUP3 PUSH2 0x1CA9 JUMP JUMPDEST DUP7 SSTORE POP PUSH2 0x1D8B JUMP JUMPDEST PUSH1 0x1F NOT DUP5 AND PUSH2 0x1D3A DUP7 PUSH2 0x1B1E JUMP JUMPDEST PUSH0 JUMPDEST DUP3 DUP2 LT ISZERO PUSH2 0x1D61 JUMPI DUP5 DUP10 ADD MLOAD DUP3 SSTORE PUSH1 0x1 DUP3 ADD SWAP2 POP PUSH1 0x20 DUP6 ADD SWAP5 POP PUSH1 0x20 DUP2 ADD SWAP1 POP PUSH2 0x1D3C JUMP JUMPDEST DUP7 DUP4 LT ISZERO PUSH2 0x1D7E JUMPI DUP5 DUP10 ADD MLOAD PUSH2 0x1D7A PUSH1 0x1F DUP10 AND DUP3 PUSH2 0x1C8D JUMP JUMPDEST DUP4 SSTORE POP JUMPDEST PUSH1 0x1 PUSH1 0x2 DUP9 MUL ADD DUP9 SSTORE POP POP POP JUMPDEST POP POP POP POP POP POP JUMP JUMPDEST PUSH32 0x4E487B7100000000000000000000000000000000000000000000000000000000 PUSH0 MSTORE PUSH1 0x32 PUSH1 0x4 MSTORE PUSH1 0x24 PUSH0 REVERT JUMPDEST PUSH32 0x4E487B7100000000000000000000000000000000000000000000000000000000 PUSH0 MSTORE PUSH1 0x11 PUSH1 0x4 MSTORE PUSH1 0x24 PUSH0 REVERT JUMPDEST PUSH0 PUSH2 0x1DF7 DUP3 PUSH2 0x1B9C JUMP JUMPDEST SWAP2 POP PUSH32 0xFFFFFFFFFFFFFFFFFFFFFFFFFFFFFFFFFFFFFFFFFFFFFFFFFFFFFFFFFFFFFFFF DUP3 SUB PUSH2 0x1E29 JUMPI PUSH2 0x1E28 PUSH2 0x1DC0 JUMP JUMPDEST JUMPDEST PUSH1 0x1 DUP3 ADD SWAP1 POP SWAP2 SWAP1 POP JUMP JUMPDEST PUSH0 DUP2 SWAP1 POP SWAP3 SWAP2 POP POP JUMP JUMPDEST PUSH0 PUSH2 0x1E48 DUP3 PUSH2 0x166F JUMP JUMPDEST PUSH2 0x1E52 DUP2 DUP6 PUSH2 0x1E34 JUMP JUMPDEST SWAP4 POP PUSH2 0x1E62 DUP2 DUP6 PUSH1 0x20 DUP7 ADD PUSH2 0x1689 JUMP JUMPDEST DUP1 DUP5 ADD SWAP2 POP POP SWAP3 SWAP2 POP POP JUMP JUMPDEST PUSH0 PUSH2 0x1E79 DUP3 DUP5 PUSH2 0x1E3E JUMP JUMPDEST SWAP2 POP DUP2 SWAP1 POP SWAP3 SWAP2 POP POP JUMP INVALID LOG2 PUSH5 0x6970667358 0x22 SLT KECCAK256 0xE9 EXTCODEHASH 0xA9 CALLCODE 0x21 0x5E 0x21 0xD4 NUMBER 0xF DUP9 0xDE 0xCD BALANCE GASPRICE EXP JUMP 0xAE PUSH18 0xE67F457A1C0E10FBB57DC1956264736F6C63 NUMBER STOP ADDMOD AND STOP CALLER "
				},
				"gasEstimates": {
					"creation": {
						"codeDepositCost": "1573200",
						"executionCost": "1643",
						"totalCost": "1574843"
					},
					"external": {
						"changeSubreddit(string,string)": "infinite",
						"createPost(string,string,string,string)": "infinite",
						"createSubreddit(string)": "infinite",
						"getPost(string)": "infinite",
						"getPosts()": "infinite",
						"getPostsInSubreddit(string)": "infinite",
						"getSubreddits()": "infinite",
						"modifyPost(string,string,string)": "infinite",
						"verifyPost(string)": "infinite",
						"verifySubreddit(string)": "infinite"
					},
					"internal": {
						"compare(string memory,string memory)": "infinite"
					}
				},
				"methodIdentifiers": {
					"changeSubreddit(string,string)": "76da2b9d",
					"createPost(string,string,string,string)": "0d57f91f",
					"createSubreddit(string)": "36c15e3a",
					"getPost(string)": "df4a259b",
					"getPosts()": "41f3004a",
					"getPostsInSubreddit(string)": "ef3172af",
					"getSubreddits()": "fd0d81b9",
					"modifyPost(string,string,string)": "9cb4bcb4",
					"verifyPost(string)": "3d86da47",
					"verifySubreddit(string)": "b0ce76a0"
				}
			},
			"storageLayout": {
				"storage": [
					{
						"astId": 42,
						"contract": "contracts/WeirdReddit.sol:WeirdReddit",
						"label": "subreddits",
						"offset": 0,
						"slot": "0",
						"type": "t_array(t_struct(Subreddit)29_storage)dyn_storage"
					},
					{
						"astId": 46,
						"contract": "contracts/WeirdReddit.sol:WeirdReddit",
						"label": "posts",
						"offset": 0,
						"slot": "1",
						"type": "t_array(t_struct(Post)38_storage)dyn_storage"
					}
				],
				"types": {
					"t_array(t_struct(Post)38_storage)dyn_storage": {
						"base": "t_struct(Post)38_storage",
						"encoding": "dynamic_array",
						"label": "struct WeirdReddit.Post[]",
						"numberOfBytes": "32"
					},
					"t_array(t_struct(Subreddit)29_storage)dyn_storage": {
						"base": "t_struct(Subreddit)29_storage",
						"encoding": "dynamic_array",
						"label": "struct WeirdReddit.Subreddit[]",
						"numberOfBytes": "32"
					},
					"t_string_storage": {
						"encoding": "bytes",
						"label": "string",
						"numberOfBytes": "32"
					},
					"t_struct(Post)38_storage": {
						"encoding": "inplace",
						"label": "struct WeirdReddit.Post",
						"members": [
							{
								"astId": 31,
								"contract": "contracts/WeirdReddit.sol:WeirdReddit",
								"label": "id",
								"offset": 0,
								"slot": "0",
								"type": "t_string_storage"
							},
							{
								"astId": 33,
								"contract": "contracts/WeirdReddit.sol:WeirdReddit",
								"label": "subredditName",
								"offset": 0,
								"slot": "1",
								"type": "t_string_storage"
							},
							{
								"astId": 35,
								"contract": "contracts/WeirdReddit.sol:WeirdReddit",
								"label": "title",
								"offset": 0,
								"slot": "2",
								"type": "t_string_storage"
							},
							{
								"astId": 37,
								"contract": "contracts/WeirdReddit.sol:WeirdReddit",
								"label": "content",
								"offset": 0,
								"slot": "3",
								"type": "t_string_storage"
							}
						],
						"numberOfBytes": "128"
					},
					"t_struct(Subreddit)29_storage": {
						"encoding": "inplace",
						"label": "struct WeirdReddit.Subreddit",
						"members": [
							{
								"astId": 28,
								"contract": "contracts/WeirdReddit.sol:WeirdReddit",
								"label": "subredditName",
								"offset": 0,
								"slot": "0",
								"type": "t_string_storage"
							}
						],
						"numberOfBytes": "32"
					}
				}
			},
			"userdoc": {
				"kind": "user",
				"methods": {},
				"version": 1
			}
		}
	}
}